:020000040800F2
:10000000280B00209D010008453A0008173300081E
:10001000F136000815110008F94C00080000000036
:10002000000000000000000000000000CD450008B6
:10003000BD11000800000000093F00080547000846
:10004000B7010008B7010008B7010008B7010008B0
:10005000B7010008B7010008B7010008BF11000888
:10006000B7010008B7010008B7010008B701000890
:10007000B7010008B7010008B7010008B701000880
:10008000B7010008B7010008B7010008B701000870
:1000900055110008B7010008B7010008B7010008B2
:1000A000B7010008B7010008B7010008B701000850
:1000B000614800086D480008B7010008B701000852
:1000C000B7010008B7010008B7010008B701000830
:1000D000B7010008B7010008D54C0008B7010008B7
:1000E000B7010008B7010008B7010008B701000810
:1000F000B7010008B7010008B7010008B701000800
:10010000B7010008B7010008B7010008B7010008EF
:10011000B7010008B701000879480008B7010008D6
:10012000B7010008B7010008B7010008B7010008CF
:10013000B70100080000000000000000B70100083F
:10014000B7010008B7010008B7010008B7010008AF
:10015000B7010008B7010008B7010008B70100089F
:10016000B7010008B7010008B7010008B70100088F
:10017000B7010008B70100080000000000000000FF
:10018000B7010008B7010008DFF80CD000F06CFDE3
:1001900000480047AD4D0008280B00200648804766
:1001A00006480047FEE7FEE7FEE7FEE7FEE7FEE75C
:1001B000FEE7FEE7FEE7FEE7514800088901000878
:1001C0002DE9F05F0546002092469B46884606468C
:1001D000814640241BE0284641464746224600F01F
:1001E00058FC53465A46C01A914110D3114618463E
:1001F000224600F03FFC2D1A67EB01084F462246CD
:100200000120002100F036FC17EB00094E41201EB2
:10021000A4F10104DFDC484631462A464346BDE8E6
:10022000F09FD2B201E000F8012B491EFBD27047CB
:100230000022F6E710B513460A4604461946FFF7B2
:10024000F0FF204610BD00000FB400B58DB010A91E
:1002500009900B9000914FF0FF300A9000200C9015
:1002600005480690054807906A4609A80F9900F0CE
:1002700047FC0DB05DF814FB1D0B00083B0B00089C
:100280002DE9FF5F1D464FF0FF3BD5E90146914642
:100290005F464FF00008A9697F1C01988847296ACA
:1002A000824688470028F6D1BAF1FF3F0CD024F4EB
:1002B000C064002E19DD600614D5BAF12B0F09D0E9
:1002C000BAF12D0F0ED103E0584604B0BDE8F09FFF
:1002D00044F48064A9697F1C01988847761E824691
:1002E000002E02DDBAF1300F03D0B9F1000F26D095
:1002F00032E0A969761E44F400747F1C0198884797
:100300008246002E05DDBAF1780F06D0BAF1580FFB
:1003100003D0B9F1000F10D01EE0B9F1000F02D0E8
:10032000B9F1100F18D1A969761E24F400747F1C4E
:10033000019888478246102002E0082000E00A2049
:10034000814609E008FB0908A969761E44F4007497
:100350007F1C019888478246002E05DD494650469D
:1003600000F0B9FB0028EDDAE96901988847A0059B
:1003700002D46FF00100A8E7E00725D1600613D58D
:10038000600502D5C8F1000000E0404629680A1D5A
:100390002A600968220501D5087015E0220701D5F9
:1003A000088011E008600FE02868011D29600068DE
:1003B000210502D580F8008006E0210702D5A0F8CB
:1003C000008001E0C0F8008038467EE72DE9FF4F4D
:1003D000087881B09946FF2805D0491C2D2804D003
:1003E0000024002308E000230BE00124F9E703EBDD
:1003F000830300EB4303491C0878FF28F7D104B1BD
:100400005B4200200090147801462D2C01D02B2C4B
:1004100004D1521C2D2C12D00024009400251678F3
:10042000FF2E0ED00A24A0FB04C801FB0481002784
:1004300000FB0711521C16EB0C006941EFE7012489
:10044000EBE7994450EA01020ED00024AA4D26465B
:10045000DFF8A88200F0DFFB82468B46B9F100008E
:1004600009DAC9F100071BE001980021C0E9001179
:1004700005B0BDE8F08F074612E0F80707D0224626
:100480002B463046414600F0E4F9064688462246AF
:100490002B461046194600F0DCF904460D467F1045
:1004A000002FEAD1B9F1000F324643465046594673
:1004B00002DA00F040FA01E000F0CBF9009A0AB14C
:1004C00081F00041019AC2E90001D1E72DE9FF4F17
:1004D0001F468DB0D7E901464FF0FF382E20454624
:1004E0004FF000090B90B9696D1C0E988847396A66
:1004F000824688470028F6D1BAF1FF3F0AD024F49B
:10050000D064002E11DDBAF12B0F08D0BAF12D0FF7
:100510000BD102E0404611B0ABE744F48064B96906
:100520006D1C0E9888478246761E6946600501D587
:100530002D2000E02B208DF8000001F1010B0DF1C2
:10054000200809E0B9696D1C0E98884782460F980B
:1005500044F40074761E0560002E02DDBAF1300FFF
:10056000F0D00B998A453ED144F0800406E00F9903
:10057000681CA9F1010944F400740860B9696D1C94
:10058000761E0E98884782463028F0D02BE00B99D3
:100590008A4505D1200603D444F08004761E18E075
:1005A000504604F0C9FB08B30DF11301761E44F464
:1005B00000748B4508D2AAF130000BF8010B20061D
:1005C00007D5A9F1010003E0200602D409F10100DA
:1005D0008146A00502D50F99681C0860B9696D1C99
:1005E0000E9888478246002ED1DC53E0002E51DD64
:1005F000BAF1650F02D0BAF1450F4BD1A00549D52C
:10060000B9696D1C24F44074761E0E9888478246A2
:10061000002E0CDD2B2804D0BAF12D0F07D144F4A5
:100620008074B9696D1C0E9888478246761EE00575
:1006300001D52D2100E02B2108F8011BCDF82C80DD
:1006400021E00DF12901761E44F4007488450CD296
:10065000AAF1300010F0FF0088F8000002D10B99D9
:10066000884509D908F1010806E0E00501D52448CC
:1006700001E042F20F708146B9696D1C0E988847FF
:1006800082460F980560002E04DD504604F054FBAE
:100690000028D6D1F9690E988847FF208BF8000012
:1006A00088F800000020069007904B466A4608A98B
:1006B00006A8FFF78BFEA00502D46FF001002AE721
:1006C00014F0240F0AD0E00714D1DDE906123868CF
:1006D000031D3B600068C0E900120BE0DDE9060184
:1006E00000F0A5FA0146E00704D13868021D3A601F
:1006F0000068016028460EE7000024400000F03F3B
:10070000F1D8FFFF2DE9FE4F804681EA0300C00FBC
:100710000C46009021F0004123F00045B8EB0200A8
:10072000A94105D24046214690461C460B4602464A
:1007300023F00040104347D0270DC7F30A00C3F34E
:100740000A510290401A019040286BDAC3F313005B
:1007500040F4801B0098924620B10023D2EB030A9C
:1007600063EB0B0B01985946C0F14002504600F074
:1007700081F906460D4650465946019A00F099F90E
:1007800010EB08006141002487EA115284EAE77304
:100790001A4340D0009A62B3019A012A4FEA0752E5
:1007A00015DC001B61EB02014FF0004202EA075228
:1007B000CDE90042001C41F5801132462B4600F085
:1007C000DCF903B0BDE8F08F40462146F9E7001B95
:1007D00061EB0201001C41F5801300185B412018F9
:1007E000A2F5001747EB030140EAD570B6196D4139
:1007F00011E06D084FEA360645EAC0754FEA075228
:10080000001B61EB0201001C41F5801149084FEA11
:1008100030000019514132462B4603B0BDE8F04F7D
:1008200000F09CB90098012240000023D0EB0202A6
:1008300063EBE073009821464FEAE074B8EB0000E8
:1008400061EB0401E9E783F000435BE781F00041DD
:1008500058E72DE9FE4F81EA030404F0004421F03B
:10086000004100944FF0000B23F0004350EA0104D4
:100870005ED052EA03045BD0C3F30A54C1F30A55B5
:100880002C44A4F2F3340194A0FB0254C1F31301ED
:1008900041F48011C3F3130343F4801301FB0244BA
:1008A00000FB034E840A970A44EA815447EA8357BF
:1008B000A4FB076802958D0A05FB07854FEA932C78
:1008C00004FB0C542705029D4FEA065847EA1637E9
:1008D000B5EB08056EEB070C870E920E47EA811701
:1008E00042EA8312A7FB0201B6EB0B0164EB0004A2
:1008F0002B0D43EA0C335E1844EB1C50DA4651468C
:10090000E7FB0201C5F313044FEA0B3343EA145328
:100910004FEA0432019C43EA0603A4F10C0402945A
:10092000009CCDE900B400F028F903B0BDE8F08FD9
:1009300000200146F9E72DE9F04D81EA030404F0B7
:10094000004B21F0004514464FF0000A23F000410F
:1009500050EA050220D054EA01021DD0C5F30A571F
:100960000246C5F31303C1F31300C1F30A5640F462
:10097000801543F48013A7EB0608101BD64608F237
:10098000FD3873EB050002D308F1010801E092186D
:100990005B41B8F1000F03DA00200146BDE8F08D9D
:1009A00000204FF48011064684460EE0171B73EBBF
:1009B000050705D3121B63EB050306434CEA010C44
:1009C00049084FEA300092185B4150EA0107EDD127
:1009D00052EA030012D082EA040083EA05010843C8
:1009E00005D0101BAB4106D20122002306E00022F5
:1009F0004FF0004302E06FF0010253101AEB0600C3
:100A00004CEB085110EB0A0041EB0B01BDE8F04D37
:100A100000F0A4B80EB5C10F80EAE0700844CA0720
:100A2000002140F233438DE80E000A460B4600F0E9
:100A3000A4F803B000BD70B5C1F30A5201F000453F
:100A40000024C1F3130140F2FF3341F480119A42B4
:100A500001DA002070BD40F233439A42A2F23342E1
:100A600003DC524200F015F800E090402C43F1D036
:100A7000404270BD202A04DB203A00FA02F1002037
:100A800070479140C2F1200320FA03F319439040CC
:100A90007047202A04DB203A21FA02F00021704737
:100AA00021FA02F3D040C2F12002914008431946D6
:100AB0007047202A06DBCB17203A41FA02F043EABE
:100AC000E07306E041FA02F3D040C2F12002914007
:100AD0000843194670473A2800D2303820F02002E7
:100AE000412A01D3A2F13700884201D34FF0FF30F1
:100AF000704700000268114413780160184670477F
:100B0000D16004495161044911620021116111460B
:100B100000F0C2B8F50A00088D0C0008426842B126
:100B2000016811F8013B23B1521EC0E900121846BA
:100B300070470121C160881E704742685AB1C3687E
:100B4000016843B983688B4205D0491E521CC0E935
:100B50000012002070474FF0FF30704710B5141E90
:100B600073F1000408DA401C41F1000192185B4166
:100B70001A4301D120F0010010BD2DE9F04D92463D
:100B80009B4611B1B1FA81F202E0B0FA80F2203254
:100B90009046FFF76FFF04460F4640EA0A0041EA1D
:100BA0000B0153465A46084313D0114653EA01003D
:100BB00019D0C8F140025046FFF76BFF05460E46BC
:100BC000504659464246FFF755FF084305D00120DD
:100BD00004E020463946BDE8F08D0020054346EA92
:100BE000E0762C4337430A986305E40AA0EB08003B
:100BF0000022FD0A44EA47540A3002D5002001468B
:100C0000E9E7010510196941DDE908450019694165
:100C1000BDE8F04DA2E70EB540F233420292002249
:100C2000CDE900221346FFF7A8FF03B000BD01F095
:100C3000004330B421F0004150EA010206D00A0D11
:100C4000A2F56072C1F31301002A02DC30BC00205F
:100C50007047440F44EAC104C100E01830BC00EB07
:100C6000C25000F0AFB90000064C074D06E0E06846
:100C700040F0010394E8070098471034AC42F6D3E3
:100C8000FFF786FA3052000850520008C0B24FF405
:100C9000F05100F0CFB900002DE9F34F8BB04FF0C9
:100CA000000801F10C000C464FF0010B46460DF117
:100CB000080A0190626901210198904705002DD032
:100CC000252D2CD0216A8847C0B162690121019885
:100CD0009047216A88470028F7D1411E6269019830
:100CE000904700E0761CA1690B988847216A8847E5
:100CF0000028F7D1E1690B988847DBE7A1690B98D9
:100D000088470746A84201D1761CD3E7E1690B98D2
:100D100088477F1C02D1B8F1000F6FD046E1002751
:100D200062693D463946019890472A2804D1626994
:100D30000121019890470125DFF884926269012121
:100D400001989047A0F130010A290AD24F45E5DC0D
:100D500007EB870100EB4107303FDFD445F010057A
:100D6000ECE7E90601D46FF000476C280AD04C2864
:100D700014D0682815D06A280DD074281CD07A2881
:100D80001AD01DE062690121019890476C2802D0B9
:100D900045F0040514E045F002050DE045F020059E
:100DA0000AE06269012101989047682802D045F065
:100DB000080505E045F40065626901210198904746
:100DC000C4E9015765283DD019DC58287AD00CDCDD
:100DD000452837D004DC252826D0412831D131E000
:100DE00046282FD047282CD12CE05B2877D06128CB
:100DF00028D063287CD0642823D15AE0D0E06F2823
:100E000048D008DC66281DD067281BD0692821D06F
:100E10006E2816D127E0702845D0732868D0752831
:100E200047D078280DD14DE0A1690B988847054639
:100E300025283FF469AFE1690B9888476D1C3FF4A2
:100E40006AAFB3E023466A466FF001000B99FFF7E3
:100E50003DFB9EE045F040006060A80723464FF050
:100E6000000236D43EE0E8077FF447AF2068011D5A
:100E700021600068290501D506701BE7290701D507
:100E8000068017E7A90703D5F117C0E9006111E74C
:100E900006600FE745F040006060A80723464FF06A
:100EA000080216D41EE040F60E0125EA010060603B
:100EB00016E045F040006060A80723464FF00A02A4
:100EC00007D40FE045F040006060A80708D523462E
:100ED00010226FF001000B99AFF3008059E007E09A
:100EE000234610226FF001000B99FFF7C9F950E07B
:100EF0004FF000094F464B46632802D05B2806D0CE
:100F000040E0E80601D40120A06001273AE06269D0
:100F10000121019890475E2805D14FF001096269CF
:100F2000494601989047216939B900210A4653463C
:100F300043F82120491C0829FADBB0B3216969B9BB
:100F4000C11700EBD16253110AEB830122F01F029B
:100F5000821A01200B68904003430B6062690121F3
:100F6000019890475D28E8D1B9F1000F09D0002021
:100F7000514651F82020D24341F82020401C082837
:100F8000F7DB02AB224600976FF001000B99AFF33D
:100F9000008000280CDA401C08D1BBF1000F05D0FE
:100FA0004FF0FF300DB0BDE8F08FFFE74046F9E7A6
:100FB000E90701D108F1010806444FF0000B79E67A
:100FC000CCCCCC0C0029A8BF7047401C490008BFFE
:100FD00020F00100704710B4B0FA80FC00FA0CF069
:100FE00050EA010404BF10BC704749B1CCF12004A1
:100FF00021FA04F411FA0CF118BF0121214308432E
:10100000A3EB0C01CB1D4FEA00614FEA102042BF59
:10101000002010BC704700EBC35010440029A4BF4F
:1010200010BC7047401C490008BF20F0010010BCF4
:10103000704700007F2801D9002208E0064A02EB31
:101040005002C007127800D1120902F00F020120ED
:101050009040084070470000F051000870B5054608
:101060002B4C04E06078E8B3322001F079F8E078A6
:101070000028F7D1A078012814D1607890B102F04F
:1010800097F9284600F05EFA60BB012002F056F99D
:1010900002F062F90221A17004E0607810B30A2026
:1010A00001F05EF802F038F90028F6D102F046F9B6
:1010B00002F07EF904E06078A0B1322001F050F82F
:1010C000E0780028F7D11249091D087801280FD1CE
:1010D000A2782046022A0BD14278B2B100220A70CF
:1010E000032100E00DE0A1704FF4FA7001F038F830
:1010F000A078032809D1607838B1284603F026F992
:1011000008B1012070BD0120A070002070BD00005A
:1011100024000020FEE7000000B58BB00020012174
:10112000CDE9060105900090019002900390049093
:101130000E20CDE908106946054800F08DFC0448F2
:1011400000F080FF0221024800F016FC0BB000BD49
:101150006C000020014800F096BD00006C000020EB
:1011600070B58AB000230C460092CDE90123CDE989
:1011700003348DF8143006AD491E03E0C65CEE540E
:101180005B1CDBB28B42F9DBD2B2C9B203F0DBFDF0
:10119000291908AB01F8010C06AA6946064800F0B7
:1011A000FDFB10B101200AB070BD034800F055FDF1
:1011B0000328FAD10020F6E76C00002070470220D7
:1011C00001F002B872B6FEE770B505460C46EE2097
:1011D00003F0FEF9B12003F0FBF9112003F0F8F958
:1011E000280A03F0F5F9E8B203F0F2F9200A03F057
:1011F000EFF9E0B203F0ECF9FF2003F0E9F9FC208D
:1012000003F0E6F9FF2003F0E3F9BDE87040FF20AA
:1012100003F0DEB92DE9F05F00242DED048B0746C5
:1012200026464FF4967B4FF47A7ABF4D02E0322087
:1012300000F096FFE878A9460028F8D1DFF8EC82A4
:1012400098F80900D0B1002088F80900B7480C30A0
:1012500050F82700FFF7DEFB9FEDB58B53EC182B02
:10126000FFF7F7FA9FEDB49B53EC192BFFF7F1FA58
:10127000FFF7E1FBB249002408609EE04D46AB4811
:101280001E210C3050F82720584602F043FA0CE09B
:10129000641C544501D301261BE0E978012909D0DB
:1012A000687838B1322000F05BFF98F80900012817
:1012B000EED10EE00021052003F018FF02E03220FD
:1012C00000F04EFF98F809000028F8D0002088F8B8
:1012D00009002C46E07830B1607800287BD03220BD
:1012E00000F03EFFF6E798F8090000240028AAD194
:1012F000012EC4D1002602F045F8A1E799F90010AB
:101300004FF4B672C81B401E10FB02F0891E90FB02
:10131000F1F332225946032003F5B67303F0E6FDDC
:1013200099F900104FF4B672C81B401E10FB02F072
:10133000891E90FBF1F000F2F5104342322259462B
:10134000042003F0D3FD0EE0641C544501D30126B4
:101350001DE099F8031001290CD099F8010048B15B
:10136000322000F0FDFE68790128EDD1E8790128EE
:10137000EAD10CE0032003F0CDFE322000F0F0FEB5
:10138000042003F0C7FE4FF4E17000F0E9FE4C4684
:10139000E078012805D06879002448B1E87938B1AF
:1013A00013E06078002816D0322000F0D9FEEFE775
:1013B000012E02D1002601F0E5FF98F80500454610
:1013C00000289BD0E879002898D0002088F80500F4
:1013D00088F807003FE067E0642257465146002046
:1013E00002F09EF90EE0641CBC4201D301261DE010
:1013F00099F8031001290CD099F8010048B1322066
:1014000000F0AEFE68780128EDD1E8780128EAD135
:101410000CE0012003F07EFE322000F0A1FE02204D
:1014200003F078FE4FF4E17000F09AFE4C46E0784D
:10143000012805D06878002440B1E87830B112E086
:10144000607888B3322000F08BFEF0E7012E02D1E5
:10145000002601F097FF98F8010045460028BBD010
:10146000E8780028B8D00020304F88F8010088F8CC
:1014700003000C3740E04D461E2158463A6802F002
:1014800049F90CE0641C544501D3012622E0E878B8
:1014900001280AD0687840B1322000F061FE98F847
:1014A00009000128EED115E01CE00021052003F021
:1014B0001DFE02E0322000F053FE98F809000028DB
:1014C000F8D0002088F8090004E0687850B1322094
:1014D00000F046FEE8780128F7D098F809000024CB
:1014E00028B10DE00120BDEC048BBDE8F09F012E7A
:1014F000C2D1002601F046FF98F809000028BAD0B2
:10150000002088F809003868FFF784FA53EC182B9C
:10151000FFF79FF953EC192BFFF79BF9FFF78BFAB5
:10152000074908600020DEE724000020B401002005
:10153000000000000000103F0000000000002440F8
:101540004C0000202DE9F05F00242DED048B0746B0
:1015500026464FF4967B4FF47A7AFE4D02E0322015
:1015600000F0FEFDE878A9460028F8D1DFF8E8830E
:1015700098F80900D0B1F8480C3050F82700FFF770
:1015800049FA9FEDF69B53EC192BFFF762F99FED9B
:10159000F58B53EC182BFFF75CF9FFF74CFAF34986
:1015A0000860002088F8090004469FE04D46EA489C
:1015B0001E210C3050F82720584602F0ABF80CE002
:1015C000641C544501D301261BE0E978012909D0A8
:1015D000687838B1322000F0C3FD98F8090001287E
:1015E000EED10EE00021052003F080FD02E0322064
:1015F00000F0B6FD98F809000028F8D0002088F81F
:1016000009002C46E07830B1607800287CD0322088
:1016100000F0A6FDF6E798F8090000240028AAD1FA
:10162000012EC4D1002601F0ADFEA1E799F900001A
:1016300040F28E32C11B491E11FB02F1801E91FB4C
:10164000F0F0CB49322243185946032003F04EFCF8
:1016500099F9000040F28E32C11B491E11FB02F1C4
:10166000801E91FBF0F0C24932222D3908444342DA
:101670005946042003F03AFC0EE0641C544501D3A3
:1016800001261DE099F8031001290CD099F80100FA
:1016900048B1322000F064FD68790128EDD1E87985
:1016A0000128EAD10CE0032003F034FD322000F0E1
:1016B00057FD042003F02EFD4FF4E17000F050FDC3
:1016C0004C46E078012805D06879002448B1E879D3
:1016D00038B113E06078002898D0322000F040FD47
:1016E000EFE7012E02D1002601F04CFE98F805002C
:1016F000454600289AD0E879002897D0002088F83D
:10170000050088F807004CE0B2E064225146002052
:1017100002F006F8974B64225146012003F0E6FBE5
:10172000944B6422E6335146022003F0DFFB0EE0C7
:10173000641C544501D301261DE099F803100129CA
:101740000CD099F8010048B1322000F009FD68780A
:101750000128EDD1E8780128EAD10CE0012003F05E
:10176000D9FC322000F0FCFC022003F0D3FC4FF443
:10177000E17000F0F5FC4C46E078012805D068786F
:10178000002448B1E87838B113E0607800286FD0C1
:10179000322000F0E5FCEFE7012E02D1002601F037
:1017A000F1FD98F8010045460028AED0E878002801
:1017B000ABD0002088F8010088F803003DE04D46DA
:1017C00065481E210C300268584601F0A3FF0CE06A
:1017D000641C544501D301261BE0E978012909D096
:1017E000687838B1322000F0BBFC98F80900012875
:1017F000EED10EE00021052003F078FC02E032205B
:1018000000F0AEFC98F809000028F8D0002088F815
:1018100009002C46E078012804D098F8090000243B
:1018200030B10EE0607818B3322000F099FCF1E797
:10183000012EC5D1002601F0A5FD98F80900002869
:10184000BDD045480C3050F82700FFF7E3F853ECC3
:10185000192BFEF7FEFF53EC182BFEF7FAFFFFF7EC
:10186000EAF8014641480160002088F8090063E079
:1018700058E000BF99F900004FF4B672C11B491E31
:1018800011FB02F1801E91FBF0F0C0F5367332229D
:101890005946032003F02AFB99F900004FF4B67271
:1018A000C11B491E11FB02F1801E91FBF0F3322295
:1018B00059460420A3F2613303F018FB0EE0641CC8
:1018C000544501D301261DE099F8031001290CD0DD
:1018D00099F8010048B1322000F042FC68790128F3
:1018E000EDD1E8790128EAD10CE0032003F012FCE5
:1018F000322000F035FC042003F00CFC4FF4E170C2
:1019000000F02EFC4C46E078012805D068790024D0
:1019100068B1E87958B117E0607818B1322000F06A
:101920001FFCF0E70120BDEC048BBDE8F09F012E09
:1019300002D1002601F026FD98F805004546002852
:1019400098D0E879002895D0002088F8050088F81C
:101950000700E8E724000020B40100200000000098
:101960000000103F00000000000024404C00002058
:10197000D2470100A585FCFF90F82020012A07D05E
:10198000022A05D0416A41F480214162012070475A
:10199000006842690A43426100207047F0B590F840
:1019A00020500468A468012D05D0022D03D0416A9F
:1019B00041F480214DE014F0406F01D1E50045D5A0
:1019C000C4F301640125A5401D608D684FF4C07308
:1019D0009DB1CE6835434E6845EAC605066803EBFF
:1019E0000417F5514FF4C275076805EB04150E692D
:1019F0007E51097D012905D009E00E88CD6845EAB0
:101A00004655EBE701684E5946F480764E51117900
:101A1000D2F805504FF4C67641EA0521056806EB79
:101A20000416A9511178D2F801204FF4C47541EA87
:101A30000221026805EB04155151006803EB041103
:101A4000425842F0010242500020F0BD416A41F488
:101A5000001141620120F0BD10B590F82020012A4C
:101A600007D0022A05D0416A41F480214162012059
:101A700010BD3B48D0F8002242F00102C0F800221D
:101A8000D0F8002222F47C52C0F80022D0F80022C4
:101A90004B6A42EA0322C0F800220A7D02F01F03CB
:101AA00001229A40D0F81C329343C0F81C32CB6913
:101AB000B3B9D0F80C329343C0F80C328C894B6820
:101AC00064F31F434C6900EBC404C4F840320C8932
:101AD0000B6864F31F434C6900EBC404C4F8443240
:101AE000CB69012B16D1D0F80C321343C0F80C325D
:101AF0000C884B6864F31F434C6900EBC404C4F8C2
:101B000040320C89CB6864F31F434C6900EBC4047A
:101B1000C4F844328B69002BD0F804320ED0134342
:101B2000C0F804320B69002BD0F8143208D01343EC
:101B3000C0F81432096A012904D008E09343EFE7A2
:101B40009343F5E7D0F81C121143C0F81C12D0F8EB
:101B5000001221F00101C0F80012002010BD0000A9
:101B600000640040704770B590F82040012C05D00B
:101B7000022C03D0416A41F4802128E0046809B3B3
:101B80002469A40720D04FF4D874056804EB01142D
:101B90002D5915F00405956005682D591AD0ED08EA
:101BA000556005682C5904F00204D4604FF4DA74CF
:101BB000056804EB01142E5906F00F06082E0CD30D
:101BC00008250DE0E468DCE7416A41F40011416258
:101BD000012070BD6D0D1560E3E72D5905F00F056F
:101BE000156105682D59C5F30725956105682C59C0
:101BF000240C54614FF4DC72046802EB0112A45807
:101C00001C700468A458240A5C700468A458240C4E
:101C10009C700468A258120EDA704FF4DE720468E9
:101C200002EB0112A4581C710468A458240A5C71C8
:101C30000468A458240C9C710468A258120EDA712E
:101C4000006829B1016941F020010161002070BDE7
:101C5000C16841F02001C160F8E70246002092F817
:101C60002010012901D002290CD111688A68520183
:101C700000D501208A68120100D5401C8968C9007E
:101C800000D5401C70472DE9F05F05460068002430
:101C90004669D0F804908768D0F80CB0D0F810A04E
:101CA000D0F81880F10748D0F90714D001218160DD
:101CB000B80703D5284600F0F2F90CE0780702D502
:101CC0004FF4006407E0380702D54FF4805402E077
:101CD000284600F0E3F9F80516D529684FF480701E
:101CE0008860B80503D5284600F0DBF90CE07805DC
:101CF00002D544F4005407E0380502D544F480448A
:101D000002E0284600F0CCF9F80316D529684FF414
:101D100080308860B80303D5284600F0C4F90CE091
:101D2000780302D544F4004407E0380302D544F4B4
:101D3000803402E0284600F0B5F9300707D55FEAA5
:101D4000CB6004D52968102044F40074C860700783
:101D50004FF0080707D55FEA0B7004D52868C76005
:101D6000284600F059F9B00706D52868C0688007F2
:101D700002D0284600F051F9700607D55FEACA6024
:101D800004D52968102044F480640861B00607D5A2
:101D90005FEA0A7004D528680761284600F04FF909
:101DA000F00606D528680069800702D0284600F0B2
:101DB00047F9B00308D55FEAC96005D52968102046
:101DC0004860284600F03DF9F00307D55FEA097046
:101DD00004D528684760284600F066F9300446D5E7
:101DE0005FEA497040D5F00504D55FEAC87001D0BC
:101DF00044F00104B00504D55FEA887001D544F0D1
:101E00000204700504D55FEA487001D544F004046B
:101E1000300529D518F0700F26D008F07000402842
:101E200015D006DC102809D020280AD0302816D179
:101E30000AE050280ED0602811D10EE044F00804CA
:101E40000DE044F010040AE044F0200407E044F000
:101E5000400404E044F0800401E044F48074286805
:101E6000816921F070018161296804204860002C9B
:101E700005D0686A204368622846FFF773FEBDE814
:101E8000F09F70B5040003D094F8200010B104E076
:101E9000012070BD204600F081F82068016841F003
:101EA0000101016000F0A6FA0546052604E000F0F5
:101EB000A1FA401B0A2811D820684068C007F6D054
:101EC0002068016821F00201016000F093FA0546E4
:101ED0000BE000F08FFA401B0A2806D9606A40F434
:101EE0000030606284F82060D2E720684068800794
:101EF000EFD4207E0128206801683DD021F08001C8
:101F00000160607E01282068016838D021F040011E
:101F10000160A07E01282068016833D021F02001F3
:101F20000160E07E0128206801682ED041F0100198
:101F30000160207F01282068016829D021F0080174
:101F40000160607F01282068016824D021F004012D
:101F50000160D4E902010843D4E9041211430843A3
:101F60006168491E08432168C86100206062012041
:101F700084F82000002070BD41F08001C0E741F0EE
:101F80004001C5E741F02001CAE721F01001CFE789
:101F900041F00801D4E741F00401D9E710B586B05B
:101FA000044614216846FEF743F918492068884220
:101FB00029D117480021026842F0007202600068CF
:101FC00000F00070059012481038026842F00202DA
:101FD0000260006800F0020005904FF4407000902D
:101FE0000220CDE9010103200390092004906946F5
:101FF000084800F0F5F800220121142000F068FAEA
:10200000142000F057FA06B010BD00000064004034
:102010004038024000040240704700B589B007AB69
:102020006A460021FFF79FFD002806D10098C2B242
:102030000498C1B207A802F093FE09B000BD704732
:102040007047704770B5044690F82000012804D00E
:10205000606A40F40020606218E0022084F82000EA
:102060002068016821F00101016000F0C3F9054614
:102070000EE000BF00F0BEF9401B0A2808D9606AD4
:1020800040F400306062052084F82000012070BD1B
:1020900020684068C007EDD1606270BD704770472E
:1020A000704770477047704770472DE9F04104460C
:1020B000876D00F09FF9064694F835000025022848
:1020C00006D08020606584F834500120BDE8F0819E
:1020D0002068016821F0160101602068416921F043
:1020E00080014161206C08B9A06C20B120680168B2
:1020F00021F0080101602068016821F00101016000
:102100000CE000F077F9801B052807D920206065D6
:10211000032084F8350084F83450D7E7206800683D
:10212000C007EED194F85C103F208840B8600120D1
:1021300084F8350084F834500020C7E790F8351053
:10214000022903D08021416501207047052180F8D4
:1021500035100068016821F001010160002070471E
:1021600070B5044600F046F90546601C02D00448EC
:102170000078044400F03EF9401BA042FAD370BD41
:102180001400002070B5022815D10B4800780128F2
:1021900011D10A4C207800280DD100F02BF9084D00
:1021A0006968401AC82806D300F024F96860054918
:1021B00001202070087070BD27000020340000202E
:1021C0000C00002026000020044910B50A680242D5
:1021D00002D00860FFF7D6FF10BD0000143C01409C
:1021E0002DE9F84FDFF8BCA10022012503264FF0AE
:1021F0000F090AF1040BAAF1040E00BF0B6805FADF
:1022000002F42340A34270D10F7907F00307012F96
:1022100001D0022F16D187684FEA420806FA08FC5F
:1022200027EA0C07D1F80CC00CFA08FC4CEA070CA2
:10223000C0F808C04768A7430C79C4F30014944061
:102240003C4344600C79E443A4070AD0C4684FEAD5
:10225000420C06FA0CF7BC438F6807FA0CF72743C9
:10226000C7600C7904F00304022C12D1D40800EBEF
:10227000840CDCF820405707FF0E09FA07F824EA1F
:102280000804D1F8108008FA07F848EA0408CCF8E6
:10229000208004684FEA420C06FA0CF7BC430F7921
:1022A00007F0030707FA0CF7274307604C6814F49C
:1022B000403F70D03C4C276847F480472760246833
:1022C00022F0030704F480440094384C07EB040C1C
:1022D000DCF8084897074FEA177809FA08F7BC4373
:1022E000334FB84202D1002724E054E0314FB842C6
:1022F00001D101271EE0304FB84201D1022719E079
:102300002E4FB84201D1032714E02D4FB84201D11E
:1023100004270FE02B4FB84201D105270AE02A4FCE
:10232000B84201D1062705E0284FB84201D107275E
:1023300000E0082707FA08F72743CCF80878DAF80E
:1023400000405746D1F804C09C435FEACC2C00D52E
:102350001C433C60DBF800405F46D1F804C09C435E
:102360005FEA8C2C00D51C433C60DEF800407746C9
:10237000D1F804C09C435FEA8C3C00D51C433C6010
:10238000084F083F3C68D1F804C09C435FEACC3C4E
:1023900000D51C433C60521C102AFFF42FAFBDE84F
:1023A000F88F0000083C01404438024000300140F2
:1023B000000002400004024000080240000C0240FD
:1023C000001002400014024000180240001C0240AD
:1023D0000069084000D001207047426921EA0203E9
:1023E0000A4043EA0241816170470AB18161704746
:1023F0000904FBE7014880687047000014000020D2
:1024000002488168027811448160704714000020FE
:102410000B4810B5016841F400710160016841F496
:1024200080610160016841F480710160032000F067
:102430006FF80F2000F006F800F024F8002010BD1F
:10244000003C024070B50D4D04464FF47A71287877
:10245000B1FBF0F00A490968B1FBF0F000F00AFBAB
:1024600048B9102C07D200222146501E00F030F847
:1024700000206C6070BD012070BD000014000020C1
:10248000200000200A4808B5016841F4804101603D
:10249000006800F4804000900548001F016841F08A
:1024A00080510160006800F08050009008BD00007D
:1024B00044380240002809DB00F01F02012191404E
:1024C0004009800000F1E020C0F8001170470000D2
:1024D000F0B40E4B1B680C46C3F30223C3F107058F
:1024E000042D00D90425191D072901D2002300E07D
:1024F000DB1E012606FA05F1491E214099409E4047
:10250000761E16403143F0BC02F0F7BB0CED00E044
:10251000064900F0070208684FF6FF03184040EA3A
:102520000220034A10430860704700000CED00E0F1
:102530000000FA052DE9F0470E46050065D0DFF8EA
:102540001481D8F80000F7B200F00700B04207D2BB
:1025500088F80070D8F8000000F00700B04254D1AD
:1025600028683D4C810712D5400703D5206840F408
:10257000E05020602878000703D5206840F46040D0
:1025800020602068A96820F0F000084320602878C7
:10259000C0072DD0304968680839012812D00228B8
:1025A00013D0032811D00968890700292DDA216882
:1025B00021F0030101432160FFF71CFF814641F236
:1025C000883A0EE009688903EFE709688901ECE7BA
:1025D000FFF710FFA0EB0901514502D90320BDE828
:1025E000F0872068696800F00C00B0EB810FEFD134
:1025F000D8F80010404601F00701B14207D9077032
:10260000006800F00700B04201D00120E7E7287819
:10261000400705D52068E96820F4E05008432060B1
:102620002878000706D52068296920F4604040EA30
:10263000C100206000F038F82168084AC1F3031196
:10264000515CC8400649086006480068FFF7FAFE7A
:102650000020C4E7003C024008380240D85100087E
:10266000200000201800002004480549006809687F
:10267000044AC1F38221515CC84070472000002009
:1026800008380240E8510008044805490068096814
:10269000044AC1F34231515CC84070472000002019
:1026A00008380240E8510008154810B5006810F0DD
:1026B0000C02144813D04110042A0FD0082A0ED15E
:1026C0000F4C241F2268236802F03F025B0207D5EB
:1026D0002068C0F38810A0FB010106E0084610BD89
:1026E0002168C1F38811A1FB00010023FDF768FDFB
:1026F0002168C1F30141491C4900B0FBF1F010BD54
:10270000083802400024F4002DE9F84F04006ED090
:102710002078DFF84C93C007A9F104054AD009F1ED
:1027200004000168C1F38101012908D00068C0F3E9
:10273000810002280AD1D9F80000400206D5286895
:10274000800337D560680028E1D033E06068B0F5D9
:10275000803F10D0B0F5A02F286810D020F4803032
:102760002860286820F4802028606068A8B1FFF7FE
:1027700041FE06460DE0286840F48030F4E740F45E
:1027800080202860F7E700BFFFF734FE801B642835
:1027900073D828688003F7D50CE0FFF72BFE0646B8
:1027A00005E000BFFFF726FE801B6428F0D82868EC
:1027B0008003F7D42078DFF8AC8280074FF0000A5E
:1027C0003ED5A748001D016811F00C0F08D0006825
:1027D000C0F3810002280BD1D9F80000400207D4D1
:1027E0002868800716D5E068012800D112E033E19F
:1027F000E068B8B10120C8F80000FFF7FBFD06460D
:1028000005E000BFFFF7F6FD801B0228C0D828684E
:102810008007F7D52868216920F0F80040EAC10058
:1028200028600DE0C8F800A0FFF7E4FD064604E0CC
:10283000FFF7E0FD801B02281FD828688007F7D427
:102840002078000722D5864F87486169703771B1BB
:1028500001210160FFF7CEFD064604E0FFF7CAFD47
:10286000801B022809D838688007F7D50EE0C0F829
:1028700000A0FFF7BFFD064605E082E0FFF7BAFDC6
:10288000801B02287DD838688007F7D4207840075D
:1028900068D5DFF8CCB100270BF13C0BDBF800006A
:1028A000C0000BD4DBF8001041F08051CBF80010D1
:1028B000DBF80000012700F0805000906B4E30687C
:1028C000C00510D4306840F480703060FFF792FD8E
:1028D000009005E0FFF78EFD0099401A022850D8BD
:1028E0003068C005F6D55E4EA0686C3601280FD062
:1028F0000528306810D020F001003060306820F0EA
:1029000004003060A068B8B1FFF774FD00900FE0DC
:10291000306840F00100F4E740F004003060F7E771
:10292000FFF768FD0099411A41F28830814266D86C
:1029300030688007F4D50EE0FFF75CFD009007E0FB
:10294000FFF758FD0099411A41F28830814256D86C
:1029500030688007F4D42FB1DBF8001021F08051EB
:10296000CBF80010A069C8B33D49091D0968C1F33F
:10297000810102294AD00228504607D0C8F86000D9
:1029800000E03CE0FFF736FD04463BE04746C8F870
:102990006000FFF72FFD064605E000BFFFF72AFDA8
:1029A000801B02282BD828688001F7D4D4E90701BE
:1029B0000843A16A2E4A490802EB0141626A41EAD2
:1029C0008211084394F82C1040EA0161C9F8001004
:1029D00001203866FFF70EFD044606E03EE000BF2A
:1029E000FFF708FD001B022809D828688001F7D5E9
:1029F00034E000BFFFF7FEFC001B022802D90320D1
:102A0000BDE8F88F28688001F4D427E00128F7D0CA
:102A1000D9F80000E26900F4800191421CD1226AD9
:102A200000F03F01914217D147F6C071626A014040
:102A3000B1EB821F10D1A26A4FF0FF3300F4403196
:102A400003EB5202B1EB024F06D194F82C1000F0C8
:102A50007060B0EB016F01D00120D1E70020CFE71B
:102A60000438024000004742800E47420070004098
:102A70000000FFFF10B5401EB0F1807F01D30120A0
:102A800010BD4FF0E02460610F21601702F035F9AE
:102A90000020A06107202061002010BD7047704712
:102AA00070B590F83C20012A32D0012480F83C40D7
:102AB000022280F83D2003685A689D6822F0700663
:102AC0000A6832435A60134B02689A4214D0B2F13A
:102AD000804F11D0104B9A420ED0104B9A420BD01F
:102AE0000F4B9A4208D00F4B9A4205D00E4B9A4298
:102AF00002D00E4B9A4204D1496825F08003194355
:102B0000916080F83D40002180F83C10084670BD7F
:102B1000022070BD00000140000400400008004099
:102B2000000C00400004014000400140001800403B
:102B300010B5040003D094F83D0010B107E0012067
:102B400010BD002084F83C00204600F01FF8022051
:102B500084F83D00211D206801F094FE012084F8D6
:102B6000460084F83E0084F83F0084F8400084F872
:102B7000410084F8420084F8430084F8440084F85B
:102B8000450084F83D00002010BD000008B5016834
:102B90001D48B1F1804F11D01C4A91421DD10168EE
:102BA00041F0020101600068002200F00200009084
:102BB00001211D20FFF78CFC1D201FE0016841F062
:102BC000010101600068002200F001000090022174
:102BD0001C20FFF77DFC1C2010E00D4A914211D112
:102BE000016841F0100101600068002200F010004F
:102BF000009001213620FFF76BFC3620BDE808402D
:102C0000FFF758BC08BD00004038024000040040F7
:102C10000010004090F83D10012901D001207047BC
:102C2000022180F83D100168CA6842F00102CA60C2
:102C300000681149884214D0B0F1804F11D00F497B
:102C400088420ED00E4988420BD00E49884208D0E7
:102C50000D49884205D00D49884202D00C4988426E
:102C600004D1816801F00701062903D0016841F011
:102C70000101016000207047000001400004004095
:102C800000080040000C00400004014000400140EA
:102C90000018004070B5044690F83C00002501285B
:102CA00017D0012684F83C60022084F83D0020689B
:102CB000826822F0770222F47F42826008685028FE
:102CC00038D00DDC20284FD005DC90B3102811D16E
:102CD0004AE0022070BD302846D040280AD13BE0AF
:102CE00060282FD070280DD0B0F5805F03D0B0F5EC
:102CF000005F12D0012584F83D60002084F83C007C
:102D0000284670BDCB68D1E90121206801F022FE80
:102D10002068816841F0770109E0CB68D1E90121A1
:102D2000206801F017FE2068816841F480418160CD
:102D3000E1E719E0CA684968206801F01DFE5021EA
:102D4000206806E0CA684968206801F026FE602114
:102D5000206801F009FECEE7CA684968206801F0E2
:102D60000BFE40212068F4E7226801461046F0E798
:102D700070472DE9F04104460068C66805694FF0C8
:102D80000007A90713D5B10711D5F91E016101206C
:102D90002077206880698007204602D0FFF7E8FF8F
:102DA00004E000F07EF8204600F07CF82777680702
:102DB00016D5700714D521686FF004000861022051
:102DC00020772068806910F4407F204602D0FFF70A
:102DD000CFFF04E000F065F8204600F063F82777A5
:102DE000280715D5300713D521686FF00800086152
:102DF000042020772068C0698007204602D0FFF7B2
:102E0000B7FF04E000F04DF8204600F04BF82777BC
:102E1000E80616D5F00614D521686FF01000086199
:102E2000082020772068C06910F4407F204602D037
:102E3000FFF79EFF04E000F034F8204600F032F87F
:102E40002777E80708D0F00706D021686FF0010067
:102E50000861204600F028F8280608D5300606D577
:102E600021686FF0800008612046FFF717FE6806B2
:102E700008D5700606D521686FF04000086120462D
:102E800000F02EF8A8060AD5B00608D521686FF024
:102E9000200008612046BDE8F041FFF700BEBDE814
:102EA000F0817047704700000A4910B5884210D180
:102EB0004021094802F038F908490880010008D08B
:102EC00005484078072804D0BDE81040024801F0CA
:102ED0003BB810BD94000020E00400200C0000204E
:102EE0007047704770470000F8B5016804460868ED
:102EF000CA684B6910F00F0F4FF000055AD003F06D
:102F0000010602F49077374365D0C10705D0D1059B
:102F100003D5616C41F001016164410705D5D90712
:102F200003D0616C41F002016164810705D5D907C6
:102F300003D0616C41F004016164010707D502F020
:102F40002001314303D0616C41F008016164616C80
:102F500000293BD0800604D5900602D5204601F01A
:102F60007DFD20684069616CC0F3801001F00801AC
:102F7000014320462BD001F04AFD206840694006FD
:102F800021D52068143050E8001F21F0400140E8AE
:102F90000012002AF5D1E06BA8B172490165E06B1F
:102FA000FFF7CCF8002811D0E06B016D01B0BDE84F
:102FB000F040084783060ED593060CD52046BDE8A1
:102FC000F84001F04BBD2046FFF78CFFF8BDFFF73E
:102FD00089FF6564F8BD266B2023012E7ED1C606CD
:102FE0007CD5D6067AD508684868009048694FF0C5
:102FF000020640064DD5E26B106840684FF48077BA
:103000000004000C3AD0A18D814237D9E085D06907
:10301000B8422DD020680C3050E8001F21F4807198
:1030200040E80012002AF5D12068143050E8001F53
:1030300021F0010140E80012002AF5D12068143087
:1030400050E8001F21F0400140E80012002AF5D1AD
:1030500084F84230256320680C3050E8001F21F0CE
:10306000100140E80012002AF5D1E06BFFF71DF8CF
:103070006663A08DE18D401A81B206E0A18D814288
:10308000A8D1D069B842A5D166632046FFF729FFD1
:10309000F8BDA08DE18D401A81B2E08D0028F7D0F7
:1030A0000029F5D020680C3050E8002F22F49072EF
:1030B00040E80027002FF5D12068143050E8002F99
:1030C00022F0010240E80027002FF5D184F84230B9
:1030D000256320680C3050E8002F00E006E022F065
:1030E000100240E80023002BF3D1CDE705062BD5D5
:1030F000150629D594F841002128C9D1A068B0F55A
:10310000805F01D12069B0B1206A411C2162216831
:1031100000784860E08C401E0004000CE084B7D1C9
:103120002068C16821F08001C1602068C16841F059
:103130004001C160F8BD206A0088C0F30800486003
:10314000206A801C2062E5E74006F3D55006F1D5E1
:10315000CA68204622F04002CA6084F8413000F07C
:10316000D9F8F8BD014A000870B5040004D094F8FD
:103170004100002510B106E0012070BD84F84050E8
:10318000204600F023F8242084F841002068C1681C
:1031900021F40051C160204601F0C2FC20680169A1
:1031A00021F4904101612068416921F02A014161C7
:1031B0002068C16841F40051C1606564202084F832
:1031C000410084F842006563002070BD10B586B0F0
:1031D000044614216846FDF72BF8174920688842F9
:1031E00028D116480021026842F4003202600068CB
:1031F00000F40030059011481038026842F00102D6
:103200000260006800F0010005900C200090022090
:10321000CDE9010103200390072004906946084886
:10322000FEF7DEFF002202212620FFF751F92620BB
:10323000FFF740F906B010BD00440040403802409E
:103240000000024090F84230202B01D0022070474D
:1032500021B11AB10023036301F0E8BC01207047DB
:10326000402202490248FFF7EDBF0000E0040020C1
:103270006C0100202DE9F843044690F8410098467F
:1032800016460D46202802D00220BDE8F88385B1FD
:103290007EB100206064212084F84100FFF7AAF885
:1032A000A6848146E684A0682027B0F5805F02D01E
:1032B00003E00120E9E7206910B12E4600250EE069
:1032C00000260CE08021204601F0CBFCA8B9C6B155
:1032D00016F8010B21684860E08C401EE084E08C09
:1032E0004B464FF00002CDF800800028EAD14FF0A5
:1032F0004001204601F0B5FC40B184F84170032044
:10330000C3E735F8020BC0F30800E3E784F8417027
:103310000020BAE77047FEE710B501210548FFF726
:1033200057F800284FF0010002D10349087000202F
:1033300010BD00000000024028000020054B30B105
:10334000012806D1002240211846FFF74EB801227D
:10335000F9E770470008024010B5094C00228021AF
:103360002046FFF742F8012211022046FFF73DF800
:1033700020460122BDE810405102FFF736B8000098
:103380000008024010B5094C012280212046FFF7B9
:103390002CF8012211022046FFF727F800226115C0
:1033A0002046BDE81040FFF720B8000000080240AA
:1033B00010B5094C012280212046FFF716F80022A3
:1033C000A1152046FFF711F820460122BDE8104064
:1033D0005102FFF70AB80000000802400F4810B57C
:1033E0000D4901600521416000214FF48032816068
:1033F000C0E903121201426101760122427682760F
:10340000C17601774177FEF73CFD002803D0BDE887
:103410001040FDF7D7BE10BD006400406C000020D6
:103420002DE9F04F87B014216846FCF701FF594899
:103430000024016841F004010160016801F0040109
:103440000591016841F080010160016801F080018F
:103450000591016841F001010160016801F001017D
:103460000591016841F002010160016801F002016B
:103470000591016841F0080101600068DFF81881DA
:1034800000F008004FF6CF7505900122294640460E
:10349000FEF7ABFFDFF804914FF440770122394685
:1034A0004846FEF7A2FFDFF8F8A0012204215046AB
:1034B000FEF79BFFDFF8ECB0012218215846FEF71B
:1034C00094FF00950125CDE90154694640460394D7
:1034D000FEF786FEF120CDE90004694648460294D5
:1034E000FEF77EFE02264FF404100096CDE901049B
:1034F00069464846FEF774FE3020CDE9000469466F
:1035000040460294FEF76CFE47F60740CDE9000402
:10351000694658460294FEF763FE0097CDE90154D0
:10352000694648460394FEF75BFEF800CDE90006C5
:10353000032702940A20CDE9037069464846FEF746
:103540004FFE04200090CDE9015469465046039493
:10355000FEF746FE18200090CDE901546946584612
:103560000394FEF73DFEC020CDE90006029407203B
:10357000CDE9037069465846FEF732FE002201216C
:103580000720FEF7A5FF0720FEF794FF07B0BDE870
:10359000F08F000030380240000802400000024076
:1035A000000C02400004024010B586B00024174809
:1035B000009401940294039404944FF08041059484
:1035C000016041F28731C0E9011440F2E731C0E9FE
:1035D000031480218161FFF7ABFA08B1FDF7F2FD1A
:1035E0004FF48050009069460848FFF753FB08B13C
:1035F000FDF7E8FD049404A904480594FFF750FA88
:10360000002801D0FDF7DEFD06B010BD94000020BB
:1036100010B586B0002416480094019402940394D7
:10362000049412490594016041F28731C0E9011404
:10363000C0E903148461FFF77BFA08B1FDF7C2FD0E
:103640004FF48050009069460948FFF723FB08B10A
:10365000FDF7B8FD049404A905480594FFF720FA86
:10366000002801D0FDF7AEFD06B010BD00040040FB
:10367000DC0000201CB500240E4800940C49019485
:10368000016041F28731C0E901148461C160FFF734
:103690004FFA08B1FDF796FD00946946054801947C
:1036A000FFF7FEF9002801D0FDF78CFD1CBD0000DE
:1036B00000100040240100200C4810B50A490160A8
:1036C0004FF4E1314160002181600C22C160C0E90A
:1036D00004128161C161FFF747FD002803D0BDE8F6
:1036E0001040FDF76FBD10BD004400406C0100208C
:1036F000FEE700000020064A0346411C02F81010B5
:1037000002EB40004370C8B20528F6D370470000B2
:10371000B401002013460A460146052001F0E6BB2D
:1037200070B514460D4678B1012816D10B4B01F047
:10373000DDFB0220FEF714FD094B22462946BDE8B9
:103740007040022001F0D2BB064B012001F0CEFBFD
:103750000220FEF705FD044BEFE770BD10AAFFFF46
:1037600080C1FFFFB972FCFF086AFCFF70B5144608
:103770000D4678B1012819D14FF43673032001F0BA
:10378000B5FB6FF4587322462946BDE8704004200B
:1037900001F0ACBB4FF4FA74054B322221460320F2
:1037A00001F0A4FB034B32222146EEE770BD00007E
:1037B000F449010039B6FEFF10B509210020FDF7DC
:1037C00003FD3220FEF7CCFC0A210020FDF7FCFCB3
:1037D0003220FEF7C5FC0B210020FDF7F5FC32205E
:1037E000FEF7BEFC0C210020FDF7EEFC3220FEF7B8
:1037F000B7FC20210220FDF7E7FC3220FEF7B0FCE9
:103800002321BDE810400220FDF7DEBC70B505465F
:1038100016460C46EE2000F0DBFEB12000F0D8FE8C
:10382000232000F0D5FE280A00F0D2FEE8B200F016
:10383000CFFE200A00F0CCFEE0B200F0C9FE304618
:1038400000F0C6FEFF2000F0C3FEFC2000F0C0FE2A
:10385000FF2000F0BDFEBDE87040FF2000F0B8BEC4
:103860002DE9F84F744C0026204662794069734D6B
:1038700043424FF47A714FF003094FF4967B40F2C4
:103880005928012A09D0207901281FD0E078012881
:1038900036D0A079012868D091E000279622012037
:1038A00001F024FBFFF784FD08E07F1C474502D9A7
:1038B000FFF768FD07E06420FEF752FC68780028F7
:1038C000F3D0FFF749FD66716E7078E0206900273C
:1038D00043429622022001F009FBFFF769FD08E050
:1038E0007F1C474502D9FFF74DFD07E06420FEF736
:1038F00037FCE8780028F3D0FFF72EFD267132E080
:10390000002796228A46012001F0F0FA20699622CB
:1039100043425146022001F0E9FACDF8009000231D
:103920001C210220E26800F0A8FECDF800900023E0
:1039300018210220E26800F0A0FEFFF739FD08E040
:103940007F1C474502D9FFF71DFD0AE06420FEF702
:1039500007FC68780028F3D0E8780028F0D0FFF75B
:10396000FBFCE6706E70EE7029E0A36900271E2252
:10397000DA465946032003F5367301F0B7FAA06919
:103980006FF458710B1A1E225146042001F0AEFA52
:10399000FFF70EFD08E07F1C474502D9FFF7F2FC58
:1039A0000AE06420FEF7DCFB68790028F3D0E879B0
:1039B0000028F0D0FFF7D0FCA6716E71EE71A078F0
:1039C000DFF87C8001280CD003280AD0022806D119
:1039D00001F0A2FA26706670A67088F80060BDE853
:1039E000F88FA0680A21800390FBF1F200271E21C6
:1039F0005846FFF78FFEFFF7DBFC40F2213A08E064
:103A00007F1C574502D9FFF7BDFC07E06420FEF795
:103A1000A7FB687A0028F3D0FFF79EFCCDF8009052
:103A2000012316210220A26800F027FE6E72A67004
:103A3000012188F80010D2E744000020B4010020E2
:103A400000000020FEE700002DE9F05FDFF8F8B08D
:103A500014460D465FEA00084FF000064FF00107DC
:103A60001FD1022D1DD1DFF8E490DFF8E4A014B1DE
:103A7000012C05D015E089F800708AF8006010E08C
:103A800034488BF80060B0F900203348B0F90010DA
:103A90003248B0F9000000F039FA89F800608AF87D
:103AA00000709BF80000012827D1B8F1020F24D143
:103AB0002B4A2C492C4B2D48022D11D0032D1ED002
:103AC000042D27D0052D34D0062D16D1012C14D16C
:103AD0000178002911D1117801290ED1052126E0A4
:103AE000012C0AD10478002C07D11278012A04D1C4
:103AF0000A681B681A440A600770BDE8F09F012C31
:103B0000FBD10378002BF8D11278012AF5D10E6091
:103B100002210CE0012CF0D10478002CEDD11278B8
:103B2000012AEAD10A681B68D21A0A6003210170CF
:103B3000E3E7012CE1D101780029DED111780129D8
:103B4000DBD10421F3E70000400000202700002023
:103B50002500002032000020300000202E00002030
:103B6000600000204C00002064000020460000207F
:103B70002DE9F04F2DED0A8B83B013460C4601253D
:103B8000B8B3022830D19FEDC10B6A468DED000B12
:103B9000C0A11846FCF758FB112C7CD09FEDBEABA2
:103BA0009FEDBFBBC04FC14EDFF80493DFF804A305
:103BB000DFF804B3182C6FD09FEDC09B9FEDC1CBF5
:103BC000DFF808831C2C68D01E2C67D0192C66D017
:103BD000202C65D0232C07D19DED000B51EC100B50
:103BE000FCF729FFBA49087003B0BDEC0A8BBDE8A9
:103BF000F08FFFE700266A46B6A118460096FCF74C
:103C000023FBB54FDFF8D492DFF8D482DFF8D4A2DB
:103C10004FF45B71092C20D00A2C49D00B2C60D0BA
:103C20000C2CE1D19AF90020B9F90030B8F9000064
:103C30005446921E12FB00338B4209DAC31700EB85
:103C4000937C009B03EBAC0C12FB00C088426CDB46
:103C5000012000F0F3FC257019E00098B9F900404C
:103C6000B8F90020831E03FB02448C420ADAD41701
:103C7000B7F900C002EB94740CEBA40403FB0242FE
:103C80008A4211DB012000F0D9FC8AF80050A9F823
:103C900000603E8005E04AE052E071E092E0C6E05C
:103CA000EBE0A8F800609FE7401C8AF800009BE763
:103CB0009AF90020B9F900300098921E02FB0033F7
:103CC00054468B42C4DAC317B7F900C000EB9373B4
:103CD0000CEBA30302FB00328A42B9DAA8F8000019
:103CE00082E79AF90020B8F90000009B4446921E32
:103CF00012FB003C8C450BDA4FEAE07CB7F9008000
:103D000000EB9C7C08EBAC0C12FB00C0884209DB8A
:103D1000012000F093FC8AF80050A9F800603E8072
:103D2000268061E7A9F800305EE73B805CE79DED07
:103D3000000B51EC100BFCF77EFE6B49086053E75B
:103D400030780028AFD199F800000028ABD19BF85B
:103D500000000028A7D19AF800000028A3D19DED0B
:103D6000000B53EC1A2B51EC100BFCF772FD53ECCB
:103D70001B2BFCF7C7FCFCF75EFE3860357033E7A1
:103D8000307800288FD199F8000000288BD19BF85B
:103D90000000002887D19AF80000002887D19DED07
:103DA000000B53EC192B51EC100BFCF752FD53ECAC
:103DB0001C2BFCF7A7FCFCF73EFEC8F8000089F8B6
:103DC000005011E7307800288AD199F800000028C7
:103DD00086D19BF800000028A3D19AF800000028A3
:103DE0009FD19DED008B51EC180BFCF724FE3F4951
:103DF00053EC1A2B086051EC180BFCF72AFD53EC1E
:103E00001B2BFCF77FFCFCF716FE386053EC192BDC
:103E100051EC180BFCF71DFD53EC1C2BFCF772FC4E
:103E2000FCF709FEC8F800008AF80050DCE630789C
:103E3000002884D199F800000028A0D19BF8000048
:103E400000289CD19AF80000002898D19FED280BFB
:103E500053EC102B9DED000B51EC100BFCF7F9FC13
:103E60009FED251B53EC112BFCF765FDFCF7E3FDE3
:103E7000234908608BF80050B6E69DED000B51EC2D
:103E8000100BFCF7D8FD1F49ADE600000000000054
:103E900000000000256C66003D0AD7A370EDA2402B
:103EA00000000000007CD5405800002049000020A0
:103EB00048000020470000204A0000205C8FC2F527
:103EC000A802A340000000000040CF4054000020A2
:103ED00069000020256C6400300000202E000020C6
:103EE0003200002024000020640000205000002048
:103EF000000000000000D04000000000008056409C
:103F00005C00002068000020704700002DE9F041AF
:103F10000F4605464FF4C874164621460848FCF77C
:103F200087F921460748FCF783F93146284600F017
:103F300047FD31463846BDE8F04100F0C9BA0000FF
:103F4000C00100205003002030B4B0F803104478C2
:103F50004BBAB0F80510C27949BAB12C0ED1102A6B
:103F600007D0112A0AD100F1080230BC1846FFF729
:103F7000FFBD427A30BC1846FFF766BD30BC7047C3
:103F80002DE9F05F00242DED048B074626464FF403
:103F9000967B4FF47A79DFF88CA3E34D3BE0D04673
:103FA000E2481E2102685846FFF7B4FB0EE0641C8D
:103FB0004C4501D301261AE098F80310012909D0D5
:103FC00098F8010030B13220FEF7CAF8687A01286B
:103FD000EDD10CE00021052001F088F802E032204C
:103FE000FEF7BEF8687A0028F9D0002068724446CF
:103FF000E078012803D0687A002438B10EE06078B8
:1040000000287AD03220FEF7ABF8F1E7012EC7D1B5
:104010000026FFF7B7F9687A0028C0D0C3480068C7
:10402000FCF7F8FC9FEDC28B53EC182BFCF711FC4E
:104030009FEDC19B53EC192BFCF70BFCFCF7FBFC31
:104040000146BF4801600020687263E09AF90000F1
:1040500040F28E32C11B491E11FB02F1801E91FB02
:10406000F0F0B84932220B1A5946032000F03EFF07
:104070009AF9000040F28E32C11B491E11FB02F179
:10408000801E91FBF0F0B0493222431859460420BB
:1040900000F02CFFA8460EE0641C4C4501D301261D
:1040A0001FE09AF8031001290ED09AF8010058B1C8
:1040B0003220FEF755F898F805000128ECD198F861
:1040C00007000128E8D10CE0032001F023F832209A
:1040D000FEF746F8042001F01DF84FF4E170FEF7FA
:1040E0003FF85446E078012808D098F805000024ED
:1040F00058B198F8070040B112E072E060780028EB
:104100006FD03220FEF72CF8ECE7012E02D100260A
:10411000FFF738F96879002898D0E879002895D019
:1041200000206871E8713CE0D04680481E2150F8BC
:1041300027205846FFF7EEFA0EE0641C4C4501D3E9
:1041400001261AE098F80310012909D098F8010017
:1041500030B13220FEF704F8687A0128EDD10CE086
:104160000021052000F0C2FF02E03220FDF7F8FF39
:10417000687A0028F9D0002068724446E078012867
:1041800003D0687A002438B10EE06078002828D087
:104190003220FDF7E5FFF1E7012EC6D10026FFF73B
:1041A000F1F8687A0028BFD0604850F82700FCF783
:1041B00031FC53EC182BFCF74CFB53EC192BFCF7A0
:1041C00048FBFCF738FC5E494FF0000B086085F8AF
:1041D00009B043E0642249460120FFF7A1FAA8464E
:1041E0000FE068E0641C4C4501D301261FE09AF8FB
:1041F000031001290ED09AF8010058B13220FDF7C2
:10420000AFFF98F801000128ECD198F803000128CD
:10421000E8D10CE0012000F07DFF3220FDF7A0FF87
:10422000022000F077FF4FF4E170FDF799FF54464C
:10423000E078012807D098F80100002448B198F8E8
:10424000030030B110E06078A8B33220FDF788FF9A
:10425000EEE7012E02D10026FFF794F868780028D7
:10426000B8D0E8780028B5D085F801B085F803B05B
:104270004BE03B4632224FF4FA710120FFF776FA09
:10428000A8460EE0641C4C4501D3012611E09AF8C3
:104290000310012910D09AF8010068B13220FDF70F
:1042A0005FFF98F805000128ECD198F80700012875
:1042B000E8D1002414E01EE0032000F02BFF3220A0
:1042C000FDF74EFF042000F025FF4FF4E170FDF7ED
:1042D00047FFEEE79AF8010068B13220FDF740FF92
:1042E0009AF803100129F5D098F8050040B198F824
:1042F000070028B10FE00120BDEC048BBDE8F09F62
:10430000012E02D10026FFF73DF868790028B0D0D1
:10431000E8790028ADD085F805B085F807B0002011
:10432000EAE7000024000020B40100205003002030
:10433000000000000000103F0000000000002440CA
:104340004C000020604B0100CDB4FEFF2DE9F05F72
:10435000DFF860A10024804627464FF47A79DFF821
:1043600058B1AAF5CE7539E04FEA0B065AF8282065
:104370001E214FF49670FFF7CDF90CE0641C4C45FC
:1043800001D301271FE0F078012808D0707830B100
:104390003220FDF7E5FE687A0128EFD113E0002115
:1043A000052000F0A3FE02E03220FDF7D9FE687A76
:1043B0000028F9D00020687205E07078002865D0E8
:1043C0003220FDF7CDFEF0780128F6D0687A00247F
:1043D00038B9012FCAD10027FEF7D4FF687A002828
:1043E000C2D05AF82800FCF715FB9FED341B53ECA4
:1043F000112BFCF72EFA9FED331B53EC112BFCF71E
:1044000028FAFCF718FB31494FF0000A086085F8DC
:1044100009A043E064224E4649460120FFF780F997
:10442000B1465E46A8460CE0641C4C4501D301270A
:1044300021E0F07801280DD0707858B13220FDF7D6
:104440008FFE98F801000128EED198F803000128AA
:10445000EAD110E0012000F05DFE3220FDF780FE81
:10446000022000F057FE4FF4E17002E0707868B16E
:104470003220FDF775FEF0780128F7D098F801009A
:10448000002430B198F8030018B10DE00120BDE818
:10449000F09F012F02D10027FEF774FF68780028F3
:1044A000B8D0E8780028B5D085F801A085F803A039
:1044B0000020ECE750030020240000200000000052
:1044C0000000103F00000000000024404C000020CD
:1044D00082030A2070B58903B2FBF0F3B1FBF0F45C
:1044E0000A480B4A90F90010C8B208E00D1A02EB16
:1044F000800605FB0435401E46F8045CC0B2012866
:10450000F4D84FF4AF10106070BD000024000020FC
:104510005003002070B505462B4C04E06078E8B3EA
:104520003220FDF71DFEE0780028F7D1A0780128A1
:1045300014D1607890B1FEF73BFF2846FCF76AFE85
:1045400060BB0120FEF7FAFEFEF706FF0221A17014
:1045500004E0607810B30A20FDF702FEFEF7DCFEEF
:104560000028F6D1FEF7EAFEFEF722FF04E06078AD
:10457000A0B13220FDF7F4FDE0780028F7D1124910
:10458000091D087801280FD1A2782046022A0BD1F4
:104590004278B2B100220A70032100E00DE0A17060
:1045A0004FF4FA70FDF7DCFDA078032809D160789C
:1045B00038B12846FFF7E4FC08B1012070BD0120A6
:1045C000A070002070BD0000240000207047000093
:1045D00001B54FF0FF33012269460248FEF74AFE5B
:1045E00008BD00006C01002070B5054616460C465B
:1045F000EE20FFF7EDFFB120FFF7EAFF1020FFF7F5
:10460000E7FF280AFFF7E4FFE8B2FFF7E1FF200A1F
:10461000FFF7DEFFE0B2FFF7DBFF3046FFF7D8FF22
:10462000FF20FFF7D5FFFC20FFF7D2FFFF20FFF7A9
:10463000CFFFBDE87040FF20FFF7CABF10B50446AA
:10464000EE20FFF7C5FFB120FFF7C2FF0020FFF704
:10465000BFFF200AFFF7BCFFE0B2FFF7B9FFFF2062
:10466000FFF7B6FFFC20FFF7B3FFFF20FFF7B0FF17
:10467000BDE81040FF20FFF7ABBF2DE9F041064633
:104680001F4614460D46EE20DDF81880FFF7A0FF08
:10469000B120FFF79DFF0720FFF79AFF300AFFF7D1
:1046A00097FFF0B2FFF794FF280AFFF791FFE8B2F7
:1046B000FFF78EFF0FB1012000E00020FFF788FF19
:1046C00008F00F0040F08000FFF782FF200EFFF798
:1046D0007FFFC4F30740FFF77BFFC4F30720FFF71A
:1046E00077FFE0B2FFF774FFFF20FFF771FFFC20B8
:1046F000FFF76EFFFF20FFF76BFFBDE8F041FF20E3
:10470000FFF766BFFDF77CBE2DE9F84F05460400B4
:104710004CD0DFF89C90DFF89CB0274E4FF000089B
:1047200040F26B3A0227707801280CD1009796F975
:1047300000000023021B17211846FFF79EFFE0B27E
:10474000FFF7E8FE90B9641EEDD175B370780128CB
:1047500029D1009796F900000023421B1721184623
:10476000FFF78BFFE8B2FCF779FCE0B189F8018034
:1047700089F8038089F8058089F8078089F809801D
:104780000023CBF800A01A46172118460097FFF720
:1047900074FFFEF7E1FD0120B0700020FEF7CEFDB2
:1047A0000120BDE8F88F6D1ECFE7FFE70020F8E796
:1047B000B40100204C0000202400002030B593B04C
:1047C00030216846FBF734FD14210CA8FBF730FDBF
:1047D0001D480025016841F080510160006800F02B
:1047E000805011901948016841F4804101600068CF
:1047F000022400F4804011900120009000040190F8
:104800008001CDE9064008AA0420642182E8130053
:104810000B906846FDF778FF08B172B6FEE70CA969
:104820000F2081E831004FF4A0500F904FF48050DA
:10483000109003210CA8FDF77DFE002801D072B670
:10484000FEE713B030BD0000403802400070004069
:104850000248016841F470010160704788ED00E092
:104860000148FEF786BA0000940000200148FEF7D8
:1048700080BA0000DC0000200148FEF77ABA000090
:1048800024010020F0B50268274B284D284E294FFF
:10489000294C4FF0804C984209D0604507D0A8427F
:1048A00005D0B04203D0B84201D0A04204D122F0DA
:1048B000700E4A6842EA0E0298421BD0604519D039
:1048C000A84217D0B04215D0B84213D0A04211D0A0
:1048D0001A4DA8420ED01A4DA8420BD0194DA8422D
:1048E00008D0194DA84205D0184DA84202D0184D45
:1048F000A84203D122F44075CA682A434D6922F0C8
:1049000080022A438D68C5620D688562984201D095
:10491000A04201D109690163016841F0040101600D
:10492000012141610260F0BD00000140000400402F
:1049300000080040000C004000040140004001401D
:10494000004401400048014000180040001C0040A5
:104950000020004010B5846842EA032224F47F441A
:104960000A432243826010BD826822F070020A432B
:1049700042F007018160704710B5036A046A24F0B1
:1049800001040462846924F0F00444EA021423F070
:104990000A020A438461026210BD10B5036A046A08
:1049A00024F010040462846923F0A00324F470440A
:1049B00044EA023243EA01118261016210BD000043
:1049C00082030A208903B2FBF0F2B1FBF0F330B5A9
:1049D00009480A49007808E0841E01EB800504FBC1
:1049E0000324401E45F8044CC0B20128F4D84FF40B
:1049F000AF10086030BD000024000020C00100207E
:104A000010B5806B0021C185FEF76CFA10BD0168FE
:104A10000C3151E8002F22F4907241E80023002B62
:104A2000F5D10168143151E8002F22F0010241E86C
:104A30000023002BF5D1016B012909D101680C314C
:104A400051E8002F22F0100241E80023002BF5D19D
:104A5000202180F8421000210163704708B590F8CA
:104A60004210222901D0022008BD82684FF48053F1
:104A70009A4201D1016921B1816A9A421BD04AB19F
:104A80000AE00268816A5268C2F308020A80816AF9
:104A9000891C08E0026972B10268526802F07F0264
:104AA0000A70816A491C8162C18D491E0904090C82
:104AB000C18503D01BE002685268F1E70168CA684B
:104AC00022F02002CA600168CA6822F48072CA60BB
:104AD00001684A6922F001024A61202180F84210EF
:104AE00000214163026B012A03D0FEF7B9FB0020CD
:104AF00008BD016301680C3151E8002F22F010025B
:104B000041E80023002BF5D101680A68D20602D5DE
:104B10000A6849680091818DFEF7E3F9E7E7000034
:104B200070B5044600680169E26821F44051114300
:104B300001612169A068E269084361691143084382
:104B40002168CA6849F20C639A430243CA6020682C
:104B50004169A26921F440711143416131492068E2
:104B6000884202D03049884202D1FDF78DFD01E034
:104B7000FDF77AFDE2690023192164253226B2F59A
:104B8000004F626828D0A0FB0101930F9200FBF751
:104B900017FB0146B0FBF5F06FF01802504301EB34
:104BA000800006EB0010B0FBF5F000F0F002B1FB66
:104BB000F5F002EB0012B1FBF5F06FF0180358436B
:104BC00001EB800006EB0010B0FBF5F000F00F00E9
:104BD00021681044886070BDA0FB010192185B4100
:104BE000FBF7EEFA0146B0FBF5F00201B1FBF5F080
:104BF0006FF01803584301EB800006EBC000B0FBD8
:104C0000F5F000F0F80002EB4002B1FBF5F058437C
:104C100001EB800006EBC000B0FBF5F000F00700F0
:104C2000D6E7000000100140001401408162828537
:104C3000C28500214164222180F84210016921B11E
:104C40000168CA6842F48072CA6001684A6942F029
:104C500001024A610068C16841F02001C160002082
:104C600070472DE9F843984617460D460446089EBE
:104C700024E0701C22D0FDF7BDFBA0EB0800B04281
:104C80001AD8CEB12068C168490717D5802D15D034
:104C9000402D13D00168C94309070FD401680025CE
:104CA000406800902046FFF7B2FE0820606484F858
:104CB00040500120BDE8F8830320FBE7206800682E
:104CC00035EA000004D00020B842D2D00020F1E73D
:104CD0000120F9E7074810B500680168C943890653
:104CE00003D44068C0B200F05BFABDE81040014850
:104CF000FEF7FAB86C010020FEE70907090E00284C
:104D000004DB00F1E02080F80014704700F00F0091
:104D100000F1E02080F8141D704702E008C8121F5F
:104D200008C1002AFAD170477047002001E001C194
:104D3000121F002AFBD1704730380A2801D2012007
:104D400070470020704730B50024234602E0C55C60
:104D50005B1C2C448B42FAD3A018C0B230BD0000BB
:104D600010B500214B1C9A421AD102780E4B912AA1
:104D700005D0F52A13D14278022A03D009E04278FF
:104D8000022A0CD103EB4104012262700278F52A59
:104D900005D14078002802D103EB4101487010BDD5
:104DA000D9B20529DED310BDB4010020FDF730FBD8
:104DB00000F006FAFFF702FDFEF732FBFEF728FCD3
:104DC000FEF758FCFEF70AFBFEF776FCFEF7ECFB5D
:104DD000FCF7A2F9402235493548FEF733FA354849
:104DE000FDF718FFFEF786FC002202211046FFF7B0
:104DF000FBFBFEF7DDFA4FF47A70FDF7B1F96420A2
:104E0000FDF7AEF900F088F800224FF400712A484F
:104E1000FDF7EBFADFF8A4A0DFF8A490294F0026F5
:104E2000294DDFF8A88010E09AF8000054460128C8
:104E300002D100F071F82670FEF712FD4FF4005118
:104E40002348FDF7CAFA64202DE028780128EBD129
:104E500088F8006099F800004C4620B138780128A5
:104E600001D000F059F8FEF7A7FC4FF4FA70FDF7F7
:104E700077F93878401EC0B2FFF746FC2070012851
:104E8000F7D1002202211046FFF7AEFB00220421D9
:104E90001046FEF7BBFC0F49012008702E7088F801
:104EA000000040F2DC50FDF75BF9CEE7E0040020A3
:104EB0006C0100209400002000000240340000201B
:104EC00000000020240000202500002040000020D9
:104ED0000008024027000020034A91211170024679
:104EE00002210148FCF73CB90100002030B414460F
:104EF000084AF52515700D0A55709170D470190C7B
:104F00001171190A51719371024630BC0821014890
:104F1000FCF726B9010000202DE9F843DFF8B48141
:104F20000026354688F80060FEF742FA0120FFF7B8
:104F3000D3FF0220FFF7D0FF674C4FF4167705E050
:104F40006420FDF70DF9761CBE4206D26078002879
:104F5000F6D0E0780028F3D005E0607800287DD016
:104F6000E0780028FBD065700026E5706420FDF72E
:104F7000F7F84FF47A77594B642239460120FFF74E
:104F8000B5FF574B642239460220FFF7AFFF05E01B
:104F90006420FDF7E5F8761CC82E06D2607800285C
:104FA000F6D0E0780028F3D005E06078002855D0EE
:104FB000E078002852D065700026E5706420FDF787
:104FC000CFF80320FFF788FF0420FFF785FF4FF499
:104FD000C87905E06420FDF7C3F8761C4E4506D27B
:104FE00060790028F6D0E0790028F3D004E06079F9
:104FF00000286AD0E07988B365710026E5716420E5
:10500000FDF7AEF84FF43673642239460320FFF7FC
:105010006DFF6FF45873642239460420FFF766FF72
:1050200005E06420FDF79CF8761CC82E06D2607956
:105030000028F6D0E0790028F3D003E0607968B169
:10504000E07958B165710026E5716420FDF788F8B4
:105050000520FFF741FF40F6C41906E035E0642063
:10506000FDF77EF8761C4E4503D2607A0028F6D014
:1050700001E0607A48B3002665724FF40053642261
:1050800039460520FFF732FF05E06420FDF768F898
:10509000761CC82E03D2607A0028F6D001E0607A30
:1050A00098B11048657201248470FEF755F90E48D6
:1050B00088F8004005220260032000900123162199
:1050C0000220FFF7DAFABDE8F883FEF75BF901206A
:1050D000F9E7000060000020B401002010AAFFFFE3
:1050E00080C1FFFF240000204C00002030B4084B9A
:1050F000F52200241A705C709C70D9701C715C7170
:105100009C71024630BC08211846FCF729B8000003
:105110000100002008B5F7218DF800100246022199
:105120006846FCF71DF808BDF0B51C4D00273A464F
:10513000194CB5F800C019E0664506D0174A121D93
:10514000B25C761CC6F308036B8023880BB9EE2A89
:105150000CD18B4202D2C2545B1C2380636842EAAA
:10516000032303F540366360761C11D06E88ACEBE8
:10517000060303F500734FEAE37E03EBDE5E6FF395
:10518000080EA3EB0E031B041B0CD5D10020F0BDB1
:10519000208867602780F0BD3800002020050020AF
:1051A000064910B50B884C885A1CC2F30802944279
:1051B00002D00C1D18550A8010BD000020050020EB
:1051C00003490020488008800249486008807047F1
:1051D0002005002038000020000000000000000032
:1051E000010203040607080900000000010203048D
:1051F000DDDDDDDDDCBBBBDDDDDDDDDDDDDDDDDD24
:105200009888888888888888777777777788888863
:1052100085555556666666666666666666688888FB
:105220008333333222222222222222222228888DF4
:1052300050520008000000206C0000001A4D0008C9
:10524000BC5200086C000020BC0A00002A4D000877
:10525000000000000000000000000000000000004E
:10526000000000000100000010000000000000002D
:105270000024F40001000001000000000000000014
:10528000000000000000000000000000000000001E
:10529000010000000000000000000000000000000D
:1052A00000000000000000000000000000000000FE
:0C52B000000000000500000000000000ED
:040000050800018965
:00000001FF
