:020000040800F2
:10000000F806002045010008171D0008811C0008A3
:10001000151D00089D0B0008D91F000800000000F6
:100020000000000000000000000000001B1D000890
:10003000B90B000800000000191D00081D1D000874
:100040005F0100085F0100085F0100085F01000810
:100050005F0100085F0100085F0100085F01000800
:100060005F0100085F0100085F0100085F010008F0
:100070005F0100085F010008A10B0008AD0B00083C
:100080005F0100085F0100085F0100085F010008D0
:100090005F0100085F0100085F0100085F010008C0
:1000A0005F0100085F0100085F0100085F010008B0
:1000B0005F0100085F0100085F0100085F010008A0
:1000C0005F0100085F0100085F0100085F01000890
:1000D0005F010008CD1F00085F0100085F010008F4
:1000E0005F0100085F0100085F0100085F01000870
:1000F0005F0100085F0100085F0100085F01000860
:100100005F0100085F0100085F0100085F0100084F
:100110005F0100085F0100085F0100085F0100083F
:100120005F0100085F0100085F0100085F0100082F
:10013000DFF80CD000F078FC00480047FD280008EC
:10014000F80600200648804706480047FEE7FEE71D
:10015000FEE7FEE7FEE7FEE7FEE7FEE7FEE7FEE777
:100160007F1D000831010008202A04DB203A21FA13
:1001700002F00021704721FA02F3D040C2F12002C0
:10018000914008431946704740EA01039B0703D09A
:1001900009E008C9121F08C0042AFAD203E011F8C6
:1001A000013B00F8013B521EF9D27047D2B201E088
:1001B00000F8012B491EFBD270470022F6E710B56C
:1001C00013460A4604461946FFF7F0FF204610BDC5
:1001D000F0B480EA0102D40F4200B2EB410F02D228
:1001E0000246084611464A0042D0C30DDDB2C1F3B3
:1001F000C752AD1A202D35DAC1F3160141F40002C1
:1002000004B15242C5F1200602FA06F12A41104417
:10021000B3EBD05F23D0C4B1012DA0EBC35009DCF8
:10022000F0BC4FF0004202EAC352DBB200F500001E
:1002300000F0B9BA400000F1807000EBC350A0F1AB
:10024000807040EAD170490009E0490841EAC07174
:10025000A0EBC35000F50000400800EBC350F0BC19
:1002600000F098BA6142012202EB4101001BF6E75F
:10027000F0BC704781F00041AAE780F00040A7E79A
:1002800080EA010210B502F00043400022D04A008B
:100290001FD0010E01EB1261C0F35600C2F35602EB
:1002A00040F4000042F40002A0FB022000047F3969
:1002B000140400D0401C50EA124001D44000491EF2
:1002C000C2B20C0604EBD010401C4008802A02D0B9
:1002D00003E0002010BD20F00100002900DA00201A
:1002E000184310BD30B480EA010202F0004530F03E
:1002F000004221F0004013D090B1C30DD40DC2F3E1
:100300001601C0F31600E41A41F4000140F40002A3
:100310007D34914201D3641C00E04900002C02DAD4
:1003200030BC002070474FF400000023914201D3FD
:10033000891A034340084FEA4101F7D151B1914274
:1003400002D14FF0004105E002D24FF0010101E07F
:100350006FF0010103EBC450284430BC00F01ABA1E
:10036000420005D0C0F3C7525242914201DC002046
:10037000704700EBC15070472DE9FE4F804681EA7F
:100380000300C00F0C46009021F0004123F000450F
:10039000B8EB0200A94105D24046214690461C46D2
:1003A0000B46024623F00040104347D0270DC7F309
:1003B0000A00C3F30A510290401A019040286BDAF8
:1003C000C3F3130040F4801B0098924620B1002331
:1003D000D2EB030A63EB0B0B01985946C0F14002C4
:1003E000504600F0B6F906460D4650465946019A69
:1003F00000F0BEF910EB08006141002487EA1152B9
:1004000084EAE7731A4340D0009A62B3019A012A42
:100410004FEA075215DC001B61EB02014FF000426E
:1004200002EA0752CDE90042001C41F58011324634
:100430002B4600F024FA03B0BDE8F08F4046214679
:10044000F9E7001B61EB0201001C41F58013001865
:100450005B412018A2F5001747EB030140EAD57075
:10046000B6196D4111E06D084FEA360645EAC075D0
:100470004FEA0752001B61EB0201001C41F580119D
:1004800049084FEA30000019514132462B4603B06B
:10049000BDE8F04F00F0E4B90098012240000023CD
:1004A000D0EB020263EBE073009821464FEAE07460
:1004B000B8EB000061EB0401E9E783F000435BE780
:1004C00081F0004158E72DE9FE4F81EA030404F072
:1004D000004421F0004100944FF0000B23F0004352
:1004E00050EA01045ED052EA03045BD0C3F30A541D
:1004F000C1F30A552C44A4F2F3340194A0FB025436
:10050000C1F3130141F48011C3F3130343F48013C7
:1005100001FB024400FB034E840A970A44EA81541B
:1005200047EA8357A4FB076802958D0A05FB0785F8
:100530004FEA932C04FB0C542705029D4FEA065802
:1005400047EA1637B5EB08056EEB070C870E920EDF
:1005500047EA811742EA8312A7FB0201B6EB0B01BF
:1005600064EB00042B0D43EA0C335E1844EB1C5083
:10057000DA465146E7FB0201C5F313044FEA0B3399
:1005800043EA14534FEA0432019C43EA0603A4F100
:100590000C040294009CCDE900B400F070F903B0A3
:1005A000BDE8F08F00200146F9E7002801DBC0F12B
:1005B0000040002901DBC1F10041814201D201204C
:1005C000704700207047C10F80EAE0700844CA07F6
:1005D0009623002100F0E7B896230022114600F090
:1005E000E2B80EB5C10F80EAE0700844CA070021E6
:1005F00040F233438DE80E000A460B4600F03FF907
:1006000003B000BD00F0004220F00040C10DC0F377
:10061000160040F400007F2901DA00207047962977
:1006200003DCC1F19601C84001E096398840002AF8
:10063000F4D04042704700F0004230F000400AD051
:10064000C10D01F56071C0F3160042EA0151C20804
:1006500040071143704700200146704730B5041E23
:1006600071F1000404DB4FF00044404264EB0101EF
:10067000141E73F1000405DB1C464FF00043524288
:1006800063EB0403994208BF904230BD01F0004380
:1006900030B421F0004150EA010206D00A0DA2F563
:1006A0006072C1F31301002A02DC30BC00207047E5
:1006B000440F44EAC104C100E01830BC00EBC25052
:1006C00000F068B830B50B46014600202022012416
:1006D00009E021FA02F59D4205D303FA02F5491B10
:1006E00004FA02F52844151EA2F10102F1DC30BD26
:1006F0002DE9F05F0546002092469B468846064657
:10070000814640241BE02846414647462246FFF7E3
:100710002BFD53465A46C01A914110D31146184634
:10072000224600F016F82D1A67EB01084F462246C4
:100730000120002100F00DF817EB00094E41201EAA
:10074000A4F10104DFDC484631462A464346BDE8B1
:10075000F09F202A04DB203A00FA02F100207047C3
:100760009140C2F1200320FA03F3194390407047EF
:10077000202A06DBCB17203A41FA02F043EAE07365
:1007800006E041FA02F3D040C2F120029140084352
:10079000194670470029A8BF7047401C490008BF90
:1007A00020F00100704710B4B0FA80FC00FA0CF0A1
:1007B00050EA010404BF10BC704749B1CCF12004D9
:1007C00021FA04F411FA0CF118BF01212143084366
:1007D000A3EB0C01CB1D4FEA00614FEA102042BF92
:1007E000002010BC704700EBC35010440029A4BF88
:1007F00010BC7047401C490008BF20F0010010BC2D
:100800007047F0B4002802DCF0BC00207047C0F351
:10081000C751C0F3160040F40000CA0701D14000E0
:10082000491E3F2202EB6105002211464FF40006EB
:1008300026FA01F31344D418844201D8001B1A4647
:100840004000491C1729F3DD5100814202D24FF0CC
:10085000FF3100E0002102EBC550F0BCFFF79ABF6A
:1008600010B5141E73F1000408DA401C41F10001B8
:1008700092185B411A4301D120F0010010BD2DE90F
:10088000F04D92469B4611B1B1FA81F202E0B0FA06
:1008900080F220329046FFF75CFF04460F4640EAA4
:1008A0000A0041EA0B0153465A46084313D0114649
:1008B00053EA010019D0C8F140025046FFF754FC3A
:1008C00005460E46504659464246FFF742FF08434A
:1008D00005D0012004E020463946BDE8F08D002017
:1008E000054346EAE0762C4337430A986305E40A59
:1008F000A0EB08000022FD0A44EA47540A3002D562
:1009000000200146E9E7010510196941DDE90845C4
:1009100000196941BDE8F04DA2E72DE9F04D81EAEB
:10092000030404F0004B21F0004514464FF0000A88
:1009300023F0004150EA050220D054EA01021DD004
:10094000C5F30A570246C5F31303C1F31300C1F3FD
:100950000A5640F4801543F48013A7EB0608101BD9
:10096000D64608F2FD3873EB050002D308F1010802
:1009700001E092185B41B8F1000F03DA0020014654
:10098000BDE8F08D00204FF48011064684460EE04D
:10099000171B73EB050705D3121B63EB0503064317
:1009A0004CEA010C49084FEA300092185B4150EACA
:1009B0000107EDD152EA030012D082EA040083EA73
:1009C0000501084305D0101BAB4106D201220023CC
:1009D00006E000224FF0004302E06FF001025310E6
:1009E0001AEB06004CEB085110EB0A0041EB0B012F
:1009F000BDE8F04DFFF734BFC1F30A52C1F3130154
:100A000040F2FF3341F480119A4202DA002001469D
:100A1000704740F233439A42A2F2334202DC524220
:100A2000FFF7A2BBFFF795BE064C074D06E0E06856
:100A300040F0010394E8070098471034AC42F6D325
:100A4000FFF77AFB1835000838350008F0B581B09B
:100A50004FF68311C3F62261FFF712FC4FF07A5173
:100A6000FFF7B6FB0446FFF7CDFD05462046002103
:100A70000027FFF79AFD002818BF013D2846FFF721
:100A8000A2FD01462046FFF7F5FB4FF08841FFF736
:100A9000F7FB0446FFF7B6FD054620464FF04441FC
:100AA000FFF796FB0646B7EB552F14BF00252646E9
:100AB0002846FFF791FD01463046FFF7DBFB42F683
:100AC0001451C0F6000101EB8502064651F825409D
:100AD00055684FF07E503146FFF7CCFB2146FFF7BB
:100AE000CFFB044630462946FFF7CAFB01462046A5
:100AF000FFF76EFB01B0F0BDF0B581B04FF683118A
:100B0000C3F62261FFF7BCFB0446FFF77BFD0546F9
:100B1000204600210027FFF748FD002818BF013DAF
:100B20002846FFF750FD01462046FFF7A3FB4FF094
:100B30008841FFF7A5FB0446FFF764FD0546204604
:100B40004FF04441FFF744FB0646B7EB552F14BF67
:100B5000002526462846FFF73FFD01463046FFF7B1
:100B600089FB42F61451C0F6000101EB85020646EE
:100B700051F8254055684FF07E503146FFF77AFB1B
:100B80002146FFF77DFB044630462946FFF778FBF8
:100B900001462046FFF71CFB01B0F0BDFEE7000058
:100BA000014800F0C7B80000B4000020014800F080
:100BB000C1B8000070000020704772B6FEE710B5A3
:100BC00090F821100022022905D00421816380F8C9
:100BD0002020012010BD01680B6823F00E030B607C
:100BE00001680B6823F001030B6090F84030C46B80
:100BF000012101FA03F3636080F8211080F82020BE
:100C0000104610BD2DE9F05F90F821100024022954
:100C100003D004218163012485E001680A6822F081
:100C20000E020A6001680A6822F001020A603F4E63
:100C30003E4FB215DFF8F4C0DFF8F090DFF8ECA01B
:100C4000DFF8E8B0DFF8E4E00168783F130115024F
:100C5000ACF1640CA9F15009AAF13C0AABF1280BE4
:100C6000AEF1140E4FF48018B14227D9B9420ED01C
:100C7000614512D049451DD0514518D0594518D06D
:100C8000714501D1424615E0294EB14201D1012200
:100C900010E0274E1436B14201D110220AE0244E52
:100CA0002836B14206D0224A3C32914201D11A463E
:100CB00000E02A461E49091F0A602BE0B94213D002
:100CC000614517D0494522D051451DD059451DD009
:100CD000714501D142461AE0B14202D14FF0807213
:100CE00015E0134EB14201D1012210E0104E14362E
:100CF000B14201D110220AE00D4E2836B14206D091
:100D00000B4A3C32914201D11A4600E02A4607497B
:100D100080394A60012180F82110002180F82010DC
:100D2000416B01B188472046BDE8F09F800002403A
:100D3000080402402DE9F05FC16B0A6801680B6886
:100D4000046C4FF0040808FA04F8844D844E854F73
:100D5000DFF814C2DFF81492DFF814A2DFF814B23F
:100D6000DFF814E218EA020F65D05FEA437862D533
:100D70000A68920603D40A6822F004020A60DFF8C7
:100D8000F0814FF48062016808F114081301140225
:100D9000414524D9A9420DD0B1420FD0B9421AD051
:100DA000614515D0494515D0514501D1120312E0D6
:100DB000594501D104220EE0714501D140220AE0DB
:100DC0006D4D1435A94206D06B4A2832914201D1AB
:100DD0001A4600E022466749091F0A6029E0A94235
:100DE00013D0B14215D0B94220D061451BD049453E
:100DF0001BD0514502D14FF4800217E0414502D18A
:100E00004FF0806212E0594501D104220EE0714595
:100E100001D140220AE0584D1435A94206D0564A65
:100E20002832914201D11A4600E022464B49083946
:100E30004A60C16A71E04FF0020808FA04F818EA43
:100E4000020F70D05FEA83786DD50A68920606D4E7
:100E50000A6822F00A020A60012180F82110DFF8F6
:100E600010814FF40072016808F114081301140294
:100E7000414524D9A9420DD0B1420FD0B9421AD070
:100E8000614515D0494515D0514501D1120312E0F5
:100E9000594501D102220EE0714501D120220AE01C
:100EA000354D1435A94206D0334A2832914201D13A
:100EB0001A4600E022462F49091F0A6029E0A9428C
:100EC00013D0B14215D0B94220D061451BD049455D
:100ED0001BD0514502D14FF4001217E0414502D119
:100EE0004FF0007212E0594501D102220EE0714527
:100EF00001D120220AE0204D1435A94206D01E4A15
:100F00002832914201D11A4600E02246134908399D
:100F10004A60002180F82010816A00291CD0BDE8B9
:100F2000F05F0847FFE70825A540154214D01A07CF
:100F300012D50A6822F00E020A6090F84020C36BB6
:100F4000012101FA02F25A60816380F82110002128
:100F500080F82010016BE0E7BDE8F09F0800024038
:100F60001C00024030000240440002405800024091
:100F70006C000240080402401C04024030B560B11D
:100F80001A4B026814219A4209D2194B1344B3FB3D
:100F9000F1F18900016417490AE0012030BD134BCB
:100FA0005B421344B3FBF1F1890001640F49083936
:100FB000C163022180F82110136843F6F0718B435E
:100FC000F0E901142143D0E902452C43214304698F
:100FD000214344692143846921431943116000215D
:100FE0004163012242770177084630BD0804024080
:100FF000F8FFFDBF000002402DE9F84FDFF8C8916F
:101000000024A9F1040B23460F2709F1040AABF1D0
:10101000040ED1E00125A54006EA0502AA4276D1D8
:10102000DFF8A8C14E68A6EB0C0866452BD00DDC96
:10103000032E34D005DC36B3012E19D0022E2FD169
:101040001BE0112E16D0122E2AD119E0B8F5881FF8
:1010500019D006DCB8F5803F15D0B8F5801F1FD138
:1010600011E0B8F5001F0ED0B8F5041F18D10AE042
:10107000CB6815E0CB681B1D12E0CB6808330FE08E
:10108000CB680C330CE08B682BB1012B4FF00803BD
:1010900003D0456104E0042302E0056100E0002381
:1010A000FF2A01D8064601E000F104064FEA840554
:1010B00001D9A5F12005D6F8008007FA05FC28EA39
:1010C0000C0803FA05F548EA0508C6F800804D68E3
:1010D000ED0070D53E4DAE6946F00106AE61AD69DA
:1010E00024F0030605F0010500953A4D06EB050CCA
:1010F000DCF80850A607360F07FA06F825EA0805B7
:10110000DFF8D480404503D14FF0000825E052E0DD
:10111000DFF8C880404502D14FF001081DE0DFF83C
:10112000C080404502D14FF0020816E0DFF8B480DD
:10113000404502D14FF003080FE0DFF8AC80404596
:1011400002D14FF0040808E0DFF8A080404502D14A
:101150004FF0050801E04FF0060808FA06F848EAE3
:101160000508CCF808804D68D9F80060ED024D46BE
:1011700001D5164300E096432E604D68DAF8006012
:10118000AD02554601D5164300E096432E604D68EA
:10119000DBF80060AD035D4601D5164300E09643E1
:1011A0002E604D68DEF80060ED03754601D51643EC
:1011B00000E096432E60641C0A681646E2407FF405
:1011C00029AFBDE8F88F00000804014000001110AD
:1011D000001002400000014000080140000C0140E6
:1011E000001001400014014000180140001C0140A3
:1011F00001488068704700001000002002488168A4
:10120000027811448160704710000020074810B533
:10121000016841F010010160032000F075F80F2013
:1012200000F006F800F024F8002010BD0020024075
:1012300070B50D4D04464FF47A712878B1FBF0F08B
:101240000A490968B1FBF0F000F0DCFA48B9102C4B
:1012500007D200222146501E00F036F800206C60B4
:1012600070BD012070BD0000100000201C00002097
:101270000C4808B5816941F001018161816901F083
:1012800001010091C16941F08051C161C06900F064
:10129000805000900448416821F0E06141F0806195
:1012A000416008BD0010024000000140002809DB39
:1012B00000F01F02012191404009800000F1E02070
:1012C000C0F8001170470000F0B40E4B1B680C46CC
:1012D000C3F30223C3F10705042D00D90425191D0A
:1012E000072901D2002300E0DB1E012606FA05F1E2
:1012F000491E214099409E40761E16403143F0BC65
:1013000000F07CBE0CED00E0064900F00702086822
:101310004FF6FF03184040EA0220034A10430860DA
:10132000704700000CED00E00000FA052DE9F047E1
:101330000F46050061D0434E306800F00700B84208
:1013400009D2306820F0070038433060306800F080
:101350000700B84251D128683B4C810712D540079D
:1013600003D5606840F4E06060602878000703D52A
:10137000606840F4605060606068A96820F0F00028
:10138000084360602878C00728D06868012810D01A
:101390002168022810D0890700292EDA616821F01F
:1013A000030101436160FFF723FF804641F2883962
:1013B0000DE021688903EFE78901EDE7FFF718FFEA
:1013C000A0EB0801494502D90320BDE8F087606819
:1013D000696800F00C00B0EB810FEFD1306800F0CD
:1013E0000700B8420BD9306820F00700384330605E
:1013F000306800F00700B84201D00120E5E7287806
:10140000400705D56068E96820F4E0600843606043
:101410002878000706D56068296920F4605040EA02
:10142000C100606000F038F86168084AC1F3031138
:10143000515CC8400649086006480068FFF7F8FE9E
:101440000020C2E70020024000100240FA2C0008F1
:101450001C00002014000020044805490068496869
:10146000044AC1F30221515CC84070471C000020AF
:10147000001002400A2D0008044805490068496828
:10148000044AC1F3C221515CC84070471C000020CF
:10149000001002400A2D00080E4A51680E4801F063
:1014A0000C03042B11D0082B0FD10C48C1F383433C
:1014B000C903C05C0AD55168084AC1F34041921E75
:1014C000515C054A5043B0FBF1F070470449484372
:1014D000704700000010024000127A00EA2C000859
:1014E00000093D002DE9F84F040070D02078C04D70
:1014F000C00749D06868C0F38100012807D0686838
:10150000C0F38100022809D16868C00306D52868A5
:10151000800339D560680028E7D035E06068B0F511
:10152000803F0BD010B1B0F5A02F11D0286820F467
:1015300080302860286820F4802002E0286840F489
:1015400080302860606890B1FFF752FE06460AE0DE
:10155000286840F480202860F0E700BFFFF748FECD
:10156000801B642873D828688003F7D50CE0FFF748
:101570003FFE064605E000BFFFF73AFE801B6428E9
:10158000F0D828688003F7D420789A4E80074FF06F
:1015900001094FF0000839D5686810F00C0F07D02A
:1015A0006868C0F38100022809D16868C00306D4C6
:1015B0002868800714D52069012808D110E0206927
:1015C000B0B1C6F80090FFF713FE074605E00AE148
:1015D000FFF70EFEC01B0228C4D828688007F7D585
:1015E0002868616920F0F80040EAC10028600DE039
:1015F000C6F80080FFF7FCFD074604E0FFF7F8FDA2
:10160000C01B022823D828688007F7D42078000759
:101610002CD57948A169D9B1C0F80090FFF7E8FD51
:10162000074604E0FFF7E4FDC01B02280FD8686AF4
:101630008007F7D571484FF4FA510068B0FBF1F01C
:10164000009000BF0098411E0091FAD20EE080E0A9
:10165000C0F80080FFF7CCFD074604E0FFF7C8FDA7
:10166000C01B022875D8686A8007F7D42078400725
:1016700060D5E8690027C00008D4E86940F08050D0
:10168000E861E869012700F0805000905C4801683B
:10169000C90513D40168834641F480710160FFF7E6
:1016A000A7FD824606E000BFFFF7A2FDA0EB0A00FF
:1016B00064284ED8DBF80000C005F5D5E0680128A5
:1016C0000AD008B1052813D0286A20F0010028624A
:1016D000286A20F0040002E0286A40F00100286235
:1016E000E06841F2883B98B1FFF782FD82460BE04B
:1016F000286A40F004002862EEE700BFFFF778FD9B
:10170000A0EB0A0159455AD8286A8007F6D50CE0A3
:10171000FFF76EFD824605E0FFF76AFDA0EB0A01C8
:1017200059454CD8286A8007F6D41FB1E86920F0E3
:101730008050E861E06988B36968C1F381010229DA
:1017400044D00228C6F8608004D0FFF751FD04465B
:1017500038E034E0FFF74CFD074604E0FFF748FDB2
:10176000C01B02282BD828688001F7D4206AB0F566
:10177000803F05D16868A16820F4003008436860A4
:10178000D4E908010843696821F4741108436860CA
:10179000C6F86090FFF72CFD044606E025E000BF88
:1017A000FFF726FD001B022809D828688001F7D51D
:1017B0001BE000BFFFF71CFD001B022802D903201D
:1017C000BDE8F88F28688001F4D40EE00128F7D036
:1017D0006868226A00F48031914204D1616A00F4A1
:1017E0007010884201D00120EAE70020E8E70000FD
:1017F0000010024000004242800442421C000020CF
:101800000070004010B5401EB0F1807F01D3012070
:1018100010BD4FF0E02460610F21601700F0EEFB77
:101820000020A06107202061002010BD7047704794
:10183000F8B5016804460868CA684B6910F00F0FD4
:101840004FF000055AD003F0010602F490773743B9
:1018500065D0C10705D0D10503D5616C41F0010108
:101860006164410705D5D90703D0616C41F00201DD
:101870006164810705D5D90703D0616C41F004018B
:101880006164010707D502F02001314303D0616C88
:1018900041F008016164616C00293BD0800604D5E9
:1018A000900602D5204600F09AFA20684069616CE3
:1018B000C0F3801001F00801014320462BD000F056
:1018C00067FA20684069400621D52068143050E846
:1018D000001F21F0400140E80012002AF5D1E06B22
:1018E000A8B16D494163E06BFFF78CF9002811D076
:1018F000E06B416B01B0BDE8F040084783060ED5B0
:1019000093060CD52046BDE8F84000F068BA2046A2
:10191000FFF78DFFF8BDFFF78AFF6564F8BD266B02
:101920002023012E7CD1C6067AD5D60678D5086844
:101930004868009048694FF00206400640D5E16BC8
:10194000086840680004000CE8D0A28D8242E5D906
:10195000E085886920282DD020680C3050E8001FD1
:1019600021F4807140E80012002AF5D12168143179
:1019700051E8000F20F0010041E80002002AF5D1F3
:101980002068143050E8001F21F0400140E80012A8
:10199000002AF5D184F84230256320680C3050E8E5
:1019A000001F21F0100140E80012002AF5D1E06B81
:1019B000FFF705F96663A08DE18D401A81B22AE038
:1019C000A08DE18D401A81B2E08D0028A6D00029BB
:1019D000A4D022680C3252E8000F20F4907042E844
:1019E0000007002FF5D12068143050E8002F22F0B6
:1019F000010240E80027002FF5D184F8423025632A
:101A000020680C3050E8002F22F0100240E800233C
:101A1000002BF5D166632046FFF708FFF8BDFFE70E
:101A200005062BD5150629D594F841002128F5D1B6
:101A3000A068B0F5805F01D12069B0B1206A411C77
:101A40002162216800784860E08C401E0004000C90
:101A5000E084E3D12068C16821F08001C160206882
:101A6000C16841F04001C160D8E7206A0088C0F336
:101A700008004860206A801C2062E5E74006CDD55A
:101A80005006CBD5CA68204622F04002CA6084F8CE
:101A9000413000F0F4F8C1E7811D000870B5040082
:101AA00004D094F84100002510B106E0012070BD7B
:101AB00084F84050204600F023F8242084F84100A8
:101AC0002068C16821F40051C160204600F0E8F9A7
:101AD0002068016921F4904101612068416921F089
:101AE0002A0141612068C16841F40051C160656408
:101AF000202084F8410084F842006563002070BD16
:101B0000F0B585B000240646009401940294039435
:101B100000682D49884254D12C48816941F48041A4
:101B20008161816901F480410491816941F004017E
:101B300081618069264D00F0040004904FF400702C
:101B40000090022001900320039069462846FFF789
:101B500053FA2815CDE90004694628460294FFF798
:101B60004BFA1D4D1B488027C5E90004C5E9024713
:101B70002C616C61AC612846EC61FFF7FFF908B19C
:101B8000FFF71BF8F5636E62134D124844351438A5
:101B900001C5102091C5104845F8104944306C61CA
:101BA000AC61EC61FFF7EAF908B1FFF706F8B5633D
:101BB0000022114625206E62FFF786FB2520FFF7E5
:101BC00075FB05B0F0BD0000003801400010024078
:101BD00000080140580002407000002070472DE9C5
:101BE000F843044690F84100984616460D462028D2
:101BF00002D00220BDE8F88385B17EB10020606488
:101C0000212084F84100FFF7F3FAA6848146E68498
:101C1000A0682027B0F5805F02D003E00120E9E74B
:101C2000206910B12E4600250EE000260CE0802130
:101C3000204600F091F9A8B9C6B116F8010B216849
:101C40004860E08C401EE084E08C4B464FF0000280
:101C5000CDF800800028EAD14FF04001204600F086
:101C60007BF940B184F841700320C3E735F8020BDB
:101C7000C0F30800E3E784F841700020BAE770473A
:101C8000FEE700000D4808B5416941F001014161DE
:101C90004069002200F00100009011460E20FFF77D
:101CA00013FB0E20FFF702FB002211460F20FFF767
:101CB0000BFBBDE808400F20FFF7F8BA0010024008
:101CC000054808B5816941F004018161806900F02F
:101CD0000400009008BD0000001002400C4810B540
:101CE0000A4901604FF4E1314160002181600C221A
:101CF000C160C0E904128161C161FFF7CFFE002815
:101D000003D0BDE81040FEF758BF10BD00380140B9
:101D100028000020FEE7FEE770477047FFF76EBA25
:101D200030B58FB028216846FEF747FA14210AA87B
:101D3000FEF743FA01210804CDE9001000240294C3
:101D400002250491CDE907504FF4E0100990684650
:101D5000FFF7C8FB08B172B6FEE70F20CDE90A0510
:101D60004FF48060CDE90C4002210AA80E94FFF7E1
:101D7000DDFA002801D072B6FEE70FB030BD704723
:101D800010B5406A0021C185C184FFF750FD10BD28
:101D900001680C3151E8002F22F4907241E80023D1
:101DA000002BF5D10168143151E8002F22F0010217
:101DB00041E80023002BF5D1016B012909D101680D
:101DC0000C3151E8002F22F0100241E80023002BD3
:101DD000F5D1202180F8421000210163704708B539
:101DE00090F84210222901D0022008BD82684FF4E9
:101DF00080539A4201D1016921B1816A9A421BD074
:101E00004AB10AE00268816A5268C2F308020A8095
:101E1000816A891C08E0026972B10268526802F0A6
:101E20007F020A70816A491C8162C18D491E0904C2
:101E3000090CC18503D01BE002685268F1E7016814
:101E4000CA6822F02002CA600168CA6822F480725F
:101E5000CA6001684A6922F001024A61202180F8C3
:101E6000421000214163026B012A03D0FFF7B6FE46
:101E7000002008BD016301680C3151E8002F22F0F9
:101E8000100241E80023002BF5D101680A68D20650
:101E900002D50A6849680091818DFFF7C7FCE7E722
:101EA00070B5044600680169E26821F440511143AD
:101EB00001612169A0680843616908432168CA6813
:101EC00041F20C639A430243CA6020684169A269E7
:101ED00021F44071114341611E492068884202D1BA
:101EE000FFF7CAFA01E0FFF7B7FA00EBC00101EB18
:101EF0000012606864218000B2FBF0F3B3FBF1F3E1
:101F00006FF018067343B2FBF0F5B2FBF0F605EB89
:101F10008305322303EB0515B5FBF1F5B6FBF1F6AE
:101F200005F0F00505EB0615B2FBF0F6B2FBF0F09C
:101F3000B0FBF1F06FF01802504306EB800003EBAA
:101F40000010B0FBF1F0216800F00F002844886019
:101F500070BD0000003801402DE9F843984617464F
:101F60000D460446089E24E0701C22D0FFF740F97D
:101F7000A0EB0800B0421AD8CEB12068C16849076A
:101F800017D5802D15D0402D13D00168C9430907FE
:101F90000FD401680025406800902046FFF7F8FE46
:101FA0000820606484F840500120BDE8F8830320D5
:101FB000FBE72068006835EA000004D00020B84242
:101FC000D2D00020F1E70120F9E700000148FFF737
:101FD0002FBC000028000020FEE700000FB4054BD6
:101FE00010B503A9044A029800F0E0F810BC5DF8AF
:101FF00014FB0000DD280008200000200907090E5E
:10200000002804DB00F1E02080F80014704700F0A5
:102010000F0000F1E02080F8141D704702E008C8AE
:10202000121F08C1002AFAD170477047002001E052
:1020300001C1121F002AFBD170470000014908604E
:1020400070470000240000202DE9FF5FDDE9022039
:10205000010DDDF838B0024318D044F61050A1F25B
:10206000FF3141430D140F98012820D0A5EB0B0040
:10207000401C5FEA000A4FF00004474EDFF81C9155
:10208000A046504616D5CAF1000728E00F98012453
:1020900043A2012808D0002100980F9BC0E900212D
:1020A000C0E90243BDE8FF9F6FEA0B01F4E7CBF103
:1020B0000000DEE7074612E0F80707D02246334665
:1020C00040464946FEF7FFF9804689462246334698
:1020D00010461946FEF7F7F904460E467F10002F0A
:1020E000EAD1DDE90201BAF1000F42464B4602DABD
:1020F000FEF7E9F901E0FEF710FC04460E46002267
:10210000284BFEF7ABFA03D84FF0FF30014607E04B
:102110000022254B20463146FEF72EF9FEF76CFCD7
:10212000102409E0002C0ADB0A220023FEF7E0FA63
:10213000019B30321A55641E50EA0102F2D1641C30
:10214000019AC4F1110314440F9A012A03D0012209
:1021500008430DD10AE0084304D000204FF0110BD2
:102160000F9080E7A3EB0B056D1E0DE05B4504DDD2
:102170004FF0000205F1010504E003DA4FF0000220
:10218000A5F10105002AECD000980F99C0E90231B1
:10219000C0E9004586E70000000024400000F03F51
:1021A000300000000000F0430000E03F2DE9FF4F49
:1021B00095B09B468946064600250FE2252877D133
:1021C00000242746F84A0121059400E0044316F84C
:1021D000013F203B01FA03F01042F7D130782A2862
:1021E00011D06FF02F033078A0F13002092A16D8F1
:1021F000059A44F0020402EB820203EB420210440F
:10220000761C0590EFE759F8042B0592002A03DAB3
:10221000504244F40054059044F00204761C307897
:102220002E2816D116F8010F44F004042A280DD0E8
:102230006FF02F023078A0F13003092B09D807EB9B
:10224000870302EB4303C718761CF3E759F8047BB6
:10225000761C30786C280FD006DC4C2817D0682804
:102260000DD06A2814D104E0742810D07A280FD138
:102270000DE044F400140AE044F4801401E044F456
:1022800040147278824202D104F58014761C761CC8
:10229000307866280BD013DC582877D009DC00286A
:1022A00075D04528F6D04628F4D047281AD19DE1AC
:1022B00018E0632835D0642879D0652812D195E1DB
:1022C000702873D008DC6728F1D069286FD06E2899
:1022D0000DD06F2806D1B5E073282CD0752875D0A5
:1022E000782874D05A46179990476D1C75E1C4F34D
:1022F0000250022809D003280DD0D9F80010042874
:102300000DD00D6009F1040967E1D9F80010EA1752
:10231000C1E90052F6E7D9F800100D80F2E70D7020
:10232000F0E719F8041B8DF8001000208DF801006B
:10233000EA46012003E059F804AB4FF0FF30610793
:102340004FF0000102D40DE008F101018846B942C6
:102350000FDA8045F8DB1AF808100029F4D108E0FC
:1023600008F1010188468142FADB1AF808100029B9
:10237000F6D105985B46A0EB080721463846179A28
:1023800000F094FA284400EB080507E04DE029E14D
:102390000DE01AF8010B5A4617999047B8F1010859
:1023A000F7D25B4621463846179A13E142E00A22EB
:1023B0000092C4F302524FF0000A022A08D059F8E2
:1023C00004CB032A4FEAEC710AD00DE029E02AE0A1
:1023D00009F1070121F00702F2E802C1914609E084
:1023E0000FFA8CFC4FEAEC71042A03D14FFA8CFCF3
:1023F0004FEAEC71002907DA0A460021DCF1000CF3
:1024000061EB02012D2202E0220504D52B228DF87A
:102410000420012203E0E20701D02022F7E79046E2
:1024200059E00A2102E010220DE010214FF0000ACD
:1024300000910BE010224FF0000A44F0040408273A
:10244000009203E008224FF0000A0092C4F3025207
:10245000022A05D059F804CB0021032A08D009E04C
:1024600009F1070121F00702F2E802C1914605E0F7
:102470001FFA8CFC042A01D10CF0FF0C4FF000086D
:10248000220728D5702806D0009B83F0100353EA5A
:102490000A0305D00EE040228DF80420012208E056
:1024A0005CEA010206D030228DF804208DF8050088
:1024B00002229046009B83F0080353EA0A030AD1E4
:1024C0005CEA010201D1620705D530228DF80420B3
:1024D0004FF001087F1E582804D034A003900EA8A6
:1024E00002900DE036A0F9E753466046009AFEF7E9
:1024F000FFF884460398825C0298401E02900270A6
:102500005CEA0100F0D1029806A9081A00F1200A3D
:10251000600702D524F4803400E00127574502DD2E
:10252000A7EB0A0000E0002000EB0A0100900598EC
:102530004144401A0590E00306D45B462146179AB1
:10254000059800F0B3F90544002706E001A85A46B3
:10255000C05D179990476D1C7F1C4745F6DBE00373
:102560000CD55B462146179A059800F09FF9054463
:1025700004E030205A46179990476D1C0099481E78
:1025800000900029F5DC08E0029802995A4600788C
:10259000491C0291179990476D1CBAF10001AAF1EC
:1025A000010AF1DC65E10000092801003031323315
:1025B000343536373839616263646566000000007F
:1025C0003031323334353637383941424344454669
:1025D0000000000000F058F90544761C307800280F
:1025E0007FF4ECAD19B02846BDE8F08F620700D447
:1025F000062709F1070222F0070CFCE80223E14656
:1026000003F000485FEA080C02D00FF2702C0DE0D6
:102610005FEA045C02D50FF2682C07E05FEAC47C35
:1026200002D00FF2602C01E0AFF2700C4FF0FF38D7
:1026300023F00043CDF850C065280CD006DC4528B7
:1026400009D046281DD047283DD13DE0662818D046
:1026500067287ED138E00021112F01DB112000E036
:10266000781CCDE9000106A90EA8FFF7EDFCDDE915
:102670000F010E9A03910021009207F1010A0491C3
:102680004DE04FF000400097CDE9011006A90EA8DB
:10269000FFF7DAFCDDE90F0203920E9B119900228D
:1026A000DDF80CA00093049211B9791C00EB010A2B
:1026B000B7EB0A0004D4C0F1FF3007F1010A04901F
:1026C000AAEB0700019044E0012F00DA0127002166
:1026D000112F01DD112000E03846CDE9000106A9E7
:1026E0000EA8FFF7B1FCDDE90F010E9A039100215E
:1026F00004910092BA4621070CD40399514500DA9F
:102700008A46BAF1010F05DD009AAAF10101515C78
:10271000302908D0B84202DA10F1040F06DA01219C
:10272000CDE9011015E0AAF10101E9E7002805DC77
:10273000049901440491AAEB000102E0411C5145B7
:1027400000DD8A460499401A401C01904FF0004079
:102750000290200704D40198504501DBCDF8048095
:1027600000208DF84F0002980DF14F07B0F1004F97
:1027700025D02B200E9002984FF0020800280CDA8A
:10278000404202902D200E9007E00A210298FDF7AA
:1027900099FF3031029007F8011DB8F10001A8F14E
:1027A0000108F2DC02980028EFD1791E0E9808701B
:1027B000307800F0200040F0450007F8020D12A824
:1027C000C01B00F107081498007800B1012000EB4D
:1027D0000A01019801EBE07105984144401A401E3E
:1027E0000590E00306D45B462146179A059800F051
:1027F0005DF805441498007818B15A461799904727
:102800006D1CE00324D55B462146179A059800F01D
:102810004DF805441CE00498002807DBDDE90301BE
:10282000884203DD0098405C179901E01799302039
:102830005A469047049805F10105401C0490019800
:10284000401E019004D12E205A46179990476D1CC6
:10285000BAF10001AAF1010ADDDC05E017F8010B6D
:102860005A46179990476D1CB8F10001A8F101086C
:10287000F4DC5B462146179A0598ABE62D00000074
:102880002B000000200000002DE9F0410446002547
:102890001E461746880404D405E039462020B04778
:1028A0006D1C641EF9D52846BDE8F0812DE9F04184
:1028B000044600251E469046C80301D5302700E097
:1028C0002027880404D505E041463846B0476D1CF2
:1028D000641EF9D52846BDE8F081000038B50446ED
:1028E0008DF800004FF0FF33012269460248FFF7E0
:1028F00076F9204638BD0000280000201CB5FEF700
:1029000085FCFFF70DFAFFF7DBF9FFF7BBF9FFF7DF
:10291000E5F928480025016841F080710160DFF881
:102920009880C8F80450D8F8001041F00101C8F8A8
:102930000010D8F80470224CDFF880B004F10806CB
:10294000DFF8809048F6A04A241D2846FDF749FE8E
:102950005A461D4BFDF7B7FDFDF798FECDE9004641
:10296000174B49464A4600F05FF86D1C5545ECDBB5
:10297000D8F80400C71B2846FDF725FE0646134875
:102980000068FDF729FE1249FDF7ACFC0446384605
:10299000FDF722FE2146FDF7A5FC3146FDF7A2FC1E
:1029A000FDF749FE02460B4629460AA0FFF716FB33
:1029B000FEE70000FCED00E0001000E0ABAAAAAAD0
:1029C000000000209A99193F46DF913F1C0000202B
:1029D0000024744954696D652074616B656E2066CE
:1029E0006F7220256420737670776D2063616C6C44
:1029F000733A2025662075730D0A000070B50546F0
:102A0000FDF7FFFE044620F00040C0F1FF40C00F7C
:102A100008D025F00040C0F1FF40C00F04BF0120E6
:102A2000FFF70CFB204670BD2DE9FF4F0F46804697
:102A30001146A3B014460846FDF722FC0546394668
:102A40000846FDF71DFC2946FDF7C2FBFFF7D6FF40
:102A500005468748854209DD29463846FDF742FC90
:102A6000074629462046FDF73DFC04464822814999
:102A70006846FDF789FB7F492022483119A8FDF7F8
:102A800083FB4046FEF738F806464046FDF7DEFF7A
:102A90000546B84631462046FDF7F2FB0746294673
:102AA0004046FDF7EDFB3946FDF7E4FB07462946B6
:102AB0002046FDF7E5FB044631464046FDF7E0FBC6
:102AC0002146FDF785FB4FF400090546484501DB2B
:102AD000012000E00020804627F00040FDF7ABFD1C
:102AE0004FF06042644BFDF7EEFC06460C4625F0C5
:102AF0000040FDF7A0FD32462346FDF7AFFD01D2B1
:102B0000012000E000204F4501DB012100E0002111
:102B10004FEA880202EB4000084419A951F820400E
:102B20002046FDF75EFDDFF854B14FF080494A467C
:102B30005B46FDF7C8FC06461691FDF7A7FD8246E9
:102B4000FDF784FF2946FDF79BFB80465046FDF7C5
:102B5000D3FF3946FDF794FB4146FDF78BFB8246D8
:102B600030464A465B461699FDF7A7FCFDF78EFDF9
:102B70000646FDF7C1FF3946FDF782FB07463046A2
:102B8000FDF764FF2946FDF77BFB3946FDF772FB35
:102B9000814651464FF07E50FDF76CFB4946FDF7EC
:102BA00069FB4FF0FF31FDF7DBFB8346062794FB03
:102BB000F7F007FB104000EB40006D465DF8200089
:102BC000FDF701FD4946FDF75BFB804604EB440041
:102BD00005EB800656F80C0DFDF7F5FC5146FDF7A8
:102BE0004FFB4146FDF7F4FA5946FDF7F1FA2699F5
:102BF000086094FBF7F007FB104000EB400005EB8A
:102C000080004068FDF7DFFC4946FDF739FB804650
:102C10007068FDF7D8FC5146FDF732FB4146FDF7E1
:102C2000D7FA5946FDF7D4FA3099D846086094FB94
:102C3000F7F007FB104000EB400005EB80008068D8
:102C4000FDF7C1FC4946FDF71BFB0446B068FDF7E4
:102C5000BAFC5146FDF714FB2146FDF7B9FA41468F
:102C6000FDF7B6FA3199086027B0BDE8F08F000093
:102C70009A99593F802C00087AB6FB3F52C1F03F29
:102C80000100000000000000000000000100000042
:102C90000100000000000000000000000100000032
:102CA0000000000000000000010000000100000022
:102CB0000000000000000000010000000100000012
:102CC00000000000010000000400000006000000F9
:102CD00005000000050000000300000001000000E6
:102CE00002000000020000000102020304050607C2
:102CF00008090A0B0C0D0E0F101000000000000058
:102D00000000010203040607080900000000010298
:102D10000304000000000000920E493CB10AC93CC7
:102D20002BC3163D2EFB483D752B7B3D04A9963DDC
:102D300080B6AF3D36BDC83D2FBCE13D73B2FA3D14
:102D400087CF093E8340163EB5AB223EA2102F3EF0
:102D5000CF6E3B3EC2C5473E0115543E135C603EFC
:102D60007F9A6C3ECCCF783EC07D823E938E883E6B
:102D7000229A8E3E32A0943E86A09A3EE59AA03ECC
:102D8000128FA63ED47CAC3EEF63B23E2A44B83EDE
:102D9000491DBE3E15EFC33E53B9C93ECA7BCF3E67
:102DA0004136D53E80E8DA3E4F92E03E7533E63E4E
:102DB000BBCBEB3EEA5AF13ECBE0F63E275DFC3E54
:102DC000E4E7003F3D9C033F824B063F9BF5083FF5
:102DD0006B9A0B3FDA390E3FCDD3103F2A68133F71
:102DE000D9F6153FC07F183FC6021B3FD17F1D3F5C
:102DF000CBF61F3F9967223F25D2243F5636273F07
:102E00001594293F4AEB2B3FDE3B2E3FBB85303FDD
:102E1000C9C8323FF304353F233A373F4268393F50
:102E20003B8F3B3FF9AE3D3F67C73F3F70D8413FC7
:102E300001E2433F03E4453F65DE473F12D1493F8E
:102E4000F8BB4B3F029F4D3F207A4F3F3D4D513FD6
:102E50004918533F31DB543FE595563F5348583F9F
:102E60006AF2593F1A945B3F532D5D3F05BE5E3FAA
:102E70002146603F97C5613F5A3C633F59AA643F72
:102E8000880F663FD86B673F3CBF683FA7096A3F22
:102E90000C4B6B3F5E836C3F93B26D3F9ED86E3F91
:102EA00073F56F3F0809713F5213723F4714733F28
:102EB000DD0B743F0BFA743FC6DE753F07BA763FF1
:102EC000C58B773FF853783F9812793F9DC7793F7C
:102ED00002737A3FBE147B3FCDAC7B3F283B7C3FE7
:102EE000C9BF7C3FAC3A7D3FCCAB7D3F23137E3FD7
:102EF000B0707E3F6DC47E3F580E7F3F6D4E7F3F6A
:102F0000AB847F3F0FB17F3F97D37F3F43EC7F3F41
:102F100011FB7F3F0000803F11FB7F3F43EC7F3F71
:102F200097D37F3F0FB17F3FAB847F3F6D4E7F3F95
:102F3000580E7F3F6DC47E3FB0707E3F23137E3FAF
:102F4000CCAB7D3FAC3A7D3FC9BF7C3F283B7C3F4B
:102F5000CDAC7B3FBE147B3F02737A3F9DC7793F68
:102F60009812793FF853783FC58B773F07BA763F81
:102F7000C6DE753F0BFA743FDD0B743F4714733F99
:102F80005213723F0809713F73F56F3F9ED86E3F31
:102F900093B26D3F5E836C3F0C4B6B3FA7096A3F5A
:102FA0003CBF683FD86B673F880F663F59AA643FB4
:102FB0005A3C633F97C5613F2146603F05BE5E3F77
:102FC000532D5D3F1A945B3F6AF2593F5348583F77
:102FD000E595563F31DB543F4918533F3D4D513F36
:102FE000207A4F3F029F4D3FF8BB4B3F12D1493FE4
:102FF00065DE473F03E4453F01E2433F70D8413F70
:1030000067C73F3FF9AE3D3F3B8F3B3F4268393F8B
:10301000233A373FF304353FC9C8323FBB85303FC1
:10302000DE3B2E3F4AEB2B3F1594293F5636273F78
:1030300025D2243F9967223FCBF61F3FD17F1D3F0A
:10304000C6021B3FC07F183FD9F6153F2A68133FC1
:10305000CDD3103FDA390E3F6B9A0B3F9BF5083FFB
:10306000824B063F3D9C033FE4E7003F275DFC3E6B
:10307000CBE0F63EEA5AF13EBBCBEB3E7533E63E83
:103080004F92E03E80E8DA3E4136D53ECA7BCF3EE5
:1030900053B9C93E15EFC33E491DBE3E2A44B83E52
:1030A000EF63B23ED47CAC3E128FA63EE59AA03EC2
:1030B00086A09A3E32A0943E229A8E3E938E883EFF
:1030C000C07D823ECCCF783E7F9A6C3E135C603EE2
:1030D0000115543EC2C5473ECF6E3B3EA2102F3E67
:1030E000B5AB223E8340163E87CF093E73B2FA3D10
:1030F0002FBCE13D36BDC83D80B6AF3D04A9963D2D
:10310000752B7B3D2EFB483D2BC3163DB10AC93CB8
:10311000920E493C00000000920E49BCB10AC9BCA5
:103120002BC316BD2EFB48BD752B7BBD04A996BDD8
:1031300080B6AFBD36BDC8BD2FBCE1BD73B2FABD10
:1031400087CF09BE834016BEB5AB22BEA2102FBEEC
:10315000CF6E3BBEC2C547BE011554BE135C60BEF8
:103160007F9A6CBECCCF78BEC07D82BE938E88BE67
:10317000229A8EBE32A094BE86A09ABEE59AA0BEC8
:10318000128FA6BED47CACBEEF63B2BE2A44B8BEDA
:10319000491DBEBE15EFC3BE53B9C9BECA7BCFBE63
:1031A0004136D5BE80E8DABE4F92E0BE7533E6BE4A
:1031B000BBCBEBBEEA5AF1BECBE0F6BE275DFCBE50
:1031C000E4E700BF3D9C03BF824B06BF9BF508BFF1
:1031D0006B9A0BBFDA390EBFCDD310BF2A6813BF6D
:1031E000D9F615BFC07F18BFC6021BBFD17F1DBF58
:1031F000CBF61FBF996722BF25D224BF563627BF03
:10320000159429BF4AEB2BBFDE3B2EBFBB8530BFD9
:10321000C9C832BFF30435BF233A37BF426839BF4C
:103220003B8F3BBFF9AE3DBF67C73FBF70D841BFC3
:1032300001E243BF03E445BF65DE47BF12D149BF8A
:10324000F8BB4BBF029F4DBF207A4FBF3D4D51BFD2
:10325000491853BF31DB54BFE59556BF534858BF9B
:103260006AF259BF1A945BBF532D5DBF05BE5EBFA6
:10327000214660BF97C561BF5A3C63BF59AA64BF6E
:10328000880F66BFD86B67BF3CBF68BFA7096ABF1E
:103290000C4B6BBF5E836CBF93B26DBF9ED86EBF8D
:1032A00073F56FBF080971BF521372BF471473BF24
:1032B000DD0B74BF0BFA74BFC6DE75BF07BA76BFED
:1032C000C58B77BFF85378BF981279BF9DC779BF78
:1032D00002737ABFBE147BBFCDAC7BBF283B7CBFE3
:1032E000C9BF7CBFAC3A7DBFCCAB7DBF23137EBFD3
:1032F000B0707EBF6DC47EBF580E7FBF6D4E7FBF66
:10330000AB847FBF0FB17FBF97D37FBF43EC7FBF3D
:1033100011FB7FBF000080BF11FB7FBF43EC7FBF6D
:1033200097D37FBF0FB17FBFAB847FBF6D4E7FBF91
:10333000580E7FBF6DC47EBFB0707EBF23137EBFAB
:10334000CCAB7DBFAC3A7DBFC9BF7CBF283B7CBF47
:10335000CDAC7BBFBE147BBF02737ABF9DC779BF64
:10336000981279BFF85378BFC58B77BF07BA76BF7D
:10337000C6DE75BF0BFA74BFDD0B74BF471473BF95
:10338000521372BF080971BF73F56FBF9ED86EBF2D
:1033900093B26DBF5E836CBF0C4B6BBFA7096ABF56
:1033A0003CBF68BFD86B67BF880F66BF59AA64BFB0
:1033B0005A3C63BF97C561BF214660BF05BE5EBF73
:1033C000532D5DBF1A945BBF6AF259BF534858BF73
:1033D000E59556BF31DB54BF491853BF3D4D51BF32
:1033E000207A4FBF029F4DBFF8BB4BBF12D149BFE0
:1033F00065DE47BF03E445BF01E243BF70D841BF6C
:1034000067C73FBFF9AE3DBF3B8F3BBF426839BF87
:10341000233A37BFF30435BFC9C832BFBB8530BFBD
:10342000DE3B2EBF4AEB2BBF159429BF563627BF74
:1034300025D224BF996722BFCBF61FBFD17F1DBF06
:10344000C6021BBFC07F18BFD9F615BF2A6813BFBD
:10345000CDD310BFDA390EBF6B9A0BBF9BF508BFF7
:10346000824B06BF3D9C03BFE4E700BF275DFCBE67
:10347000CBE0F6BEEA5AF1BEBBCBEBBE7533E6BE7F
:103480004F92E0BE80E8DABE4136D5BECA7BCFBEE1
:1034900053B9C9BE15EFC3BE491DBEBE2A44B8BE4E
:1034A000EF63B2BED47CACBE128FA6BEE59AA0BEBE
:1034B00086A09ABE32A094BE229A8EBE938E88BEFB
:1034C000C07D82BECCCF78BE7F9A6CBE135C60BEDE
:1034D000011554BEC2C547BECF6E3BBEA2102FBE63
:1034E000B5AB22BE834016BE87CF09BE73B2FABD0C
:1034F0002FBCE1BD36BDC8BD80B6AFBD04A996BD29
:10350000752B7BBD2EFB48BD2BC316BDB10AC9BCB4
:10351000920E49BC000000803835000800000020F1
:10352000280000001C20000860350008280000204A
:10353000D00600002C200008000000000000000061
:10354000000000000000807F01000000100000006B
:103550000000000000127A000000000000000000DF
:0400000508000131BD
:00000001FF
