:020000040800F2
:10000000B806002045010008912B00084927000888
:100010008D2B0008B9010008A92D00080000000080
:10002000000000000000000000000000992B000804
:10003000ED01000800000000952B00089D2B000832
:100040005F0100085F0100085F0100085F01000810
:100050005F0100085F0100085F0100085F01000800
:100060005F0100085F0100085F0100085F010008F0
:10007000BD010008C9010008D5010008E101000820
:100080005F0100085F010008990100085F01000896
:100090005F0100085F0100085F0100085F010008C0
:1000A0005F0100085F0100085F0100085F010008B0
:1000B0005F010008A52B00085F0100085F01000830
:1000C0005F0100085F0100085F0100085F01000890
:1000D0005F0100089D2D00085F0100085F01000816
:1000E0005F0100085F0100085F0100085F01000870
:1000F0005F0100085F0100085F0100085F01000860
:100100005F0100085F0100085F0100085F0100084F
:100110005F0100085F0100085F0100085F0100083F
:100120005F0100085F0100085F0100085F0100082F
:10013000DFF80CD000F018F800480047AD2D00089B
:10014000B80600200648804706480047FEE7FEE75D
:10015000FEE7FEE7FEE7FEE7FEE7FEE7FEE7FEE777
:10016000A12B0008310100081CB50948009009487E
:1001700001900546009C06E0E06840F0010394E829
:10018000070098471034AC42F6D3FFF7D5FF0000C4
:10019000A02E0008C02E000880B540F21000C2F268
:1001A000000000F069F940F24000C2F20000BDE832
:1001B000804000F061B90000FEE7000040F27000EE
:1001C000C2F2000000F09EBB40F2B400C2F2000098
:1001D00000F098BB40F23C10C2F2000000F092BB6D
:1001E00040F2F800C2F2000000F08CBB7047000043
:1001F000EFF3108072B600BFFEE700002DE9F04378
:1002000081B00022009290F82420012A06D14FF0FC
:100210000208404601B0BDE8F08300BF8368D1F812
:1002200004C0012280F82420A3B10A690368BCEB52
:10023000020505EB85059E6B05F10F054FF01F04C8
:1002400004FA05F426EA040626F4401612D99E6341
:100250001CE000BFBCF1010F1CD103684FF0000887
:100260009A6B0E686FF3150242EAC6329A634FF03A
:10027000010C16E040F2000E0C68CFF6F07E0EEB9B
:10028000025204FA05F52A4332439A634FF00008FC
:1002900007E000BF0368826A4FF0010842F02002C5
:1002A00082629E6842F2004EF607C4F2010E0FD140
:1002B0009C6847F201058E69AC430EF5C0555D4060
:1002C00086F4C0473D4308BF4FF4804634439C60EA
:1002D0004E7D03F10409012E00F128042AD18F6913
:1002E0002022B7F5E04F274614BF4FF001084F46D4
:1002F00008BF4FF480623D682A433A600A7D012AB4
:100300001BD00C68092C04EB440527D9DA681E3D84
:1003100007268F68AE40B24307FA05F52A4324F05A
:100320000105102DDA6022D19A68012542F40002FD
:100330009A601DE00A7D012AE3D12022002E14BF1D
:100340004FF001084C4608BF4FF4805225682A43FD
:1003500022600C68092C04EB4405D7D81A690726DB
:100360008F68AE40B24307FA05F52A431A610025AB
:10037000ACF1010220261427032A38BF07EB8206BE
:100380009A5940F6FF77C968BA4311439951D5B3DA
:10039000734507D0816A4FF0010841F02001816266
:1003A00031E000BFDEF8081009022CD49968102C47
:1003B00041F40001996026D140F20801C2F2000127
:1003C00009684DF68362C4F21B32A1FB0212910C44
:1003D00001EB8101490000910099A1B10099013917
:1003E0000091009979B1009901390091009951B1BA
:1003F000009901390091009929B1009901390091C2
:1004000000990029EAD1002180F82410404601B06B
:10041000BDE8F0837047000090F82420012A04BF53
:100420000220704702689368DB070AD142F2004C51
:10043000C4F2010CDCF80834624508BF13F0010374
:100440000AD0816A41F0200181620121002280F8F6
:1004500024200846704700BFDCF80430096823F404
:100460007023194351600021002280F8242008469F
:10047000704700007047000070B5044600680568CA
:100480004668B10627D515F0020124D0A16AC90635
:1004900003D4A16A41F40071A162816801F4602172
:1004A000B1F5602F10D1217B71B9416821F0200195
:1004B0004160A06A20F48070A062A06AC00403D4E6
:1004C000A06A40F00100A0622046FFF7D3FF206839
:1004D0006FF012010160310633D515F0040130D000
:1004E000A16AC90603D4A16A41F40051A1628168DE
:1004F00001F4E041B1F5E04F10D1416821F08001F5
:100500004160A06A20F48050A062A06AC00511D4A6
:10051000A06A40F00100A0620CE000BF41684905FC
:1005200008D4816801F46021B1F5602F02D1217BEC
:100530000029E2D02046FFF76DFF20686FF00C0124
:10054000016070060ED515F0010008BF70BDA06AED
:1005500040F48030A062204600F0BCF820686FF0C4
:100560000101016070BD0000002804BF0120704738
:10057000B0B50446806A28B121688868C0070CD1EC
:1005800015E000BF0020E06284F82400204600F05F
:10059000A3F821688868C00709D0886820F00100A6
:1005A000886000F03FFC21688A68D20730D1A06AD9
:1005B000C00644D4A06A41F2021290430230A06205
:1005C000E36981F0804080F49E3083F44022104340
:1005D000D4E9010208BF4FF4002343EA000C531E84
:1005E000B3FA83F35D091346B2F5807F18BF2B027F
:1005F000207D257B01284CEA45002CD135B3A56A26
:1006000045F02005A562E56A45F00105E56222E0B6
:10061000054602E08868C007C9D000F003FC401B13
:1006200021680328F6D38868C007F3D0A06A40F099
:100630001000A062E06A40F00100E062A06AA06AD7
:1006400040F01000A0620120B0BD00BFA56903EB1F
:100650004533A3F5C0534D68B2F5807F25F4694555
:1006600043EA05034B608B684FF2FD75CFF6E175E9
:1006700003EA050343EA00038B6001D0012A07D196
:1006800022690023CFF6F07303EB025201E000BFB2
:100690000022CB6A23F470031A43CA62896840F6C9
:1006A000FE62CFF61F721140814207D10020E06246
:1006B000A16A012262F30101A162B0BDA06A40F00B
:1006C000100020F00200A062E06A40F00100E06249
:1006D0000120B0BD7047000080B586B0006842F6CA
:1006E0000001C4F2010188424FF00001CDE904117C
:1006F000CDE902111ED042F20041C4F2010188424C
:1007000041D141F21800C4F20200016841F40071C5
:100710000160016801F4007101910199016841F0E3
:1007200004010160006800F00400019001980120BC
:1007300017E000BF41F21800C4F20200016841F462
:1007400080610160016801F4806101910199016893
:1007500041F004010160006800F00400019001987C
:10076000022002900320039040F60000C4F2010032
:1007700002A900F05DFA12200121002200F0D2FB54
:10078000122000F0BDFB06B080BD0000014690F8CD
:100790002100022816D10868D1E90FC3026822F0AF
:1007A0000E020260026822F001020260012000FADB
:1007B00003F2CCF8042081F821000020002281F807
:1007C00020207047042088630120002281F8202027
:1007D0007047000090F82110022927D1026840F2EA
:1007E000040C1368C4F2020C23F00E0313601368A8
:1007F0000CF17C018A4223F0010111601AD940F208
:100800000841C4F202018A4250D040F21C41C4F2B5
:1008100002018A4242D040F23041C4F202018A42CF
:1008200048D14FF48073CCF800345CE0042181633C
:10083000012070474321C4F202018A420EDD6B2180
:10084000C4F202018A421BDC4421C4F202018A4242
:100850003ED05821C4F202018A4223E00821C4F2AA
:1008600002018A4232D01C21C4F202018A4237D0EE
:100870003021C4F202018A4214D14FF4807230E078
:100880006C21C4F202018A4226D08021C4F2020106
:100890008A4207D14FF0807223E000BF1023CCF8CA
:1008A000003420E04FF480321BE000BF0123CCF87D
:1008B000003418E00CF588614FF480338A4208BF99
:1008C0004FF48053CCF800340DE000BF012208E063
:1008D0004FF4805205E000BF4FF4801201E000BFEA
:1008E0001022CCF80020012180F82110416B002259
:1008F000002980F8202004BF0020704780B5884779
:10090000002080BD10B5D0E90FE3D0F800C0DEF8BC
:100910000020DCF80010DA4054072DD511F0040453
:100920002AD0DCF80010890605D4DCF8001021F08C
:100930000401CCF800100422C4F2020202F17C018E
:100940008C4569D940F20841C4F202018C4500F09F
:10095000B78040F21C41C4F202018C4500F0A8802F
:1009600040F23041C4F202018C4540F0AD804FF4BA
:100970008061C2F80014F3E094072FD511F002044F
:100980002CD0DCF80010890608D4DCF8001021F027
:100990000A01CCF80010012180F821100422C4F2D1
:1009A000020202F17C018C454CD940F20841C4F2AC
:1009B00002018C4500F0BC8040F21C41C4F20201EF
:1009C0008C4500F0AD8040F23041C4F202018C450C
:1009D00040F0B8804FF40071BCE000BF120740F156
:1009E000D78011F0080108BF10BDDCF8001021F01D
:1009F0000E01CCF80010012101FA03F2CEF8042018
:100A0000816380F82110016B0022002980F82020EA
:100A100040F0A880BCE000BF4321C4F202018C4535
:100A200026DD6B21C4F202018C4533DC4421C4F283
:100A300002018C4500F07E805821C4F202018C45F1
:100A40003AE000BF4321C4F202018C4548DD6B212E
:100A5000C4F202018C4555DC4421C4F202018C45EC
:100A600000F086805821C4F202018C455CE000BF92
:100A70000821C4F202018C4554D01C21C4F20201A9
:100A80008C456BD03021C4F202018C4514D14FF457
:100A9000806164E06C21C4F202018C454ED080215B
:100AA000C4F202018C4507D14FF0806157E000BFCE
:100AB0004021C2F8001453E04FF480214FE000BF02
:100AC0000421C2F800144BE002F588634FF4802142
:100AD0009C4508BF4FF48041C2F8001440E000BFBD
:100AE0000821C4F202018C4540D01C21C4F202014D
:100AF0008C4545D03021C4F202018C4514D14FF40D
:100B000000713EE06C21C4F202018C4534D080219A
:100B1000C4F202018C4507D14FF0007131E000BFF3
:100B2000202117E004211AE04FF4003129E000BF32
:100B300002210FE04FF4804111E000BF4FF480012B
:100B40000DE000BF02F588634FF400319C4508BFFB
:100B50004FF40051C2F8001414E000BF40211160AE
:100B6000C16AA9B1BDE81040084700BF022108E0F2
:100B70004FF4005105E000BF4FF4001101E000BF49
:100B800020211160816A0022002980F82020E9D10B
:100B900010BD0000014600284FF0010008BF70475B
:100BA0002DE9F04740F2000CC4F2020C0A684FF63F
:100BB000F8330CF5816ECBF6FD73724538BF03F543
:100BC000806303EB020E4CF6CD43CCF6CC43AEFB78
:100BD000033E0CF580636FF00304D1E9019AD1F86C
:100BE0000C803CBF0023C4F2020304EA9E04C1E966
:100BF0000F34022381F82130136843F6F074A343C5
:100C000001F1100743EA0903F0CF43EA0A0343EA7C
:100C1000080323432B4333433B43136000228A637F
:100C200081F8210081F820200020BDE8F0477047BE
:100C30002DE9F04F82B00E68002E00F0E980A0F19F
:100C4000804241F6004540F20043A2F58432C4F2EE
:100C500001050624C4F201034FEAB227A84208BFE7
:100C600005244FF0000E4FF001080F254FF0000A49
:100C70004FF0000B052F38BF4FEAB224009408E074
:100C80000E680AF1010A36FA0AF20EF1040E00F0BB
:100C9000BF8008FA0AFC16EA0C09F1D04E684FF63C
:100CA000FF72C1F21002964212DC122E56D8DFE813
:100CB00006F0350B4D495555555555555555555516
:100CC00055555545510000BFD1F80CB046E000BF66
:100CD0004FF6FF72C1F2210296420FDC0022C1F2F0
:100CE000110296421AD00022C1F21202964215D089
:100CF0000022C1F22102964210D02FE00022C1F260
:100D0000220296420AD00022C1F23102964205D058
:100D10000022C1F23202964220D100BF8A684AB155
:100D2000012A14BFC0F814C0C0F810C04FF0080B5F
:100D300014E000BF4FF0040B10E000BFCA6802F1DE
:100D4000040B0BE04FF0000B08E000BFCA6802F193
:100D5000080B03E0CA6802F10C0B00BF02467446A0
:100D6000B9F5807F24BF0432203C166805FA04F7E9
:100D700026EA07070BFA04F637431760CA79D2064A
:100D80007FF57EAF41F21807C4F202073A684FF6CA
:100D9000084542F001023A603A68CFF6FF7502F06A
:100DA00001020192019A2AF003021A440F245759B2
:100DB0000EF00C06B440A743009C04FA06F6374335
:100DC00057514E6840F20C44F2029A6854BF22EA2E
:100DD000090242EA0902C4F201049A602268B702D9
:100DE00054BF22EA090242EA090222605A68B703A4
:100DF00054BF22EA090242EA09025A600F251A6822
:100E0000F70354BF22EA090242EA09021A6037E7EF
:100E100002B0BDE8F08F0000002A08BF090401619C
:100E20007047000040F2B020C2F200000068704736
:100E300040F2000040F2B021C2F20000C2F2000114
:100E400000780A68104408607047000080B542F2DC
:100E50000000C4F20200016841F0100101600320AB
:100E600000F08CF80F2000F005F800F027F80020C3
:100E700080BD000070B540F20006C2F2000640F2EC
:100E800008013278C2F200014FF47A730968B3FBAB
:100E9000F2F20446B1FBF2F1084600F0D1FC0F2C4F
:100EA0004FF0010508D838B94FF0FF302146002235
:100EB000002500F037F87460284670BD82B041F21A
:100EC0001800C4F202000168022241F00101016031
:100ED000016801F0010101910199416841F08051DF
:100EE0004160406800F08050009000980420C4F2F7
:100EF0000100016862F31A61016002B070470000EE
:100F0000002848BF704700F01F01012202FA01F1DA
:100F10001C2202EAD0004EF20012CEF200028150F2
:100F20007047000010B54EF60C5CCEF2000CDCF8F9
:100F30000030C3F3022E8EF00704042C28BF0424D3
:100F4000BEF103034FF0FF3E0EFA04F438BF002356
:100F5000A14399400EFA03F39A43114300F00F02A4
:100F600000F160430901043A03F564436244002838
:100F700048BF02F10C03197010BD00004EF60C5171
:100F8000CEF200010A684FF6FF031A4060F30A220E
:100F900042F0806040F0FD70086070472DE9F0413C
:100FA00082B00446007841F21C06C007C4F2020673
:100FB0004AD030685FEAC00808D4306840F08050FA
:100FC0003060306800F080500190019847F20007CF
:100FD000C4F200073868C00512D4386840F4807045
:100FE0003860FFF71FFF05463868C00508D4FFF7D3
:100FF00019FF401B6428F7D9032002B0BDE8F08137
:10100000706810F4407012D0616801F44071884239
:101010000DD0706840F24042C4F24222012320F415
:10102000407113600023C0071360716026D170689F
:10103000616820F440700843B8F1000F706003D479
:10104000306820F0805030602068810707D556F85E
:10105000181CA26821F44041114346F8181CC00630
:1010600007D556F8180C616920F48000084346F84B
:10107000180C002002B0BDE8F08100BFFFF7D2FEDF
:10108000054641F2883700BF70688007CFD4FFF76C
:10109000C9FE401BB8424FF00300F5D9EAE7000053
:1010A000002804BF012070472DE9F04381B042F2CF
:1010B0000008C4F202080446D8F800000D4600F00B
:1010C000070081420CD9D8F8000020F0070028431F
:1010D000C8F80000D8F8000000F00700A8426CD162
:1010E000206841F204098107C4F2020917D54107BB
:1010F00005D5D9F8001041F4E061C9F800100107E6
:1011000005D5D9F8001041F46051C9F80010D9F89C
:101110000010A26821F0F0011143C9F80010C007C7
:1011200042D1D8F8000000F0070085420CD2D8F870
:10113000000020F007002843C8F80000D8F800009D
:1011400000F00700A84238D12068410707D5D9F838
:101150000010E26821F4E0611143C9F800100007B3
:1011600008D5D9F80000216920F4605040EAC10098
:10117000C9F80000D9F8002002F00C00082841F25C
:101180000020C0F27A004DD142F68E63C2F3834153
:10119000C0F60003595CD20338D440F60010C0F208
:1011A0003D0048433EE000BF606859F8041C022837
:1011B00008D0012826D1890306D4012001B0BDE85A
:1011C000F08300BF8901F8D5D9F8001021F00301A0
:1011D0000843C9F80000FFF725FE064641F28837AC
:1011E000D9F80000616800F00C00B0EB810F98D0D6
:1011F000FFF718FE801BB842F2D9032001B0BDE80A
:10120000F08300BF8907D8D5DEE700BFD9F80020FA
:1012100042F68C63C2F34042C0F600039A5C484336
:10122000B0FBF2F0D9F8001042F67462C1F303117A
:10123000C0F60002515C40F2080220FA01F140F2CF
:101240000400C2F200000068C2F200021160FFF761
:1012500011FE002001B0BDE8F083000040F208005C
:1012600041F20401C2F20000C4F202010068096800
:1012700042F68462C1F30221C0F60002515CC8400C
:101280007047000040F2080041F20401C2F2000081
:10129000C4F202010068096842F68462C1F3C22107
:1012A000C0F60002515CC84070470000002804BF2F
:1012B000012070472DE9F04182B00446007841F2E8
:1012C0000006C007C4F202060CD0706800F00C00E3
:1012D000042840F081803068800303D560680028CE
:1012E00000F04681207880071BD5706810F00C0F45
:1012F00009D0706800F00C00082840F08780706802
:10130000C00300F183803068800703D5206901287D
:1013100040F02E813068616920F0F80040EAC10099
:1013200030602078000713D4207840072CD4E5697A
:10133000002D00F01881706800F00C00082840F0C3
:10134000A780012D40F00481012002B0BDE8F081AA
:10135000A069002800F084800020C4F2422001210E
:10136000C0F88014FFF75EFD054600BF706A800775
:1013700000F1B280FFF756FD401B0228F6D903208A
:1013800002B0BDE8F08100BFF0695FEAC00808D490
:10139000F06940F08050F061F06900F080500090FA
:1013A000009847F20007C4F200073868C00549D426
:1013B000386840F480703860FFF734FD054600BFA0
:1013C0003868C0053ED4FFF72DFD401B6428F7D9CF
:1013D000032002B0BDE8F081706800F00C0008281E
:1013E00003D17068C0033FF576AF616830680029AB
:1013F00000F00C81B1F5A02F00F00081B1F5803F25
:1014000040F01A8140F480301CE100BF20690028C0
:1014100040F20000C4F2422000F088800121016007
:10142000FFF700FD054600BF306880073FF572AF4B
:10143000FFF7F8FC401B0228F6D9032002B0BDE8F4
:10144000F08100BFE168306A002900F09D80052925
:1014500000F09280012940F0AF8040F00100B1E03F
:101460000020C4F242200021C0F88014FFF7DAFC0B
:10147000054600BF706A80077FF556AFFFF7D2FCC4
:10148000401B0228F6D9032002B0BDE8F08100BF5E
:101490000027C4F2422700203866FFF7C3FC022D64
:1014A00005460DD13068800140F1DE80FFF7BAFCBF
:1014B000401B02284FF00300F4D902B0BDE8F081D0
:1014C000306880014FD5FFF7ADFC401B02284FF07C
:1014D0000300F5D9F1E700BF40F20800C2F20000B6
:1014E000006844F6D351C1F26201A0FB0101480A31
:1014F000019000BF00BF0198411E002801913FF4F8
:1015000013AF00BF0198411E002801913FF40CAFBA
:1015100000BF0198411E002801913FF405AF00BFB4
:101520000198411E00280191E4D1FDE600210160EF
:10153000FFF778FC054600BF306880077FF5F1AE05
:10154000FFF770FC401B02284FF00300F4D9B4E70A
:101550007068216A00F480328A4209D1616A00F41D
:101560007010884204D1002002B0BDE8F08100BFB5
:10157000012002B0BDE8F08140F004003062306A22
:1015800040F001001EE000BF20F001003062306A30
:1015900020F004003062FFF745FC054641F2883731
:1015A000306A800720D5FFF73DFC401BB8424FF062
:1015B0000300F5D981E700BF20F001003062306AF6
:1015C00020F004003062FFF72DFC054641F2883719
:1015D000306A800708D4FFF725FC401BB842F7D9D2
:1015E000032002B0BDE8F081B8F1000F3FF59FAED7
:1015F000F06920F08050F06199E600BF40F480204F
:101600003060306840F480301CE000BF20F480304F
:101610003060306820F480203060FFF703FC05461E
:10162000306880037FF55EAEFFF7FCFB401B64284B
:101630004FF00300F4D940E720F480303060306888
:1016400020F480203060FFF7EDFB05463068800312
:101650003FF548AEFFF7E6FB401B6428F6D90320B0
:1016600002B0BDE8F08100BF206AB0F5803F05D12F
:101670007168A26821F40031114371607168626A77
:1016800021F4741111430843706001203866FFF79C
:10169000C9FB0446306880013FF565AFFFF7C2FB28
:1016A000001B02284FF00300F4D906E770B528B1FB
:1016B000416A29B100210161142106E0012070BDB9
:1016C0004168B1F5827F02D01C21002242500026E1
:1016D000866290F8511029B980F85060054600F0F4
:1016E00039F82846022180F8511090E82E0002F4C3
:1016F00082720C6803F4044324F040040C601A4422
:1017000005F4006305691A4405F0020345691A44AB
:1017100005F001038569C4691A4405F400731A448D
:1017200004F03803046A1A4404F08003846A1A43FC
:1017300004F400531A430A60042202EA15424A6084
:10174000CA6922F40062CA610121466580F851101D
:10175000304670BD2DE9F04385B040F600050446E3
:10176000C4F20105006805F520510027884204975E
:10177000CDE90277019703D005B0BDE8F08300BF43
:1017800041F21800C4F20200016801AE41F4805138
:101790000160016840F21C0801F480510091009939
:1017A0000168C4F2020841F004010160006831469A
:1017B00000F0040000900098A02001900220029008
:1017C000032004902846FFF733FA4020CDE90107B3
:1017D000284631460397FFF72BFA40F27005C2F214
:1017E000000580264FF400592846C5E90087C5E961
:1017F0000276C5E90477C5E90679FFF7CBF9002839
:1018000018BFFEF7F5FCE5646C6240F2B40508F120
:101810001400C2F200051021002285E84700284686
:10182000C5E90422C5E90629FFF7B4F9002818BF65
:10183000FEF7DEFCA5646C6205B0BDE8F083000035
:10184000411E0020B0EB116F1CBF012070474EF20B
:101850001002CEF2000251604EF62351CEF200018A
:10186000F0230B70072190601160704770470000F3
:101870007047000090F83C20012A04BF0220704706
:10188000B0B501F108053CCDD1E900CE23F47C537D
:1018900022F470521A432EF4F0431A432CF4E0431E
:1018A0001A4324F4C0431A432A43C96922F48042EC
:1018B000036811435964002180F83C100020B0BD3A
:1018C00090F83C20012A4FF0020242D010B580F877
:1018D0003D200268D2F804E0D2F808C00C682EF06F
:1018E0007003234340F6FF34C4F20004A242536065
:1018F00010DCB2F1804F1FD040F20043C4F200036D
:101900009A4219D040F60003C4F200039A4213D061
:1019100017E000BF40F60043C4F200039A420BD028
:1019200043F20043C4F201039A4205D042F6004359
:10193000C4F201039A4204D149682CF08003194390
:1019400091600121002280F83D1080F83C20BDE824
:101950001040104670470000002804BF0120704767
:1019600010B5044690F83D0028B9002084F83C00EA
:10197000204600F01FF8022084F83D002068211D59
:1019800001F016F9012084F8460084F83E0084F83E
:101990003F0084F8400084F8410084F8420084F855
:1019A000430084F8440084F8450084F83D0000209A
:1019B00010BD000080B582B0006840F20041C4F262
:1019C0000001884214D042F60041C4F2010188426D
:1019D0000CD141F21800C4F20200016841F4006128
:1019E0000160006800F400600190019802B080BDC1
:1019F00041F21800C4F202004168002241F00201E5
:101A000041604068012100F00200009000981D2014
:101A1000FFF788FA1D2002B0BDE88040FFF770BADA
:101A200090F83C20012A4FF002026CD080B580F87B
:101A30003D20D0F800C04FF67772DCF8083023EA7A
:101A40000202CCF808200B684F2B29DC1F2B45DD48
:101A5000202B46D0302B44D0402B40F0AF80D1F823
:101A600004E0C968DCF82030DCF8202022F0010214
:101A7000CCF82020DCF8182022F0F00242EA011114
:101A800023F00A0242EA0E02CCF81810CCF820200B
:101A9000DCF8081041F0470121F0300128E000BFD8
:101AA0006F2B33DDB3F5005F74D0B3F5805F21D0C9
:101AB000702B40F08380D1E901E3C968DCF808208D
:101AC00043EA0E0322F47F4243EA01211143CCF89A
:101AD0000810DCF8081041F0770109E00BB1102B79
:101AE0006CD1DCF8081021F07001194341F00701B6
:101AF000CCF808100022012180F83D10002180F868
:101B00003C10BDE880401046704700BF502B21D0EC
:101B1000602B53D1D1F804E0C968DCF82030DCF840
:101B2000202022F01002CCF82020DCF8182022F42B
:101B3000704242EA013123F0A00242EA0E12CCF8D0
:101B40001810CCF82020DCF8081041F0670121F0D3
:101B50001001CDE7D1F804E0C968DCF82030DCF8EA
:101B6000202022F00102CCF82020DCF8182022F0FE
:101B7000F00242EA011123F00A0242EA0E02CCF816
:101B80001810CCF82020DCF8081041F0570121F0A3
:101B90002001ADE7D1E901E3C968DCF8082043EA98
:101BA0000E0322F47F4243EA01211143CCF80810CE
:101BB000DCF8081041F480419AE700BF01229AE75F
:101BC0007047000070B504460068C5680669B10733
:101BD00016D515F0020113D06FF002010161012149
:101BE00021778069800703D02046FFF7E9FF05E0F1
:101BF000204600F08FF8204600F0ECF90020207716
:101C0000700719D515F0040016D020686FF0040194
:101C1000016102212177806910F4407F04D02046C1
:101C2000FFF7CEFF06E000BF204600F073F8204625
:101C300000F0D0F900202077300717D515F0080004
:101C400014D020686FF00801016104212177C06978
:101C5000800703D02046FFF7B3FF05E0204600F0E1
:101C600059F8204600F0B6F900202077F00619D583
:101C700015F0100016D020686FF0100101610821E6
:101C80002177C06910F4407F04D02046FFF798FF09
:101C900006E000BF204600F03DF8204600F09AF92B
:101CA00000202077F00718BF15F0010002D13006A0
:101CB00009D412E020686FF001010161204600F0B4
:101CC0008BF9300609D515F0800006D020686FF03A
:101CD000800101612046FFF7C9FD700609D515F0A6
:101CE000400006D020686FF040010161204600F0FE
:101CF00075F9B00658BF70BD15F0200008D02168F6
:101D00006FF0200220460A61BDE87040FFF7B0BDC9
:101D100070BD00007047000090F83C30012B04BFFC
:101D2000022070474FEAB202032A00F21D812DE91A
:101D3000F041DFE802F003C7479100BF036843F2B8
:101D400000461D6A1A6A25F0020522F001021A6295
:101D50001A465C6852F818CF8F68D1F800E0C4F2D8
:101D60000106B34245EA070505D042F60047C4F232
:101D70000107BB4205D1CF6825F00C0527F0040709
:101D80003D43B34205D042F60046C4F20106B342D9
:101D900005D1D1E9056724F4407434433C432CF069
:101DA000730747EA0E075C609F614F6809695F63CC
:101DB0001D629F6947F008079F619F6927F004072C
:101DC0009F61C6E0036843F200461D6A1A6A25F463
:101DD000007522F480721A621A46D3F804C052F8D1
:101DE0001CEF8F68D1F80080C4F20106B34245EAC7
:101DF000072505D042F60047C4F20107BB4208D1CF
:101E0000CF6840F2FF443F0225F4406527EA04040E
:101E10002543B34205D042F60044C4F20104A34274
:101E200006D1D1E905462CF44057264347EA061C63
:101E30002EF0730747EA0807C3F804C0DF614F6854
:101E40000969DF631D62DF6947F00807DF61DF6949
:101E500027F00407DF617CE0036843F20047D3F812
:101E600020C01A6AC4F2010722F480521A621A468C
:101E70005C6852F81C5FD1F800E08E68BB4205D068
:101E800042F60047C4F20107BB4204D14F6924F473
:101E9000804444EA87142CF4005747EA063725F4B7
:101EA000E64646EA0E265C60DE614E6809691E64FD
:101EB0001F62DF6947F40067DF61DF6927F480672D
:101EC000DF6145E0036843F200481D6A1A6A25F0A5
:101ED000200522F010021A621A465C6852F818CFE8
:101EE0008F68D1F800E0C4F20108434545EA0715C0
:101EF00005D042F60047C4F20107BB4207D1CF68C4
:101F00006FF0400625F0C00506EA07163543434545
:101F100005D042F60046C4F20106B34206D1D1E92B
:101F2000056724F440643E4344EA86042CF4E64703
:101F300047EA0E275C609F614F6809699F631D62D5
:101F40009F6947F400679F619F6927F480679F61DD
:101F500009021368194311600021BDE8F041002215
:101F600080F83C20084670470121002280F83C2080
:101F700008467047002804BF0120704710B504468A
:101F800090F83D0028B9002084F83C00204600F07D
:101F90001FF8022084F83D002068211D00F008FE93
:101FA000012084F8460084F83E0084F83F0084F85D
:101FB000400084F8410084F8420084F8430084F82B
:101FC000440084F8450084F83D00002010BD000066
:101FD0007047000070470000704700007047000025
:101FE0007047000070470000B0B582B001680A6811
:101FF000CC684B6902F02F05202D04F0200505D197
:1020000025B102B0BDE8B04000F048BE5FEA027CF6
:102010001EBF03F0010E04F4907313EB0E0341D1C5
:10202000036BD50618D5012B16D114F0100313D06D
:10203000002201920A6801924A680192019A496954
:1020400049064BD4818DC28DC38D002B18BF9142A0
:1020500040F0F48102B0B0BD13062DD514F080031A
:102060002AD090F84120212AF4D18268B2F5805F0D
:1020700003D10269002A00F06782026A531C0362DE
:1020800012784A60C28C013A1304C284E2D1C86853
:1020900020F08000C860C86840F04000C86002B00E
:1020A000B0BD00BFD30718BF14F4807340F0D080D8
:1020B000530700F1D380D8E05206CBD514F040028C
:1020C000C8D0CA6822F04002CA60202180F84110BE
:1020D00002B0BDE8B04000F035BB00BFC16B0A687C
:1020E000526893B2002BB5D0858DAB42B2D2C28577
:1020F0008969202900F0A180016851E8031F026866
:1021000021F4807142E80313DBB1016851E8031F39
:10211000026821F4807142E8031393B1016851E829
:10212000031F026821F4807142E803134BB1016878
:1021300051E8031F026821F4807142E80313002B69
:10214000DAD1016851E8051F026821F0010142E877
:102150000513C3B3016851E8051F026821F00101AE
:1021600042E805137BB3016851E8051F026821F0BE
:10217000010142E8051333B3016851E8051F026805
:1021800021F0010142E80513002BDAD11BE000BF6A
:10219000016851E8051F026821F0400142E805137B
:1021A000DBB1016851E8051F026821F0400142E8F7
:1021B000051393B1016851E8051F026821F0400141
:1021C00042E805134BB1016851E8051F026821F090
:1021D000400142E80513002BDAD1202180F842109B
:1021E00000210163016851E8031F026821F010011A
:1021F00042E80313DBB1016851E8031F026821F0D4
:10220000100142E8031393B1016851E8031F02680B
:1022100021F0100142E803134BB1016851E8031F9C
:10222000026821F0100142E80313002BDAD1C16BE0
:1022300004460846FEF7AAFA204602214163818D32
:10224000C28D891A89B202B0BDE8B040FFF7C8BE9E
:10225000436C43F001034364530706D5BEF1000FFE
:1022600003D0436C43F002034364930706D5BEF1E9
:10227000000F03D0436C43F004034364BCF1000F30
:1022800006D55EEA050303D0436C43F008034364BC
:10229000436C002B3FF4DEAE920605D525B1044613
:1022A00000F0FCFC216820464969426C01F04001C5
:1022B00002F00802891800F0B98000BF016851E8F7
:1022C000031F026821F4907142E80313BBB3016855
:1022D00051E8031F026821F4907142E8031373B3BD
:1022E000016851E8031F026821F4907142E803136A
:1022F0002BB3016851E8031F026821F4907142E892
:102300000313002BDAD11AE0016851E8051F0268B7
:1023100021F0010142E80513DBB1016851E8051F16
:10232000026821F0010142E8051393B1016851E808
:10233000051F026821F0010142E805134BB1016855
:1023400051E8051F026821F0010142E80513002B46
:10235000DAD1016B012924D1016851E8031F026819
:1023600021F0100142E80313DBB1016851E8031FBB
:10237000026821F0100142E8031393B1016851E8AB
:10238000031F026821F0100142E803134BB10168FA
:1023900051E8031F026821F0100142E80313002BEB
:1023A000DAD1202180F842100021016301684969D7
:1023B000490640F1C380016851E8051F026821F019
:1023C000400142E80513DBB1016851E8051F0268CE
:1023D00021F0400142E8051393B1016851E8051F5F
:1023E000026821F0400142E805134BB1016851E851
:1023F000051F026821F0400142E80513002BDAD1E5
:10240000C16B002900F09A8042F69142C0F60002AA
:10241000044608464A63FEF7DDF900283FF41AAE89
:10242000E06B416B02B0BDE8B04008470446FFF7DF
:10243000D9FD0020606402B0B0BD00BF891A00BFA2
:10244000026852E8032F036822F4907243E80325E0
:10245000BDB3026852E8032F036822F4907243E888
:10246000032575B3026852E8032F036822F49072C3
:1024700043E803252DB3026852E8032F036822F4D2
:10248000907243E80325002DDAD11AE0026852E881
:10249000052F036822F0010243E80525DDB102683B
:1024A00052E8052F036822F0010243E8052595B1A3
:1024B000026852E8052F036822F0010243E805256F
:1024C0004DB1026852E8052F036822F0010243E88B
:1024D0000525002DDAD1202280F842200022026357
:1024E000026852E8032F036822F0100243E8032534
:1024F000DDB1026852E8032F036822F0100243E8BE
:10250000032595B1026852E8032F036822F01002F8
:1025100043E803254DB1026852E8032F036822F017
:10252000100243E80325002DDAD1022289B242636A
:1025300002B0BDE8B040FFF753BD00BF02B0BDE838
:10254000B040FFF74FBD00BF026A32F8023B6FF3A5
:102550005F234B60026295E5002804BF01207047AD
:1025600010B5044690F8410028B9002084F84000D6
:10257000204600F063F8242084F841002068D4E964
:102580000212C36823F40053C360036923F4405369
:102590001A430261D4E904231143C268194341F28A
:1025A0000C639A431143C1604169A26921F44071EF
:1025B000114343F60002C4F201029042416103D08C
:1025C000FEF74CFE02E000BFFEF75CFED4E90023FC
:1025D000192148439900B0FBF1F048F21F5CC5F2A5
:1025E000EB1CA0FB0C314FF69C734909C0F6FF733E
:1025F00001FB0300322303EB0010A0FB0C03F020CF
:1026000000EA531000EB0110C3F34311084490603B
:102610001069202120F490401061506920F02A00B8
:102620005061D06840F40050D0600020606484F8AD
:10263000411084F84210606310BD00002DE9F043A2
:1026400085B040F600050446C4F20105006805F5B2
:102650004051002788420497CDE90277019703D0C3
:1026600005B0BDE8F08300BF41F21800C4F20200DB
:10267000016801AE41F480410160016840F2440804
:1026800001F48041009100990168C4F2020841F010
:10269000040101600068314600F0040000900098D9
:1026A0004FF400700190022002900320049028460D
:1026B000FEF7BEFA4FF48060CDE9010728463146A7
:1026C0000397FEF7B5FA40F2F80508F11400C2F2DC
:1026D000000580264FF48059C5E900072846C5E962
:1026E0000276C5E90477C5E90679FEF753FA0028B2
:1026F00018BFFDF77DFDE5636C6240F23C15C2F248
:10270000000510200021C5E900802846C5E9021611
:10271000C5E90411C5E90619FEF73CFA002818BFFF
:10272000FDF766FD252002210022A5636C62FEF7FD
:10273000F9FB2520FEF7E4FB05B0BDE8F0830000BF
:102740007047000070470000FEE7000080B588B0C9
:1027500040F2100042F2004C0021C2F20000C4F22C
:10276000010C01234FF46022059103730175C261CE
:10277000C0E900C181600361FDF7F6FE002818BFC3
:10278000FDF736FD4FF4A020079040F21000C2F292
:10279000000007A9FDF740FE002818BFFDF728FD3F
:1027A0000020012100900191049102210690ADF8D2
:1027B0001400039040F210000291C2F2000069463A
:1027C000FDF71CFD002818BFFDF712FD08B080BD05
:1027D000B0B588B040F2400042F600010024C2F2D9
:1027E0000000C4F2010101254FF46022CDE9064446
:1027F00005730475C261C0E9001484600561FDF7CA
:10280000B3FE002818BFFDF7F3FC0220039040F24E
:102810004000C2F2000001A9CDE901550595ADF8CF
:1028200018400494FDF7EAFC002818BFFDF7E0FC0F
:1028300008B0B0BD80B582B041F21400C4F202000D
:102840000168002241F0010101600068002100F0F0
:102850000100019001980C20FEF764FB0C20FEF7AC
:102860004FFB0D2000210022FEF75CFB0D20FEF740
:1028700047FB0E2000210022FEF754FB0E20FEF73E
:102880003FFB0F2000210022FEF74CFB0F2002B07F
:10289000BDE88040FEF734BB70B586B0002541F23C
:1028A0001800CDE90455CDE90255C4F202000168D3
:1028B00040F6000441F0040101600168C4F2010423
:1028C00001F00401019101990168002241F04001E9
:1028D00001600068102100F040000190019820463E
:1028E0001026FEF799FA0120CDE903050220059094
:1028F00002A920460296FEF79BF906B070BD0000C3
:1029000010B540F2801043F20001C2F20000C4F2A0
:1029100001014FF4827200234FF0010C4FF4007E4E
:10292000302480E80E000A21C0E90333C0E905CE57
:10293000C461C0E90833C0E90A31FEF7B7FE0028D8
:1029400008BF10BDBDE81040FDF752BC70B59CB08B
:1029500042F6004540F2D810C4F201050021C2F24F
:10296000000060224FF46163042680241691CDE9B3
:1029700014111191CDE90F11CDE90D11CDE90B1114
:10298000CDE90911CDE90711CDE90511CDE9031113
:10299000CDE90111C0E90051C0E90223C0E90416E4
:1029A0008461FEF7D9FF002818BFFDF721FC4FF422
:1029B0008050139040F2D810C2F2000013A9FFF724
:1029C0002FF8002818BFFDF713FC40F2D810C2F210
:1029D0000000FFF7CFFA002818BFFDF709FC202000
:1029E000109040F2D8100024C2F2000010A91194F7
:1029F000FEF766FF002818BFFDF7FAFB6020CDE95F
:102A0000090440F2D810C2F2000009A90022CDE961
:102A10000B44CDE90D440F94FFF77EF9002818BF51
:102A2000FDF7E6FB40F2D810C2F2000009A904222B
:102A3000FFF772F9002818BFFDF7DAFB40F2D81053
:102A4000C2F2000009A90822FFF766F9002818BFA2
:102A5000FDF7CEFB40F2D81400264FF48070C2F28E
:102A60000004CDE9030601A92046CDE90166CDE9C0
:102A700005660896FEF7FEFE002818BFFDF7B8FBB6
:102A80002068CDE91A66A8421996189602D01CB0A3
:102A900070BD00BF41F21800C4F20200016841F0AD
:102AA00040010160006818A900F0400017901798D5
:102AB0004FF428501890022019901B90A5F5A050B3
:102AC000FEF7B6F80420C4F20100016841F0E061AD
:102AD00041F0C00101601CB070BD000080B586B03F
:102AE00040F2202040F200420021C2F20000C4F275
:102AF0000002472340F6C41C0591CDE90311CDE93E
:102B00000011C0E90023C0E9021C01618161FEF7E8
:102B100023FF002818BFFDF76BFB4FF48050029095
:102B200040F22020C2F2000002A9FEF779FF00283F
:102B300018BFFDF75DFB40F22020C2F2000069469D
:102B4000FEF7BEFE002818BFFDF752FB06B080BDA1
:102B500080B540F2682043F60001C2F20000C4F2E2
:102B6000010100234FF00C0C4FF4E13280E80E001D
:102B7000C0E90333C0E905C3C361FFF7EDFC0028DA
:102B800008BF80BDBDE88040FDF732BBFEE7000016
:102B9000FEE700007047000070470000FEF748B9EC
:102BA0007047000040F22020C2F20000FFF70AB890
:102BB00010B540F6FF320368C4F2000240F6004E42
:102BC00043F2004C9042C4F2000EC4F2010C21DC2E
:102BD000B0F1804F28D040F20044C4F20004A0427B
:102BE00022D040F60004C4F20004A0421CD090425F
:102BF00020DCB0F1804F27D040F20042C4F2000246
:102C0000904221D040F60002C4F2000290421BD054
:102C10001EE000BF704507D0604505D042F6004475
:102C2000C4F20104A042E2D14C6823F070032343B4
:102C30009042DEDD704507D0604505D042F6004287
:102C4000C4F20102904203D1CA6823F440731343D3
:102C50004C6923F08002D1F800E08B682243604584
:102C60000260C362C0F828E005D042F60042C4F218
:102C70000102904201D109690163012141610169A9
:102C8000C90708BF10BD016921F00101016110BD34
:102C9000406A0021C185C184FFF7A4B981B090F8D2
:102CA0004210222921D183680246B3F5805F09D101
:102CB00052F8281F52F8183C002B63D003685B6859
:102CC0000AE000BF52F8281F13B90369002BF5D0A2
:102CD00003685B6803F07F030B70116801311160BA
:102CE000C18D01390A04C18502D001B0704700BF0F
:102CF0000168CA6822F02002CA60CA6822F48072A1
:102D0000CA604A6922F001024A61202180F842101B
:102D100000214163026B012A3CD10163016851E843
:102D2000031F026821F0100142E80313DBB10168C0
:102D300051E8031F026821F0100142E8031393B128
:102D4000016851E8031F026821F0100142E80313F3
:102D50004BB1016851E8031F026821F0100142E8FD
:102D60000313002BDAD101680A68D20606D50022C7
:102D700000920A680092496800910099818D01B023
:102D8000FFF72EB9026852686FF35F2221F8022B19
:102D90008162A5E701B0FFF7D3BC000040F26820D4
:102DA000C2F20000FFF720B9FEE7000096B0FEF780
:102DB0004DF800240120CDE91144CDE90F440C90D9
:102DC00010904FF4E0104FF48031022515900CA8BC
:102DD0000694CDE90444CDE90244CDE90D14CDE9D2
:102DE0001351FEF763FA28B1EFF3108072B600BFFB
:102DF000FEE700BF0F20CDE907054FF48060CDE965
:102E00000A0407A802210994FEF74AF920B1EFF35A
:102E1000108072B6FEE700BF022001904FF4004020
:102E2000039001A8FEF7BAF820B1EFF3108072B654
:102E3000FEE700BFFFF730FDFFF7FCFCFFF788FE61
:102E4000FFF784FCFFF7C4FCFFF75AFDFFF77EFD98
:102E5000FFF744FEFEE702E008C8121F08C1002A7F
:102E6000FAD170477047002001E001C1121F002A0B
:102E7000FBD17047000000000000000001020304C5
:102E80000607080900000000010203040102020312
:102E90000405060708090A0B0C0D0E0F10100000A0
:102EA000C02E00080000002010000000562E000870
:102EB000D02E000810000020A8060000662E000892
:102EC000010000001000000000127A000000000065
:0400000508000131BD
:00000001FF
