:020000040800F2
:100000009807002045010008ED410008793D0008EF
:10001000E9410008290B000885460008000000009F
:10002000000000000000000000000000754400080F
:100030005D0B000800000000F14100087944000851
:100040005F0100085F0100085F0100085F01000810
:100050005F0100085F0100085F0100085F01000800
:100060005F0100085F0100085F0100085F010008F0
:100070002D0B0008390B0008450B0008510B000838
:100080005F0100085F010008050A00085F01000821
:100090005F0100085F0100085F0100085F010008C0
:1000A0005F0100085F0100085F0100085F010008B0
:1000B0005F010008814400085F0100085F0100083B
:1000C0005F0100085F0100085F0100085F01000890
:1000D0005F010008794600085F0100085F01000821
:1000E0005F0100085F0100085F0100085F01000870
:1000F0005F0100085F0100085F0100085F01000860
:100100005F0100085F0100085F0100085F0100084F
:100110005F0100085F0100085F0100085F0100083F
:100120005F0100085F0100085F0100085F0100082F
:10013000DFF80CD000F03EFC00480047594C0008A6
:10014000980700200648804706480047FEE7FEE77C
:10015000FEE7FEE7FEE7FEE7FEE7FEE7FEE7FEE777
:100160007D44000831010008F0B480EA0102D40F98
:100170004200B2EB410F02D20246084611464A0045
:1001800042D0C30DDDB2C1F3C752AD1A202D35DA0E
:10019000C1F3160141F4000204B15242C5F1200638
:1001A00002FA06F12A411044B3EBD05F23D0C4B168
:1001B000012DA0EBC35009DCF0BC4FF0004202EA75
:1001C000C352DBB200F5000000F039BB400000F183
:1001D000807000EBC350A0F1807040EAD1704900FC
:1001E00009E0490841EAC071A0EBC35000F50000E6
:1001F000400800EBC350F0BC00F018BB6142012284
:1002000002EB4101001BF6E7F0BC704781F00041B2
:10021000AAE780F00040A7E780EA010210B502F0EB
:100220000043400022D04A001FD0010E01EB1261B2
:10023000C0F35600C2F3560240F4000042F400023C
:10024000A0FB022000047F39140400D0401C50EAB7
:10025000124001D44000491EC2B20C0604EBD0107B
:10026000401C4008802A02D003E0002010BD20F08E
:100270000100002900DA0020184310BD30B480EAE4
:10028000010202F0004530F0004221F0004013D09E
:1002900090B1C30DD40DC2F31601C0F31600E41AD9
:1002A00041F4000140F400027D34914201D3641C0A
:1002B00000E04900002C02DA30BC002070474FF407
:1002C00000000023914201D3891A034340084FEAFA
:1002D0004101F7D151B1914202D14FF0004105E007
:1002E00002D24FF0010101E06FF0010103EBC450B5
:1002F000284430BC00F09ABA2DE9FE4F804681EACE
:100300000300C00F0C46009021F0004123F000458F
:10031000B8EB0200A94105D24046214690461C4652
:100320000B46024623F00040104347D0270DC7F389
:100330000A00C3F30A510290401A019040286BDA78
:10034000C3F3130040F4801B0098924620B10023B1
:10035000D2EB030A63EB0B0B01985946C0F1400244
:10036000504600F042FA06460D4650465946019A5C
:1003700000F04AFA10EB08006141002487EA1152AC
:1003800084EAE7731A4340D0009A62B3019A012AC3
:100390004FEA075215DC001B61EB02014FF00042EF
:1003A00002EA0752CDE90042001C41F580113246B5
:1003B0002B4600F0B0FA03B0BDE8F08F404621466E
:1003C000F9E7001B61EB0201001C41F580130018E6
:1003D0005B412018A2F5001747EB030140EAD570F6
:1003E000B6196D4111E06D084FEA360645EAC07551
:1003F0004FEA0752001B61EB0201001C41F580111E
:1004000049084FEA30000019514132462B4603B0EB
:10041000BDE8F04F00F070BA0098012240000023C0
:10042000D0EB020263EBE073009821464FEAE074E0
:10043000B8EB000061EB0401E9E783F000435BE700
:1004400081F0004158E72DE9FE4F81EA030404F0F2
:10045000004421F0004100944FF0000B23F00043D2
:1004600050EA01045ED052EA03045BD0C3F30A549D
:10047000C1F30A552C44A4F2F3340194A0FB0254B6
:10048000C1F3130141F48011C3F3130343F4801348
:1004900001FB024400FB034E840A970A44EA81549C
:1004A00047EA8357A4FB076802958D0A05FB078579
:1004B0004FEA932C04FB0C542705029D4FEA065883
:1004C00047EA1637B5EB08056EEB070C870E920E60
:1004D00047EA811742EA8312A7FB0201B6EB0B0140
:1004E00064EB00042B0D43EA0C335E1844EB1C5004
:1004F000DA465146E7FB0201C5F313044FEA0B331A
:1005000043EA14534FEA0432019C43EA0603A4F180
:100510000C040294009CCDE900B400F0FCF903B097
:10052000BDE8F08F00200146F9E72DE9F04D81EAA2
:10053000030404F0004B21F0004514464FF0000A7C
:1005400023F0004150EA050220D054EA01021DD0F8
:10055000C5F30A570246C5F31303C1F31300C1F3F1
:100560000A5640F4801543F48013A7EB0608101BCD
:10057000D64608F2FD3873EB050002D308F10108F6
:1005800001E092185B41B8F1000F03DA0020014648
:10059000BDE8F08D00204FF48011064684460EE041
:1005A000171B73EB050705D3121B63EB050306430B
:1005B0004CEA010C49084FEA300092185B4150EABE
:1005C0000107EDD152EA030012D082EA040083EA67
:1005D0000501084305D0101BAB4106D201220023C0
:1005E00006E000224FF0004302E06FF001025310DA
:1005F0001AEB06004CEB085110EB0A0041EB0B0123
:10060000BDE8F04D00F078B9002801DBC0F10040F2
:10061000002901DBC1F10041814201D8012070476E
:1006200000207047002801DBC0F10040002901DBF9
:10063000C1F10041814201D2012070470020704782
:10064000002801DBC0F10040002901DBC1F10041BD
:10065000814201D30120704700207047002801DB50
:10066000C0F10040002901DBC1F10041814201D904
:10067000012070470020704730B5041E71F100045E
:1006800004DB4FF00044404264EB0101141E73F19F
:10069000000405DB1C464FF00043524263EB0403A9
:1006A000101A8B4101D2012030BD002030BDC10F96
:1006B00080EAE0700844CA079623002100F0BFB822
:1006C00096230022114600F0BAB80EB5C10F80EA99
:1006D000E0700844CA07002140F233438DE80E0061
:1006E0000A460B4600F017F903B000BD0EB540F204
:1006F000334102910021CDE900110A460B4600F07A
:100700000AF903B000BD00F0004220F00040C10D26
:10071000C0F3160040F400007F2901DA0020704782
:10072000962903DCC1F19601C84001E09639884062
:10073000002AF4D04042704720F00040C10DC0F3C1
:10074000160040F400007F2901DA00207047962946
:1007500003DCC1F19601C840704796398840704764
:1007600000F0004230F000400AD0C10D01F5607188
:10077000C0F3160042EA0151C20840071143704716
:1007800000200146704701F0004330B421F00041E1
:1007900050EA010206D00A0DA2F56072C1F31301FE
:1007A000002A02DC30BC00207047440F44EAC10438
:1007B000C100E01830BC00EBC25000F037B830B5D3
:1007C0000B46014600202022012409E021FA02F50F
:1007D0009D4205D303FA02F5491B04FA02F52844A9
:1007E000151EA2F10102F1DC30BD202A04DB203A03
:1007F00000FA02F1002070479140C2F1200320FA74
:1008000003F3194390407047202A06DBCB17203AA8
:1008100041FA02F043EAE07306E041FA02F3D04005
:10082000C2F1200291400843194670470029A8BF31
:100830007047401C490008BF20F00100704710B409
:10084000B0FA80FC00FA0CF050EA010404BF10BCBE
:10085000704749B1CCF1200421FA04F411FA0CF1EB
:1008600018BF012121430843A3EB0C01CB1D4FEA24
:1008700000614FEA102042BF002010BC704700EB1F
:10088000C35010440029A4BF10BC7047401C49004D
:1008900008BF20F0010010BC7047F0B4002802DC53
:1008A000F0BC00207047C0F3C751C0F3160040F4FD
:1008B0000000CA0701D14000491E3F2202EB61053A
:1008C000002211464FF4000626FA01F31344D4180F
:1008D000844201D8001B1A464000491C1729F3DD49
:1008E0005100814202D24FF0FF3100E0002102EBC3
:1008F000C550F0BCFFF79ABF10B5141E73F1000489
:1009000008DA401C41F1000192185B411A4301D101
:1009100020F0010010BD2DE9F04D92469B4611B12B
:10092000B1FA81F202E0B0FA80F220329046FFF78D
:100930005CFF04460F4640EA0A0041EA0B015346B9
:100940005A46084313D0114653EA010019D0C8F1A2
:100950004002504600F046F805460E4650465946BD
:100960004246FFF742FF084305D0012004E020463D
:100970003946BDE8F08D0020054346EAE0762C4379
:1009800037430A986305E40AA0EB08000022FD0A39
:1009900044EA47540A3002D500200146E9E7010540
:1009A00010196941DDE9084500196941BDE8F04DBC
:1009B000A2E700001CB509480090094801900546CF
:1009C000009C06E0E06840F0010394E807009847C7
:1009D0001034AC42F6D3FFF7AFFB00000C5C00080C
:1009E0002C5C0008202A04DB203A21FA02F00021C6
:1009F000704721FA02F3D040C2F12002914008432F
:100A00001946704780B540F21800C2F2000000F0AD
:100A100037FC40F24800C2F20000BDE8804000F020
:100A20002FBC0000B0B5044600688168C90709D032
:100A3000816821F00101816001F05CF92168896819
:100A4000C90701D10020B0BD054602E08068C0079B
:100A5000F8D001F04FF9411B20680329F6D38168D3
:100A6000C907F3D0A06A40F01000A062E06A40F02D
:100A70000100E0620120B0BDB0B582B004460020A4
:100A8000019021688A68D2074BD1886840F0010044
:100A9000886040F21000C2F2000000684DF68361E9
:100AA000C4F21B31A0FB0101880C01900198A0B198
:100AB000019801380190019878B1019801380190AE
:100AC000019850B1019801380190019828B101981E
:100AD0000138019001980028EAD101F00BF9216852
:100AE0008968C9071CD1054603E000BF8068C007BC
:100AF00016D101F0FFF8411B20680329F6D3816865
:100B0000C907F3D1A06A40F01000A062E06A40F08B
:100B10000100E062002084F82400012002B0B0BD92
:100B2000002002B0B0BD0000FEE7000040F28000EF
:100B3000C2F2000000F0EABD40F23C10C2F2000038
:100B400000F0E4BD40F2C410C2F2000000F0DEBDCF
:100B500040F28010C2F2000000F0D8BD70470000E3
:100B6000EFF3108072B600BFFEE7000070B582B0F0
:100B700004460020019094F82400012802D10220AC
:100B800002B070BD012084F824002046FFF74AFF20
:100B90002046FFF771FF28B1002184F8241002B02D
:100BA00070BD00BF0646A06A41F2021188430230C0
:100BB000A06240F21000C2F200000568022001F0BD
:100BC00055F9B5FBF0F0400001900198A8B100BFC5
:100BD000019801380190019878B10198013801908D
:100BE000019850B1019801380190019828B10198FD
:100BF0000138019001980028EAD12068816841F00D
:100C00000801816001F076F821688A6812070FD424
:100C1000886840F00400886001F06CF821688968F9
:100C2000490715D401216FF00302304622E000BFCE
:100C3000054602E088680007EAD501F05BF8401B32
:100C400021680B28F6D388680007F3D50EE000BFB3
:100C5000054602E080684007E4D501F04BF8411BEF
:100C600020680B29F6D381684907F3D501201021AC
:100C70006FF01202A36A1A401143A162002184F8A6
:100C8000241002B070BD00002DE9F04381B00022B5
:100C9000009290F82420012A06D14FF00208404625
:100CA00001B0BDE8F08300BF8368D1F804C0012221
:100CB00080F82420A3B10A690368BCEB020505EBA8
:100CC00085059E6B05F10F054FF01F0404FA05F42E
:100CD00026EA040626F4401612D99E631CE000BFE3
:100CE000BCF1010F1CD103684FF000089A6B0E682D
:100CF0006FF3150242EAC6329A634FF0010C16E018
:100D000040F2000E0C68CFF6F07E0EEB025204FAB1
:100D100005F52A4332439A634FF0000807E000BF0D
:100D20000368826A4FF0010842F0200282629E68E6
:100D300042F2004EF607C4F2010E0FD19C6847F252
:100D400001058E69AC430EF5C0555D4086F4C04781
:100D50003D4308BF4FF4804634439C604E7D03F111
:100D60000409012E00F128042AD18F692022B7F549
:100D7000E04F274614BF4FF001084F4608BF4FF41D
:100D800080623D682A433A600A7D012A1BD00C68C4
:100D9000092C04EB440527D9DA681E3D07268F6825
:100DA000AE40B24307FA05F52A4324F00105102DA1
:100DB000DA6022D19A68012542F400029A601DE0AF
:100DC0000A7D012AE3D12022002E14BF4FF0010832
:100DD0004C4608BF4FF4805225682A4322600C68B5
:100DE000092C04EB4405D7D81A6907268F68AE4052
:100DF000B24307FA05F52A431A610025ACF1010256
:100E000020261427032A38BF07EB82069A5940F69A
:100E1000FF77C968BA4311439951D5B3734507D0D9
:100E2000816A4FF0010841F02001816231E000BF8A
:100E3000DEF8081009022CD49968102C41F4000146
:100E4000996026D140F21001C2F2000109684DF606
:100E50008362C4F21B32A1FB0212910C01EB8101EF
:100E6000490000910099A1B10099013900910099C0
:100E700079B1009901390091009951B10099013976
:100E80000091009929B10099013900910099002938
:100E9000EAD1002180F82410404601B0BDE8F0837B
:100EA000006842F20041C4F20101884200D070475C
:100EB0002DE9F04381B040F21808C2F20008404624
:100EC000012100F0EFF8FFF7FBFB4FF20005C4F241
:100ED0007F552946FFF7D2F9FFF742FC0026CBF6F3
:100EE000E07600223346FFF707FA46F26667C4F25F
:100EF0000A074FF066323B46FFF7A5FAFFF743FCBF
:100F0000044608F13000012100F0CCF8FFF7D8FBCF
:100F10002946FFF7B3F9FFF723FC00223346FFF71A
:100F2000EBF94FF066323B46FFF78DFAFFF72BFCEB
:100F300005462046FFF714FC41F27B4847F6E127BF
:100F4000C4F2AE78C3F6947742463B46FFF7EDFA1B
:100F50000026C4F2490600223346FFF7E6FAFFF7FF
:100F600012FC81462846FFF7FBFB42463B46FFF753
:100F7000DCFA00223346FFF7D8FAFFF704FC40F210
:100F80005C31C2F20001C1F8009040F26031C2F25F
:100F9000000108604CF63A51C3F69371FFF73CF933
:100FA0004CF63A510546C3F613714846FFF734F93B
:100FB0002946FFF7D9F840F23814C2F2000440F293
:100FC00090362268C2F20006316805461046FFF7E7
:100FD0001DF90027C4F2E0073946FFF71DF903F0B9
:100FE000C9FB2268316806461046FFF70FF93946FB
:100FF000FFF712F903F047FB074630462946FFF793
:101000000BF9044648463946FFF706F92146FFF733
:10101000ABF8044638462946FFF7FEF80546484631
:101020003146FFF7F9F801462846FFF7EFF840F29E
:101030005437C2F200074CF6CD463968C3F6CC5699
:1010400005462046324602F099FE40F25834C2F27C
:101050000004216838602846324602F08FFE40F2D4
:101060003831C2F200010A782060013A032A01B047
:10107000BDE8F04388BF7047DFE802F00210060ABF
:10108000486803F001BC00BFD1E9030103F054BD7F
:1010900048688A69496903F067BC00BF886803F043
:1010A000F7BC0000006802393C234022032938BF06
:1010B00002EB8103C058704710B5044690F8240035
:1010C000012804BF022010BD012084F8240020461E
:1010D000FFF7D2FC20B1002184F8241010BD00BF1E
:1010E00042F204422168A06AC4F2010243F2010301
:1010F000984302F57F7300F580509942A06203D0B7
:10110000A06A20F4801006E0106810F4702FF7D069
:10111000A06A40F48010A062A06AC0055CBF0020F5
:10112000E062002084F824006FF004040C604C6836
:10113000640548BF10BD886800F4E040B0F5E04F9A
:101140000CD1994206D0886840F4021088600020D3
:1011500010BD00BF106810F4702FF4D0886840F400
:1011600000408860002010BD10B5044690F82400AF
:10117000012804BF022010BD012084F8240020466D
:10118000FFF77AFC20B1002184F8241010BD00BFC5
:1011900042F204422168A06AC4F2010243F2010350
:1011A000984302F57F7300F580509942A06203D006
:1011B000A06A20F4801006E0106810F4702FF7D0B9
:1011C000A06A40F48010A062A06AC0055CBF002045
:1011D000E062002084F824006FF004040C604C6886
:1011E00044F080044C604C68640548BF10BD8868BA
:1011F00000F4E040B0F5E04F0CD1994206D0886889
:1012000040F402108860002010BD00BF106810F488
:10121000702FF4D0886840F400408860002010BD32
:1012200090F82420012A04BF0220704702689368C6
:10123000DB070AD142F2004CC4F2010CDCF808349E
:10124000624508BF13F001030AD0816A41F0200112
:1012500081620121002280F824200846704700BFE7
:10126000DCF80430096823F470231943516000212D
:10127000002280F8242008467047000070470000D4
:1012800070B50446006805684668B10627D515F0B4
:10129000020124D0A16AC90603D4A16A41F40071F5
:1012A000A162816801F46021B1F5602F10D1217B2A
:1012B00071B9416821F020014160A06A20F480707A
:1012C000A062A06AC00403D4A06A40F00100A0623A
:1012D0002046FFF7D3FF20686FF01201016031064E
:1012E00033D515F0040130D0A16AC90603D4A16A30
:1012F00041F40051A162816801F4E041B1F5E04F91
:1013000010D1416821F080014160A06A20F4805032
:10131000A062A06AC00511D4A06A40F00100A062DA
:101320000CE000BF4168490508D4816801F46021E0
:10133000B1F5602F02D1217B0029E2D02046FFF7D2
:10134000AFFD20686FF00C01016070060ED515F03E
:10135000010008BF70BDA06A40F48030A062204642
:1013600000F0BCF820686FF00101016070BD000062
:10137000002804BF01207047B0B50446806A28B138
:1013800021688868C0070CD115E000BF0020E0622A
:1013900084F82400204600F0A3F821688868C0077C
:1013A00009D0886820F00100886000F0A3FC216863
:1013B0008A68D20730D1A06AC00644D4A06A41F23C
:1013C000021290430230A062E36981F0804080F411
:1013D0009E3083F440221043D4E9010208BF4FF449
:1013E000002343EA000C531EB3FA83F35D0913464E
:1013F000B2F5807F18BF2B02207D257B01284CEAA7
:1014000045002CD135B3A56A45F02005A562E56AF3
:1014100045F00105E56222E0054602E08868C00764
:10142000C9D000F067FC401B21680328F6D3886808
:10143000C007F3D0A06A40F01000A062E06A40F05C
:101440000100E062A06AA06A40F01000A0620120E2
:10145000B0BD00BFA56903EB4533A3F5C0534D688C
:10146000B2F5807F25F4694543EA05034B608B683C
:101470004FF2FD75CFF6E17503EA050343EA000379
:101480008B6001D0012A07D122690023CFF6F073C7
:1014900003EB025201E000BF0022CB6A23F4700389
:1014A0001A43CA62896840F6FE62CFF61F72114085
:1014B000814207D10020E062A16A012262F30101AA
:1014C000A162B0BDA06A40F0100020F00200A0624E
:1014D000E06A40F00100E0620120B0BD704700000A
:1014E00080B586B0006842F60001C4F2010188426E
:1014F0004FF00001CDE90411CDE902111ED042F2F6
:101500000041C4F20101884241D141F21800C4F205
:101510000200016841F400710160016801F400718A
:1015200001910199016841F004010160006800F037
:10153000040001900198012017E000BF41F218005B
:10154000C4F20200016841F480610160016801F4A5
:10155000806101910199016841F004010160006816
:1015600000F00400019001980220029003200390F3
:1015700040F60000C4F2010002A900F0C1FA1220F6
:101580000121002200F036FC122000F021FC06B000
:1015900080BD0000014690F82100022816D108689D
:1015A000D1E90FC3026822F00E020260026822F045
:1015B00001020260012000FA03F2CCF8042081F855
:1015C00021000020002281F8202070470420886339
:1015D0000120002281F820207047000090F821109F
:1015E000022927D1026840F2040C1368C4F2020CED
:1015F00023F00E03136013680CF17C018A4223F080
:10160000010111601AD940F20841C4F202018A4274
:1016100050D040F21C41C4F202018A4242D040F252
:101620003041C4F202018A4248D14FF48073CCF8B1
:1016300000345CE004218163012070474321C4F23F
:1016400002018A420EDD6B21C4F202018A421BDCD8
:101650004421C4F202018A423ED05821C4F2020160
:101660008A4223E00821C4F202018A4232D01C21BE
:10167000C4F202018A4237D03021C4F202018A4208
:1016800014D14FF4807230E06C21C4F202018A421E
:1016900026D08021C4F202018A4207D14FF0807225
:1016A00023E000BF1023CCF8003420E04FF4803258
:1016B0001BE000BF0123CCF8003418E00CF5886172
:1016C0004FF480338A4208BF4FF48053CCF8003483
:1016D0000DE000BF012208E04FF4805205E000BF9A
:1016E0004FF4801201E000BF1022CCF8002001214D
:1016F00080F82110416B0022002980F8202004BFCF
:101700000020704780B58847002080BD10B5D0E923
:101710000FE3D0F800C0DEF80020DCF80010DA405B
:1017200054072DD511F004042AD0DCF800108906E6
:1017300005D4DCF8001021F00401CCF800100422DC
:10174000C4F2020202F17C018C4569D940F20841E1
:10175000C4F202018C4500F0B78040F21C41C4F293
:1017600002018C4500F0A88040F23041C4F2020131
:101770008C4540F0AD804FF48061C2F80014F3E076
:1017800094072FD511F002042CD0DCF80010890644
:1017900008D4DCF8001021F00A01CCF80010012177
:1017A00080F821100422C4F2020202F17C018C456F
:1017B0004CD940F20841C4F202018C4500F0BC80D3
:1017C00040F21C41C4F202018C4500F0AD8040F2B1
:1017D0003041C4F202018C4540F0B8804FF40071F2
:1017E000BCE000BF120740F1D78011F0080108BF2C
:1017F00010BDDCF8001021F00E01CCF80010012122
:1018000001FA03F2CEF80420816380F82110016B05
:101810000022002980F8202040F0A880BCE000BF12
:101820004321C4F202018C4526DD6B21C4F2020182
:101830008C4533DC4421C4F202018C4500F07E80EB
:101840005821C4F202018C453AE000BF4321C4F2A2
:1018500002018C4548DD6B21C4F202018C4555DC48
:101860004421C4F202018C4500F086805821C4F264
:1018700002018C455CE000BF0821C4F202018C45E6
:1018800054D01C21C4F202018C456BD03021C4F22B
:1018900002018C4514D14FF4806164E06C21C4F2E4
:1018A00002018C454ED08021C4F202018C4507D143
:1018B0004FF0806157E000BF4021C2F8001453E0B0
:1018C0004FF480214FE000BF0421C2F800144BE028
:1018D00002F588634FF480219C4508BF4FF4804196
:1018E000C2F8001440E000BF0821C4F202018C4598
:1018F00040D01C21C4F202018C4545D03021C4F2F5
:1019000002018C4514D14FF400713EE06C21C4F209
:1019100002018C4534D08021C4F202018C4507D1EC
:101920004FF0007131E000BF202117E004211AE0E0
:101930004FF4003129E000BF02210FE04FF4804155
:1019400011E000BF4FF480010DE000BF02F5886395
:101950004FF400319C4508BF4FF40051C2F8001409
:1019600014E000BF40211160C16AA9B1BDE8104078
:10197000084700BF022108E04FF4005105E000BF16
:101980004FF4001101E000BF20211160816A0022A4
:10199000002980F82020E9D110BD00000146002870
:1019A0004FF0010008BF70472DE9F04740F2000CEE
:1019B000C4F2020C0A684FF6F8330CF5816ECBF6D0
:1019C000FD73724538BF03F5806303EB020E4CF6DE
:1019D000CD43CCF6CC43AEFB033E0CF580636FF0F9
:1019E0000304D1E9019AD1F80C803CBF0023C4F272
:1019F000020304EA9E04C1E90F34022381F8213076
:101A0000136843F6F074A34301F1100743EA090396
:101A1000F0CF43EA0A0343EA080323432B4333434B
:101A20003B43136000228A6381F8210081F8202063
:101A30000020BDE8F047704790F820C0BCF1010FCE
:101A400004BF02207047F0B54FF0010E80F820E08F
:101A500090F821C0BCF1010F26D14FF0020C80F8A4
:101A600021C04FF0000CC0F838C0D0E900C4C56AEE
:101A7000C66BDCF80070102C27F00107CCF8007062
:101A8000006C0EFA00F070600846CCF8043004BF19
:101A900010460A46CCF80800CCF80C20DCF8000010
:101AA00045B140F00E000DE0002180F8201002202A
:101AB000F0BD00BF20F00400CCF80000DCF800000E
:101AC00040F00A00CCF80000DCF8000040F0010013
:101AD000CCF800000020F0BDB0B5044600F00AF9D3
:101AE000054640F20800C2F200000078611C18BFF1
:101AF000044400BF00F0FEF8401BA042FAD3B0BD82
:101B00002DE9F04F82B00E68002E00F0E980A0F1C0
:101B1000804241F6004540F20043A2F58432C4F20F
:101B200001050624C4F201034FEAB227A84208BF08
:101B300005244FF0000E4FF001080F254FF0000A6A
:101B40004FF0000B052F38BF4FEAB224009408E095
:101B50000E680AF1010A36FA0AF20EF1040E00F0DC
:101B6000BF8008FA0AFC16EA0C09F1D04E684FF65D
:101B7000FF72C1F21002964212DC122E56D8DFE834
:101B800006F0350B4D495555555555555555555537
:101B900055555545510000BFD1F80CB046E000BF87
:101BA0004FF6FF72C1F2210296420FDC0022C1F211
:101BB000110296421AD00022C1F21202964215D0AA
:101BC0000022C1F22102964210D02FE00022C1F281
:101BD000220296420AD00022C1F23102964205D07A
:101BE0000022C1F23202964220D100BF8A684AB177
:101BF000012A14BFC0F814C0C0F810C04FF0080B81
:101C000014E000BF4FF0040B10E000BFCA6802F1FF
:101C1000040B0BE04FF0000B08E000BFCA6802F1B4
:101C2000080B03E0CA6802F10C0B00BF02467446C1
:101C3000B9F5807F24BF0432203C166805FA04F70A
:101C400026EA07070BFA04F637431760CA79D2066B
:101C50007FF57EAF41F21807C4F202073A684FF6EB
:101C6000084542F001023A603A68CFF6FF7502F08B
:101C700001020192019A2AF003021A440F245759D3
:101C80000EF00C06B440A743009C04FA06F6374356
:101C900057514E6840F20C44F2029A6854BF22EA4F
:101CA000090242EA0902C4F201049A602268B702FA
:101CB00054BF22EA090242EA090222605A68B703C5
:101CC00054BF22EA090242EA09025A600F251A6843
:101CD000F70354BF22EA090242EA09021A6037E711
:101CE00002B0BDE8F08F0000002A08BF09040161BE
:101CF0007047000040F29430C2F200000068704764
:101D000040F2080040F29431C2F20000C2F2000139
:101D100000780A68104408607047000080B542F2FD
:101D20000000C4F20200016841F0100101600320CC
:101D300000F08CF80F2000F005F800F027F80020E4
:101D400080BD000070B540F20806C2F2000640F205
:101D500010013278C2F200014FF47A730968B3FBC4
:101D6000F2F20446B1FBF2F1084600F0CBFE0F2C74
:101D70004FF0010508D838B94FF0FF302146002256
:101D8000002500F037F87460284670BD82B041F23B
:101D90001800C4F202000168022241F00101016052
:101DA000016801F0010101910199416841F0805100
:101DB0004160406800F08050009000980420C4F218
:101DC0000100016862F31A61016002B0704700000F
:101DD000002848BF704700F01F01012202FA01F1FC
:101DE0001C2202EAD0004EF20012CEF20002815014
:101DF0007047000010B54EF60C5CCEF2000CDCF81B
:101E00000030C3F3022E8EF00704042C28BF0424F4
:101E1000BEF103034FF0FF3E0EFA04F438BF002377
:101E2000A14399400EFA03F39A43114300F00F02C5
:101E300000F160430901043A03F564436244002859
:101E400048BF02F10C03197010BD00004EF60C5192
:101E5000CEF200010A684FF6FF031A4060F30A222F
:101E600042F0806040F0FD7008607047411E0F290D
:101E70004FF000003DD8DFE801F00B2B3C093C3C63
:101E80003C093C3C3C3C3C3C3C3D00BF00F0FEB9C6
:101E900041F20400C4F20200C16940F202320A4079
:101EA000B2F5817F04BF4FF40040704701F44071E8
:101EB000B1F5407F50D0B1F5007F1CBF00207047C6
:101EC000006A49F64041800701EAE070704700BFB0
:101ED00080B500F0C7F941F20401C4F202010968BB
:101EE0000222C1F3813102EB4101B0FBF1F0BDE808
:101EF0008040704741F20401C4F202010A6851F8BF
:101F0000040CC0015CBF00207047C2F3834016A3DD
:101F1000185CD20306D440F60012C0F23D025043D2
:101F20000CE000BF0A6814A3C2F340429A5C41F27D
:101F30000023C0F27A03B3FBF2F25043096849026E
:101F400048BF70474AF6AB214000CAF6AA21A0FB61
:101F500001014808704700BF50F8040C4FF22441BB
:101F6000800301EAE07070470203040506070809D0
:101F70000A0B0C0D0E0F1010010200002DE9F041AC
:101F800082B00446007841F21C06C007C4F2020683
:101F90004AD030685FEAC00808D4306840F080500A
:101FA0003060306800F080500190019847F20007DF
:101FB000C4F200073868C00512D4386840F4807055
:101FC0003860FFF797FE05463868C00508D4FFF76C
:101FD00091FE401B6428F7D9032002B0BDE8F081D0
:101FE000706810F4407012D0616801F4407188424A
:101FF0000DD0706840F24042C4F24222012320F426
:10200000407113600023C0071360716026D17068AF
:10201000616820F440700843B8F1000F706003D489
:10202000306820F0805030602068810707D556F86E
:10203000181CA26821F44041114346F8181CC00640
:1020400007D556F8180C616920F48000084346F85B
:10205000180C002002B0BDE8F08100BFFFF74AFE77
:10206000054641F2883700BF70688007CFD4FFF77C
:1020700041FE401BB8424FF00300F5D9EAE70000EB
:10208000002804BF012070472DE9F04381B042F2DF
:102090000008C4F202080446D8F800000D4600F01B
:1020A000070081420CD9D8F8000020F0070028432F
:1020B000C8F80000D8F8000000F00700A8426CD172
:1020C000206841F204098107C4F2020917D54107CB
:1020D00005D5D9F8001041F4E061C9F800100107F6
:1020E00005D5D9F8001041F46051C9F80010D9F8AD
:1020F0000010A26821F0F0011143C9F80010C007D8
:1021000042D1D8F8000000F0070085420CD2D8F880
:10211000000020F007002843C8F80000D8F80000AD
:1021200000F00700A84238D12068410707D5D9F848
:102130000010E26821F4E0611143C9F800100007C3
:1021400008D5D9F80000216920F4605040EAC100A8
:10215000C9F80000D9F8002002F00C00082841F26C
:102160000020C0F27A004DD145F2F633C2F383412C
:10217000C0F60003595CD20338D440F60010C0F218
:102180003D0048433EE000BF606859F8041C022847
:1021900008D0012826D1890306D4012001B0BDE86A
:1021A000F08300BF8901F8D5D9F8001021F00301B0
:1021B0000843C9F80000FFF79DFD064641F2883745
:1021C000D9F80000616800F00C00B0EB810F98D0E6
:1021D000FFF790FD801BB842F2D9032001B0BDE8A3
:1021E000F08300BF8907D8D5DEE700BFD9F800200B
:1021F00045F2F433C2F34042C0F600039A5C484310
:10220000B0FBF2F0D9F8001045F2DC32C1F3031153
:10221000C0F60002515C40F2100220FA01F140F2D7
:102220000C00C2F200000068C2F200021160FFF769
:1022300089FD002001B0BDE8F083000040F21000ED
:1022400041F20401C2F20000C4F202010068096810
:1022500045F2EC32C1F30221C0F60002515CC840E5
:102260007047000040F2100041F20401C2F2000089
:10227000C4F202010068096845F2EC32C1F3C221E0
:10228000C0F60002515CC8407047000041F2040CE7
:10229000C4F2020CDCF8003003F00C00082841F214
:1022A0000020C0F27A0018BF704745F2F631C3F340
:1022B0008342C0F600018A5CD90305D440F60010C1
:1022C000C0F23D0050437047DCF8001045F2F43393
:1022D000C1F34041C0F60003595C5043B0FBF1F03C
:1022E00070470000002804BF012070472DE9F0412D
:1022F00082B00446007841F20006C007C4F202062C
:102300000CD0706800F00C00042840F08180306828
:10231000800303D56068002800F04681207880079C
:102320001BD5706810F00C0F09D0706800F00C001D
:10233000082840F087807068C00300F1838030680F
:10234000800703D52069012840F02E81306861693B
:1023500020F0F80040EAC10030602078000713D474
:10236000207840072CD4E569002D00F018817068B2
:1023700000F00C00082840F0A780012D40F00481F7
:10238000012002B0BDE8F081A069002800F084803F
:102390000020C4F242200121C0F88014FFF7AAFCFB
:1023A000054600BF706A800700F1B280FFF7A2FC0B
:1023B000401B0228F6D9032002B0BDE8F08100BF1F
:1023C000F0695FEAC00808D4F06940F08050F0611D
:1023D000F06900F080500090009847F20007C4F2C6
:1023E00000073868C00549D4386840F48070386008
:1023F000FFF780FC054600BF3868C0053ED4FFF7F4
:1024000079FC401B6428F7D9032002B0BDE8F081B5
:10241000706800F00C00082803D17068C0033FF515
:1024200076AF61683068002900F00C81B1F5A02F0B
:1024300000F00081B1F5803F40F01A8140F4803017
:102440001CE100BF2069002840F20000C4F24220D5
:1024500000F0888001210160FFF74CFC054600BFB9
:10246000306880073FF572AFFFF744FC401B02283D
:10247000F6D9032002B0BDE8F08100BFE168306A00
:10248000002900F09D80052900F09280012940F08C
:10249000AF8040F00100B1E00020C4F242200021F2
:1024A000C0F88014FFF726FC054600BF706A80075D
:1024B0007FF556AFFFF71EFC401B0228F6D903201C
:1024C00002B0BDE8F08100BF0027C4F2422700201F
:1024D0003866FFF70FFC022D05460DD130688001EC
:1024E00040F1DE80FFF706FC401B02284FF003009E
:1024F000F4D902B0BDE8F081306880014FD5FFF714
:10250000F9FB401B02284FF00300F5D9F1E700BFAB
:1025100040F21000C2F20000006844F6D351C1F24C
:102520006201A0FB0101480A019000BF00BF0198B1
:10253000411E002801913FF413AF00BF0198411ED6
:10254000002801913FF40CAF00BF0198411E002804
:1025500001913FF405AF00BF0198411E0028019191
:10256000E4D1FDE600210160FFF7C4FB054600BF92
:10257000306880077FF5F1AEFFF7BCFB401B0228F7
:102580004FF00300F4D9B4E77068216A00F4803298
:102590008A4209D1616A00F47010884204D1002097
:1025A00002B0BDE8F08100BF012002B0BDE8F081BB
:1025B00040F004003062306A40F001001EE000BFCD
:1025C00020F001003062306A20F004003062FFF732
:1025D00091FB054641F28837306A800720D5FFF726
:1025E00089FB401BB8424FF00300F5D981E700BFDB
:1025F00020F001003062306A20F004003062FFF702
:1026000079FB054641F28837306A800708D4FFF726
:1026100071FB401BB842F7D9032002B0BDE8F0813E
:10262000B8F1000F3FF59FAEF06920F08050F061E7
:1026300099E600BF40F480203060306840F480307C
:102640001CE000BF20F480303060306820F480202F
:102650003060FFF74FFB0546306880037FF55EAEC4
:10266000FFF748FB401B64284FF00300F4D940E714
:1026700020F480303060306820F480203060FFF734
:1026800039FB0546306880033FF548AEFFF732FB63
:10269000401B6428F6D9032002B0BDE8F08100BFDA
:1026A000206AB0F5803F05D17168A26821F400313D
:1026B000114371607168626A21F474111143084317
:1026C000706001203866FFF715FB04463068800112
:1026D0003FF565AFFFF70EFB001B02284FF003002C
:1026E000F4D906E7B0B5416D054640F6000412A0E6
:1026F000C4F2010402F068FD286804F52051884204
:1027000018BFB0BD204610210122FFF7EDFA204688
:1027100010210022FFF7E8FA40F27800C2F2000030
:10272000411C40F20820C2F200000A460323BDE823
:10273000B04000F0E1B800BF48414C5F5350495FE2
:102740004572726F7243616C6C6261636B3A2564AF
:102750000A00000070B528B1416A29B10021016169
:10276000142106E0012070BD4168B1F5827F02D0DE
:102770001C21002242500026866290F8511029B98F
:1027800080F85060054600F039F82846022180F8AC
:10279000511090E82E0002F482720C6803F4044396
:1027A00024F040040C601A4405F4006305691A44DF
:1027B00005F0020345691A4405F001038569C469FF
:1027C0001A4405F400731A4404F03803046A1A44E6
:1027D00004F08003846A1A4304F400531A430A6025
:1027E000042202EA15424A60CA6922F40062CA6100
:1027F0000121466580F85110304670BD2DE9F04347
:1028000085B040F600050446C4F20105006805F5F0
:102810002051002788420497CDE90277019703D021
:1028200005B0BDE8F08300BF41F21800C4F2020019
:10283000016801AE41F480510160016840F21C085A
:1028400001F48051009100990168C4F2020841F03E
:10285000040101600068314600F004000090009817
:10286000A020019002200290032004902846FFF748
:1028700047F94020CDE90107284631460397FFF785
:102880003FF940F27805C2F20005284640F8088F6B
:1028900080264FF40059C0E90177C0E90367C0E919
:1028A0000577C0F81C90FFF779F8002818BFFEF7ED
:1028B00057F905F10800EC6240F23C15E06408F1BC
:1028C0001400C2F200051021002285E847002846C6
:1028D000C5E90422C5E90629FFF760F8002818BFFA
:1028E000FEF73EF9A5646C6205B0BDE8F083000018
:1028F000704700007047000070B590F85150012DEE
:1029000008D100294FF0010C18BF002A0ED16046F3
:1029100070BD00BF4468B4F5827F0DD1042D4FF027
:10292000020CF4D18568002DEBD0F0E7002BEED03F
:1029300090F85050012D01D1022070BD012580F882
:10294000505090F851500024042D1CBF052580F8EC
:102950005150446501638386C38682638387C3873E
:10296000C0E9104490F8511044F2152344F21D269A
:10297000C0F60003C0F600060568D0F84CC0042974
:1029800008BF1E4644F2252144F2D123C0F60001BF
:10299000C0F6000308BF0B4644F2F511C0F6000173
:1029A000CCE90A36CCE90C14C38F064605F10C01BC
:1029B0006046FFF741F838B1706D40F01000706567
:1029C000012086F8504070BD3568B06C696805F12B
:1029D0000C0241F001016960C0E90A44C0E90C44FD
:1029E000316BF38EFFF728F840B1706D40F01000A6
:1029F0007065002086F85000012070BD30683546B3
:102A00000168490603D4016841F0400101604FF0BC
:102A1000000C85F850C0416841F0200141604168D8
:102A200041F002014160604670BD00002DE9F041B7
:102A300040F60004C4F20104006804F52051884205
:102A400018BFBDE8F0812046102101224FF0010897
:102A5000FFF74AF940F27805C2F200056878A978D4
:102A600080012F7840EA9100FDF740FE4DF64A02C2
:102A700042F2FB13C4F61252C4F21903FDF7E3FC51
:102A80004FF68073C4F2CF030022FDF74EFDFDF731
:102A90007AFE40F23816C2F20006306037B940F2D2
:102AA0009031C2F2000185F8008008606968FDF786
:102AB000ADFB40F6DB71C4F2C90101F0ADFE326836
:102AC00040F26436C2F2000631686A60FDF74CFBE2
:102AD0004CF6E431C4F2961101F09EFE30602046BF
:102AE00010210022FFF700F9691C40F20820C2F211
:102AF00000000A460323BDE8F041FFF7FDBE0000D9
:102B000070470000411E0020B0EB116F1CBF012078
:102B100070474EF21002CEF2000251604EF6235181
:102B2000CEF20001F0230B70072190601160704716
:102B3000704700007047000090F83C20012A04BF55
:102B400002207047B0B501F108053CCDD1E900CEB7
:102B500023F47C5322F470521A432EF4F0431A43A8
:102B60002CF4E0431A4324F4C0431A432A43C969AE
:102B700022F48042036811435964002180F83C101C
:102B80000020B0BD90F83C20012A4FF0020242D054
:102B900010B580F83D200268D2F804E0D2F808C0F1
:102BA0000C682EF07003234340F6FF34C4F2000497
:102BB000A242536010DCB2F1804F1FD040F20043BC
:102BC000C4F200039A4219D040F60003C4F2000395
:102BD0009A4213D017E000BF40F60043C4F200034E
:102BE0009A420BD043F20043C4F201039A4205D04B
:102BF00042F60043C4F201039A4204D149682CF022
:102C00008003194391600121002280F83D1080F873
:102C10003C20BDE81040104670470000002804BF6B
:102C20000120704710B5044690F83D0028B90020F7
:102C300084F83C00204600F01FF8022084F83D0094
:102C40002068211D01F022FC012084F8460084F850
:102C50003E0084F83F0084F8400084F8410084F886
:102C6000420084F8430084F8440084F8450084F866
:102C70003D00002010BD000080B582B0006840F229
:102C80000041C4F20001884214D042F60041C4F26F
:102C9000010188420CD141F21800C4F2020001681F
:102CA00041F400610160006800F400600190019847
:102CB00002B080BD41F21800C4F202004168002257
:102CC00041F0020141604068012100F002000090E3
:102CD00000981D20FFF78EF81D2002B0BDE880404F
:102CE000FFF776B890F83D1001291CBF012070470E
:102CF000022180F83D10006840F6FF32C168C4F23E
:102D00000002904241F00101C1600FDCB0F1804F40
:102D10001ED040F20041C4F20001884218D040F6B3
:102D20000001C4F20001884212D018E040F60041D0
:102D3000C4F2000188420BD043F20041C4F2010109
:102D4000884205D042F60041C4F20101884206D112
:102D5000816801F00701062904BF0020704701685F
:102D600041F00101016000207047000090F83C2014
:102D7000012A4FF002026CD080B580F83D20D0F8D7
:102D800000C04FF67772DCF8083023EA0202CCF874
:102D900008200B684F2B29DC1F2B45DD202B46D04C
:102DA000302B44D0402B40F0AF80D1F804E0C9680C
:102DB000DCF82030DCF8202022F00102CCF82020C2
:102DC000DCF8182022F0F00242EA011123F00A0296
:102DD00042EA0E02CCF81810CCF82020DCF80810DB
:102DE00041F0470121F0300128E000BF6F2B33DDB7
:102DF000B3F5005F74D0B3F5805F21D0702B40F045
:102E00008380D1E901E3C968DCF8082043EA0E03B6
:102E100022F47F4243EA01211143CCF80810DCF888
:102E2000081041F0770109E00BB1102B6CD1DCF8F0
:102E3000081021F07001194341F00701CCF8081087
:102E40000022012180F83D10002180F83C10BDE8EF
:102E500080401046704700BF502B21D0602B53D1CB
:102E6000D1F804E0C968DCF82030DCF8202022F03A
:102E70001002CCF82020DCF8182022F4704242EA3C
:102E8000013123F0A00242EA0E12CCF81810CCF85F
:102E90002020DCF8081041F0670121F01001CDE797
:102EA000D1F804E0C968DCF82030DCF8202022F0FA
:102EB0000102CCF82020DCF8182022F0F00242EACF
:102EC000011123F00A0242EA0E02CCF81810CCF8E5
:102ED0002020DCF8081041F0570121F02001ADE777
:102EE000D1E901E3C968DCF8082043EA0E0322F4C3
:102EF0007F4243EA01211143CCF80810DCF80810A6
:102F000041F480419AE700BF01229AE77047000030
:102F100070B504460068C5680669B10716D515F096
:102F2000020113D06FF00201016101212177806954
:102F3000800703D02046FFF7E9FF05E0204600F0B8
:102F40008FF8204600F0ECF900202077700719D5A3
:102F500015F0040016D020686FF004010161022111
:102F60002177806910F4407F04D02046FFF7CEFF20
:102F700006E000BF204600F073F8204600F0D0F9CC
:102F800000202077300717D515F0080014D02068EE
:102F90006FF00801016104212177C069800703D027
:102FA0002046FFF7B3FF05E0204600F059F8204621
:102FB00000F0B6F900202077F00619D515F01000C2
:102FC00016D020686FF01001016108212177C069D7
:102FD00010F4407F04D02046FFF798FF06E000BFC2
:102FE000204600F03DF8204600F09AF900202077B6
:102FF000F00718BF15F0010002D1300609D412E025
:1030000020686FF001010161204600F0FBF93006F5
:1030100009D515F0800006D020686FF080010161AD
:103020002046FFF785FD700609D515F0400006D053
:1030300020686FF040010161204600F01DFAB006E3
:1030400058BF70BD15F0200008D021686FF0200235
:1030500020460A61BDE87040FFF76CBD70BD0000FE
:103060007047000090F83C30012B04BF02207047ED
:103070004FEAB202032A00F21D812DE9F041DFE898
:1030800002F003C7479100BF036843F200461D6A80
:103090001A6A25F0020522F001021A621A465C68DB
:1030A00052F818CF8F68D1F800E0C4F20106B3429D
:1030B00045EA070505D042F60047C4F20107BB42C6
:1030C00005D1CF6825F00C0527F004073D43B34236
:1030D00005D042F60046C4F20106B34205D1D1E95B
:1030E000056724F4407434433C432CF0730747EAEB
:1030F0000E075C609F614F6809695F631D629F698D
:1031000047F008079F619F6927F004079F61C6E0A9
:10311000036843F200461D6A1A6A25F4007522F41A
:1031200080721A621A46D3F804C052F81CEF8F68F6
:10313000D1F80080C4F20106B34245EA072505D064
:1031400042F60047C4F20107BB4208D1CF6840F203
:10315000FF443F0225F4406527EA04042543B342B7
:1031600005D042F60044C4F20104A34206D1D1E9DD
:1031700005462CF44057264347EA061C2EF07307F9
:1031800047EA0807C3F804C0DF614F680969DF63D5
:103190001D62DF6947F00807DF61DF6927F0040778
:1031A000DF617CE0036843F20047D3F820C01A6A6D
:1031B000C4F2010722F480521A621A465C6852F87F
:1031C0001C5FD1F800E08E68BB4205D042F6004794
:1031D000C4F20107BB4204D14F6924F4804444EA9D
:1031E00087142CF4005747EA063725F4E64646EAEA
:1031F0000E265C60DE614E6809691E641F62DF692D
:1032000047F40067DF61DF6927F48067DF6145E02D
:10321000036843F200481D6A1A6A25F0200522F06F
:1032200010021A621A465C6852F818CF8F68D1F8FB
:1032300000E0C4F20108434545EA071505D042F60F
:103240000047C4F20107BB4207D1CF686FF04006C8
:1032500025F0C00506EA07163543434505D042F67A
:103260000046C4F20106B34206D1D1E9056724F451
:1032700040643E4344EA86042CF4E64747EA0E27BE
:103280005C609F614F6809699F631D629F6947F495
:1032900000679F619F6927F480679F610902136837
:1032A000194311600021BDE8F041002280F83C2064
:1032B000084670470121002280F83C2008467047EC
:1032C000002804BF0120704710B5044690F83D0067
:1032D00028B9002084F83C00204600F01FF80220A6
:1032E00084F83D002068211D01F0D0F8012084F809
:1032F000460084F83E0084F83F0084F8400084F8DB
:10330000410084F8420084F8430084F8440084F8C3
:10331000450084F83D00002010BD0000704700000B
:1033200070470000C1B1042908D0082914BF412208
:103330004022825C012A05D016E000BF3F22825C59
:10334000012A11D10222082910D0042914BF80F8C3
:10335000412080F83F200BE090F83E20012A03D165
:10336000022280F83E2003E00120704780F84020D0
:10337000006801F01F010122036A02FA01F123EA49
:1033800001020262026A114340F6FF32C4F20002F7
:10339000904201620EDCB0F1804F25D040F2004136
:1033A000C4F2000188421FD040F60001C4F20001BF
:1033B00018E000BF40F60041C4F20001884213D07B
:1033C00043F20042C4F2010242F600419042C4F2CC
:1033D000010101D088420ED1436C904243F4004376
:1033E000436401D0884206D1816801F007010629B3
:1033F00004BF00207047016841F001010160002016
:1034000070470000006840F20041C4F200018842A9
:1034100018BF7047B0B540F2C404C2F2000440F2D5
:1034200038152178C2F200052868012902D16168A7
:1034300004E000BF0121217001466060FCF7E6FE58
:1034400040F6DB71C4F2C90101F0E6F92968616058
:103450000021C4F2C821FCF7DFFE40F26834C2F25A
:10346000000421684CF6CD42C3F6CC5200F086FC35
:103470002060BDE8B0407047704700007047000012
:1034800070470000B0B582B001680A68CC684B692B
:1034900002F02F05202D04F0200505D125B102B042
:1034A000BDE8B04001F068B85FEA027C1EBF03F0DF
:1034B000010E04F4907313EB0E0341D1036BD50698
:1034C00018D5012B16D114F0100313D0002201924D
:1034D0000A6801924A680192019A496949064BD4E7
:1034E000818DC28DC38D002B18BF914240F0F481B5
:1034F00002B0B0BD13062DD514F080032AD090F889
:103500004120212AF4D18268B2F5805F03D102699B
:10351000002A00F06782026A531C036212784A6034
:10352000C28C013A1304C284E2D1C86820F0800042
:10353000C860C86840F04000C86002B0B0BD00BFBD
:10354000D30718BF14F4807340F0D080530700F104
:10355000D380D8E05206CBD514F04002C8D0CA6858
:1035600022F04002CA60202180F8411002B0BDE87C
:10357000B04000F0FFBB00BFC16B0A68526893B255
:10358000002BB5D0858DAB42B2D2C2858969202986
:1035900000F0A180016851E8031F026821F48071E6
:1035A00042E80313DBB1016851E8031F026821F40C
:1035B000807142E8031393B1016851E8031F026868
:1035C00021F4807142E803134BB1016851E8031FF5
:1035D000026821F4807142E80313002BDAD10168FC
:1035E00051E8051F026821F0010142E80513C3B349
:1035F000016851E8051F026821F0010142E8051346
:103600007BB3016851E8051F026821F0010142E81F
:10361000051333B3016851E8051F026821F0010169
:1036200042E80513002BDAD11BE000BF016851E826
:10363000051F026821F0400142E80513DBB1016873
:1036400051E8051F026821F0400142E8051393B1DB
:10365000016851E8051F026821F0400142E80513A6
:103660004BB1016851E8051F026821F0400142E8B2
:103670000513002BDAD1202180F8421000210163CC
:10368000016851E8031F026821F0100142E80313AA
:10369000DBB1016851E8031F026821F0100142E824
:1036A000031393B1016851E8031F026821F0100170
:1036B00042E803134BB1016851E8031F026821F08F
:1036C000100142E80313002BDAD1C16B044608460F
:1036D000FDF760FF204602214163818DC28D891A6A
:1036E00089B202B0BDE8B040FFF7C8BE436C43F0FA
:1036F00001034364530706D5BEF1000F03D0436CAA
:1037000043F002034364930706D5BEF1000F03D0D4
:10371000436C43F004034364BCF1000F06D55EEA3A
:10372000050303D0436C43F008034364436C002B50
:103730003FF4DEAE920605D525B1044600F01CFF2D
:10374000216820464969426C01F0400102F00802FC
:10375000891800F0B98000BF016851E8031F0268B2
:1037600021F4907142E80313BBB3016851E8031FD1
:10377000026821F4907142E8031373B3016851E8C1
:10378000031F026821F4907142E803132BB3016810
:1037900051E8031F026821F4907142E80313002BE3
:1037A000DAD11AE0016851E8051F026821F0010131
:1037B00042E80513DBB1016851E8051F026821F0FA
:1037C000010142E8051393B1016851E8051F026841
:1037D00021F0010142E805134BB1016851E8051FD2
:1037E000026821F0010142E80513002BDAD1016BD8
:1037F000012924D1016851E8031F026821F010015A
:1038000042E80313DBB1016851E8031F026821F0AD
:10381000100142E8031393B1016851E8031F0268E5
:1038200021F0100142E803134BB1016851E8031F76
:10383000026821F0100142E80313002BDAD12021A5
:1038400080F842100021016301684969490640F18E
:10385000C380016851E8051F026821F0400142E879
:103860000513DBB1016851E8051F026821F0400132
:1038700042E8051393B1016851E8051F026821F081
:10388000400142E805134BB1016851E8051F026889
:1038900021F0400142E80513002BDAD1C16B002969
:1038A00000F09A8044F26D52C0F6000204460846C9
:1038B0004A63FDF793FE00283FF41AAEE06B416BBC
:1038C00002B0BDE8B04008470446FFF7D9FD00202C
:1038D000606402B0B0BD00BF891A00BF026852E840
:1038E000032F036822F4907243E80325BDB30268F6
:1038F00052E8032F036822F4907243E8032575B35E
:10390000026852E8032F036822F4907243E803250B
:103910002DB3026852E8032F036822F4907243E843
:103920000325002DDAD11AE0026852E8052F03685A
:1039300022F0010243E80525DDB1026852E8052FB7
:10394000036822F0010243E8052595B1026852E8B8
:10395000052F036822F0010243E805254DB10268F6
:1039600052E8052F036822F0010243E80525002DE7
:10397000DAD1202280F8422000220263026852E855
:10398000032F036822F0100243E80325DDB102682B
:1039900052E8032F036822F0100243E8032595B193
:1039A000026852E8032F036822F0100243E803255F
:1039B0004DB1026852E8032F036822F0100243E879
:1039C0000325002DDAD1022289B2426302B0BDE89C
:1039D000B040FFF753BD00BF02B0BDE8B040FFF7F5
:1039E0004FBD00BF026A32F8023B6FF35F234B60AA
:1039F000026295E5002804BF0120704710B5044617
:103A000090F8410028B9002084F84000204600F0DA
:103A100063F8242084F841002068D4E90212C368C6
:103A200023F40053C360036923F440531A43026133
:103A3000D4E904231143C268194341F20C639A4349
:103A40001143C1604169A26921F44071114343F6F9
:103A50000002C4F201029042416103D0FEF7EEFB86
:103A600002E000BFFEF7FEFBD4E900231921484322
:103A70009900B0FBF1F048F21F5CC5F2EB1CA0FB13
:103A80000C314FF69C734909C0F6FF7301FB03002C
:103A9000322303EB0010A0FB0C03F02000EA5310CC
:103AA00000EB0110C3F3431108449060106920211A
:103AB00020F490401061506920F02A005061D068D5
:103AC00040F40050D0600020606484F8411084F815
:103AD0004210606310BD00002DE9F04385B040F650
:103AE00000050446C4F20105006805F540510027B1
:103AF00088420497CDE90277019703D005B0BDE86D
:103B0000F08300BF41F21800C4F20200016801AE68
:103B100041F480410160016840F2440801F48041B1
:103B2000009100990168C4F2020841F004010160AB
:103B30000068314600F00400009000984FF40070D7
:103B4000019002200290032004902846FDF7D8FF40
:103B50004FF48060CDE90107284631460397FDF711
:103B6000CFFF40F2801508F11400C2F20005802654
:103B70004FF48059C5E900072846C5E90276C5E932
:103B80000477C5E90679FDF709FF002818BFFCF79F
:103B9000E7FFE5636C6240F2C415C2F20005102035
:103BA0000021C5E900802846C5E90216C5E90411CF
:103BB000C5E90619FDF7F2FE002818BFFCF7D0FF93
:103BC000252002210022A5636C62FEF713F925204F
:103BD000FEF7FEF805B0BDE8F08300007047000076
:103BE0002DE9F04381B0044690F84100202809D126
:103BF00000294FF0010018BF002A07D101B0BDE82D
:103C0000F08300BF022001B0BDE8F08300206064B3
:103C100021201D460E4684F841001746FEF76AF83B
:103C2000A784E784A1688146B1F5805F02D120694D
:103C300000285DD037460020E28C2168002A5DD044
:103C40006A1C24D0002D4AD0804600BF08680006B8
:103C500008D4FEF74FF8A0EB0900A8427AD82168F3
:103C6000C868F3E717B117F8010B04E038F8020B46
:103C700000276FF35F204860E08C0138E084E08C1F
:103C80000028E3D13AE000BF0A68120609D40A68A6
:103C9000120606D40A6812065CBF0A685FEA02626E
:103CA000F2D51FB117F8012B05E000BF30F8022B49
:103CB00000276FF35F224A60E28C013AE284E28CD3
:103CC000002AE4D11AE000BF30F8022B00276FF37E
:103CD0005F224A60E28C013AE284E28C72B10A68A7
:103CE000120635D5002FEFD017F8012BF1E700BFF2
:103CF00000273046E28C2168002AA1D108684006DE
:103D00001ED42DB3681C14D1086840062AD4086854
:103D1000400627D40868400624D4086840064FF0BF
:103D20000000F1D50DE000BF2068C16800684006C2
:103D300018D4FDF7DFFFA0EB0900A842F4D909E091
:103D40000020202184F8411001B0BDE8F08300BFBD
:103D5000FDF7D0FF0320202184F8411001B0BDE819
:103D6000F08300BF0020202184F8411001B0BDE89D
:103D7000F083000070470000FEE7000070B50D46BC
:103D800006464FF07E5011461446FCF73FFA0146B6
:103D90002846FCF741FA054620463146FCF73CFA36
:103DA0002946FCF7E1F970BD80B588B040F21800F3
:103DB00042F2004C0021C2F20000C4F2010C0123C7
:103DC0004FF46022059103730175C261C0E900C11F
:103DD00081600361FDF7CCFA002818BFFCF7C0FE34
:103DE0004FF4A020079040F21800C2F2000007A98B
:103DF000FDF716FA002818BFFCF7B2FE00200121DB
:103E000000900191049102210690ADF814000390F6
:103E100040F218000291C2F200006946FCF734FF3C
:103E2000002818BFFCF79CFE08B080BD70B588B0B4
:103E300040F21805C2F2000542F60001C4F2010189
:103E40002846002440F8301F01264FF46021CDE9B8
:103E5000064406730475C161C0E901440661FDF7BB
:103E600087FA002818BFFCF77BFE0220039005F1BB
:103E7000300001A9CDE901660596ADF8184004941B
:103E8000FCF702FF002818BFFCF76AFE08B070BDFF
:103E900080B582B041F21400C4F202000168002231
:103EA00041F0010101600068002100F00100019073
:103EB00001980C20FDF79EFF0C20FDF789FF0D20D7
:103EC00000210022FDF796FF0D20FDF781FF0E2057
:103ED00000210022FDF78EFF0E20FDF779FF0F2055
:103EE00000210022FDF786FF0F2002B0BDE88040D0
:103EF000FDF76EBF70B586B0002541F21800CDE920
:103F00000455CDE90255C4F20200016840F60004F0
:103F100041F0040101600168C4F2010401F00401F0
:103F2000019101990168002241F04001016000689F
:103F3000102100F040000190019820461026FDF766
:103F4000D3FE0120CDE903050220059002A92046F9
:103F50000296FDF7D5FD06B070BD000010B540F229
:103F6000082043F20001C2F20000C4F201014FF444
:103F7000827200234FF0010C4FF4007E302480E861
:103F80000E000A21C0E90333C0E905CEC461C0E9CF
:103F90000833C0E90A31FEF7DDFB002808BF10BD79
:103FA000BDE81040FCF7DCBD70B59CB042F60045A2
:103FB00040F26020C4F201050021C2F2000060223C
:103FC0004FF46163042680241691CDE914111191F8
:103FD000CDE90F11CDE90D11CDE90B11CDE9091195
:103FE000CDE90711CDE90511CDE90311CDE90111A5
:103FF000C0E90051C0E90223C0E904168461FEF75C
:104000000DFE002818BFFCF7ABFD4FF48050139055
:1040100040F26020C2F2000013A9FEF7A7FE0028BC
:1040200018BFFCF79DFD40F26020C2F20000FFF7D0
:1040300047F9002818BFFCF793FD2020109040F2AC
:1040400060200024C2F2000010A91194FEF79AFD2E
:10405000002818BFFCF784FD6020CDE9090440F278
:104060006020C2F2000009A90022CDE90B44CDE98D
:104070000D440F94FEF7F6FF002818BFFCF770FD03
:1040800040F26020C2F2000009A90422FEF7EAFF14
:10409000002818BFFCF764FD40F26020C2F2000067
:1040A00009A90822FEF7DEFF002818BFFCF758FD1B
:1040B00040F2602400264FF48070C2F20004CDE983
:1040C000030601A92046CDE90166CDE905660896FB
:1040D000FEF732FD002818BFFCF742FD2068CDE94D
:1040E0001A66A8421996189602D01CB070BD00BF7F
:1040F00041F21800C4F20200016841F04001016081
:10410000006818A900F04000179017984FF4285045
:104110001890022019901B90A5F5A050FDF7F0FC17
:104120000420C4F20100016841F0E06141F0C001E7
:1041300001601CB070BD000080B586B040F2A820C0
:1041400040F200420021C2F20000C4F20002472304
:1041500042F2107C0591CDE90311CDE90011C0E9CF
:104160000023C0E9021C01618161FEF757FD0028B0
:1041700018BFFCF7F5FC4FF48050029040F2A820E5
:10418000C2F2000002A9FEF7F1FD002818BFFCF7FB
:10419000E7FC40F2A820C2F200006946FEF7F2FCFC
:1041A000002818BFFCF7DCFC06B080BD80B540F2EB
:1041B000F02043F60001C2F20000C4F20101002326
:1041C0004FF00C0C4FF4E13280E80E00C0E90333ED
:1041D000C0E905C3C361FFF70DFC002808BF80BD1F
:1041E000BDE88040FCF7BCBCFEE70000FEE7000035
:1041F00070470000406A01684A6822F003024A6082
:10420000416D41F010014165012180F85110FEF728
:1042100069BA0000406AFEF76DBB0000406AFEF715
:104220006FBC0000B0B582B0446A0546FDF762FD80
:1042300029680968890645D484462068A1684268CF
:1042400022F02002426049B96268B2F5827F05D14E
:10425000416821F00301416018E000BF426822F08C
:10426000010242606268B2F5827F0FD1B1F5004F62
:1042700002D0B1F5806F09D10268B1F5806F22F0EC
:104280004002026002D12046012101E02046802147
:1042900000226423CDF800C000F05CF828B1606D06
:1042A00040F020006065202060650020E08701204C
:1042B00084F85100606D28B1204602B0BDE8B040DE
:1042C000FEF710BA204602B0BDE8B040FEF710BBC2
:1042D000B0B582B0446A0546FDF70CFD296809684F
:1042E000890631D40546206801224168642321F003
:1042F0002001416020460221009500F02BF838B9DA
:104300002046802100226423009500F023F838B174
:10431000606D40F020006065606D40F020006065D9
:104320002068416821F0030141600020E086E087B9
:10433000012084F85100606D30B1204602B0BDE824
:10434000B040FEF7CFB900BF204602B0BDE8B04094
:10435000FEF76CBB2DE9F04381B0089C98461546EA
:104360000E468146FDF7C6FC201A00EB0804FDF757
:10437000C1FC40F21001C2F200010968C1F3CB3167
:1043800061430091D9F800108A683240921BB2FA5A
:1043900082F2520995423DD0074618F1010031D012
:1043A000FDF7A8FCC01BA04238D200980099002855
:1043B000A1F101010091D9F80010896808BF0446F5
:1043C00001EA0600801BB0FA80F040098542E7D17F
:1043D00020E000BF88683040801BB0FA80F04009C0
:1043E000854217D088683040801BB0FA80F04009C1
:1043F00085420FD088683040801BB0FA80F04009B9
:10440000854207D088683040801BB0FA80F04009B0
:104410008542DFD1002001B0BDE8F083D9E9000179
:104420004268B1F5827F22F0E00242600BD1D9F8F8
:104430000810B1F5004F02D0B1F5806F03D10168CB
:1044400021F040010160D9F82810B1F5005F07D1D3
:10445000016821F400510160016841F400510160DC
:10446000012089F85100002089F85000032001B094
:10447000BDE8F08370470000FDF742BC70470000C4
:1044800040F2A820C2F20000FEF742BD10B540F68F
:10449000FF320368C4F2000240F6004E43F2004CC3
:1044A0009042C4F2000EC4F2010C21DCB0F1804F46
:1044B00028D040F20044C4F20004A04222D040F6CA
:1044C0000004C4F20004A0421CD0904220DCB0F1F1
:1044D000804F27D040F20042C4F20002904221D027
:1044E00040F60002C4F2000290421BD01EE000BF62
:1044F000704507D0604505D042F60044C4F201047F
:10450000A042E2D14C6823F0700323439042DEDDE9
:10451000704507D0604505D042F60042C4F2010262
:10452000904203D1CA6823F4407313434C6923F0CB
:104530008002D1F800E08B68224360450260C362CC
:10454000C0F828E005D042F60042C4F201029042D1
:1045500001D109690163012141610169C90708BFEE
:1045600010BD016921F00101016110BD406A002107
:10457000C185C184FEF784BF81B090F84210222922
:1045800021D183680246B3F5805F09D152F8281F14
:1045900052F8183C002B63D003685B680AE000BF48
:1045A00052F8281F13B90369002BF5D003685B6824
:1045B00003F07F030B70116801311160C18D013967
:1045C0000A04C18502D001B0704700BF0168CA6803
:1045D00022F02002CA60CA6822F48072CA604A6966
:1045E00022F001024A61202180F84210002141633B
:1045F000026B012A3CD10163016851E8031F026884
:1046000021F0100142E80313DBB1016851E8031FF8
:10461000026821F0100142E8031393B1016851E8E8
:10462000031F026821F0100142E803134BB1016837
:1046300051E8031F026821F0100142E80313002B28
:10464000DAD101680A68D20606D5002200920A680B
:104650000092496800910099818D01B0FEF70EBF6C
:10466000026852686FF35F2221F8022B8162A5E78E
:1046700001B0FFF7B3BA000040F2F020C2F2000030
:10468000FEF700BFFEE7F0B581B04FF68311C3F629
:104690002261FBF7C1FD4FF07A51FBF765FD04463F
:1046A000FCF731F80546204600210027FBF7BAFF4A
:1046B000002818BF013D2846FBF7F9FF01462046B8
:1046C000FBF7A4FD4FF08841FBF7A6FD0446FCF77D
:1046D0001AF8054620464FF04441FBF745FD0646D3
:1046E000B7EB552F14BF002526462846FBF7E8FFF9
:1046F00001463046FBF78AFD45F20841C0F600014D
:1047000001EB8502064651F8254055684FF07E5072
:104710003146FBF77BFD2146FBF77EFD0446304624
:104720002946FBF779FD01462046FBF71DFD01B048
:10473000F0BDF0B581B00D46D0E906610446076AC8
:104740003046FBF711FD3946FBF70EFD2060384679
:104750003946FBF709FD01463046FBF705FD80F0C1
:1047600000406060A7601DB10020C4E903006061E3
:1047700001B0F0BDF0B581B04FF68311C3F62261F0
:10478000FBF74AFD0446FBF7BEFF05462046002125
:104790000027FBF747FF002818BF013D2846FBF71D
:1047A00086FF01462046FBF731FD4FF08841FBF7BD
:1047B00033FD0446FBF7A7FF054620464FF0444172
:1047C000FBF7D2FC0646B7EB552F14BF0025264653
:1047D0002846FBF775FF01463046FBF717FD45F20B
:1047E0000841C0F6000101EB8502064651F825405C
:1047F00055684FF07E503146FBF708FD2146FBF728
:104800000BFD044630462946FBF706FD01462046CF
:10481000FBF7AAFC01B0F0BDB0B50D460446084652
:104820004FF07C51FBF7F8FC01462046FBF7ECFE0D
:1048300020B920462946FBF7E9FC0DE028464FF059
:104840003F41FBF7E9FC01462046FBF7F9FE20B9A2
:1048500020462946FBF788FC04462046B0BD0000F0
:1048600010B582B004468DF8070040F2F020C2F285
:1048700000000DF1070101224FF0FF33FFF7B0F9FF
:10488000204602B010BD00002DE9F04385B040F293
:104890006431C2F200010968FBF7B8FC4CF6E43160
:1048A000C4F216110446FBF7AFFE28B94CF6E4310A
:1048B000CCF296110CE000BF4CF6E431CCF21611AC
:1048C0002046FBF7BDFE38B94CF6E431C4F2961130
:1048D0002046FBF749FC044640F2CC05C2F2000535
:1048E000D5E90289D5E900604946FBF795FC074602
:1048F00030462146FBF790FC3946FBF735FC296929
:1049000006464046FBF788FC3146FBF72DFC6969FB
:10491000FBF72AFC064640F2381040F29031C2F212
:104920000000C2F2000100680968C5E903496E6130
:10493000FBF76CFC0021C4F2E001FBF76DFC0021E9
:1049400002AF03AD04AB32460491CDE90211CDE9CB
:10495000005700F0E9FA0498DDE9022105B0BDE84E
:10496000F04300F089BA00002DE9F04F81B08A468B
:1049700040F26431C2F2000109689046FBF746FC40
:104980004CF6E431C4F216110746FBF73DFE28B998
:104990004CF6E431CCF296110CE000BF4CF6E43159
:1049A000CCF216113846FBF74BFE38B94CF6E43121
:1049B000C4F296113846FBF7D7FB074640F2CC0607
:1049C000C2F20006D6E9029BD6E900405946FBF741
:1049D00023FC054620463946FBF71EFC2946FBF71B
:1049E000C3FB316904464846FBF716FC2146FBF73A
:1049F000BBFB7169FBF7B8FB20F000450446706112
:104A000028465146C6E9037BFBF70CFE00282046EA
:104A10004FF0000118BFAA46FBF720FE002840F225
:104A20006830C2F20000016808BF8AF0004A5046B0
:104A3000FBF7ECFBD6E90941D6F83090054608466D
:104A40004946FBF7E9FB074620462946FBF7E4FB0E
:104A50003946FBF789FBF26A716B04461046FBF797
:104A6000DBFB2146FBF780FBB16BFBF77DFB41468F
:104A70000446C6E90C59B063FBF7D4FD002818BF03
:104A8000A0460020414601B0BDE8F04F00F054B808
:104A90002DE9F04385B040F26831C2F200010968A7
:104AA000FBF7B4FB40F2CC04C2F20004D4E9096184
:104AB000D4E90B89054608464946FBF7ADFB074696
:104AC00030462946FBF7A8FB3946FBF74DFB616BE7
:104AD00006464046FBF7A0FB3146FBF745FBA16BC2
:104AE000FBF742FB064640F2381040F29031C2F22A
:104AF0000000C2F2000100680968C4E90C59A6630D
:104B0000FBF784FB0021C4F2E001FBF785FB0021E9
:104B100002AF03AD04AB32460491CDE90211CDE9F9
:104B2000005700F001FA0498DDE9022105B0BDE864
:104B3000F04300F0A1B900002DE9F04786B08846A7
:104B400040F25431C2F200010968044608464FF0B1
:104B50007C51FBF761FB01462046FBF757FB40F217
:104B6000CC06C2F20006D6E91241D6E9149A0746ED
:104B700008465146FBF750FB054620463946FBF7F1
:104B80004BFB2946FBF7F0FAB16D04464846FBF7AC
:104B900043FB2146FBF7E8FAF16DFBF7E5FA8146A6
:104BA00040F25830C2F2000000684FF07C51C6E974
:104BB000157AC6F85C90FBF72FFB01464046FBF7E1
:104BC00025FB40F26C35C2F20005D5E90071D5E94C
:104BD000028A064608465146FBF71EFB0446384645
:104BE0003146FBF719FB2146FBF7BEFA296904465B
:104BF0004046FBF711FB2146FBF7B6FA6969FBF764
:104C0000B3FA074640F2381040F29031C2F2000089
:104C1000C2F2000100680968C5E9036A6F61FBF729
:104C2000F5FA0021C4F2E001FBF7F6FA0021059144
:104C3000CDE9031103AE04AD05AB49463A46CDE9D3
:104C4000005600F071F90598DDE9032106B0BDE8D2
:104C5000F04700F011B900009EB0FDF75FF80024A6
:104C60000120CDE91944CDE91744149018904FF470
:104C7000E0104FF4803102251D9014A80E94CDE968
:104C80000C44CDE90A44CDE91514CDE91B51FDF7DB
:104C900029FB28B1EFF3108072B600BFFEE700BF1A
:104CA0000F20CDE90F054FF48060CDE912040FA865
:104CB00002211194FDF7E4F920B1EFF3108072B6F0
:104CC000FEE700BF022009904FF400400B9009A8B6
:104CD000FDF754F920B1EFF3108072B6FEE700BF84
:104CE000FFF708F9FFF7D4F8FFF760FAFFF75CF871
:104CF000FFF79CF8FFF732F9FFF756F9FFF71CFAB8
:104D000000270020002100220023CDE90077CDE913
:104D10000277CDE904770697079700F073F840F61D
:104D20000000C4F2010010210022FCF7DDFF40F278
:104D3000790140F20820C2F20001C2F200000A46E6
:104D40000323FDF7D9FD6420FCF7C6FE40F2602482
:104D5000C2F2000420460021FEF7E4FA20460421B6
:104D6000FEF7E0FA20460821FEF7DCFA40F2A82020
:104D7000C2F20000FDF7B6FF40F21805C2F20005CE
:104D80002846FBF7F3FE40F24806C2F20006304622
:104D9000FBF7ECFE2846FCF7E7F93046FCF78CF908
:104DA000EFF3108072B62568E86AFBF789FC4FF0D4
:104DB0007C51FBF731FAFBF7BFFC6863E86AAF632D
:104DC000E86A4FF4C870EF6362B6FCF785FE40F204
:104DD0003810C2F20000006840F29031C2F20001C7
:104DE0000860EFF3108072B62068C16A4763C16A39
:104DF0008763C16AC763642062B6FCF76DFE00BFBB
:104E0000FEE700002DE9F04F81B040F2CC0CDDE967
:104E10000E6AC2F2000C0CF1180BDDE9108EDDE910
:104E20000C75DDE90A498BE807000CF13C00CCF871
:104E3000686040F26C3680E81802C2F200066046F4
:104E400000210CF1240B0CF14809CCE91875C6E9D6
:104E500006A8C6F820E0FFF76CFC58460021FFF7D3
:104E600068FC48460021FFF764FC3046002101B091
:104E7000BDE8F04FFFF75DBC2DE9F04792460C46C8
:104E80000646FBF76DFC4CF6CD484CF6CC49CCF60B
:104E9000CC48C3F6EC7942464B46FBF7EDFB46F2B5
:104EA000666500282046C3F6667508BF2E46FBF7E8
:104EB00057FC42464B46FBF7DFFB0028504608BF35
:104EC0002C46FBF74DFC42464B46FBF7D5FBEFF378
:104ED000108172B640F26021C2F200010F68002812
:104EE000F86A18BF5546FBF7EBFB01463046FBF767
:104EF00093F9FBF721FC7863F86AFBF7E1FB0146C5
:104F00002046FBF789F9FBF717FCB863F86AFBF753
:104F1000D7FB01462846FBF77FF9FBF70DFCF8634A
:104F200062B6BDE8F08700002DE9F04F81B00E4673
:104F300081461046114600931446FBF76DF907466B
:104F400030463146FBF768F93946FBF70DF900F0BA
:104F50000BFA49F69A1AC3F6597A51460546FBF7F9
:104F60007DFB834630462946FBF788F95146FBF71F
:104F700053F9074620462946FBF780F95146FBF7CF
:104F80004BF9BBF1000F14BF044637464846FFF704
:104F9000F1FB82464846FFF776FB05462046514620
:104FA000FBF73AF9064638462946FBF735F931460C
:104FB000FBF72CF9814628462146FBF72DF90446DC
:104FC00038465146FBF728F92146FBF7CDF88246D3
:104FD00020F00040FBF7C4FB834629F000400D465B
:104FE000FBF7BEFB4BF27A63C3F6FB734FF06042F4
:104FF000FBF729FA06460F4648460021FBF72EFB31
:105000000446002850464FF0000118BF0124FBF76A
:1050100025FB0028304639465A462B4618BF043433
:10502000FBF72AFB002860A018BF023450F8248048
:105030004046FBF74AFB4CF25213C3F6F0734FF0B5
:105040008042FBF700FA05460E46FBF79CFB07463D
:10505000FFF790FB04463846FFF715FB5146FBF778
:10506000DBF8074620464946FBF7D6F83946FBF7FA
:10507000CDF84CF252138346CBF6F07328463146F6
:105080004FF08042FBF738F9FBF77DFB0446FFF752
:10509000FAFA05462046FFF76DFB4946FBF7BCF8D8
:1050A000044628465146FBF7B7F82146FBF7AEF811
:1050B00006464FF07E505946FBF7A8F83146FBF7FD
:1050C000A5F845F29435074608EB4800C0F6000500
:1050D00005EB800151E9030A51F8049CFBF7E7FA5C
:1050E0004AF6AB21C2F6AA2188FB0112044602EB64
:1050F000D27000EB4000A8EB400000EB400155F8F7
:10510000210005EB8108FBF7D2FA01463046FBF798
:1051100083F8054658462146FBF77EF82946FBF7FB
:1051200023F8054638464FF07C51FBF775F82946C1
:105130000446FBF719F8009908605046FBF7B7FAE8
:105140000746D8E90108FBF7B2FA01463046FBF7FB
:1051500063F8054658463946FBF75EF82946FBF7E3
:1051600003F801462046FAF7FFFF0A99086048460F
:10517000FBF79DFA05464046FBF799FA0146304693
:10518000FBF74AF8064658462946FBF745F83146EC
:10519000FAF7EAFF01462046FAF7E6FF0B990860A6
:1051A00001B0BDE8F08F00BF040000000600000061
:1051B00005000000050000000300000001000000E1
:1051C00002000000020000000FB4054B10B503A957
:1051D000044A029800F01EF810BC5DF814FB0000B1
:1051E000614800080000002002E008C8121F08C142
:1051F000002AFAD170477047002001E001C1121F58
:10520000002AFBD170470000014908607047000088
:10521000040000202DE9FF4F89B09B46044600257D
:1052200006E025280BD05A460B999047641C6D1C4C
:1052300020780028F5D10DB02846BDE8F08F002772
:10524000B8460122474900E0074314F8013F203BDC
:1052500002FA03F00842F7D120782E2819D114F869
:10526000010F47F004072A280ED06FF02F02207894
:10527000A0F1300109290CD808EB880102EB4101AB
:1052800000EB0108641CF2E70A98641C50F8048BD8
:105290000A9020780028CED0642808D0692806D04B
:1052A00075281ED05A460B9990476D1C58E00A99F4
:1052B0004FF00A0901C90A91002802DA40422D2163
:1052C00002E0390504D52B218DF82010012103E0DF
:1052D000F90704D02021F7E78A4608AE0DE0002147
:1052E000FAE70A994FF00A0901C90A91F7E7494616
:1052F000FBF765FA303106F8011D0028F7D1ADEB58
:10530000060000F12009780701D44FF00108C845D4
:1053100002DDA8EB090000E000208046002706E03F
:1053200008A85A46C05D0B9990476D1C7F1C5745D5
:10533000F6DB04E030205A460B9990476D1CB8F11B
:105340000001A8F10108F5DC05E016F8010B5A464A
:105350000B9990476D1CB9F10001A9F10109F4DC2A
:10536000641C65E70928010070B50546FBF795FA4E
:10537000044620F00040C0F1FF40C00F08D025F0E7
:105380000040C0F1FF40C00F04BF0120FFF73CFF09
:10539000204670BD01000000000000000000000079
:1053A00001000000010000000000000000000000FB
:1053B00001000000000000000000000001000000EB
:1053C00001000000000000000000000001000000DB
:1053D00001000000000000000100000000000000CB
:1053E0000000000001020304060708090000000095
:1053F00001020304010202030405060708090A0B5F
:105400000C0D0E0F1010000000000000920E493C21
:10541000B10AC93C2BC3163D2EFB483D752B7B3D85
:1054200004A9963D80B6AF3D36BDC83D2FBCE13DD9
:1054300073B2FA3D87CF093E8340163EB5AB223E9C
:10544000A2102F3ECF6E3B3EC2C5473E0115543ED3
:10545000135C603E7F9A6C3ECCCF783EC07D823E2E
:10546000938E883E229A8E3E32A0943E86A09A3E2B
:10547000E59AA03E128FA63ED47CAC3EEF63B23ECE
:105480002A44B83E491DBE3E15EFC33E53B9C93E3E
:10549000CA7BCF3E4136D53E80E8DA3E4F92E03EB1
:1054A0007533E63EBBCBEB3EEA5AF13ECBE0F63E2F
:1054B000275DFC3EE4E7003F3D9C033F824B063FF7
:1054C0009BF5083F6B9A0B3FDA390E3FCDD3103F67
:1054D0002A68133FD9F6153FC07F183FC6021B3F0D
:1054E000D17F1D3FCBF61F3F9967223F25D2243F36
:1054F0005636273F1594293F4AEB2B3FDE3B2E3F84
:10550000BB85303FC9C8323FF304353F233A373FAC
:105510004268393F3B8F3B3FF9AE3D3F67C73F3F56
:1055200070D8413F01E2433F03E4453F65DE473F1A
:1055300012D1493FF8BB4B3F029F4D3F207A4F3F6E
:105540003D4D513F4918533F31DB543FE595563FA0
:105550005348583F6AF2593F1A945B3F532D5D3FC1
:1055600005BE5E3F2146603F97C5613F5A3C633FA1
:1055700059AA643F880F663FD86B673F3CBF683FBE
:10558000A7096A3F0C4B6B3F5E836C3F93B26D3F44
:105590009ED86E3F73F56F3F0809713F5213723FFB
:1055A0004714733FDD0B743F0BFA743FC6DE753F43
:1055B00007BA763FC58B773FF853783F9812793F0B
:1055C0009DC7793F02737A3FBE147B3FCDAC7B3FD2
:1055D000283B7C3FC9BF7C3FAC3A7D3FCCAB7D3F95
:1055E00023137E3FB0707E3F6DC47E3F580E7F3FD9
:1055F0006D4E7F3FAB847F3F0FB17F3F97D37F3F9F
:1056000043EC7F3F11FB7F3F0000803F11FB7F3F5A
:1056100043EC7F3F97D37F3F0FB17F3FAB847F3F0A
:105620006D4E7F3F580E7F3F6DC47E3FB0707E3F12
:1056300023137E3FCCAB7D3FAC3A7D3FC9BF7C3F5F
:10564000283B7C3FCDAC7B3FBE147B3F02737A3F4F
:105650009DC7793F9812793FF853783FC58B773FC4
:1056600007BA763FC6DE753F0BFA743FDD0B743F19
:105670004714733F5213723F0809713F73F56F3F30
:105680009ED86E3F93B26D3F5E836C3F0C4B6B3F79
:10569000A7096A3F3CBF683FD86B673F880F663FEA
:1056A00059AA643F5A3C633F97C5613F2146603F1A
:1056B00005BE5E3F532D5D3F1A945B3F6AF2593F32
:1056C0005348583FE595563F31DB543F4918533F07
:1056D0003D4D513F207A4F3F029F4D3FF8BB4B3F1E
:1056E00012D1493F65DE473F03E4453F01E2433FB6
:1056F00070D8413F67C73F3FF9AE3D3F3B8F3B3FCF
:105700004268393F233A373FF304353FC9C8323F37
:10571000BB85303FDE3B2E3F4AEB2B3F1594293FA4
:105720005636273F25D2243F9967223FCBF61F3FAD
:10573000D17F1D3FC6021B3FC07F183FD9F6153FE2
:105740002A68133FCDD3103FDA390E3F6B9A0B3FD7
:105750009BF5083F824B063F3D9C033FE4E7003F3B
:10576000275DFC3ECBE0F63EEA5AF13EBBCBEB3E7A
:105770007533E63E4F92E03E80E8DA3E4136D53E54
:10578000CA7BCF3E53B9C93E15EFC33E491DBE3E4D
:105790002A44B83EEF63B23ED47CAC3E128FA63EA4
:1057A000E59AA03E86A09A3E32A0943E229A8E3E72
:1057B000938E883EC07D823ECCCF783E7F9A6C3EF1
:1057C000135C603E0115543EC2C5473ECF6E3B3E62
:1057D000A2102F3EB5AB223E8340163E87CF093E36
:1057E00073B2FA3D2FBCE13D36BDC83D80B6AF3D3A
:1057F00004A9963D752B7B3D2EFB483D2BC3163DE2
:10580000B10AC93C920E493C00000000920E49BC0E
:10581000B10AC9BC2BC316BD2EFB48BD752B7BBD81
:1058200004A996BD80B6AFBD36BDC8BD2FBCE1BDD5
:1058300073B2FABD87CF09BE834016BEB5AB22BE98
:10584000A2102FBECF6E3BBEC2C547BE011554BECF
:10585000135C60BE7F9A6CBECCCF78BEC07D82BE2A
:10586000938E88BE229A8EBE32A094BE86A09ABE27
:10587000E59AA0BE128FA6BED47CACBEEF63B2BECA
:105880002A44B8BE491DBEBE15EFC3BE53B9C9BE3A
:10589000CA7BCFBE4136D5BE80E8DABE4F92E0BEAD
:1058A0007533E6BEBBCBEBBEEA5AF1BECBE0F6BE2B
:1058B000275DFCBEE4E700BF3D9C03BF824B06BFF3
:1058C0009BF508BF6B9A0BBFDA390EBFCDD310BF63
:1058D0002A6813BFD9F615BFC07F18BFC6021BBF09
:1058E000D17F1DBFCBF61FBF996722BF25D224BF32
:1058F000563627BF159429BF4AEB2BBFDE3B2EBF80
:10590000BB8530BFC9C832BFF30435BF233A37BFA8
:10591000426839BF3B8F3BBFF9AE3DBF67C73FBF52
:1059200070D841BF01E243BF03E445BF65DE47BF16
:1059300012D149BFF8BB4BBF029F4DBF207A4FBF6A
:105940003D4D51BF491853BF31DB54BFE59556BF9C
:10595000534858BF6AF259BF1A945BBF532D5DBFBD
:1059600005BE5EBF214660BF97C561BF5A3C63BF9D
:1059700059AA64BF880F66BFD86B67BF3CBF68BFBA
:10598000A7096ABF0C4B6BBF5E836CBF93B26DBF40
:105990009ED86EBF73F56FBF080971BF521372BFF7
:1059A000471473BFDD0B74BF0BFA74BFC6DE75BF3F
:1059B00007BA76BFC58B77BFF85378BF981279BF07
:1059C0009DC779BF02737ABFBE147BBFCDAC7BBFCE
:1059D000283B7CBFC9BF7CBFAC3A7DBFCCAB7DBF91
:1059E00023137EBFB0707EBF6DC47EBF580E7FBFD5
:1059F0006D4E7FBFAB847FBF0FB17FBF97D37FBF9B
:105A000043EC7FBF11FB7FBF000080BF11FB7FBF56
:105A100043EC7FBF97D37FBF0FB17FBFAB847FBF06
:105A20006D4E7FBF580E7FBF6DC47EBFB0707EBF0E
:105A300023137EBFCCAB7DBFAC3A7DBFC9BF7CBF5B
:105A4000283B7CBFCDAC7BBFBE147BBF02737ABF4B
:105A50009DC779BF981279BFF85378BFC58B77BFC0
:105A600007BA76BFC6DE75BF0BFA74BFDD0B74BF15
:105A7000471473BF521372BF080971BF73F56FBF2C
:105A80009ED86EBF93B26DBF5E836CBF0C4B6BBF75
:105A9000A7096ABF3CBF68BFD86B67BF880F66BFE6
:105AA00059AA64BF5A3C63BF97C561BF214660BF16
:105AB00005BE5EBF532D5DBF1A945BBF6AF259BF2E
:105AC000534858BFE59556BF31DB54BF491853BF03
:105AD0003D4D51BF207A4FBF029F4DBFF8BB4BBF1A
