:020000040800F2
:10000000200B00209D01000811300008D7280008AF
:10001000B12C0008650C00084540000800000000F5
:10002000000000000000000000000000DD380008B3
:100030000D0D0008000000003D3400089F3A000844
:10004000B7010008B7010008B7010008B7010008B0
:10005000B7010008B7010008B70100080F0D00083C
:10006000B7010008B7010008B7010008B701000890
:10007000B7010008B7010008B7010008B701000880
:10008000B7010008B7010008B7010008B701000870
:10009000A50C0008B7010008B7010008B701000867
:1000A000B7010008B7010008B7010008B701000850
:1000B000AD3B0008B93B0008B7010008B7010008D4
:1000C000B7010008B7010008B7010008B701000830
:1000D000B7010008B701000821400008B701000877
:1000E000B7010008B7010008B7010008B701000810
:1000F000B7010008B7010008B7010008B701000800
:10010000B7010008B7010008B7010008B7010008EF
:10011000B7010008B7010008C53B0008B701000897
:10012000B7010008B7010008B7010008B7010008CF
:10013000B70100080000000000000000B70100083F
:10014000B7010008B7010008B7010008B7010008AF
:10015000B7010008B7010008B7010008B70100089F
:10016000B7010008B7010008B7010008B70100088F
:10017000B7010008B70100080000000000000000FF
:10018000B7010008B7010008DFF80CD000F0A8FBA9
:1001900000480047E9400008200B0020064880473F
:1001A00006480047FEE7FEE7FEE7FEE7FEE7FEE75C
:1001B000FEE7FEE7FEE7FEE79D3B00088901000839
:1001C0002DE9F05F0546002092469B46884606468C
:1001D000814640241BE0284641464746224600F01F
:1001E000BCFA53465A46C01A914110D311461846DC
:1001F000224600F0A3FA2D1A67EB01084F4622466B
:100200000120002100F09AFA17EB00094E41201E50
:10021000A4F10104DFDC484631462A464346BDE8E6
:10022000F09FD2B201E000F8012B491EFBD27047CB
:100230000022F6E710B513460A4604461946FFF7B2
:10024000F0FF204610BD00000FB400B58DB010A91E
:1002500009900B9000914FF0FF300A9000200C9015
:1002600005480690054807906A4609A80F9900F0CE
:10027000ABFA0DB05DF814FBE507000803080008B1
:100280002DE9FF5F1D464FF0FF3BD5E90146914642
:100290005F464FF00008A9697F1C01988847296ACA
:1002A000824688470028F6D1BAF1FF3F0CD024F4EB
:1002B000C064002E19DD600614D5BAF12B0F09D0E9
:1002C000BAF12D0F0ED103E0584604B0BDE8F09FFF
:1002D00044F48064A9697F1C01988847761E824691
:1002E000002E02DDBAF1300F03D0B9F1000F26D095
:1002F00032E0A969761E44F400747F1C0198884797
:100300008246002E05DDBAF1780F06D0BAF1580FFB
:1003100003D0B9F1000F10D01EE0B9F1000F02D0E8
:10032000B9F1100F18D1A969761E24F400747F1C4E
:10033000019888478246102002E0082000E00A2049
:10034000814609E008FB0908A969761E44F4007497
:100350007F1C019888478246002E05DD494650469D
:1003600000F01DFA0028EDDAE96901988847A00538
:1003700002D46FF00100A8E7E00725D1600613D58D
:10038000600502D5C8F1000000E0404629680A1D5A
:100390002A600968220501D5087015E0220701D5F9
:1003A000088011E008600FE02868011D29600068DE
:1003B000210502D580F8008006E0210702D5A0F8CB
:1003C000008001E0C0F8008038467EE72DE9FE4F4E
:1003D000804681EA0300C00F0C46009021F00041E6
:1003E00023F00045B8EB0200A94105D24046214662
:1003F00090461C460B46024623F00040104347D06F
:10040000270DC7F30A00C3F30A510290401A019066
:1004100040286BDAC3F3130040F4801B0098924627
:1004200020B10023D2EB030A63EB0B0B0198594672
:10043000C0F14002504600F081F906460D46504694
:100440005946019A00F099F910EB08006141002427
:1004500087EA115284EAE7731A4340D0009A62B3E4
:10046000019A012A4FEA075215DC001B61EB0201D9
:100470004FF0004202EA0752CDE90042001C41F56C
:10048000801132462B4600F0DCF903B0BDE8F08F56
:1004900040462146F9E7001B61EB0201001C41F5D3
:1004A000801300185B412018A2F5001747EB0301E9
:1004B00040EAD570B6196D4111E06D084FEA360675
:1004C00045EAC0754FEA0752001B61EB0201001CB0
:1004D00041F5801149084FEA300000195141324678
:1004E0002B4603B0BDE8F04F00F09CB90098012204
:1004F00040000023D0EB020263EBE073009821463A
:100500004FEAE074B8EB000061EB0401E9E783F027
:1005100000435BE781F0004158E72DE9FE4F81EA97
:10052000030404F0004421F0004100944FF0000B5C
:1005300023F0004350EA01045ED052EA03045BD08A
:10054000C3F30A54C1F30A552C44A4F2F3340194C2
:10055000A0FB0254C1F3130141F48011C3F3130350
:1005600043F4801301FB024400FB034E840A970A04
:1005700044EA815447EA8357A4FB076802958D0A31
:1005800005FB07854FEA932C04FB0C542705029DBD
:100590004FEA065847EA1637B5EB08056EEB070C2D
:1005A000870E920E47EA811742EA8312A7FB0201E7
:1005B000B6EB0B0164EB00042B0D43EA0C335E1821
:1005C00044EB1C50DA465146E7FB0201C5F3130425
:1005D0004FEA0B3343EA14534FEA0432019C43EAD7
:1005E0000603A4F10C040294009CCDE900B400F0D1
:1005F00028F903B0BDE8F08F00200146F9E72DE9A6
:10060000F04D81EA030404F0004B21F0004514464C
:100610004FF0000A23F0004150EA050220D054EACE
:1006200001021DD0C5F30A570246C5F31303C1F3F7
:100630001300C1F30A5640F4801543F48013A7EB6E
:100640000608101BD64608F2FD3873EB050002D3EE
:1006500008F1010801E092185B41B8F1000F03DADC
:1006600000200146BDE8F08D00204FF480110646C1
:1006700084460EE0171B73EB050705D3121B63EBD3
:10068000050306434CEA010C49084FEA3000921872
:100690005B4150EA0107EDD152EA030012D082EA31
:1006A000040083EA0501084305D0101BAB4106D2C4
:1006B0000122002306E000224FF0004302E06FF029
:1006C000010253101AEB06004CEB085110EB0A0024
:1006D00041EB0B01BDE8F04D00F0A4B80EB5C10F21
:1006E00080EAE0700844CA07002140F233438DE8F5
:1006F0000E000A460B4600F0A4F803B000BD70B52A
:10070000C1F30A5201F000450024C1F3130140F285
:10071000FF3341F480119A4201DA002070BD40F2AB
:1007200033439A42A2F2334203DC524200F015F8FE
:1007300000E090402C43F1D0404270BD202A04DB01
:10074000203A00FA02F1002070479140C2F12003E4
:1007500020FA03F3194390407047202A04DB203A23
:1007600021FA02F00021704721FA02F3D040C2F1D1
:1007700020029140084319467047202A06DBCB1718
:10078000203A41FA02F043EAE07306E041FA02F34C
:10079000D040C2F1200291400843194670473A28E0
:1007A00000D2303820F02002412A01D3A2F13700D4
:1007B000884201D34FF0FF307047000002681144B7
:1007C0001378016018467047D160044951610449AB
:1007D000116200211161114600F09AB8BD070008AE
:1007E00005090008426842B1016811F8013B23B1D4
:1007F000521EC0E90012184670470121C160881ED0
:10080000704742685AB1C368016843B983688B4234
:1008100005D0491E521CC0E90012002070474FF05D
:10082000FF30704710B5141E73F1000408DA401C45
:1008300041F1000192185B411A4301D120F00100FF
:1008400010BD2DE9F04D92469B4611B1B1FA81F2EF
:1008500002E0B0FA80F220329046FFF76FFF0446C4
:100860000F4640EA0A0041EA0B0153465A46084344
:1008700013D0114653EA010019D0C8F14002504686
:10088000FFF76BFF05460E46504659464246FFF7B6
:1008900055FF084305D0012004E020463946BDE855
:1008A000F08D0020054346EAE0762C4337430A9852
:1008B0006305E40AA0EB08000022FD0A44EA47545D
:1008C0000A3002D500200146E9E701051019694107
:1008D000DDE9084500196941BDE8F04DA2E70000D7
:1008E000064C074D06E0E06840F0010394E807007D
:1008F00098471034AC42F6D3FFF74AFC2C45000869
:100900004C450008C0B24FF4F05100F097B9000018
:100910002DE9F34F8BB04FF0000801F10C000C46AD
:100920004FF0010B46460DF1080A01906269012162
:100930000198904705002DD0252D2CD0216A88479D
:10094000C0B16269012101989047216A8847002857
:10095000F7D1411E62690198904700E0761CA169B9
:100960000B988847216A88470028F7D1E1690B98DE
:100970008847DBE7A1690B9888470746A84201D161
:10098000761CD3E7E1690B9888477F1C02D1B8F148
:10099000000F6FD046E1002762693D463946019855
:1009A00090472A2804D162690121019890470125C6
:1009B000DFF884926269012101989047A0F130012B
:1009C0000A290AD24F45E5DC07EB870100EB410716
:1009D000303FDFD445F01005ECE7E90601D46FF0B5
:1009E00000476C280AD04C2814D0682815D06A28F3
:1009F0000DD074281CD07A281AD01DE0626901211C
:100A0000019890476C2802D045F0040514E045F0A9
:100A100002050DE045F020050AE062690121019818
:100A20009047682802D045F0080505E045F40065C8
:100A30006269012101989047C4E9015765283DD0BA
:100A400019DC58287AD00CDC452837D004DC25285E
:100A500026D0412831D131E046282FD047282CD14B
:100A60002CE05B2877D0612828D063287CD06428CC
:100A700023D15AE0D0E06F2848D008DC66281DD08A
:100A800067281BD0692821D06E2816D127E070284E
:100A900045D0732868D0752847D078280DD14DE00F
:100AA000A1690B988847054625283FF469AFE1699D
:100AB0000B9888476D1C3FF46AAFB3E023466A4643
:100AC0006FF001000B99AFF300809EE045F040000D
:100AD0006060A80723464FF0000236D43EE0E807E6
:100AE0007FF447AF2068011D21600068290501D50A
:100AF00006701BE7290701D5068017E7A90703D56C
:100B0000F117C0E9006111E706600FE745F040000A
:100B10006060A80723464FF0080216D41EE040F696
:100B20000E0125EA0100606016E045F040006060BB
:100B3000A80723464FF00A0207D40FE045F0400013
:100B40006060A80708D5234610226FF001000B99BA
:100B5000AFF3008059E007E0234610226FF0010058
:100B60000B99FFF78DFB50E04FF000094F464B46C5
:100B7000632802D05B2806D040E0E80601D40120BB
:100B8000A06001273AE062690121019890475E2840
:100B900005D14FF0010962694946019890472169E2
:100BA00039B900210A46534643F82120491C082937
:100BB000FADBB0B3216969B9C11700EBD1625311F7
:100BC0000AEB830122F01F02821A01200B68904079
:100BD00003430B6062690121019890475D28E8D1C9
:100BE000B9F1000F09D00020514651F82020D2431E
:100BF00041F82020401C0828F7DB02AB2246009772
:100C00006FF001000B99AFF3008000280CDA401C54
:100C100008D1BBF1000F05D04FF0FF300DB0BDE89B
:100C2000F08FFFE74046F9E7E90701D108F1010835
:100C300006444FF0000B79E6CCCCCC0C7F2801D9D0
:100C4000002208E0064A02EB5002C007127800D1E9
:100C5000120902F00F020120904008407047000086
:100C6000EC440008FEE7000000B58BB00020012135
:100C7000CDE9060105900090019002900390049048
:100C80000E20CDE908106946054800F0C5F9044872
:100C900000F0B8FC0221024800F04EF90BB000BD94
:100CA00064000020014800F0CEBA0000640000207B
:100CB00070B58AB000230C460092CDE90123CDE93E
:100CC00003348DF8143006AD491E03E0C65CEE54C3
:100CD0005B1CDBB28B42F9DBD2B2C9B203F0D2F9B2
:100CE000291908AB01F8010C06AA6946064800F06C
:100CF00035F910B101200AB070BD034800F08DFA3B
:100D00000328FAD10020F6E7640000207047022093
:100D100000F03ABD72B6FEE770B505460C46EE200F
:100D200002F0DEFDB12002F0DBFD112002F0D8FD63
:100D3000280A02F0D5FDE8B202F0D2FD200A02F046
:100D4000CFFDE0B202F0CCFDFF2002F0C9FDFC2097
:100D500002F0C6FDFF2002F0C3FDBDE87040FF2099
:100D600002F0BEBD2DE9F05F002780463E4640F60A
:100D7000C41B4FF47A796E4D6E4C02E0322000F0C5
:100D8000CFFCE8780028F9D13BE0DFF8A8A10AF110
:100D90000C0A00BF5AF82820B421584601F09AFFE7
:100DA0000CE07F1C4F4501D301261FE0E8780128A5
:100DB00008D0687830B1322000F0B2FC607A0128A7
:100DC000EFD113E00021052003F00EFB02E03220FA
:100DD00000F0A6FC607A0028F9D00020607205E0DF
:100DE000687800287AD0322000F09AFCE878002851
:100DF000F6D1607A002738B9012ECBD1002601F058
:100E0000A1FD607A0028C0D04FF0000A84F809A044
:100E100057463CE064224946002001F061FFA046AD
:100E20000CE07F1C4F4501D3012621E0E878012822
:100E30000DD0687858B1322000F072FC98F80100AB
:100E40000128EED198F803000128EAD110E0012032
:100E500003F0DEFA322000F063FC022003F0D8FA3F
:100E60004FF4E17002E06878C0B3322000F058FC23
:100E7000E8780128F7D098F80100002710B198F819
:100E8000030050B9012E02D1002601F05BFD60780D
:100E90000028BFD0E0780028BCD084F801A084F8F6
:100EA00003A03EE0DFF88C8008F10C08B42158461E
:100EB000D8F8002001F00EFF0CE07F1C4F4501D355
:100EC00001261FE0E878012809D0687838B132207F
:100ED00000F026FC607A0128EFD113E019E0002130
:100EE000052003F081FA02E0322000F019FC607A5C
:100EF0000028F9D084F809A004E0687848B13220CD
:100F000000F00EFCE8780128F7D0607A002718B1CD
:100F10000AE00120BDE8F09F012EC7D1002601F0B4
:100F200011FD607A0028BDD084F809A00020F1E707
:100F300024000020AC01002090F82020012A07D0D6
:100F4000022A05D0416A41F48021416201207047A4
:100F5000006842690A43426100207047F0B590F88A
:100F600020500468A468012D05D0022D03D0416AE9
:100F700041F480214DE014F0406F01D1E50045D5EA
:100F8000C4F301640125A5401D608D684FF4C07352
:100F90009DB1CE6835434E6845EAC605066803EB49
:100FA0000417F5514FF4C275076805EB04150E6977
:100FB0007E51097D012905D009E00E88CD6845EAFA
:100FC0004655EBE701684E5946F480764E5111794B
:100FD000D2F805504FF4C67641EA0521056806EBC4
:100FE0000416A9511178D2F801204FF4C47541EAD2
:100FF0000221026805EB04155151006803EB04114E
:10100000425842F0010242500020F0BD416A41F4D2
:10101000001141620120F0BD10B590F82020012A96
:1010200007D0022A05D0416A41F4802141620120A3
:1010300010BD3B48D0F8002242F00102C0F8002267
:10104000D0F8002222F47C52C0F80022D0F800220E
:101050004B6A42EA0322C0F800220A7D02F01F0315
:1010600001229A40D0F81C329343C0F81C32CB695D
:10107000B3B9D0F80C329343C0F80C328C894B686A
:1010800064F31F434C6900EBC404C4F840320C897C
:101090000B6864F31F434C6900EBC404C4F844328A
:1010A000CB69012B16D1D0F80C321343C0F80C32A7
:1010B0000C884B6864F31F434C6900EBC404C4F80C
:1010C00040320C89CB6864F31F434C6900EBC404C5
:1010D000C4F844328B69002BD0F804320ED013438D
:1010E000C0F804320B69002BD0F8143208D0134337
:1010F000C0F81432096A012904D008E09343EFE7ED
:101100009343F5E7D0F81C121143C0F81C12D0F835
:10111000001221F00101C0F80012002010BD0000F3
:1011200000640040704770B590F82040012C05D055
:10113000022C03D0416A41F4802128E0046809B3FD
:101140002469A40720D04FF4D874056804EB011477
:101150002D5915F00405956005682D591AD0ED0834
:10116000556005682C5904F00204D4604FF4DA7419
:10117000056804EB01142E5906F00F06082E0CD357
:1011800008250DE0E468DCE7416A41F400114162A2
:10119000012070BD6D0D1560E3E72D5905F00F05B9
:1011A000156105682D59C5F30725956105682C590A
:1011B000240C54614FF4DC72046802EB0112A45851
:1011C0001C700468A458240A5C700468A458240C99
:1011D0009C700468A258120EDA704FF4DE72046834
:1011E00002EB0112A4581C710468A458240A5C7113
:1011F0000468A458240C9C710468A258120EDA7179
:10120000006829B1016941F020010161002070BD31
:10121000C16841F02001C160F8E70246002092F861
:101220002010012901D002290CD111688A685201CD
:1012300000D501208A68120100D5401C8968C900C8
:1012400000D5401C70472DE9F05F0546006800247A
:101250004669D0F804908768D0F80CB0D0F810A098
:10126000D0F81880F10748D0F90714D00121816027
:10127000B80703D5284600F0F2F90CE0780702D54C
:101280004FF4006407E0380702D54FF4805402E0C1
:10129000284600F0E3F9F80516D529684FF4807068
:1012A0008860B80503D5284600F0DBF90CE0780526
:1012B00002D544F4005407E0380502D544F48044D4
:1012C00002E0284600F0CCF9F80316D529684FF45F
:1012D00080308860B80303D5284600F0C4F90CE0DC
:1012E000780302D544F4004407E0380302D544F4FF
:1012F000803402E0284600F0B5F9300707D55FEAF0
:10130000CB6004D52968102044F40074C8607007CD
:101310004FF0080707D55FEA0B7004D52868C7604F
:10132000284600F059F9B00706D52868C06880073C
:1013300002D0284600F051F9700607D55FEACA606E
:1013400004D52968102044F480640861B00607D5EC
:101350005FEA0A7004D528680761284600F04FF953
:10136000F00606D528680069800702D0284600F0FC
:1013700047F9B00308D55FEAC96005D52968102090
:101380004860284600F03DF9F00307D55FEA097090
:1013900004D528684760284600F066F9300446D531
:1013A0005FEA497040D5F00504D55FEAC87001D006
:1013B00044F00104B00504D55FEA887001D544F01B
:1013C0000204700504D55FEA487001D544F00404B6
:1013D000300529D518F0700F26D008F0700040288D
:1013E00015D006DC102809D020280AD0302816D1C4
:1013F0000AE050280ED0602811D10EE044F0080415
:101400000DE044F010040AE044F0200407E044F04A
:10141000400404E044F0800401E044F4807428684F
:10142000816921F070018161296804204860002CE5
:1014300005D0686A204368622846FFF773FEBDE85E
:10144000F09F70B5040003D094F8200010B104E0C0
:10145000012070BD204600F081F82068016841F04D
:101460000101016000F0A6FA0546052604E000F03F
:10147000A1FA401B0A2811D820684068C007F6D09E
:101480002068016821F00201016000F093FA05462E
:101490000BE000F08FFA401B0A2806D9606A40F47E
:1014A0000030606284F82060D2E7206840688007DE
:1014B000EFD4207E0128206801683DD021F0800112
:1014C0000160607E01282068016838D021F0400169
:1014D0000160A07E01282068016833D021F020013E
:1014E0000160E07E0128206801682ED041F01001E3
:1014F0000160207F01282068016829D021F00801BF
:101500000160607F01282068016824D021F0040177
:101510000160D4E902010843D4E9041211430843ED
:101520006168491E08432168C8610020606201208B
:1015300084F82000002070BD41F08001C0E741F038
:101540004001C5E741F02001CAE721F01001CFE7D3
:1015500041F00801D4E741F00401D9E710B586B0A5
:10156000044614216846FEF763FE18492068884245
:1015700029D117480021026842F000720260006819
:1015800000F00070059012481038026842F0020224
:101590000260006800F0020005904FF44070009077
:1015A0000220CDE90101032003900920049069463F
:1015B000084800F0F5F800220121142000F068FA34
:1015C000142000F057FA06B010BD0000006400407F
:1015D0004038024000040240704700B589B007ABB4
:1015E0006A460021FFF79FFD002806D10098C2B28D
:1015F0000498C1B207A802F051FD09B000BD7047C0
:101600007047704770B5044690F82000012804D058
:10161000606A40F40020606218E0022084F8200034
:101620002068016821F00101016000F0C3F905465E
:101630000EE000BF00F0BEF9401B0A2808D9606A1E
:1016400040F400306062052084F82000012070BD65
:1016500020684068C007EDD1606270BD7047704778
:10166000704770477047704770472DE9F041044656
:10167000876D00F09FF9064694F835000025022892
:1016800006D08020606584F834500120BDE8F081E8
:101690002068016821F0160101602068416921F08D
:1016A00080014161206C08B9A06C20B120680168FC
:1016B00021F0080101602068016821F0010101604A
:1016C0000CE000F077F9801B052807D92020606521
:1016D000032084F8350084F83450D7E72068006888
:1016E000C007EED194F85C103F208840B86001201C
:1016F00084F8350084F834500020C7E790F835109E
:10170000022903D08021416501207047052180F81E
:1017100035100068016821F0010101600020704768
:1017200070B5044600F046F90546601C02D0044836
:101730000078044400F03EF9401BA042FAD370BD8B
:101740001400002070B5022815D10B48007801283C
:1017500011D10A4C207800280DD100F02BF9084D4A
:101760006968401AC82806D300F024F96860054962
:1017700001202070087070BD270000203400002078
:101780000C00002026000020044910B50A6802421F
:1017900002D00860FFF7D6FF10BD0000143C0140E6
:1017A0002DE9F84FDFF8BCA10022012503264FF0F8
:1017B0000F090AF1040BAAF1040E00BF0B6805FA29
:1017C00002F42340A34270D10F7907F00307012FE1
:1017D00001D0022F16D187684FEA420806FA08FCAA
:1017E00027EA0C07D1F80CC00CFA08FC4CEA070CED
:1017F000C0F808C04768A7430C79C4F300149440AC
:101800003C4344600C79E443A4070AD0C4684FEA1F
:10181000420C06FA0CF7BC438F6807FA0CF7274313
:10182000C7600C7904F00304022C12D1D40800EB39
:10183000840CDCF820405707FF0E09FA07F824EA69
:101840000804D1F8108008FA07F848EA0408CCF830
:10185000208004684FEA420C06FA0CF7BC430F796B
:1018600007F0030707FA0CF7274307604C6814F4E6
:10187000403F70D03C4C276847F48047276024687D
:1018800022F0030704F480440094384C07EB040C66
:10189000DCF8084897074FEA177809FA08F7BC43BD
:1018A000334FB84202D1002724E054E0314FB84210
:1018B00001D101271EE0304FB84201D1022719E0C3
:1018C0002E4FB84201D1032714E02D4FB84201D169
:1018D00004270FE02B4FB84201D105270AE02A4F19
:1018E000B84201D1062705E0284FB84201D10727A9
:1018F00000E0082707FA08F72743CCF80878DAF859
:1019000000405746D1F804C09C435FEACC2C00D578
:101910001C433C60DBF800405F46D1F804C09C43A8
:101920005FEA8C2C00D51C433C60DEF80040774613
:10193000D1F804C09C435FEA8C3C00D51C433C605A
:10194000084F083F3C68D1F804C09C435FEACC3C98
:1019500000D51C433C60521C102AFFF42FAFBDE899
:10196000F88F0000083C014044380240003001403C
:10197000000002400004024000080240000C024047
:10198000001002400014024000180240001C0240F7
:101990000069084000D001207047426921EA020333
:1019A0000A4043EA0241816170470AB18161704790
:1019B0000904FBE70148806870470000140000201C
:1019C0000248816802781144816070471400002049
:1019D0000B4810B5016841F400710160016841F4E1
:1019E00080610160016841F480710160032000F0B2
:1019F0006FF80F2000F006F800F024F8002010BD6A
:101A0000003C024070B50D4D04464FF47A712878C1
:101A1000B1FBF0F00A490968B1FBF0F000F00AFBF5
:101A200048B9102C07D200222146501E00F030F891
:101A300000206C6070BD012070BD0000140000200B
:101A4000200000200A4808B5016841F48041016087
:101A5000006800F4804000900548001F016841F0D4
:101A600080510160006800F08050009008BD0000C7
:101A700044380240002809DB00F01F020121914098
:101A80004009800000F1E020C0F80011704700001C
:101A9000F0B40E4B1B680C46C3F30223C3F10705D9
:101AA000042D00D90425191D072901D2002300E0C7
:101AB000DB1E012606FA05F1491E214099409E4091
:101AC000761E16403143F0BC02F0BDBA0CED00E0CA
:101AD000064900F0070208684FF6FF03184040EA85
:101AE0000220034A10430860704700000CED00E03C
:101AF0000000FA052DE9F0470E46050065D0DFF835
:101B00001481D8F80000F7B200F00700B04207D205
:101B100088F80070D8F8000000F00700B04254D1F7
:101B200028683D4C810712D5400703D5206840F452
:101B3000E05020602878000703D5206840F460401A
:101B400020602068A96820F0F00008432060287811
:101B5000C0072DD0304968680839012812D0022802
:101B600013D0032811D00968890700292DDA2168CC
:101B700021F0030101432160FFF71CFF814641F280
:101B8000883A0EE009688903EFE709688901ECE704
:101B9000FFF710FFA0EB0901514502D90320BDE872
:101BA000F0872068696800F00C00B0EB810FEFD17E
:101BB000D8F80010404601F00701B14207D907707C
:101BC000006800F00700B04201D00120E7E7287864
:101BD000400705D52068E96820F4E05008432060FC
:101BE0002878000706D52068296920F4604040EA7B
:101BF000C100206000F038F82168084AC1F30311E1
:101C0000515CC8400649086006480068FFF7FAFEC4
:101C10000020C4E7003C024008380240D4440008D9
:101C200020000020180000200448054900680968C9
:101C3000044AC1F38221515CC84070472000002053
:101C400008380240E444000804480549006809686F
:101C5000044AC1F34231515CC84070472000002063
:101C600008380240E4440008154810B5006810F038
:101C70000C02144813D04110042A0FD0082A0ED1A8
:101C80000F4C241F2268236802F03F025B0207D535
:101C90002068C0F38810A0FB010106E0084610BDD3
:101CA0002168C1F38811A1FB00010023FEF788FA27
:101CB0002168C1F30141491C4900B0FBF1F010BD9E
:101CC000083802400024F4002DE9F84F04006ED0DB
:101CD0002078DFF84C93C007A9F104054AD009F138
:101CE00004000168C1F38101012908D00068C0F334
:101CF000810002280AD1D9F80000400206D52868E0
:101D0000800337D560680028E1D033E06068B0F523
:101D1000803F10D0B0F5A02F286810D020F480307C
:101D20002860286820F4802028606068A8B1FFF748
:101D300041FE06460DE0286840F48030F4E740F4A8
:101D400080202860F7E700BFFFF734FE801B64287F
:101D500073D828688003F7D50CE0FFF72BFE064602
:101D600005E000BFFFF726FE801B6428F0D8286836
:101D70008003F7D42078DFF8AC8280074FF0000AA8
:101D80003ED5A748001D016811F00C0F08D000686F
:101D9000C0F3810002280BD1D9F80000400207D41B
:101DA0002868800716D5E068012800D112E033E1E9
:101DB000E068B8B10120C8F80000FFF7FBFD064657
:101DC00005E000BFFFF7F6FD801B0228C0D8286899
:101DD0008007F7D52868216920F0F80040EAC100A3
:101DE00028600DE0C8F800A0FFF7E4FD064604E017
:101DF000FFF7E0FD801B02281FD828688007F7D472
:101E00002078000722D5864F87486169703771B105
:101E100001210160FFF7CEFD064604E0FFF7CAFD91
:101E2000801B022809D838688007F7D50EE0C0F873
:101E300000A0FFF7BFFD064605E082E0FFF7BAFD10
:101E4000801B02287DD838688007F7D420784007A7
:101E500068D5DFF8CCB100270BF13C0BDBF80000B4
:101E6000C0000BD4DBF8001041F08051CBF800101B
:101E7000DBF80000012700F0805000906B4E3068C6
:101E8000C00510D4306840F480703060FFF792FDD8
:101E9000009005E0FFF78EFD0099401A022850D807
:101EA0003068C005F6D55E4EA0686C3601280FD0AC
:101EB0000528306810D020F001003060306820F034
:101EC00004003060A068B8B1FFF774FD00900FE027
:101ED000306840F00100F4E740F004003060F7E7BC
:101EE000FFF768FD0099411A41F28830814266D8B7
:101EF00030688007F4D50EE0FFF75CFD009007E046
:101F0000FFF758FD0099411A41F28830814256D8B6
:101F100030688007F4D42FB1DBF8001021F0805135
:101F2000CBF80010A069C8B33D49091D0968C1F389
:101F3000810102294AD00228504607D0C8F8600023
:101F400000E03CE0FFF736FD04463BE04746C8F8BA
:101F50006000FFF72FFD064605E000BFFFF72AFDF2
:101F6000801B02282BD828688001F7D4D4E9070108
:101F70000843A16A2E4A490802EB0141626A41EA1C
:101F80008211084394F82C1040EA0161C9F800104E
:101F900001203866FFF70EFD044606E03EE000BF74
:101FA000FFF708FD001B022809D828688001F7D533
:101FB00034E000BFFFF7FEFC001B022802D903201B
:101FC000BDE8F88F28688001F4D427E00128F7D015
:101FD000D9F80000E26900F4800191421CD1226A24
:101FE00000F03F01914217D147F6C071626A01408B
:101FF000B1EB821F10D1A26A4FF0FF3300F44031E1
:1020000003EB5202B1EB024F06D194F82C1000F012
:102010007060B0EB016F01D00120D1E70020CFE765
:102020000438024000004742800E474200700040E2
:102030000000FFFF10B5401EB0F1807F01D30120EA
:1020400010BD4FF0E02460610F21601701F0FBFF2D
:102050000020A06107202061002010BD704770475C
:1020600070B590F83C20012A32D0012480F83C4021
:10207000022280F83D2003685A689D6822F07006AD
:102080000A6832435A60134B02689A4214D0B2F184
:10209000804F11D0104B9A420ED0104B9A420BD069
:1020A0000F4B9A4208D00F4B9A4205D00E4B9A42E2
:1020B00002D00E4B9A4204D1496825F0800319439F
:1020C000916080F83D40002180F83C10084670BDCA
:1020D000022070BD000001400004004000080040E4
:1020E000000C004000040140004001400018004086
:1020F00010B5040003D094F83D0010B107E00120B2
:1021000010BD002084F83C00204600F01FF802209B
:1021100084F83D00211D206801F05AFD012084F85B
:10212000460084F83E0084F83F0084F8400084F8BC
:10213000410084F8420084F8430084F8440084F8A5
:10214000450084F83D00002010BD000008B501687E
:102150001D48B1F1804F11D01C4A91421DD1016838
:1021600041F0020101600068002200F002000090CE
:1021700001211D20FFF78CFC1D201FE0016841F0AC
:10218000010101600068002200F0010000900221BE
:102190001C20FFF77DFC1C2010E00D4A914211D15C
:1021A000016841F0100101600068002200F0100099
:1021B000009001213620FFF76BFC3620BDE8084077
:1021C000FFF758BC08BD0000403802400004004042
:1021D0000010004090F83D10012901D00120704707
:1021E000022180F83D100168CA6842F00102CA600D
:1021F00000681149884214D0B0F1804F11D00F49C6
:1022000088420ED00E4988420BD00E49884208D031
:102210000D49884205D00D49884202D00C498842B8
:1022200004D1816801F00701062903D0016841F05B
:1022300001010160002070470000014000040040DF
:1022400000080040000C0040000401400040014034
:102250000018004070B5044690F83C0000250128A5
:1022600017D0012684F83C60022084F83D002068E5
:10227000826822F0770222F47F4282600868502848
:1022800038D00DDC20284FD005DC90B3102811D1B8
:102290004AE0022070BD302846D040280AD13BE0F9
:1022A00060282FD070280DD0B0F5805F03D0B0F536
:1022B000005F12D0012584F83D60002084F83C00C6
:1022C000284670BDCB68D1E90121206801F0E8FC07
:1022D0002068816841F0770109E0CB68D1E90121EC
:1022E000206801F0DDFC2068816841F48041816054
:1022F000E1E719E0CA684968206801F0E3FC502171
:10230000206806E0CA684968206801F0ECFC60219A
:10231000206801F0CFFCCEE7CA684968206801F068
:10232000D1FC40212068F4E7226801461046F0E71E
:1023300070472DE9F04104460068C66805694FF012
:102340000007A90713D5B10711D5F91E01610120B6
:102350002077206880698007204602D0FFF7E8FFD9
:1023600004E000F07EF8204600F07CF8277768074C
:1023700016D5700714D521686FF00400086102209B
:1023800020772068806910F4407F204602D0FFF754
:10239000CFFF04E000F065F8204600F063F82777EF
:1023A000280715D5300713D521686FF0080008619C
:1023B000042020772068C0698007204602D0FFF7FC
:1023C000B7FF04E000F04DF8204600F04BF8277707
:1023D000E80616D5F00614D521686FF010000861E4
:1023E000082020772068C06910F4407F204602D082
:1023F000FFF79EFF04E000F034F8204600F032F8CA
:102400002777E80708D0F00706D021686FF00100B1
:102410000861204600F028F8280608D5300606D5C1
:1024200021686FF0800008612046FFF717FE6806FC
:1024300008D5700606D521686FF040000861204677
:1024400000F02EF8A8060AD5B00608D521686FF06E
:10245000200008612046BDE8F041FFF700BEBDE85E
:10246000F0817047704700000A4910B5884210D1CA
:102470004021094801F0D6FF08490880010008D032
:1024800005484078072804D0BDE81040024800F015
:10249000F5BF10BD8C000020D80400200C000020E7
:1024A0007047704770470000F8B501680446086837
:1024B000CA684B6910F00F0F4FF000055AD003F0B7
:1024C000010602F49077374365D0C10705D0D105E6
:1024D00003D5616C41F001016164410705D5D9075D
:1024E00003D0616C41F002016164810705D5D90711
:1024F00003D0616C41F004016164010707D502F06B
:102500002001314303D0616C41F008016164616CCA
:1025100000293BD0800604D5900602D5204601F064
:1025200043FC20684069616CC0F3801001F0080131
:10253000014320462BD001F010FC20684069400682
:1025400021D52068143050E8001F21F0400140E8F8
:102550000012002AF5D1E06BA8B172490165E06B69
:10256000FFF7CCF8002811D0E06B016D01B0BDE899
:10257000F040084783060ED593060CD52046BDE8EB
:10258000F84001F011BC2046FFF78CFFF8BDFFF7C3
:1025900089FF6564F8BD266B2023012E7ED1C60617
:1025A0007CD5D6067AD508684868009048694FF00F
:1025B000020640064DD5E26B106840684FF4807704
:1025C0000004000C3AD0A18D814237D9E085D06952
:1025D000B8422DD020680C3050E8001F21F48071E3
:1025E00040E80012002AF5D12068143050E8001F9E
:1025F00021F0010140E80012002AF5D120681430D2
:1026000050E8001F21F0400140E80012002AF5D1F7
:1026100084F84230256320680C3050E8001F21F018
:10262000100140E80012002AF5D1E06BFFF71DF819
:102630006663A08DE18D401A81B206E0A18D8142D2
:10264000A8D1D069B842A5D166632046FFF729FF1B
:10265000F8BDA08DE18D401A81B2E08D0028F7D041
:102660000029F5D020680C3050E8002F22F4907239
:1026700040E80027002FF5D12068143050E8002FE3
:1026800022F0010240E80027002FF5D184F8423003
:10269000256320680C3050E8002F00E006E022F0AF
:1026A000100240E80023002BF3D1CDE705062BD51F
:1026B000150629D594F841002128C9D1A068B0F5A4
:1026C000805F01D12069B0B1206A411C216221687C
:1026D00000784860E08C401E0004000CE084B7D114
:1026E0002068C16821F08001C1602068C16841F0A4
:1026F0004001C160F8BD206A0088C0F3080048604E
:10270000206A801C2062E5E74006F3D55006F1D52B
:10271000CA68204622F04002CA6084F8413000F0C6
:10272000D9F8F8BD4D3D000870B5040004D094F808
:102730004100002510B106E0012070BD84F8405032
:10274000204600F023F8242084F841002068C16866
:1027500021F40051C160204601F088FB2068016926
:1027600021F4904101612068416921F02A01416111
:102770002068C16841F40051C1606564202084F87C
:10278000410084F842006563002070BD10B586B03A
:10279000044614216846FDF74BFD1749206888421E
:1027A00028D116480021026842F400320260006815
:1027B00000F40030059011481038026842F0010220
:1027C0000260006800F0010005900C2000900220DB
:1027D000CDE90101032003900720049069460848D1
:1027E000FEF7DEFF002202212620FFF751F9262006
:1027F000FFF740F906B010BD0044004040380240E9
:102800000000024090F84230202B01D00220704797
:1028100021B11AB10023036301F0AEBB0120704760
:10282000402202490248FFF7EDBF0000D804002013
:10283000640100202DE9F843044690F841009846D1
:1028400016460D46202802D00220BDE8F88385B147
:102850007EB100206064212084F84100FFF7AAF8CF
:10286000A6848146E684A0682027B0F5805F02D068
:1028700003E00120E9E7206910B12E4600250EE0B3
:1028800000260CE08021204601F091FBA8B9C6B1DA
:1028900016F8010B21684860E08C401EE084E08C53
:1028A0004B464FF00002CDF800800028EAD14FF0EF
:1028B0004001204601F07BFB40B184F841700320C9
:1028C000C3E735F8020BC0F30800E3E784F8417072
:1028D0000020BAE77047FEE710B501210548FFF771
:1028E00057F800284FF0010002D10349087000207A
:1028F00010BD00000000024028000020054B30B150
:10290000012806D1002240211846FFF74EB80122C7
:10291000F9E770470008024010B5094C00228021F9
:102920002046FFF742F8012211022046FFF73DF84A
:1029300020460122BDE810405102FFF736B80000E2
:102940000008024010B5094C012280212046FFF703
:102950002CF8012211022046FFF727F8002261150A
:102960002046BDE81040FFF720B8000000080240F4
:1029700010B5094C012280212046FFF716F80022ED
:10298000A1152046FFF711F820460122BDE81040AE
:102990005102FFF70AB80000000802400F4810B5C6
:1029A0000D4901600521416000214FF480328160B2
:1029B000C0E9031212014261017601224276827659
:1029C000C17601774177FEF73CFD002803D0BDE8D2
:1029D0001040FEF79FB910BD006400406400002065
:1029E0002DE9F04F87B014216846FDF721FC5948C6
:1029F0000024016841F004010160016801F0040154
:102A00000591016841F080010160016801F08001D9
:102A10000591016841F001010160016801F00101C7
:102A20000591016841F002010160016801F00201B5
:102A30000591016841F0080101600068DFF8188124
:102A400000F008004FF6CF75059001222946404658
:102A5000FEF7ABFFDFF804914FF4407701223946CF
:102A60004846FEF7A2FFDFF8F8A0012204215046F5
:102A7000FEF79BFFDFF8ECB0012218215846FEF765
:102A800094FF00950125CDE9015469464046039421
:102A9000FEF786FEF120CDE900046946484602941F
:102AA000FEF77EFE02264FF404100096CDE90104E5
:102AB00069464846FEF774FE3020CDE900046946B9
:102AC00040460294FEF76CFE47F60740CDE900044D
:102AD000694658460294FEF763FE0097CDE901541B
:102AE000694648460394FEF75BFEF800CDE9000610
:102AF000032702940A20CDE9037069464846FEF791
:102B00004FFE04200090CDE90154694650460394DD
:102B1000FEF746FE18200090CDE90154694658465C
:102B20000394FEF73DFEC020CDE900060294072085
:102B3000CDE9037069465846FEF732FE00220121B6
:102B40000720FEF7A5FF0720FEF794FF07B0BDE8BA
:102B5000F08F0000303802400008024000000240C0
:102B6000000C02400004024010B586B00024174853
:102B7000009401940294039404944FF080410594CE
:102B8000016041F28731C0E9011440F2E731C0E948
:102B9000031480218161FFF7ABFA08B1FEF7BAF8A0
:102BA0004FF48050009069460848FFF753FB08B186
:102BB000FEF7B0F8049404A904480594FFF750FA0E
:102BC000002801D0FEF7A6F806B010BD8C0000204A
:102BD00010B586B000241648009401940294039422
:102BE000049412490594016041F28731C0E901144F
:102BF000C0E903148461FFF77BFA08B1FEF78AF895
:102C00004FF48050009069460948FFF723FB08B154
:102C1000FEF780F8049404A905480594FFF720FA0C
:102C2000002801D0FEF776F806B010BD0004004081
:102C3000D40000201CB500240E4800940C490194D7
:102C4000016041F28731C0E901148461C160FFF77E
:102C50004FFA08B1FEF75EF8009469460548019402
:102C6000FFF7FEF9002801D0FEF754F81CBD000064
:102C7000001000401C0100200C4810B50A490160FA
:102C80004FF4E1314160002181600C22C160C0E954
:102C900004128161C161FFF747FD002803D0BDE840
:102CA0001040FEF737B810BD00440040640100201A
:102CB000FEE700000020064A0346411C02F81010FF
:102CC00002EB40004370C8B20528F6D370470000FD
:102CD000AC01002013460A460146052001F0D4BA93
:102CE00070B54FF47A7470B1012816D100236422B4
:102CF000214601F0C9FA002364222146BDE8704054
:102D0000022001F0C1BA054D96222B462146012032
:102D100001F0BAFA2B469622EFE770BD8056FCFF11
:102D200070B514460D4668B1012812D10023032066
:102D300001F0AAFA002322462946BDE8704004208B
:102D400001F0A2BA034B032001F09EFA014B5B4253
:102D5000F1E770BDFC4D010010B509210020FDF721
:102D6000DBFF9620FEF7DCFC0A210020FDF7D4FFF4
:102D70009620FEF7D5FC0B210020FDF7CDFF962015
:102D8000FEF7CEFC0C21BDE810400020FDF7C4BFCB
:102D900070B5054616460C46EE2000F0A1FDB120A8
:102DA00000F09EFD232000F09BFD280A00F098FD16
:102DB000E8B200F095FD200A00F092FDE0B200F0CC
:102DC0008FFD304600F08CFDFF2000F089FDFC20D7
:102DD00000F086FDFF2000F083FDBDE87040FF207D
:102DE00000F07EBD2DE9F84F844E00253046717904
:102DF0000069834C47424FF47A79012909D031792F
:102E000001291AD0F17801292BD0B079012865D099
:102E100083E03B4696224946012001F035FAFFF750
:102E2000A7FD02E06420FEF77BFC60780028F9D063
:102E3000FFF772FD757165706FE0F068962243428E
:102E40004946022001F020FAFFF792FD02E06420DB
:102E5000FEF766FCE0780028F9D0FFF75DFD3571DC
:102E60003AE0A0F5AA40F038FDF738FC9FED651B6D
:102E700053EC112BFDF7C3FBFDF741FC80463B46AD
:102E800096224F464946012001F0FEF9F06896224D
:102E900043423946022001F0F7F903270023424656
:102EA0001C210220009700F0B5FD002342461821A6
:102EB0000220009700F0AEFDFFF75AFD02E064200B
:102EC000FEF72EFC60780028F9D0E0780028F6D0D4
:102ED000FFF722FDF5706570E5701EE096224F4603
:102EE00049460320736901F0CFF970699622434285
:102EF0003946042001F0C8F9FFF73AFD02E06420EA
:102F0000FEF70EFC60790028F9D0E0790028F6D0B1
:102F1000FFF702FDB5716571E571B0783B4F4FF079
:102F20000108012812D0032810D0022832D04FF413
:102F3000FA71042836D0052832D17078322200F098
:102F40000100FFF7EDFEFFF713FD4AE0B0684FF018
:102F50000A0A810391FBFAF264214846FFF7BAFEA0
:102F6000FFF706FD02E06420FEF7DAFB607A002836
:102F7000F9D0B168022391FBFAF000EE100A0122A9
:102F80001621B8EEC00A184600F000FDFFF7C4FC99
:102F900065721FE001F08EF935707570B5703D7087
:102FA000BDE8F88F3078322200F00100FFF798FE7C
:102FB000FFF7DEFC02E06420FEF7B2FB607810B998
:102FC000E0780028F7D0FFF7A7FC6570E57031784E
:102FD000491C3170B57087F80080E1E76420FEF786
:102FE0009FFB607910B9E0790028F7D0FFF794FCD7
:102FF0006571E5717178491C7170EBE74400002040
:10300000AC0100205C8FC2F5A8CAA34000000020DC
:10301000FEE700002DE9F05FDFF8F8B014460D463A
:103020005FEA00084FF000064FF001071FD1022DA4
:103030001DD1DFF8E490DFF8E4A014B1012C05D035
:1030400015E089F800708AF8006010E034488BF8C9
:103050000060B0F900203348B0F900103248B0F9F0
:10306000000000F0EDF989F800608AF800709BF824
:103070000000012827D1B8F1020F24D12B4A2C4996
:103080002C4B2D48022D11D0032D1ED0042D27D0FE
:10309000052D34D0062D16D1012C14D1017800292C
:1030A00011D1117801290ED1052126E0012C0AD178
:1030B0000478002C07D11278012A04D10A681B6811
:1030C0001A440A600770BDE8F09F012CFBD1037819
:1030D000002BF8D11278012AF5D10E6002210CE004
:1030E000012CF0D10478002CEDD11278012AEAD11C
:1030F0000A681B68D21A0A6003210170E3E7012CF9
:10310000E1D101780029DED111780129DBD1042138
:10311000F3E70000400000202700002025000020E9
:1031200032000020300000202E0000205C00002033
:103130004C00002060000020460000202DE9F047F0
:103140002DED088B82B013460C46074600266A46D2
:10315000A5A118460096FDF777F80125BFB3022F09
:1031600030D1112C7ED09FEDA18B9FEDA2ABA34F50
:10317000A34EDFF89092DFF89082A448182C72D00A
:103180009FEDA3BB9FEDA49BDFF894A21C2C6BD0FA
:103190001E2C6AD0192C15D13178002912D199F83A
:1031A000001000290ED1017800290BD198F80010E9
:1031B000002907D100998903092291FBF2F1994A6C
:1031C0001160057002B0BDEC088BBDE8F087FFE729
:1031D000954FDFF85892DFF85882DFF858A24FF485
:1031E0004871092C20D00A2C47D00B2C5ED00C2C17
:1031F000E8D19AF90020B9F90030B8F90000544636
:10320000921E12FB00338B4209DCC31700EB937C48
:10321000009B03EBAC0C12FB00C088426ADD01206E
:1032200000F094FB257019E00098B9F90040B8F956
:103230000020831E03FB02448C420ADCD417B7F93A
:1032400000C002EB94740CEBA40403FB02428A421C
:103250000FDD012000F07AFB8AF80050A9F8006029
:103260003E8003E048E04BE068E087E0A8F80060BB
:10327000A8E7401C8AF80000A4E79AF90020B9F9F1
:1032800000300098921E02FB003354468B42C6DC8D
:10329000C317B7F900C000EB93730CEBA30302FB59
:1032A00000328A42BBDCA8F800008BE79AF90020C4
:1032B000B8F90000009B4446921E12FB003C8C456E
:1032C0000BDC4FEAE07CB7F9008000EB9C7C08EB5C
:1032D000AC0C12FB00C0884209DD012000F036FB77
:1032E0008AF80050A9F800603E8026806AE7A9F8B5
:1032F000003067E73B8065E74F490098086061E769
:1033000031780029B4D199F800100029B0D10078A3
:103310000028ADD198F800000028A9D10098FDF749
:10332000DDF953EC182BFDF7F8F853EC1A2BFDF7E9
:103330004DF8FDF7E4F93860357043E7317800293E
:1033400096D199F80010002992D1007800288FD1E9
:1033500098F8000000288BD10098FDF7BFF953ECD6
:103360001B2BFDF7DAF853EC192BFDF72FF8FDF7BF
:10337000C6F9CAF8000089F8005023E7317800291F
:1033800093D199F8001000298FD1007800288CD1B2
:1033900098F80000002888D10098FDF79FF90E46A4
:1033A00046EC100B044653EC182B51EC100BFDF7B8
:1033B000B4F853EC1A2BFDF709F8FDF7A0F946EC29
:1033C000104B386053EC1B2B51EC100BFDF7A5F89C
:1033D00053EC192BFCF7FAFFFDF791F9CAF800003E
:1033E00088F80050EEE60000256C64005C8FC2F5A2
:1033F000A8CAA34000000000007CD5405400002073
:103400004900002048000020470000204A0000201A
:103410005C8FC2F5A802A340000000000040CF402E
:103420005000002058000020300000202E00002016
:1034300032000020240000206000002070470000BF
:103440002DE9F0410F4605464FF4C8741646214653
:103450000848FCF7EDFE21460748FCF7E9FE314637
:10346000284600F053FC31463846BDE8F04100F0F4
:10347000B5B90000B80100204803002030B4B0F80E
:10348000031044784BBAB0F80510C27949BAB12C90
:103490000ED1102A07D0112A0AD100F1080230BC3F
:1034A0001846FFF74BBE427A30BC1846FFF7B2BD54
:1034B00030BC70472DE9F05F0024824626464FF469
:1034C0007A77DFF80C93C34D3EE0DFF80CB3C846C3
:1034D000B42140F6C410DBF80020FFF7FBFB0EE040
:1034E000641CBC4201D301261AE098F8031001299C
:1034F00009D098F8010030B13220FEF711F9687A4E
:103500000128EDD10CE00021052000F06DFF02E064
:103510003220FEF705F9687A0028F9D00020687299
:103520004446E078012803D0687A002438B10EE0E0
:10353000607800286FD03220FEF7F2F8F1E7012E14
:10354000C6D10026FFF7FEF9687A0028BDD04FF0FB
:10355000000B85F809B043E0322239460020FFF71E
:10356000DFFBA8460EE0641CBC4201D301261FE02D
:1035700099F8031001290ED099F8010058B13220B2
:10358000FEF7CEF898F805000128ECD198F807006E
:103590000128E8D10CE0032000F03AFF3220FEF7CA
:1035A000BFF8042000F034FF4FF4E170FEF7B8F8E4
:1035B0004C46E078012807D098F80500002450B167
:1035C00098F8070038B111E060780028B2D03220B6
:1035D000FEF7A6F8EDE7012E02D10026FFF7B2F9BB
:1035E00068790028B8D0E8790028B5D00020687143
:1035F000E87140E0DFF8E0B14FEA0908B4215BF878
:103600002A2040F6C410FFF765FB0FE0641CBC42A3
:1036100002D301261BE0A3E098F80310012909D08A
:1036200098F8010030B13220FEF77AF8687A012864
:10363000ECD10CE00021052000F0D6FE02E03220A3
:10364000FEF76EF8687A0028F9D0002068724446C8
:10365000E078012803D0687A002438B10EE0607861
:1036600000287DD03220FEF75BF8F1E7012EC5D1AE
:103670000026FFF767F9687A0028BBD04FF0000AF0
:1036800085F809A042E0642239460120FFF728FBB3
:10369000A8460EE0641CBC4201D301261FE099F845
:1036A000031001290ED099F8010058B13220FEF71D
:1036B00037F898F801000128ECD198F803000128A8
:1036C000E8D10CE0012000F0A3FE3220FEF728F83C
:1036D000022000F09DFE4FF4E170FEF721F84C4609
:1036E000E078012807D098F80100002448B198F844
:1036F000030030B110E0607890B33220FEF710F88C
:10370000EEE7012E02D10026FFF71CF968780028A9
:10371000B9D0E8780028B6D085F801A085F803A0D4
:1037200049E0322239460120FFF7FAFAA8460EE0B6
:10373000641CBC4201D3012611E099F80310012951
:1037400011D099F8010070B13220FDF7E9FF98F827
:1037500005000128ECD198F807000128E8D100E025
:1037600021E0002414E0032000F052FE3220FDF797
:10377000D7FF042000F04CFE4FF4E170FDF7D0FFBE
:10378000EDE700BF99F8010068B13220FDF7C8FFEE
:1037900099F803100129F5D098F8050030B198F890
:1037A000070018B10DE00120BDE8F09F012E02D105
:1037B0000026FFF7C7F868790028B2D0E87900281A
:1037C000AFD085F805A085F807A00020ECE7000041
:1037D00024000020AC0100204803002082030A20BE
:1037E00070B58903B2FBF0F4B1FBF0F10C480D4B5E
:1037F00090F90020D0B208E0151A03EB800605FB13
:103800000145401E46F8045CC0B20128F4D8CA172E
:10381000586801EB927100EBA100186070BD0000C8
:10382000240000204803002070B505462A4C04E01F
:10383000607828B13220FDF773FFE0780028F7D1D7
:10384000A078012814D1607890B1FFF791F828464C
:10385000FDF788FAC8BB0120FFF750F8FFF75CF8C6
:103860000221A17004E0607878B30A20FDF758FFC8
:10387000FFF732F80028F6D1FFF740F8FFF778F8A5
:1038800004E0607808B33220FDF74AFFE0780028B2
:10389000F7D11149091D087801280DD1A2782046D9
:1038A000022A09D14278A2B100220A700321A17034
:1038B0004FF47A70FDF734FFA078032809D16078BF
:1038C00038B12846FFF7F6FD08B1012070BD012090
:1038D000A070002070BD0000240000207047000090
:1038E00001B54FF0FF33012269460248FEF7A2FFFF
:1038F00008BD00006401002070B5054616460C4660
:10390000EE20FFF7EDFFB120FFF7EAFF1020FFF7F1
:10391000E7FF280AFFF7E4FFE8B2FFF7E1FF200A1C
:10392000FFF7DEFFE0B2FFF7DBFF3046FFF7D8FF1F
:10393000FF20FFF7D5FFFC20FFF7D2FFFF20FFF7A6
:10394000CFFFBDE87040FF20FFF7CABF10B50446A7
:10395000EE20FFF7C5FFB120FFF7C2FF0020FFF701
:10396000BFFF200AFFF7BCFFE0B2FFF7B9FFFF205F
:10397000FFF7B6FFFC20FFF7B3FFFF20FFF7B0FF14
:10398000BDE81040FF20FFF7ABBF00002DE9FF416D
:1039900006462DED020B984617460D460024EE20F4
:1039A000FFF79EFFB120FFF79BFF0720FFF798FF6F
:1039B000300AFFF795FFF0B2FFF792FF280AFFF7F2
:1039C0008FFFE8B2FFF78CFF0220FFF789FF07F0B7
:1039D0000F005FEA080100D080210843FFF780FF55
:1039E0004FEA0D05C4F10300285CFFF779FF641C62
:1039F000E4B2042CF6D3FF20FFF772FFFC20FFF7A0
:103A00006FFFFF20FFF76CFF06B0FF20BDE8F0411D
:103A1000FFF766BF2DE9F04106461F4614460D46E6
:103A2000EE20DDF81880FFF75BFFB120FFF758FFAD
:103A30000720FFF755FF300AFFF752FFF0B2FFF7FC
:103A40004FFF280AFFF74CFFE8B2FFF749FF0FB11D
:103A5000012000E00020FFF743FF08F00F0040F0D6
:103A60008000FFF73DFF200EFFF73AFFC4F3074049
:103A7000FFF736FFC4F30720FFF732FFE0B2FFF78E
:103A80002FFFFF20FFF72CFFFC20FFF729FFFF206F
:103A9000FFF726FFBDE8F041FF20FFF721BFFDF74C
:103AA0008FBF0000F8B5164D04004FF0010624D07A
:103AB0000227687801281ED1009795F9000000239D
:103AC000021B17211846FFF7A5FFE0B2FFF7ACFE77
:103AD00088B100200B49034602464870C8704871FF
:103AE000C871487217210097FFF794FFFEF714FF83
:103AF000AE700120F8BD641EDBD1EE700020F8BD71
:103B000024000020AC01002030B593B0302168467D
:103B1000FCF78EFB14210CA8FCF78AFB1D4800253E
:103B2000016841F080510160006800F08050119000
:103B30001948016841F4804101600068022400F4E2
:103B40008040119001200090000401908001CDE997
:103B5000064008AA0420642182E813000B906846FE
:103B6000FEF7B2F808B172B6FEE70CA90F2081E8A3
:103B700031004FF4A0500F904FF48050109003216B
:103B80000CA8FDF7B7FF002801D072B6FEE713B00E
:103B900030BD00004038024000700040024801681B
:103BA00041F470010160704788ED00E00148FEF7C4
:103BB000C0BB00008C0000200148FEF7BABB00002B
:103BC000D40000200148FEF7B4BB00001C01002017
:103BD000F0B50268274B284D284E294F294C4FF04D
:103BE000804C984209D0604507D0A84205D0B04229
:103BF00003D0B84201D0A04204D122F0700E4A682E
:103C000042EA0E0298421BD0604519D0A84217D054
:103C1000B04215D0B84213D0A04211D01A4DA842DC
:103C20000ED01A4DA8420BD0194DA84208D0194DFC
:103C3000A84205D0184DA84202D0184DA84203D181
:103C400022F44075CA682A434D6922F080022A4353
:103C50008D68C5620D688562984201D0A04201D18D
:103C600009690163016841F00401016001214161BA
:103C70000260F0BD00000140000400400008004068
:103C8000000C00400004014000400140004401409D
:103C90000048014000180040001C00400020004087
:103CA00010B5846842EA032224F47F440A43224385
:103CB000826010BD826822F070020A4342F0070160
:103CC0008160704710B5036A046A24F0010404623D
:103CD000846924F0F00444EA021423F00A020A433F
:103CE0008461026210BD10B5036A046A24F01004F6
:103CF0000462846923F0A00324F4704444EA02328D
:103D000043EA01118261016210BD000082030A20B2
:103D10008903B2FBF0F2B1FBF0F330B509480A4970
:103D2000007808E0841E01EB800504FB0324401E9C
:103D300045F8044CC0B20128F4D84FF4A010086034
:103D400030BD000024000020B801002010B5806BB9
:103D50000021C185FEF7A6FB10BD01680C3151E8BA
:103D6000002F22F4907241E80023002BF5D1016866
:103D7000143151E8002F22F0010241E80023002B0A
:103D8000F5D1016B012909D101680C3151E8002FEF
:103D900022F0100241E80023002BF5D1202180F809
:103DA000421000210163704708B590F842102229A3
:103DB00001D0022008BD82684FF480539A4201D19D
:103DC000016921B1816A9A421BD04AB10AE00268B6
:103DD000816A5268C2F308020A80816A891C08E07D
:103DE000026972B10268526802F07F020A70816A49
:103DF000491C8162C18D491E0904090CC18503D08B
:103E00001BE002685268F1E70168CA6822F02002EC
:103E1000CA600168CA6822F48072CA6001684A698F
:103E200022F001024A61202180F842100021416302
:103E3000026B012A03D0FEF7F3FC002008BD0163EA
:103E400001680C3151E8002F22F0100241E80023F4
:103E5000002BF5D101680A68D20602D50A684968C4
:103E60000091818DFEF71DFBE7E7000070B5044669
:103E700000680169E26821F4405111430161216940
:103E8000A068E26908436169114308432168CA6870
:103E900049F20C639A430243CA6020684169A269EF
:103EA00021F440711143416131492068884202D0B8
:103EB0003049884202D1FDF7C7FE01E0FDF7B4FEAC
:103EC000E2690023192164253226B2F5004F6268A9
:103ED00028D0A0FB0101930F9200FCF771F9014675
:103EE000B0FBF5F06FF01802504301EB800006EBD9
:103EF0000010B0FBF5F000F0F002B1FBF5F002EBC2
:103F00000012B1FBF5F06FF01803584301EB80008D
:103F100006EB0010B0FBF5F000F00F002168104434
:103F2000886070BDA0FB010192185B41FCF748F965
:103F30000146B0FBF5F00201B1FBF5F06FF018039C
:103F4000584301EB800006EBC000B0FBF5F000F039
:103F5000F80002EB4002B1FBF5F0584301EB8000A2
:103F600006EBC000B0FBF5F000F00700D6E700005C
:103F7000001001400014014081628285C285002149
:103F80004164222180F84210016921B10168CA68A8
:103F900042F48072CA6001684A6942F001024A61D3
:103FA0000068C16841F02001C160002070472DE920
:103FB000F843984617460D460446089E24E0701CB8
:103FC00022D0FDF7F7FCA0EB0800B0421AD8CEB122
:103FD0002068C168490717D5802D15D0402D13D012
:103FE0000168C94309070FD40168002540680090A3
:103FF0002046FFF7B2FE0820606484F8405001209C
:10400000BDE8F8830320FBE72068006835EA00007C
:1040100004D00020B842D2D00020F1E70120F9E717
:10402000074810B500680168C943890603D4406891
:10403000C0B200F033FABDE810400148FEF734BAD0
:1040400064010020FEE70907090E002804DB00F1E7
:10405000E02080F80014704700F00F0000F1E0202D
:1040600080F8141D704702E008C8121F08C1002A1A
:10407000FAD170477047002001E001C1121F002AE9
:10408000FBD1704730B50024234602E0C55C5B1CC1
:104090002C448B42FAD3A018C0B230BD10B5002119
:1040A0004B1C9A421AD102780E4B912A05D0F52A60
:1040B00013D14278022A03D009E04278022A0CD1B7
:1040C00003EB4104012262700278F52A05D14078A1
:1040D000002802D103EB4101487010BDD9B2052977
:1040E000DED310BDAC01002008B5FDF771FC00F077
:1040F000E5F9FFF709FDFEF773FCFEF769FDFEF732
:1041000099FDFEF74BFCFEF7B7FDFEF72DFDFCF722
:10411000ABFD40224D494E48FEF774FB4D48FEF77B
:1041200059F8FEF7C7FD4FF47A70FDF7F9FA00224F
:1041300002211046FFF7E0FB002203211046FEF7A4
:1041400027FE6420FDF7ECFA002214211046FEF74A
:104150001FFE002204211046FEF71AFE00F0AAF806
:1041600000224FF400713C48FDF71FFC3B4DDFF887
:10417000F0A0DFF8F0903C4EDFF8F0B0002400BF74
:104180004FF47A70FDF7CCFA4FF40057DFF8E08077
:104190000EE02878012802D100F08CF82C70FEF790
:1041A00021FE39464046FDF7F8FB6420FDF7B8FADA
:1041B00030780128EDD18BF800409AF80000D846FD
:1041C000574628B199F80000012801D000F072F894
:1041D000FEF7C2FD4FF4FA70FDF7A2FA99F800005D
:1041E000401EC0B2FFF75EFC387088B90220002381
:1041F00000901A4617211846FFF70CFC40F6C41031
:10420000FDF78EFA99F80000012801D000F052F86D
:10421000002202211046FFF76FFB00220421104606
:10422000FEF7B6FD002203211046FEF7B1FD002285
:1042300014211046FEF7ACFD3470012188F80010FF
:1042400040F2DC50FDF76CFA9AE70000D804002039
:10425000640100208C000020000002403400002097
:104260000000002024000020250000204000002045
:1042700000080240034A91211170024602210148C0
:10428000FCF716BD0100002030B41446084AF5259D
:1042900015700D0A55709170D470190C1171190AAE
:1042A00051719371024630BC08210148FCF700BDF2
:1042B000010000202DE9F047DFF81CA1002426466C
:1042C0008AF80040FEF754FB0120FFF7D3FF0220DD
:1042D000FFF7D0FF4FF47A77404D05E06420FDF7FB
:1042E0001FFA641CBC4206D268780028F6D0E87831
:1042F0000028F3D003E0697821B1E87810B16E703E
:104300000024EE704FF4FA794846FDF709FA0320CD
:10431000FFF7B0FF0420FFF7ADFFB84605E06420CB
:10432000FDF7FEF9641C444506D268790028F6D0F2
:10433000E8790028F3D003E0697921B1E87910B178
:104340006E710024EE714846FDF7EAF90520FFF78B
:1043500091FFDFF88C90012705E06420FDF7E0F97C
:10436000641C444503D2687A0028F6D001E0687ADC
:1043700018B16E72002489F802704FF40053642261
:1043800041460520FFF780FF4CF2503805E06420DD
:10439000FDF7C6F9641C444503D2687A0028F6D0BC
:1043A00001E0687A10B16E7289F80270FEF7B4FA13
:1043B0000C488AF80070022306600A2096FBF0F091
:1043C000BDE8F04700EE100A01221621B8EEC00A3F
:1043D0001846FFF7DBBA00005C000020AC010020AB
:1043E000240000204C00002030B4084BF5220024AB
:1043F0001A705C709C70D9701C715C719C71024663
:1044000030BC08211846FCF753BC00000100002016
:1044100008B5F7218DF80010024602216846FCF726
:1044200047FC08BDF0B51C4D00273A46194CB5F8BD
:1044300000C019E0664506D0174A121DB25C761C12
:10444000C6F308036B8023880BB9EE2A0CD18B428C
:1044500002D2C2545B1C2380636842EA032303F543
:1044600040366360761C11D06E88ACEB060303F512
:1044700000734FEAE37E03EBDE5E6FF3080EA3EBFF
:104480000E031B041B0CD5D10020F0BD20886760F3
:104490002780F0BD3800002018050020064910B51F
:1044A0000B884C885A1CC2F30802944202D00C1D9F
:1044B00018550A8010BD000018050020034900208F
:1044C000488008800249486008807047180500202D
:1044D000380000200000000000000000010203047A
:1044E000060708090000000001020304DDDDDDDD30
:1044F000DCBBBBDDDDDDDDDDDDDDDDDD9888888875
:10450000888888887777777777888888855555561B
:104510006666666666666666666888888333333272
:1045200022222222222222222228888D4C45000883
:10453000000000206400000066400008B04500084C
:1045400064000020BC0A0000764000080000000063
:10455000000000000000000000000000000000005B
:104560000100000010000000000000000024F40022
:104570000100000100000000000000000000000039
:10458000000000000000000000000000010000002A
:10459000000000000000000000000000000000001B
:1045A0000000000000000000000000000500000006
:040000050800018965
:00000001FF
