:020000040800F2
:10000000000B00209D01000801290008672400085A
:10001000C927000815080008C136000800000000C4
:100020000000000000000000000000002130000877
:10003000BD080008000000002D2C00085931000800
:10004000B7010008B7010008B7010008B7010008B0
:10005000B7010008B7010008B7010008B7010008A0
:10006000B7010008B7010008B7010008B701000890
:10007000B7010008B7010008B7010008B701000880
:10008000B7010008B7010008B7010008B701000870
:1000900055080008B7010008B7010008BF080008AC
:1000A000B7010008B7010008B7010008B701000850
:1000B0002932000835320008B7010008B7010008EE
:1000C000B7010008B7010008B7010008B701000830
:1000D000B7010008B70100089D360008B701000805
:1000E000B7010008B7010008B7010008B701000810
:1000F000B7010008B7010008B7010008B701000800
:10010000B7010008B7010008B7010008B7010008EF
:10011000B7010008B701000841320008B701000824
:10012000B7010008B7010008B7010008B7010008CF
:10013000B70100080000000000000000B70100083F
:10014000B7010008B7010008B7010008B7010008AF
:10015000B7010008B7010008B7010008B70100089F
:10016000B7010008B7010008B7010008B70100088F
:10017000B7010008B70100080000000000000000FF
:10018000B7010008B7010008DFF80CD000F080F9D3
:100190000048004765370008000B002006488047EC
:1001A00006480047FEE7FEE7FEE7FEE7FEE7FEE75C
:1001B000FEE7FEE7FEE7FEE71932000889010008C6
:1001C0002DE9F05F0546002092469B46884606468C
:1001D000814640241BE0284641464746224600F01F
:1001E00004F953465A46C01A914110D31146184695
:1001F000224600F0EBF82D1A67EB01084F46224625
:100200000120002100F0E2F817EB00094E41201E0A
:10021000A4F10104DFDC484631462A464346BDE8E6
:10022000F09FD2B201E000F8012B491EFBD27047CB
:100230000022F6E710B513460A4604461946FFF7B2
:10024000F0FF204610BD00000FB400B58DB010A91E
:1002500009900B9000914FF0FF300A9000200C9015
:1002600005480690054807906A4609A80F9900F0CE
:10027000E1F80DB05DF814FB510400086F040008AC
:100280002DE9FF5F1D464FF0FF3BD5E90146914642
:100290005F464FF00008A9697F1C01988847296ACA
:1002A000824688470028F6D1BAF1FF3F0CD024F4EB
:1002B000C064002E19DD600614D5BAF12B0F09D0E9
:1002C000BAF12D0F0ED103E0584604B0BDE8F09FFF
:1002D00044F48064A9697F1C01988847761E824691
:1002E000002E02DDBAF1300F03D0B9F1000F26D095
:1002F00032E0A969761E44F400747F1C0198884797
:100300008246002E05DDBAF1780F06D0BAF1580FFB
:1003100003D0B9F1000F10D01EE0B9F1000F02D0E8
:10032000B9F1100F18D1A969761E24F400747F1C4E
:10033000019888478246102002E0082000E00A2049
:10034000814609E008FB0908A969761E44F4007497
:100350007F1C019888478246002E05DD494650469D
:1003600000F053F80028EDDAE96901988847A00504
:1003700002D46FF00100A8E7E00725D1600613D58D
:10038000600502D5C8F1000000E0404629680A1D5A
:100390002A600968220501D5087015E0220701D5F9
:1003A000088011E008600FE02868011D29600068DE
:1003B000210502D580F8008006E0210702D5A0F8CB
:1003C000008001E0C0F8008038467EE7202A04DB88
:1003D000203A00FA02F1002070479140C2F1200358
:1003E00020FA03F3194390407047202A04DB203A97
:1003F00021FA02F00021704721FA02F3D040C2F145
:10040000200291400843194670473A2800D23038FC
:1004100020F02002412A01D3A2F13700884201D303
:100420004FF0FF30704700000268114413780160FC
:1004300018467047D1600449516104491162002196
:100440001161114600F03CB829040008B504000809
:10045000426842B1016811F8013B23B1521EC0E964
:100460000012184670470121C160881E704742681B
:100470005AB1C368016843B983688B4205D0491EED
:10048000521CC0E90012002070474FF0FF30704747
:10049000064C074D06E0E06840F0010394E80700D1
:1004A00098471034AC42F6D3FFF772FE383B000891
:1004B000583B0008C0B24FF4F05100F097B900006B
:1004C0002DE9F34F8BB04FF0000801F10C000C4602
:1004D0004FF0010B46460DF1080A019062690121B7
:1004E0000198904705002DD0252D2CD0216A8847F2
:1004F000C0B16269012101989047216A88470028AC
:10050000F7D1411E62690198904700E0761CA1690D
:100510000B988847216A88470028F7D1E1690B9832
:100520008847DBE7A1690B9888470746A84201D1B5
:10053000761CD3E7E1690B9888477F1C02D1B8F19C
:10054000000F6FD046E1002762693D4639460198A9
:1005500090472A2804D1626901210198904701251A
:10056000DFF884926269012101989047A0F130017F
:100570000A290AD24F45E5DC07EB870100EB41076A
:10058000303FDFD445F01005ECE7E90601D46FF009
:1005900000476C280AD04C2814D0682815D06A2847
:1005A0000DD074281CD07A281AD01DE06269012170
:1005B000019890476C2802D045F0040514E045F0FE
:1005C00002050DE045F020050AE06269012101986D
:1005D0009047682802D045F0080505E045F400651D
:1005E0006269012101989047C4E9015765283DD00F
:1005F00019DC58287AD00CDC452837D004DC2528B3
:1006000026D0412831D131E046282FD047282CD19F
:100610002CE05B2877D0612828D063287CD0642820
:1006200023D15AE0D0E06F2848D008DC66281DD0DE
:1006300067281BD0692821D06E2816D127E07028A2
:1006400045D0732868D0752847D078280DD14DE063
:10065000A1690B988847054625283FF469AFE169F1
:100660000B9888476D1C3FF46AAFB3E023466A4697
:100670006FF001000B99AFF300809EE045F0400061
:100680006060A80723464FF0000236D43EE0E8073A
:100690007FF447AF2068011D21600068290501D55E
:1006A00006701BE7290701D5068017E7A90703D5C0
:1006B000F117C0E9006111E706600FE745F040005F
:1006C0006060A80723464FF0080216D41EE040F6EB
:1006D0000E0125EA0100606016E045F04000606010
:1006E000A80723464FF00A0207D40FE045F0400068
:1006F0006060A80708D5234610226FF001000B990F
:10070000AFF3008059E007E0234610226FF00100AC
:100710000B99FFF7B5FD50E04FF000094F464B46EF
:10072000632802D05B2806D040E0E80601D401200F
:10073000A06001273AE062690121019890475E2894
:1007400005D14FF001096269494601989047216936
:1007500039B900210A46534643F82120491C08298B
:10076000FADBB0B3216969B9C11700EBD16253114B
:100770000AEB830122F01F02821A01200B689040CD
:1007800003430B6062690121019890475D28E8D11D
:10079000B9F1000F09D00020514651F82020D24372
:1007A00041F82020401C0828F7DB02AB22460097C6
:1007B0006FF001000B99AFF3008000280CDA401CA9
:1007C00008D1BBF1000F05D04FF0FF300DB0BDE8F0
:1007D000F08FFFE74046F9E7E90701D108F101088A
:1007E00006444FF0000B79E6CCCCCC0C7F2801D925
:1007F000002208E0064A02EB5002C007127800D13E
:10080000120902F00F0201209040084070470000DA
:10081000F83A0008FEE7000000B58BB00020012187
:10082000CDE906010590009001900290039004909C
:100830000E20CDE908106946054800F0A9F90448E2
:1008400000F09CFC0221024800F032F90BB000BD20
:1008500044000020014800F0B2BA0000440000202B
:1008600070B58AB000230C460092CDE90123CDE992
:1008700003348DF8143006AD491E03E0C65CEE5417
:100880005B1CDBB28B42F9DBD2B2C9B202F038FF9B
:10089000291908AB01F8010C06AA6946064800F0C0
:1008A00019F910B101200AB070BD034800F071FAC7
:1008B0000328FAD10020F6E74400002070472020EA
:1008C00000F02ABD72B6FEE770B505460C46EE2074
:1008D00002F0A8FBB12002F0A5FB112002F0A2FB60
:1008E000280A02F09FFBE8B202F09CFB200A02F00B
:1008F00099FBE0B202F096FBFF2002F093FBFC2094
:1009000002F090FBFF2002F08DFBBDE87040FF205D
:1009100002F088BB2DE9F05FDFF88CB100250746B7
:100920002E4642F21079614CABF10C0802E0322005
:1009300000F0B2FCE0780028F9D12EE05BF8272027
:10094000B42140F6C41001F051FF0CE06D1C4D4580
:1009500001D3012615E0E078012809D0607838B18C
:10096000322000F099FC98F809000128EED108E047
:10097000052003F053F804E0607828B1322000F03D
:100980008BFCE0780028F7D198F80900002510B911
:10099000012E00D10026607818B198F809000028CF
:1009A000CCD04FF0000A88F809A0574636E0642200
:1009B0004FF47A71002001F01FFF0CE07F1C4F45BF
:1009C00001D301261DE0E07801280BD0607848B102
:1009D000322000F061FC68780128EFD1E878012826
:1009E000ECD10EE0012003F019F8322000F054FCA5
:1009F000022003F013F804E0607828B1322000F000
:100A00004BFCE0780128F7D06878002708B1E87837
:100A100010B9012E00D10026607838B198F8010095
:100A200045460028C3D0E8780028C0D088F801A047
:100A3000554688F803A02EE0B42140F6C410DBF838
:100A4000002001F0D3FE0CE07F1C4F4501D30126AE
:100A500015E0E078012809D0607838B1322000F044
:100A60001BFC98F809000128EED108E0052002F0EF
:100A7000D5FF04E0607828B1322000F00DFCE0786A
:100A80000128F7D098F80900002710B9012E00D1ED
:100A90000026607818B198F809000028CCD088F8B2
:100AA0000950BDE8F09F0000980100202C000020B4
:100AB00090F82020012A07D0022A05D0416A41F48B
:100AC0008021416201207047006842690A43426107
:100AD00000207047F0B590F820500468A468012DFC
:100AE00005D0022D03D0416A41F480214DE014F07D
:100AF000406F01D1E50045D5C4F301640125A5404F
:100B00001D608D684FF4C0739DB1CE6835434E684B
:100B100045EAC605066803EB0417F5514FF4C275A4
:100B2000076805EB04150E697E51097D012905D082
:100B300009E00E88CD6845EA4655EBE701684E5955
:100B400046F480764E511179D2F805504FF4C676AE
:100B500041EA0521056806EB0416A9511178D2F87F
:100B600001204FF4C47541EA0221026805EB041527
:100B70005151006803EB0411425842F00102425007
:100B80000020F0BD416A41F4001141620120F0BD36
:100B900010B590F82020012A07D0022A05D0416A1A
:100BA00041F480214162012010BD3B48D0F8002271
:100BB00042F00102C0F80022D0F8002222F47C5258
:100BC000C0F80022D0F800224B6A42EA0322C0F8A3
:100BD00000220A7D02F01F0301229A40D0F81C3245
:100BE0009343C0F81C32CB69B3B9D0F80C329343AD
:100BF000C0F80C328C894B6864F31F434C6900EBDE
:100C0000C404C4F840320C890B6864F31F434C6978
:100C100000EBC404C4F84432CB69012B16D1D0F8E0
:100C20000C321343C0F80C320C884B6864F31F433A
:100C30004C6900EBC404C4F840320C89CB6864F3FF
:100C40001F434C6900EBC404C4F844328B69002B89
:100C5000D0F804320ED01343C0F804320B69002BD5
:100C6000D0F8143208D01343C0F81432096A0129AD
:100C700004D008E09343EFE79343F5E7D0F81C1264
:100C80001143C0F81C12D0F8001221F00101C0F885
:100C90000012002010BD000000640040704770B5D5
:100CA00090F82040012C05D0022C03D0416A41F479
:100CB000802128E0046809B32469A40720D04FF4F8
:100CC000D874056804EB01142D5915F004059560DE
:100CD00005682D591AD0ED08556005682C5904F0A7
:100CE0000204D4604FF4DA74056804EB01142E5941
:100CF00006F00F06082E0CD308250DE0E468DCE7AB
:100D0000416A41F400114162012070BD6D0D156012
:100D1000E3E72D5905F00F05156105682D59C5F359
:100D20000725956105682C59240C54614FF4DC7239
:100D3000046802EB0112A4581C700468A458240A29
:100D40005C700468A458240C9C700468A258120EAD
:100D5000DA704FF4DE72046802EB0112A4581C71C1
:100D60000468A458240A5C710468A458240C9C717B
:100D70000468A258120EDA71006829B1016941F0C5
:100D800020010161002070BDC16841F02001C160F7
:100D9000F8E70246002092F82010012901D002292C
:100DA0000CD111688A68520100D501208A681201AD
:100DB00000D5401C8968C90000D5401C70472DE94A
:100DC000F05F0546006800244669D0F80490876803
:100DD000D0F80CB0D0F810A0D0F81880F10748D0A7
:100DE000F90714D001218160B80703D5284600F027
:100DF000F2F90CE0780702D54FF4006407E03807F9
:100E000002D54FF4805402E0284600F0E3F9F805DB
:100E100016D529684FF480708860B80503D5284638
:100E200000F0DBF90CE0780502D544F4005407E04B
:100E3000380502D544F4804402E0284600F0CCF99D
:100E4000F80316D529684FF480308860B80303D5BD
:100E5000284600F0C4F90CE0780302D544F40044BD
:100E600007E0380302D544F4803402E0284600F05D
:100E7000B5F9300707D55FEACB6004D529681020A3
:100E800044F40074C86070074FF0080707D55FEAA4
:100E90000B7004D52868C760284600F059F9B007E0
:100EA00006D52868C068800702D0284600F051F9AE
:100EB000700607D55FEACA6004D52968102044F49B
:100EC00080640861B00607D55FEA0A7004D5286817
:100ED0000761284600F04FF9F00606D5286800693A
:100EE000800702D0284600F047F9B00308D55FEA32
:100EF000C96005D5296810204860284600F03DF9F2
:100F0000F00307D55FEA097004D5286847602846D2
:100F100000F066F9300446D55FEA497040D5F00527
:100F200004D55FEAC87001D044F00104B00504D5CF
:100F30005FEA887001D544F00204700504D55FEAC9
:100F4000487001D544F00404300529D518F0700F1D
:100F500026D008F07000402815D006DC102809D0F3
:100F600020280AD0302816D10AE050280ED0602858
:100F700011D10EE044F008040DE044F010040AE042
:100F800044F0200407E044F0400404E044F080040E
:100F900001E044F480742868816921F07001816166
:100FA000296804204860002C05D0686A20436862E4
:100FB0002846FFF773FEBDE8F09F70B5040003D02C
:100FC00094F8200010B104E0012070BD204600F02C
:100FD00081F82068016841F00101016000F0B2FA77
:100FE0000546052604E000F0ADFA401B0A2811D89A
:100FF00020684068C007F6D02068016821F002012F
:10100000016000F09FFA05460BE000F09BFA401BE0
:101010000A2806D9606A40F40030606284F82060D3
:10102000D2E7206840688007EFD4207E012820683E
:1010300001683DD021F080010160607E01282068B8
:10104000016838D021F040010160A07E01282068AD
:10105000016833D021F020010160E07E0128206882
:1010600001682ED041F010010160207F0128206826
:10107000016829D021F008010160607F0128206803
:10108000016824D021F004010160D4E90201084381
:10109000D4E90412114308436168491E08432168DA
:1010A000C86100206062012084F82000002070BD2B
:1010B00041F08001C0E741F04001C5E741F0200167
:1010C000CAE721F01001CFE741F00801D4E741F071
:1010D0000401D9E710B586B0044614216846FFF72D
:1010E000A7F818492068884229D1174800210268CA
:1010F00042F000720260006800F000700590124833
:101100001038026842F002020260006800F002003B
:1011100005904FF4407000900220CDE901010320BA
:101120000390092004906946084800F001F9002264
:101130000121142000F074FA142000F063FA06B0C4
:1011400010BD00000064004040380240000402402E
:10115000704700B589B007AB6A460021FFF79FFDD5
:10116000002806D10098C2B20498C1B207A802F0C4
:10117000D3FA09B000BD70477047704770B5044698
:1011800090F82000012804D0606A40F400206062DA
:1011900018E0022084F820002068016821F0010195
:1011A000016000F0CFF905460EE000BF00F0CAF97B
:1011B000401B0A2808D9606A40F4003060620520AC
:1011C00084F82000012070BD20684068C007EDD180
:1011D000606270BD704770477047704770477047D6
:1011E00070472DE9F0410446876D00F0ABF90646E3
:1011F00094F835000025022806D08020606584F828
:1012000034500120BDE8F0812068016821F016010A
:1012100001602068416921F080014161206C08B9BA
:10122000A06C20B12068016821F0080101602068ED
:10123000016821F0010101600CE000F083F9801BDE
:10124000052807D920206065032084F8350084F83C
:101250003450D7E720680068C007EED194F85C10DE
:101260003F208840B860012084F8350084F834506D
:101270000020C7E790F83510022903D0802141658E
:1012800001207047052180F835100068016821F0C1
:10129000010101600020704770B5044600F052F96A
:1012A0000546601C02D004480078044400F04AF966
:1012B000401BA042FAD370BD1C00002010B52028AE
:1012C00024D100F03FF9124C6168401AC8281DD3A0
:1012D00000F038F960600F480178491CC9B201700C
:1012E000012903D94FF00001017005E002D14FF050
:1012F000010203E0002909D14FF00002BDE81040CF
:101300004FF015014FF0000001F0D0BA10BD000001
:10131000140000202F000020044910B50A68024282
:1013200002D00860FFF7CAFF10BD0000143C014066
:101330002DE9F84FDFF8BCA10022012503264FF06C
:101340000F090AF1040BAAF1040E00BF0B6805FA9D
:1013500002F42340A34270D10F7907F00307012F55
:1013600001D0022F16D187684FEA420806FA08FC1E
:1013700027EA0C07D1F80CC00CFA08FC4CEA070C61
:10138000C0F808C04768A7430C79C4F30014944020
:101390003C4344600C79E443A4070AD0C4684FEA94
:1013A000420C06FA0CF7BC438F6807FA0CF7274388
:1013B000C7600C7904F00304022C12D1D40800EBAE
:1013C000840CDCF820405707FF0E09FA07F824EADE
:1013D0000804D1F8108008FA07F848EA0408CCF8A5
:1013E000208004684FEA420C06FA0CF7BC430F79E0
:1013F00007F0030707FA0CF7274307604C6814F45B
:10140000403F70D03C4C276847F4804727602468F1
:1014100022F0030704F480440094384C07EB040CDA
:10142000DCF8084897074FEA177809FA08F7BC4331
:10143000334FB84202D1002724E054E0314FB84284
:1014400001D101271EE0304FB84201D1022719E037
:101450002E4FB84201D1032714E02D4FB84201D1DD
:1014600004270FE02B4FB84201D105270AE02A4F8D
:10147000B84201D1062705E0284FB84201D107271D
:1014800000E0082707FA08F72743CCF80878DAF8CD
:1014900000405746D1F804C09C435FEACC2C00D5ED
:1014A0001C433C60DBF800405F46D1F804C09C431D
:1014B0005FEA8C2C00D51C433C60DEF80040774688
:1014C000D1F804C09C435FEA8C3C00D51C433C60CF
:1014D000084F083F3C68D1F804C09C435FEACC3C0D
:1014E00000D51C433C60521C102AFFF42FAFBDE80E
:1014F000F88F0000083C01404438024000300140B1
:10150000000002400004024000080240000C0240BB
:10151000001002400014024000180240001C02406B
:101520000069084000D001207047426921EA0203A7
:101530000A4043EA0241816170470AB18161704704
:101540000904FBE701488068704700001C00002088
:101550000248816802781144816070471C000020B5
:101560000B4810B5016841F400710160016841F455
:1015700080610160016841F480710160032000F026
:101580006FF80F2000F006F800F024F8002010BDDE
:10159000003C024070B50D4D04464FF47A71287836
:1015A000B1FBF0F00A490968B1FBF0F000F00AFB6A
:1015B00048B9102C07D200222146501E00F030F806
:1015C00000206C6070BD012070BD00001C00002078
:1015D000280000200A4808B5016841F480410160F4
:1015E000006800F4804000900548001F016841F049
:1015F00080510160006800F08050009008BD00003C
:1016000044380240002809DB00F01F02012191400C
:101610004009800000F1E020C0F800117047000090
:10162000F0B40E4B1B680C46C3F30223C3F107054D
:10163000042D00D90425191D072901D2002300E03B
:10164000DB1E012606FA05F1491E214099409E4005
:10165000761E16403143F0BC02F033B80CED00E0CA
:10166000064900F0070208684FF6FF03184040EAF9
:101670000220034A10430860704700000CED00E0B0
:101680000000FA052DE9F0470E46050065D0DFF8A9
:101690001481D8F80000F7B200F00700B04207D27A
:1016A00088F80070D8F8000000F00700B04254D16C
:1016B00028683D4C810712D5400703D5206840F4C7
:1016C000E05020602878000703D5206840F460408F
:1016D00020602068A96820F0F00008432060287886
:1016E000C0072DD0304968680839012812D0022877
:1016F00013D0032811D00968890700292DDA216841
:1017000021F0030101432160FFF71CFF814641F2F4
:10171000883A0EE009688903EFE709688901ECE778
:10172000FFF710FFA0EB0901514502D90320BDE8E6
:10173000F0872068696800F00C00B0EB810FEFD1F2
:10174000D8F80010404601F00701B14207D90770F0
:10175000006800F00700B04201D00120E7E72878D8
:10176000400705D52068E96820F4E0500843206070
:101770002878000706D52068296920F4604040EAEF
:10178000C100206000F038F82168084AC1F3031155
:10179000515CC8400649086006480068FFF7FAFE39
:1017A0000020C4E7003C024008380240E03A00084C
:1017B000280000202000002004480549006809682E
:1017C000044AC1F38221515CC840704728000020C0
:1017D00008380240F03A00080448054900680968E2
:1017E000044AC1F34231515CC840704728000020D0
:1017F00008380240F03A0008154810B5006810F0AB
:101800000C02144813D04110042A0FD0082A0ED11C
:101810000F4C241F2268236802F03F025B0207D5A9
:101820002068C0F38810A0FB010106E0084610BD47
:101830002168C1F38811A1FB00010023FEF7C0FC61
:101840002168C1F30141491C4900B0FBF1F010BD12
:10185000083802400024F4002DE9F84F04006ED04F
:101860002078DFF84C93C007A9F104054AD009F1AC
:1018700004000168C1F38101012908D00068C0F3A8
:10188000810002280AD1D9F80000400206D5286854
:10189000800337D560680028E1D033E06068B0F598
:1018A000803F10D0B0F5A02F286810D020F48030F1
:1018B0002860286820F4802028606068A8B1FFF7BD
:1018C00041FE06460DE0286840F48030F4E740F41D
:1018D00080202860F7E700BFFFF734FE801B6428F4
:1018E00073D828688003F7D50CE0FFF72BFE064677
:1018F00005E000BFFFF726FE801B6428F0D82868AB
:101900008003F7D42078DFF8AC8280074FF0000A1C
:101910003ED5A748001D016811F00C0F08D00068E3
:10192000C0F3810002280BD1D9F80000400207D48F
:101930002868800716D5E068012800D112E033E15D
:10194000E068B8B10120C8F80000FFF7FBFD0646CB
:1019500005E000BFFFF7F6FD801B0228C0D828680D
:101960008007F7D52868216920F0F80040EAC10017
:1019700028600DE0C8F800A0FFF7E4FD064604E08B
:10198000FFF7E0FD801B02281FD828688007F7D4E6
:101990002078000722D5864F87486169703771B17A
:1019A00001210160FFF7CEFD064604E0FFF7CAFD06
:1019B000801B022809D838688007F7D50EE0C0F8E8
:1019C00000A0FFF7BFFD064605E082E0FFF7BAFD85
:1019D000801B02287DD838688007F7D4207840071C
:1019E00068D5DFF8CCB100270BF13C0BDBF8000029
:1019F000C0000BD4DBF8001041F08051CBF8001090
:101A0000DBF80000012700F0805000906B4E30683A
:101A1000C00510D4306840F480703060FFF792FD4C
:101A2000009005E0FFF78EFD0099401A022850D87B
:101A30003068C005F6D55E4EA0686C3601280FD020
:101A40000528306810D020F001003060306820F0A8
:101A500004003060A068B8B1FFF774FD00900FE09B
:101A6000306840F00100F4E740F004003060F7E730
:101A7000FFF768FD0099411A41F28830814266D82B
:101A800030688007F4D50EE0FFF75CFD009007E0BA
:101A9000FFF758FD0099411A41F28830814256D82B
:101AA00030688007F4D42FB1DBF8001021F08051AA
:101AB000CBF80010A069C8B33D49091D0968C1F3FE
:101AC000810102294AD00228504607D0C8F8600098
:101AD00000E03CE0FFF736FD04463BE04746C8F82F
:101AE0006000FFF72FFD064605E000BFFFF72AFD67
:101AF000801B02282BD828688001F7D4D4E907017D
:101B00000843A16A2E4A490802EB0141626A41EA90
:101B10008211084394F82C1040EA0161C9F80010C2
:101B200001203866FFF70EFD044606E03EE000BFE8
:101B3000FFF708FD001B022809D828688001F7D5A7
:101B400034E000BFFFF7FEFC001B022802D903208F
:101B5000BDE8F88F28688001F4D427E00128F7D089
:101B6000D9F80000E26900F4800191421CD1226A98
:101B700000F03F01914217D147F6C071626A0140FF
:101B8000B1EB821F10D1A26A4FF0FF3300F4403155
:101B900003EB5202B1EB024F06D194F82C1000F087
:101BA0007060B0EB016F01D00120D1E70020CFE7DA
:101BB0000438024000004742800E47420070004057
:101BC0000000FFFF10B5401EB0F1807F01D301205F
:101BD00010BD4FF0E02460610F21601701F071FD2E
:101BE0000020A06107202061002010BD70477047D1
:101BF00070B590F83C20012A32D0012480F83C4096
:101C0000022280F83D2003685A689D6822F0700621
:101C10000A6832435A60134B02689A4214D0B2F1F8
:101C2000804F11D0104B9A420ED0104B9A420BD0DD
:101C30000F4B9A4208D00F4B9A4205D00E4B9A4256
:101C400002D00E4B9A4204D1496825F08003194313
:101C5000916080F83D40002180F83C10084670BD3E
:101C6000022070BD00000140000400400008004058
:101C7000000C0040000401400040014000180040FA
:101C800010B5040003D094F83D0010B107E0012026
:101C900010BD002084F83C00204600F01FF8022010
:101CA00084F83D00211D206801F0D0FA012084F85D
:101CB000460084F83E0084F83F0084F8400084F831
:101CC000410084F8420084F8430084F8440084F81A
:101CD000450084F83D00002010BD000008B50168F3
:101CE0001D48B1F1804F11D01C4A91421DD10168AD
:101CF00041F0020101600068002200F00200009043
:101D000001211D20FFF78CFC1D201FE0016841F020
:101D1000010101600068002200F001000090022132
:101D20001C20FFF77DFC1C2010E00D4A914211D1D0
:101D3000016841F0100101600068002200F010000D
:101D4000009001213620FFF76BFC3620BDE80840EB
:101D5000FFF758BC08BD00004038024000040040B6
:101D60000010004090F83D10012901D0012070477B
:101D7000022180F83D100168CA6842F00102CA6081
:101D800000681149884214D0B0F1804F11D00F493A
:101D900088420ED00E4988420BD00E49884208D0A6
:101DA0000D49884205D00D49884202D00C4988422D
:101DB00004D1816801F00701062903D0016841F0D0
:101DC0000101016000207047000001400004004054
:101DD00000080040000C00400004014000400140A9
:101DE0000018004070B5044690F83C00002501281A
:101DF00017D0012684F83C60022084F83D0020685A
:101E0000826822F0770222F47F42826008685028BC
:101E100038D00DDC20284FD005DC90B3102811D12C
:101E20004AE0022070BD302846D040280AD13BE06D
:101E300060282FD070280DD0B0F5805F03D0B0F5AA
:101E4000005F12D0012584F83D60002084F83C003A
:101E5000284670BDCB68D1E90121206801F05EFA07
:101E60002068816841F0770109E0CB68D1E9012160
:101E7000206801F053FA2068816841F48041816054
:101E8000E1E719E0CA684968206801F059FA502171
:101E9000206806E0CA684968206801F062FA60219B
:101EA000206801F045FACEE7CA684968206801F069
:101EB00047FA40212068F4E7226801461046F0E71F
:101EC00070472DE9F04104460068C66805694FF087
:101ED0000007A90713D5B10711D5F91E016101202B
:101EE0002077206880698007204602D0FFF7E8FF4E
:101EF00004E000F07EF8204600F07CF827776807C1
:101F000016D5700714D521686FF00400086102200F
:101F100020772068806910F4407F204602D0FFF7C8
:101F2000CFFF04E000F065F8204600F063F8277763
:101F3000280715D5300713D521686FF00800086110
:101F4000042020772068C0698007204602D0FFF770
:101F5000B7FF04E000F04DF8204600F04BF827777B
:101F6000E80616D5F00614D521686FF01000086158
:101F7000082020772068C06910F4407F204602D0F6
:101F8000FFF79EFF04E000F034F8204600F032F83E
:101F90002777E80708D0F00706D021686FF0010026
:101FA0000861204600F028F8280608D5300606D536
:101FB00021686FF0800008612046FFF717FE680671
:101FC00008D5700606D521686FF0400008612046EC
:101FD00000F02EF8A8060AD5B00608D521686FF0E3
:101FE000200008612046BDE8F041FFF700BEBDE8D3
:101FF000F0817047704700000A4910B5884210D13F
:102000004021094801F014FD08490880010008D06A
:1020100005484078072804D0BDE81040024800F089
:1020200025BE10BD6C000020B80400201400002064
:102030007047704770470000F8B5016804460868AB
:10204000CA684B6910F00F0F4FF000055AD003F02B
:10205000010602F49077374365D0C10705D0D1055A
:1020600003D5616C41F001016164410705D5D907D1
:1020700003D0616C41F002016164810705D5D90785
:1020800003D0616C41F004016164010707D502F0DF
:102090002001314303D0616C41F008016164616C3F
:1020A00000293BD0800604D5900602D5204601F0D9
:1020B000B9F920684069616CC0F3801001F0080133
:1020C000014320462BD001F086F920684069400684
:1020D00021D52068143050E8001F21F0400140E86D
:1020E0000012002AF5D1E06BA8B172490165E06BDE
:1020F000FFF7C0F8002811D0E06B016D01B0BDE81A
:10210000F040084783060ED593060CD52046BDE85F
:10211000F84001F087B92046FFF78CFFF8BDFFF7C4
:1021200089FF6564F8BD266B2023012E7ED1C6068B
:102130007CD5D6067AD508684868009048694FF083
:10214000020640064DD5E26B106840684FF4807778
:102150000004000C3AD0A18D814237D9E085D069C6
:10216000B8422DD020680C3050E8001F21F4807157
:1021700040E80012002AF5D12068143050E8001F12
:1021800021F0010140E80012002AF5D12068143046
:1021900050E8001F21F0400140E80012002AF5D16C
:1021A00084F84230256320680C3050E8001F21F08D
:1021B000100140E80012002AF5D1E06BFFF711F89A
:1021C0006663A08DE18D401A81B206E0A18D814247
:1021D000A8D1D069B842A5D166632046FFF729FF90
:1021E000F8BDA08DE18D401A81B2E08D0028F7D0B6
:1021F0000029F5D020680C3050E8002F22F49072AE
:1022000040E80027002FF5D12068143050E8002F57
:1022100022F0010240E80027002FF5D184F8423077
:10222000256320680C3050E8002F00E006E022F023
:10223000100240E80023002BF3D1CDE705062BD593
:10224000150629D594F841002128C9D1A068B0F518
:10225000805F01D12069B0B1206A411C21622168F0
:1022600000784860E08C401E0004000CE084B7D188
:102270002068C16821F08001C1602068C16841F018
:102280004001C160F8BD206A0088C0F308004860C2
:10229000206A801C2062E5E74006F3D55006F1D5A0
:1022A000CA68204622F04002CA6084F8413000F03B
:1022B000D9F8F8BDC933000870B5040004D094F80B
:1022C0004100002510B106E0012070BD84F84050A7
:1022D000204600F023F8242084F841002068C168DB
:1022E00021F40051C160204601F0FEF82068016928
:1022F00021F4904101612068416921F02A01416186
:102300002068C16841F40051C1606564202084F8F0
:10231000410084F842006563002070BD10B586B0AE
:10232000044614216846FDF783FF17492068884258
:1023300028D116480021026842F400320260006889
:1023400000F40030059011481038026842F0010294
:102350000260006800F0010005900C20009002204F
:10236000CDE9010103200390072004906946084845
:10237000FEF7DEFF002202212620FFF751F926207A
:10238000FFF740F906B010BD00440040403802405D
:102390000000024090F84230202B01D0022070470C
:1023A00021B11AB10023036301F024B90120704761
:1023B000402202490248FFF7EDBF0000B8040020A8
:1023C000440100202DE9F843044690F84100984666
:1023D00016460D46202802D00220BDE8F88385B1BC
:1023E0007EB100206064212084F84100FFF7AAF844
:1023F000A6848146E684A0682027B0F5805F02D0DD
:1024000003E00120E9E7206910B12E4600250EE027
:1024100000260CE08021204601F007F9A8B9C6B1DA
:1024200016F8010B21684860E08C401EE084E08CC7
:102430004B464FF00002CDF800800028EAD14FF063
:102440004001204601F0F1F840B184F841700320CA
:10245000C3E735F8020BC0F30800E3E784F84170E6
:102460000020BAE77047FEE710B501210548FFF7E5
:1024700057F800284FF0010002D1034908700020EE
:1024800010BD0000000002403000002010B5084CD4
:10249000002240212046FFF750F86420FEF7FCFEA2
:1024A00020460122BDE810404021FFF746B8000059
:1024B000000802400F4810B50D4901600521416038
:1024C00000214FF480328160C0E9031212014261A1
:1024D0000176012242768276C17601774177FEF756
:1024E0006CFD002803D0BDE81040FEF7EBB910BD2D
:1024F00000640040440000202DE9F04786B014211C
:102500006846FDF795FE59480024016841F0040132
:102510000160016801F004010591016841F080014A
:102520000160016801F080010591016841F001013D
:102530000160016801F001010591016841F00201AB
:102540000160016801F002010591016841F0080194
:1025500001600068464F00F008004FF6CF75059007
:10256000012229463846FEF7E8FFDFF808814FF4DC
:102570004076012231464046FEF7DFFFDFF8F89053
:10258000012204214846FEF7D8FFDFF8F0A001221F
:1025900018215046FEF7D1FF00950125CDE90154E1
:1025A000694638460394FEF7C3FED320CDE9000404
:1025B000694640460294FEF7BBFE202000904FF48F
:1025C0004410CDE9010469464046FEF7B1FE3020D3
:1025D000CDE90004694638460294FEF7A9FE47F6A5
:1025E0000740CDE90004694650460294FEF7A0FE7C
:1025F0000096CDE90154694640460394FEF798FEE3
:10260000F0000226CDE90006032702940A20CDE956
:10261000037069464046FEF78BFE04200090CDE92A
:102620000154694648460394FEF782FE1820009044
:10263000CDE90154694650460394FEF779FEC02067
:10264000CDE9000602940720CDE9037069465046A3
:10265000FEF76EFE002211461720FEF7E1FF17205D
:10266000FEF7D0FF06B0BDE8F0870000303802402A
:102670000008024000000240000C0240000402403A
:1026800010B586B000241748009401940294039476
:1026900004944FF080410594016041F28731C0E914
:1026A000011440F2E731C0E9031480218161FFF792
:1026B000E7FA08B1FEF706F94FF48050009069463A
:1026C0000848FFF78FFB08B1FEF7FCF8049404A953
:1026D00004480594FFF78CFA002801D0FEF7F2F8C1
:1026E00006B010BD6C00002010B586B0002416485E
:1026F0000094019402940394049412490594016097
:1027000041F28731C0E90114C0E903148461FFF785
:10271000B7FA08B1FEF7D6F84FF48050009069463A
:102720000948FFF75FFB08B1FEF7CCF8049404A951
:1027300005480594FFF75CFA002801D0FEF7C2F8BF
:1027400006B010BD00040040B40000201CB50024F9
:102750000E4800940C490194016041F28731C0E9B0
:1027600001148461C160FFF78BFA08B1FEF7AAF883
:102770000094694605480194FFF73AFA002801D011
:10278000FEF7A0F81CBD000000100040FC00002077
:102790000C4810B50A4901604FF4E1314160002155
:1027A00081600C22C160C0E904128161C161FFF740
:1027B00083FD002803D0BDE81040FEF783B810BDAC
:1027C0000044004044010020FEE700000020064ACB
:1027D0000346411C02F8101002EB40004370C8B2DF
:1027E0000528F6D3704700008C01002013460A46E6
:1027F0000146052001F08EB810B588B101281BD123
:102800004FF47A746FF0C7036422214601F082F816
:10281000C82364222146BDE81040022001F07AB8A6
:1028200040F2DC54054B96222146012001F072F85B
:10283000024B5B429622EDE710BD000080A9030029
:1028400070B514460D4678B101280FD141F2883693
:102850003346032001F05EF8334622462946BDE8A0
:102860007040042001F056B8014EF1E770BD000041
:1028700068CBFEFF10B509210020FEF725F8962051
:10288000FEF70AFD0A210020FEF71EF89620FEF74B
:1028900003FD0B210020FEF717F89620FEF7FCFC45
:1028A0000C21BDE810400020FEF70EB870B50546BB
:1028B00016460C46EE2000F0B5FBB12000F0B2FB4E
:1028C000232000F0AFFB280A00F0ACFBE8B200F0D8
:1028D000A9FB200A00F0A6FBE0B200F0A3FB304603
:1028E00000F0A0FBFF2000F09DFBFC2000F09AFB15
:1028F000FF2000F097FBBDE87040FF2000F092BB86
:10290000FEE700002DE9F05FDFF8809114460D46E8
:1029100006004FF0010720D1022D1ED1DFF870A173
:10292000DFF870B114B1012C05D016E08AF8007000
:102930008BF8000011E0804689F800005648B0F995
:1029400000205648B0F900105548B0F9000000F0DA
:102950006FF98AF800808BF8007099F80000012860
:102960007CD1022E7AD14F484F4EDFF840814FF094
:102970000A094FF47A7A022D1ED0032D3FD0042D80
:1029800056D04FF4FA71052D6AD0062D66D1012C70
:1029900064D198F80020002A60D1007801285DD128
:1029A000434C3222207800F00100FFF749FF2078E5
:1029B000401C207005204FE0012C4FD198F80010EA
:1029C00000294BD10078012848D14402394D012219
:1029D00021462846FEF7B1FD30686430810391FB43
:1029E000F9F2306064215046FFF700FF88F800706C
:1029F00021462846BDE8F05F0122FEF79EBD012C6E
:102A00002CD198F80010002928D10078012825D170
:102A100000F076FF022000F073FF032000F070FF4B
:102A2000042000F06DFF052000F06AFF022013E093
:102A3000012C13D198F8001000290FD1007801283B
:102A40000CD130686438810391FBF9F23060642165
:102A50005046FFF7CBFE032088F80000BDE8F09F4A
:102A6000012CFBD198F80020002AF7D1007801282A
:102A7000F4D1114C3222207800F00100FFF7BCFEA7
:102A80002078401C20700420E6E7000000000020B1
:102A90002F0000202D0000203A00002038000020E8
:102AA000360000200A000020040000200100002061
:102AB0000900002000000240080000202DE9F84F26
:102AC00013460E46054600246A4653A11846009454
:102AD000FDF7BAFB002D32D1504D514FDFF8448144
:102AE000DFF844914FF0010A4FF41670092E28D0F8
:102AF0000A2E49D00B2E6AD00C2E20D199F9002035
:102B0000BB46B7F90030B8F900104E464746921E52
:102B100012FB0133834209DCCB1701EB937C009B52
:102B200003EBAC0C12FB01C1814273DD012000F00C
:102B3000AFFA86F800A0ABF800402C803C80BDE8DE
:102B4000F88FBB460099B7F90070B8F900208B1ECA
:102B500003FB0277464687420ADCD717B5F900C067
:102B600002EB97770CEBA70703FB0272824207DDAB
:102B7000012000F08DFA89F800A0ABF8004043E096
:102B8000491C89F80010DAE799F90020B7F90030FC
:102B90000099921E02FB01334E4683420ADCCB179A
:102BA000B5F900C001EB93730CEBA30302FB0132F8
:102BB000824209DD012000F06BFA86F800A03C801B
:102BC0002C80A8F80040BAE7A8F80010B7E799F9F8
:102BD0000020B8F90010009B4646921E12FB013CF3
:102BE00084450BDC4FEAE17CB5F9008001EB9C7C6D
:102BF00008EBAC0C12FB01C1814209DD012000F0A1
:102C000047FA89F800A03C802C80348097E701E0E7
:102C10003B8094E72B8092E7256C6400380000200D
:102C2000360000203A0000202C00002070470000F1
:102C30002DE9F0410F4605464FF4C874164621466B
:102C40000848FDF7F5FA21460748FDF7F1FA314645
:102C5000284600F099FB31463846BDE8F04100F0C7
:102C60006FB90000980100202803002030B4B0F8AC
:102C7000031044784BBAB0F80510C27949BAB12CA8
:102C80000ED1102A07D0112A0AD100F1080230BC57
:102C90001846FFF713BF427A30BC1846FFF732BE22
:102CA00030BC70472DE9F14FDFF88CB20024274685
:102CB00042F21079A14EABF5CE782EE0B42140F669
:102CC000C410DBF80020FFF791FD0CE0641C4C45BC
:102CD00001D3012715E0F078012809D0707838B1C8
:102CE0003220FEF7D9FA98F809000128EED108E061
:102CF000052000F093FE04E0707828B13220FEF742
:102D0000CBFAF0780128F7D098F80900002410B920
:102D1000012F00D10027707818B198F80900002819
:102D2000CCD04FF0000A88F809A036E032224FF4E8
:102D30007A710020FFF784FD0CE0641C4C4501D340
:102D400001271DE0F07801280BD0707848B13220BF
:102D5000FEF7A2FA68790128EFD1E8790128ECD1D1
:102D60000EE0032000F05AFE3220FEF795FA042010
:102D700000F054FE04E0707828B13220FEF78CFA9F
:102D8000F0780128F7D06879002408B1E87910B903
:102D9000012F00D10027707838B198F8050045461A
:102DA0000028C3D0E8790028C0D088F805A055468F
:102DB00088F807A02FE0009940F6C4105BF82120A6
:102DC000B421FFF713FD0CE0641C4C4501D301272F
:102DD00015E0F078012809D0707838B13220FEF77C
:102DE0005BFA98F809000128EED108E0052000F010
:102DF00015FE04E0707828B13220FEF74DFAF07825
:102E00000128F7D098F80900002410B9012F00D14B
:102E10000027707818B198F809000028CBD0AA468E
:102E200088F8095036E064224FF47A710120FFF7E8
:102E3000E3FC0CE0641C4C4501D301271DE0F07855
:102E400001280BD0707848B13220FEF725FA687857
:102E50000128EFD1E8780128ECD10EE0012000F044
:102E6000DDFD3220FEF718FA022000F0D7FD04E065
:102E7000707828B13220FEF70FFAF0780128F7D0E9
:102E80006878002408B1E87810B9012F00D1002734
:102E9000707838B198F8010045460028C3D0E8782A
:102EA0000028C0D088F801A088F803A036E03222BC
:102EB0004FF47A710120FFF7C3FC0CE0641C4C4511
:102EC00001D301270DE0F07801280CD0707850B1C3
:102ED0003220FEF7E1F968790128EFD1E87901287D
:102EE000ECD100240EE0032000F098FD3220FEF724
:102EF000D3F9042000F092FDF3E7707828B1322076
:102F0000FEF7CAF9F0780128F7D0687908B1E879B6
:102F100010B9012F00D10027707838B198F805005A
:102F200045460028C3D0E8790028C0D088F805A01D
:102F300088F807A0BDE8F88F280300202C000020A7
:102F400082030A2070B58903B2FBF0F4B1FBF0F103
:102F50000C480D4B90F90020D0B208E0151A03EB95
:102F6000800605FB0145401E46F8045CC0B20128FE
:102F7000F4D8CA17586801EB927100EBA1001860F1
:102F800070BD00002C0000202803002070B505460D
:102F9000224C04E0607828B13220FEF77DF9E07819
:102FA0000028F7D1A07801280BD1607848B12846D5
:102FB000FDF7B0FCFFF76AFA0221A17001E060782A
:102FC00048B1FFF751FA0028F9D104E0607828B140
:102FD0003220FEF761F9E0780028F7D10F49091D8A
:102FE000087801280ED1A2782046022A0AD1427818
:102FF000002A12D000220A700321A1704FF47A70C7
:10300000FEF74AF9A078032807D16078002804D099
:103010002846FFF747FE0120A07070BD2C0000205D
:103020007047000001B54FF0FF33012269460248A6
:10303000FFF7C8F908BD00004401002070B505463F
:1030400016460C46EE20FFF7EDFFB120FFF7EAFF32
:103050001020FFF7E7FF280AFFF7E4FFE8B2FFF7C9
:10306000E1FF200AFFF7DEFFE0B2FFF7DBFF3046AB
:10307000FFF7D8FFFF20FFF7D5FFFC20FFF7D2FFB7
:10308000FF20FFF7CFFFBDE87040FF20FFF7CABF6A
:1030900010B50446EE20FFF7C5FFB120FFF7C2FFD1
:1030A0000020FFF7BFFF200AFFF7BCFFE0B2FFF7E9
:1030B000B9FFFF20FFF7B6FFFC20FFF7B3FFFF20AB
:1030C000FFF7B0FFBDE81040FF20FFF7ABBF2DE9D1
:1030D000F04106461F4614460D46EE20DDF81880E6
:1030E000FFF7A0FFB120FFF79DFF0720FFF79AFF32
:1030F000300AFFF797FFF0B2FFF794FF280AFFF7B7
:1031000091FFE8B2FFF78EFF0FB1012000E0002031
:10311000FFF788FF08F00F0040F08000FFF782FF04
:10312000200EFFF77FFFC4F30740FFF77BFFC4F3D8
:103130000720FFF777FFE0B2FFF774FFFF20FFF7EC
:1031400071FFFC20FFF76EFFFF20FFF76BFFBDE86C
:10315000F041FF20FFF766BFFEF7FAB938B504006B
:103160000FD002250023621E172118460095FFF795
:10317000AEFFE0B2FFF70AFF6420FEF78DF8641E91
:10318000F0D138BD30B593B030216846FDF750F826
:1031900014210CA8FDF74CF81D480025016841F0EA
:1031A00080510160006800F080501190194801685A
:1031B00041F4804101600068022400F480401190D5
:1031C00001200090000401908001CDE9064008AA8A
:1031D0000420642182E813000B906846FEF73CFB54
:1031E00008B172B6FEE70CA90F2081E831004FF458
:1031F000A0500F904FF48050109003210CA8FEF7C0
:1032000041FA002801D072B6FEE713B030BD0000CD
:1032100040380240007000400248016841F47001EB
:103220000160704788ED00E00148FEF74ABE0000EB
:103230006C0000200148FEF744BE0000B4000020EE
:103240000148FEF73EBE0000FC000020F0B5026819
:10325000274B284D284E294F294C4FF0804C98423F
:1032600009D0604507D0A84205D0B04203D0B8428B
:1032700001D0A04204D122F0700E4A6842EA0E0248
:1032800098421BD0604519D0A84217D0B04215D043
:10329000B84213D0A04211D01A4DA8420ED01A4DF8
:1032A000A8420BD0194DA84208D0194DA84205D00C
:1032B000184DA84202D0184DA84203D122F44075FF
:1032C000CA682A434D6922F080022A438D68C5628C
:1032D0000D688562984201D0A04201D1096901635D
:1032E000016841F004010160012141610260F0BD0B
:1032F000000001400004004000080040000C0040B5
:1033000000040140004001400044014000480140E9
:1033100000180040001C00400020004010B58468E8
:1033200042EA032224F47F440A432243826010BD10
:10333000826822F070020A4342F007018160704700
:1033400010B5036A046A24F001040462846924F05D
:10335000F00444EA021423F00A020A438461026280
:1033600010BD10B5036A046A24F010040462846975
:1033700023F0A00324F4704444EA023243EA01112A
:103380008261016210BD000082030A208903B2FB42
:10339000F0F2B1FBF0F330B509480A49007808E0D3
:1033A000841E01EB800504FB0324401E45F8044CF9
:1033B000C0B20128F4D84FF47020086030BD00007E
:1033C0002C0000209801002010B5806B0021C185E1
:1033D000FEF730FE10BD01680C3151E8002F22F4D9
:1033E000907241E80023002BF5D10168143151E8B7
:1033F000002F22F0010241E80023002BF5D1016BE0
:10340000012909D101680C3151E8002F22F0100286
:1034100041E80023002BF5D1202180F84210002143
:103420000163704708B590F84210222901D00220AC
:1034300008BD82684FF480539A4201D1016921B1DD
:10344000816A9A421BD04AB10AE00268816A5268D6
:10345000C2F308020A80816A891C08E0026972B11D
:103460000268526802F07F020A70816A491C816218
:10347000C18D491E0904090CC18503D01BE00268F7
:103480005268F1E70168CA6822F02002CA60016848
:10349000CA6822F48072CA6001684A6922F0010297
:1034A0004A61202180F8421000214163026B012A09
:1034B00003D0FEF77DFF002008BD016301680C31D9
:1034C00051E8002F22F0100241E80023002BF5D133
:1034D00001680A68D20602D50A6849680091818DA0
:1034E000FEF7A7FDE7E7000070B504460068016934
:1034F000E26821F44051114301612169A068E26949
:1035000008436169114308432168CA6849F20C63A2
:103510009A430243CA6020684169A26921F440715C
:103520001143416131492068884202D030498842C4
:1035300002D1FEF751F901E0FEF73EF9E2690023FE
:10354000192164253226B2F5004F626828D0A0FB0D
:103550000101930F9200FCF733FE0146B0FBF5F03A
:103560006FF01802504301EB800006EB0010B0FB37
:10357000F5F000F0F002B1FBF5F002EB0012B1FB48
:10358000F5F06FF01803584301EB800006EB0010D4
:10359000B0FBF5F000F00F0021681044886070BDAA
:1035A000A0FB010192185B41FCF70AFE0146B0FB4B
:1035B000F5F00201B1FBF5F06FF01803584301EB91
:1035C000800006EBC000B0FBF5F000F0F80002EB65
:1035D0004002B1FBF5F0584301EB800006EBC00060
:1035E000B0FBF5F000F00700D6E700000010014046
:1035F0000014014081628285C2850021416422213C
:1036000080F84210016921B10168CA6842F48072F1
:10361000CA6001684A6942F001024A610068C168F3
:1036200041F02001C160002070472DE9F843984621
:1036300017460D460446089E24E0701C22D0FDF774
:1036400081FFA0EB0800B0421AD8CEB12068C16853
:10365000490717D5802D15D0402D13D00168C943D7
:1036600009070FD401680025406800902046FFF745
:10367000B2FE0820606484F840500120BDE8F88361
:103680000320FBE72068006835EA000004D0002032
:10369000B842D2D00020F1E70120F9E7074810B581
:1036A00000680168C943890603D44068C0B200F0CD
:1036B000FBF9BDE810400148FEF7BEBC4401002004
:1036C000FEE70907090E002804DB00F1E02080F87E
:1036D0000014704700F00F0000F1E02080F8141D86
:1036E000704702E008C8121F08C1002AFAD17047CB
:1036F0007047002001E001C1121F002AFBD1704772
:1037000030B50024234602E0C55C5B1C2C448B4290
:10371000FAD3A018C0B230BD10B500214B1C9A429C
:103720001AD102780E4B912A05D0F52A13D142788E
:10373000022A03D009E04278022A0CD103EB4104AB
:10374000012262700278F52A05D14078002802D162
:1037500003EB4101487010BDD9B20529DED310BD7D
:103760008C010020FDF7FCFE00F0AEF9FFF70AFD2A
:10377000FEF7C2FEFEF7B8FFFEF7E8FFFEF79AFE7F
:10378000FFF706F8FEF77CFFFDF746F840225349A5
:103790005348FEF7FFFD5348FEF7E4FAFFF716F82B
:1037A0004FF47A742046FDF777FD0022022110467F
:1037B000FFF744FC002203211046FFF777F864204E
:1037C000FDF76AFD002214211046FFF76FF8002272
:1037D00004211046FFF76AF800F0B2F800224FF417
:1037E00000714148FDF7A9FEA046404F404D414EB3
:1037F000002440463EE06878012808D0032806D01F
:10380000022809D004281DD0052824D02CE0787A7D
:10381000012829D17C7226E07878012824D1F87813
:10382000012821D1787901281ED1F87901281BD1EE
:10383000787A012818D17C70FC707C71FC717C72E4
:103840006C6010E0787801280ED1F87801280BD14F
:103850007C70FC7007E07879012805D1F87901289F
:1038600002D17C71FC716C704FF400512248FDF75D
:103870005CFE6420FDF710FD30780128BBD12C7070
:10388000FEF7F8FF4FF4FA70FDF706FD1B480078CD
:10389000401EC0B2FFF762FC40F6C410FDF7FCFC0E
:1038A00000F04EF8002202211046FFF7C7FB00226D
:1038B00004211046FEF7FAFF002203211046FEF70E
:1038C000F5FF002214211046FEF7F0FF34700120AE
:1038D000287040F2DC50FDF7DFFC8AE7B8040020D6
:1038E000440100206C000020000002408C010020F8
:1038F000000000202D000020000802402C000020C5
:10390000034A91211170024602210148FCF7A8BF29
:103910000B00002030B41446084AF52515700D0A36
:1039200055709170D470190C1171190A51719371FD
:10393000024630BC08210148FCF792BF0B00002072
:103940002DE9F047DFF8C49000252E4689F8005095
:103950000120FFF7D5FF0220FFF7D2FF4CF25037CE
:103960002B4C05E06420FDF797FC6D1CBD4206D290
:1039700060780028F6D0E0780028F3D003E0617882
:1039800021B1E07810B166700025E6704FF4FA7846
:103990004046FDF781FC0320FFF7B2FF0420FFF74C
:1039A000AFFF05E06420FDF777FC6D1CBD4206D239
:1039B00060790028F6D0E0790028F3D003E061793F
:1039C00021B1E07910B166710025E6714046FDF73E
:1039D00063FC0520FFF794FF4FF0010805E0642029
:1039E000FDF75AFC6D1CBD4203D2607A0028F6D068
:1039F00001E0607A18B10749667281F802800648D2
:103A000089F800800660BDE8F08700000A00002009
:103A10008C0100202C0000200400002008B5F721B4
:103A20008DF80010024602216846FCF719FF08BD18
:103A3000F0B51C4D00273A46194CB5F800C019E006
:103A4000664506D0174A121DB25C761CC6F3080301
:103A50006B8023880BB9EE2A0CD18B4202D2C25460
:103A60005B1C2380636842EA032303F540366360EE
:103A7000761C11D06E88ACEB060303F500734FEA99
:103A8000E37E03EBDE5E6FF3080EA3EB0E031B0475
:103A90001B0CD5D10020F0BD208867602780F0BDC9
:103AA0003C000020F8040020064910B50B884C8823
:103AB0005A1CC2F30802944202D00C1D18550A8009
:103AC00010BD0000F8040020034900204880088051
:103AD0000249486008807047F80400203C0000203C
:103AE00000000000000000000102030406070809AE
:103AF0000000000001020304DDDDDDDDDCBBBBDD19
:103B0000DDDDDDDDDDDDDDDD98888888888888887D
:103B1000777777777788888885555556666666669D
:103B2000666666666668888883333332222222227C
:103B3000222222222228888D583B000800000020E3
:103B400044000000E23600089C3B000844000020CE
:103B5000BC0A0000F236000801000000000000006E
:103B60000000000000000000000000000000000055
:103B70000000000001000000100000000000000034
:103B80000024F4000100000100000000000000001B
:0C3B900000000000000000000000000029
:040000050800018965
:00000001FF
