:020000040800F2
:10000000200B00209D010008BD3100086F29000869
:10001000492D0008650C000885410008000000001B
:10002000000000000000000000000000A93A0008E5
:100030000D0D00080000000009360008E13B000833
:10004000B7010008B7010008B7010008B7010008B0
:10005000B7010008B7010008B70100080F0D00083C
:10006000B7010008B7010008B7010008B701000890
:10007000B7010008B7010008B7010008B701000880
:10008000B7010008B7010008B7010008B701000870
:10009000A50C0008B7010008B7010008B701000867
:1000A000B7010008B7010008B7010008B701000850
:1000B000ED3C0008F93C0008B7010008B701000852
:1000C000B7010008B7010008B7010008B701000830
:1000D000B7010008B701000861410008B701000836
:1000E000B7010008B7010008B7010008B701000810
:1000F000B7010008B7010008B7010008B701000800
:10010000B7010008B7010008B7010008B7010008EF
:10011000B7010008B7010008053D0008B701000855
:10012000B7010008B7010008B7010008B7010008CF
:10013000B70100080000000000000000B70100083F
:10014000B7010008B7010008B7010008B7010008AF
:10015000B7010008B7010008B7010008B70100089F
:10016000B7010008B7010008B7010008B70100088F
:10017000B7010008B70100080000000000000000FF
:10018000B7010008B7010008DFF80CD000F0A8FBA9
:100190000048004729420008200B002006488047FD
:1001A00006480047FEE7FEE7FEE7FEE7FEE7FEE75C
:1001B000FEE7FEE7FEE7FEE7DD3C000889010008F8
:1001C0002DE9F05F0546002092469B46884606468C
:1001D000814640241BE0284641464746224600F01F
:1001E000BCFA53465A46C01A914110D311461846DC
:1001F000224600F0A3FA2D1A67EB01084F4622466B
:100200000120002100F09AFA17EB00094E41201E50
:10021000A4F10104DFDC484631462A464346BDE8E6
:10022000F09FD2B201E000F8012B491EFBD27047CB
:100230000022F6E710B513460A4604461946FFF7B2
:10024000F0FF204610BD00000FB400B58DB010A91E
:1002500009900B9000914FF0FF300A9000200C9015
:1002600005480690054807906A4609A80F9900F0CE
:10027000ABFA0DB05DF814FBE507000803080008B1
:100280002DE9FF5F1D464FF0FF3BD5E90146914642
:100290005F464FF00008A9697F1C01988847296ACA
:1002A000824688470028F6D1BAF1FF3F0CD024F4EB
:1002B000C064002E19DD600614D5BAF12B0F09D0E9
:1002C000BAF12D0F0ED103E0584604B0BDE8F09FFF
:1002D00044F48064A9697F1C01988847761E824691
:1002E000002E02DDBAF1300F03D0B9F1000F26D095
:1002F00032E0A969761E44F400747F1C0198884797
:100300008246002E05DDBAF1780F06D0BAF1580FFB
:1003100003D0B9F1000F10D01EE0B9F1000F02D0E8
:10032000B9F1100F18D1A969761E24F400747F1C4E
:10033000019888478246102002E0082000E00A2049
:10034000814609E008FB0908A969761E44F4007497
:100350007F1C019888478246002E05DD494650469D
:1003600000F01DFA0028EDDAE96901988847A00538
:1003700002D46FF00100A8E7E00725D1600613D58D
:10038000600502D5C8F1000000E0404629680A1D5A
:100390002A600968220501D5087015E0220701D5F9
:1003A000088011E008600FE02868011D29600068DE
:1003B000210502D580F8008006E0210702D5A0F8CB
:1003C000008001E0C0F8008038467EE72DE9FE4F4E
:1003D000804681EA0300C00F0C46009021F00041E6
:1003E00023F00045B8EB0200A94105D24046214662
:1003F00090461C460B46024623F00040104347D06F
:10040000270DC7F30A00C3F30A510290401A019066
:1004100040286BDAC3F3130040F4801B0098924627
:1004200020B10023D2EB030A63EB0B0B0198594672
:10043000C0F14002504600F081F906460D46504694
:100440005946019A00F099F910EB08006141002427
:1004500087EA115284EAE7731A4340D0009A62B3E4
:10046000019A012A4FEA075215DC001B61EB0201D9
:100470004FF0004202EA0752CDE90042001C41F56C
:10048000801132462B4600F0DCF903B0BDE8F08F56
:1004900040462146F9E7001B61EB0201001C41F5D3
:1004A000801300185B412018A2F5001747EB0301E9
:1004B00040EAD570B6196D4111E06D084FEA360675
:1004C00045EAC0754FEA0752001B61EB0201001CB0
:1004D00041F5801149084FEA300000195141324678
:1004E0002B4603B0BDE8F04F00F09CB90098012204
:1004F00040000023D0EB020263EBE073009821463A
:100500004FEAE074B8EB000061EB0401E9E783F027
:1005100000435BE781F0004158E72DE9FE4F81EA97
:10052000030404F0004421F0004100944FF0000B5C
:1005300023F0004350EA01045ED052EA03045BD08A
:10054000C3F30A54C1F30A552C44A4F2F3340194C2
:10055000A0FB0254C1F3130141F48011C3F3130350
:1005600043F4801301FB024400FB034E840A970A04
:1005700044EA815447EA8357A4FB076802958D0A31
:1005800005FB07854FEA932C04FB0C542705029DBD
:100590004FEA065847EA1637B5EB08056EEB070C2D
:1005A000870E920E47EA811742EA8312A7FB0201E7
:1005B000B6EB0B0164EB00042B0D43EA0C335E1821
:1005C00044EB1C50DA465146E7FB0201C5F3130425
:1005D0004FEA0B3343EA14534FEA0432019C43EAD7
:1005E0000603A4F10C040294009CCDE900B400F0D1
:1005F00028F903B0BDE8F08F00200146F9E72DE9A6
:10060000F04D81EA030404F0004B21F0004514464C
:100610004FF0000A23F0004150EA050220D054EACE
:1006200001021DD0C5F30A570246C5F31303C1F3F7
:100630001300C1F30A5640F4801543F48013A7EB6E
:100640000608101BD64608F2FD3873EB050002D3EE
:1006500008F1010801E092185B41B8F1000F03DADC
:1006600000200146BDE8F08D00204FF480110646C1
:1006700084460EE0171B73EB050705D3121B63EBD3
:10068000050306434CEA010C49084FEA3000921872
:100690005B4150EA0107EDD152EA030012D082EA31
:1006A000040083EA0501084305D0101BAB4106D2C4
:1006B0000122002306E000224FF0004302E06FF029
:1006C000010253101AEB06004CEB085110EB0A0024
:1006D00041EB0B01BDE8F04D00F0A4B80EB5C10F21
:1006E00080EAE0700844CA07002140F233438DE8F5
:1006F0000E000A460B4600F0A4F803B000BD70B52A
:10070000C1F30A5201F000450024C1F3130140F285
:10071000FF3341F480119A4201DA002070BD40F2AB
:1007200033439A42A2F2334203DC524200F015F8FE
:1007300000E090402C43F1D0404270BD202A04DB01
:10074000203A00FA02F1002070479140C2F12003E4
:1007500020FA03F3194390407047202A04DB203A23
:1007600021FA02F00021704721FA02F3D040C2F1D1
:1007700020029140084319467047202A06DBCB1718
:10078000203A41FA02F043EAE07306E041FA02F34C
:10079000D040C2F1200291400843194670473A28E0
:1007A00000D2303820F02002412A01D3A2F13700D4
:1007B000884201D34FF0FF307047000002681144B7
:1007C0001378016018467047D160044951610449AB
:1007D000116200211161114600F09AB8BD070008AE
:1007E00005090008426842B1016811F8013B23B1D4
:1007F000521EC0E90012184670470121C160881ED0
:10080000704742685AB1C368016843B983688B4234
:1008100005D0491E521CC0E90012002070474FF05D
:10082000FF30704710B5141E73F1000408DA401C45
:1008300041F1000192185B411A4301D120F00100FF
:1008400010BD2DE9F04D92469B4611B1B1FA81F2EF
:1008500002E0B0FA80F220329046FFF76FFF0446C4
:100860000F4640EA0A0041EA0B0153465A46084344
:1008700013D0114653EA010019D0C8F14002504686
:10088000FFF76BFF05460E46504659464246FFF7B6
:1008900055FF084305D0012004E020463946BDE855
:1008A000F08D0020054346EAE0762C4337430A9852
:1008B0006305E40AA0EB08000022FD0A44EA47545D
:1008C0000A3002D500200146E9E701051019694107
:1008D000DDE9084500196941BDE8F04DA2E70000D7
:1008E000064C074D06E0E06840F0010394E807007D
:1008F00098471034AC42F6D3FFF74AFC3046000864
:1009000050460008C0B24FF4F05100F097B9000013
:100910002DE9F34F8BB04FF0000801F10C000C46AD
:100920004FF0010B46460DF1080A01906269012162
:100930000198904705002DD0252D2CD0216A88479D
:10094000C0B16269012101989047216A8847002857
:10095000F7D1411E62690198904700E0761CA169B9
:100960000B988847216A88470028F7D1E1690B98DE
:100970008847DBE7A1690B9888470746A84201D161
:10098000761CD3E7E1690B9888477F1C02D1B8F148
:10099000000F6FD046E1002762693D463946019855
:1009A00090472A2804D162690121019890470125C6
:1009B000DFF884926269012101989047A0F130012B
:1009C0000A290AD24F45E5DC07EB870100EB410716
:1009D000303FDFD445F01005ECE7E90601D46FF0B5
:1009E00000476C280AD04C2814D0682815D06A28F3
:1009F0000DD074281CD07A281AD01DE0626901211C
:100A0000019890476C2802D045F0040514E045F0A9
:100A100002050DE045F020050AE062690121019818
:100A20009047682802D045F0080505E045F40065C8
:100A30006269012101989047C4E9015765283DD0BA
:100A400019DC58287AD00CDC452837D004DC25285E
:100A500026D0412831D131E046282FD047282CD14B
:100A60002CE05B2877D0612828D063287CD06428CC
:100A700023D15AE0D0E06F2848D008DC66281DD08A
:100A800067281BD0692821D06E2816D127E070284E
:100A900045D0732868D0752847D078280DD14DE00F
:100AA000A1690B988847054625283FF469AFE1699D
:100AB0000B9888476D1C3FF46AAFB3E023466A4643
:100AC0006FF001000B99AFF300809EE045F040000D
:100AD0006060A80723464FF0000236D43EE0E807E6
:100AE0007FF447AF2068011D21600068290501D50A
:100AF00006701BE7290701D5068017E7A90703D56C
:100B0000F117C0E9006111E706600FE745F040000A
:100B10006060A80723464FF0080216D41EE040F696
:100B20000E0125EA0100606016E045F040006060BB
:100B3000A80723464FF00A0207D40FE045F0400013
:100B40006060A80708D5234610226FF001000B99BA
:100B5000AFF3008059E007E0234610226FF0010058
:100B60000B99FFF78DFB50E04FF000094F464B46C5
:100B7000632802D05B2806D040E0E80601D40120BB
:100B8000A06001273AE062690121019890475E2840
:100B900005D14FF0010962694946019890472169E2
:100BA00039B900210A46534643F82120491C082937
:100BB000FADBB0B3216969B9C11700EBD1625311F7
:100BC0000AEB830122F01F02821A01200B68904079
:100BD00003430B6062690121019890475D28E8D1C9
:100BE000B9F1000F09D00020514651F82020D2431E
:100BF00041F82020401C0828F7DB02AB2246009772
:100C00006FF001000B99AFF3008000280CDA401C54
:100C100008D1BBF1000F05D04FF0FF300DB0BDE89B
:100C2000F08FFFE74046F9E7E90701D108F1010835
:100C300006444FF0000B79E6CCCCCC0C7F2801D9D0
:100C4000002208E0064A02EB5002C007127800D1E9
:100C5000120902F00F020120904008407047000086
:100C6000F0450008FEE7000000B58BB00020012130
:100C7000CDE9060105900090019002900390049048
:100C80000E20CDE908106946054800F011FA044825
:100C900000F004FD0221024800F09AF90BB000BDFB
:100CA00068000020014800F01ABB00006800002026
:100CB00070B58AB000230C460092CDE90123CDE93E
:100CC00003348DF8143006AD491E03E0C65CEE54C3
:100CD0005B1CDBB28B42F9DBD2B2C9B203F072FA11
:100CE000291908AB01F8010C06AA6946064800F06C
:100CF00081F910B101200AB070BD034800F0D9FAA3
:100D00000328FAD10020F6E768000020704702208F
:100D100000F086BD72B6FEE770B505460C46EE20C3
:100D200002F0C4FEB12002F0C1FE112002F0BEFEAE
:100D3000280A02F0BBFEE8B202F0B8FE200A02F078
:100D4000B5FEE0B202F0B2FEFF2002F0AFFEFC20E2
:100D500002F0ACFEFF2002F0A9FEBDE87040FF20CB
:100D600002F0A4BE2DE9F05F002782463E464FF414
:100D70007A79BB46944D954C02E0322000F01CFD80
:100D8000E8780028F9D13BE0DFF8408208F10C0850
:100D9000322158F82A204FF4FA7001F0E7FF0CE0F6
:100DA0007F1C4F4501D301261FE0E878012808D0B9
:100DB000687830B1322000F0FFFC607A0128EFD172
:100DC00013E00021052003F091FB02E0322000F047
:100DD000F3FC607A0028F9D084F809B005E068785F
:100DE00000287CD0322000F0E7FCE8780028F6D11B
:100DF000607A002738B9012ECAD1002601F0EEFD35
:100E0000607A0028C0D084F809B000273EE053463D
:100E100032224946012001F0CFFFA0460CE07F1CA2
:100E20004F4501D3012622E0E87801280DD06878EB
:100E300058B1322000F0C0FC98F805000128EED12E
:100E400098F807000128EAD111E0032003F062FBC3
:100E5000322000F0B1FC042003F05CFB4FF4E170A1
:100E600003E0687800283AD0322000F0A5FCE8784A
:100E70000128F6D098F80500002710B198F807006F
:100E800050B9012E02D1002601F0A8FD607900289A
:100E9000BDD0E0790028BAD084F805B0DA4684F8ED
:100EA00007B03DE064224946002001F065FFA046FE
:100EB0000CE07F1C4F4501D3012622E0E878012891
:100EC0000ED0687860B1322000F076FC98F801000E
:100ED0000128EED198F803000128EAD111E03CE0A6
:100EE000012003F017FB322000F066FC022003F023
:100EF00011FB4FF4E17002E0687870B3322000F02B
:100F00005BFCE8780128F7D098F80100002710B1C1
:100F100098F8030050B9012E02D1002601F05EFDC1
:100F200060780028BED0E0780028BBD084F801A00B
:100F300084F803A040E0DFF894804FF4FA7B08F1D6
:100F40000C0832215846D8F8002001F00FFF0DE0C0
:100F50007F1C4F4502D301261FE025E0E8780128D9
:100F600008D0687830B1322000F026FC607A012881
:100F7000EED112E00021052003F0B8FA02E03220A1
:100F800000F01AFC607A0028F9D084F809A004E087
:100F9000687848B1322000F00FFCE8780128F7D0DB
:100FA000607A002718B10AE00120BDE8F09F012E09
:100FB000C7D1002601F012FD607A0028BBD084F86A
:100FC00009A00020F1E7000024000020B00100206B
:100FD00090F82020012A07D0022A05D0416A41F466
:100FE0008021416201207047006842690A434261E2
:100FF00000207047F0B590F820500468A468012DD7
:1010000005D0022D03D0416A41F480214DE014F057
:10101000406F01D1E50045D5C4F301640125A54029
:101020001D608D684FF4C0739DB1CE6835434E6826
:1010300045EAC605066803EB0417F5514FF4C2757F
:10104000076805EB04150E697E51097D012905D05D
:1010500009E00E88CD6845EA4655EBE701684E5930
:1010600046F480764E511179D2F805504FF4C67689
:1010700041EA0521056806EB0416A9511178D2F85A
:1010800001204FF4C47541EA0221026805EB041502
:101090005151006803EB0411425842F001024250E2
:1010A0000020F0BD416A41F4001141620120F0BD11
:1010B00010B590F82020012A07D0022A05D0416AF5
:1010C00041F480214162012010BD3B48D0F800224C
:1010D00042F00102C0F80022D0F8002222F47C5233
:1010E000C0F80022D0F800224B6A42EA0322C0F87E
:1010F00000220A7D02F01F0301229A40D0F81C3220
:101100009343C0F81C32CB69B3B9D0F80C32934387
:10111000C0F80C328C894B6864F31F434C6900EBB8
:10112000C404C4F840320C890B6864F31F434C6953
:1011300000EBC404C4F84432CB69012B16D1D0F8BB
:101140000C321343C0F80C320C884B6864F31F4315
:101150004C6900EBC404C4F840320C89CB6864F3DA
:101160001F434C6900EBC404C4F844328B69002B64
:10117000D0F804320ED01343C0F804320B69002BB0
:10118000D0F8143208D01343C0F81432096A012988
:1011900004D008E09343EFE79343F5E7D0F81C123F
:1011A0001143C0F81C12D0F8001221F00101C0F860
:1011B0000012002010BD000000640040704770B5B0
:1011C00090F82040012C05D0022C03D0416A41F454
:1011D000802128E0046809B32469A40720D04FF4D3
:1011E000D874056804EB01142D5915F004059560B9
:1011F00005682D591AD0ED08556005682C5904F082
:101200000204D4604FF4DA74056804EB01142E591B
:1012100006F00F06082E0CD308250DE0E468DCE785
:10122000416A41F400114162012070BD6D0D1560ED
:10123000E3E72D5905F00F05156105682D59C5F334
:101240000725956105682C59240C54614FF4DC7214
:10125000046802EB0112A4581C700468A458240A04
:101260005C700468A458240C9C700468A258120E88
:10127000DA704FF4DE72046802EB0112A4581C719C
:101280000468A458240A5C710468A458240C9C7156
:101290000468A258120EDA71006829B1016941F0A0
:1012A00020010161002070BDC16841F02001C160D2
:1012B000F8E70246002092F82010012901D0022907
:1012C0000CD111688A68520100D501208A68120188
:1012D00000D5401C8968C90000D5401C70472DE925
:1012E000F05F0546006800244669D0F804908768DE
:1012F000D0F80CB0D0F810A0D0F81880F10748D082
:10130000F90714D001218160B80703D5284600F001
:10131000F2F90CE0780702D54FF4006407E03807D3
:1013200002D54FF4805402E0284600F0E3F9F805B6
:1013300016D529684FF480708860B80503D5284613
:1013400000F0DBF90CE0780502D544F4005407E026
:10135000380502D544F4804402E0284600F0CCF978
:10136000F80316D529684FF480308860B80303D598
:10137000284600F0C4F90CE0780302D544F4004498
:1013800007E0380302D544F4803402E0284600F038
:10139000B5F9300707D55FEACB6004D5296810207E
:1013A00044F40074C86070074FF0080707D55FEA7F
:1013B0000B7004D52868C760284600F059F9B007BB
:1013C00006D52868C068800702D0284600F051F989
:1013D000700607D55FEACA6004D52968102044F476
:1013E00080640861B00607D55FEA0A7004D52868F2
:1013F0000761284600F04FF9F00606D52868006915
:10140000800702D0284600F047F9B00308D55FEA0C
:10141000C96005D5296810204860284600F03DF9CC
:10142000F00307D55FEA097004D5286847602846AD
:1014300000F066F9300446D55FEA497040D5F00502
:1014400004D55FEAC87001D044F00104B00504D5AA
:101450005FEA887001D544F00204700504D55FEAA4
:10146000487001D544F00404300529D518F0700FF8
:1014700026D008F07000402815D006DC102809D0CE
:1014800020280AD0302816D10AE050280ED0602833
:1014900011D10EE044F008040DE044F010040AE01D
:1014A00044F0200407E044F0400404E044F08004E9
:1014B00001E044F480742868816921F07001816141
:1014C000296804204860002C05D0686A20436862BF
:1014D0002846FFF773FEBDE8F09F70B5040003D007
:1014E00094F8200010B104E0012070BD204600F007
:1014F00081F82068016841F00101016000F0A6FA5E
:101500000546052604E000F0A1FA401B0A2811D880
:1015100020684068C007F6D02068016821F0020109
:10152000016000F093FA05460BE000F08FFA401BD3
:101530000A2806D9606A40F40030606284F82060AE
:10154000D2E7206840688007EFD4207E0128206819
:1015500001683DD021F080010160607E0128206893
:10156000016838D021F040010160A07E0128206888
:10157000016833D021F020010160E07E012820685D
:1015800001682ED041F010010160207F0128206801
:10159000016829D021F008010160607F01282068DE
:1015A000016824D021F004010160D4E9020108435C
:1015B000D4E90412114308436168491E08432168B5
:1015C000C86100206062012084F82000002070BD06
:1015D00041F08001C0E741F04001C5E741F0200142
:1015E000CAE721F01001CFE741F00801D4E741F04C
:1015F0000401D9E710B586B0044614216846FEF709
:1016000017FE18492068884229D11748002102682E
:1016100042F000720260006800F00070059012480D
:101620001038026842F002020260006800F0020016
:1016300005904FF4407000900220CDE90101032095
:101640000390092004906946084800F0F5F800224C
:101650000121142000F068FA142000F057FA06B0B7
:1016600010BD000000640040403802400004024009
:10167000704700B589B007AB6A460021FFF79FFDB0
:10168000002806D10098C2B20498C1B207A802F09F
:10169000A5FD09B000BD70477047704770B504469E
:1016A00090F82000012804D0606A40F400206062B5
:1016B00018E0022084F820002068016821F0010170
:1016C000016000F0C3F905460EE000BF00F0BEF96E
:1016D000401B0A2808D9606A40F400306062052087
:1016E00084F82000012070BD20684068C007EDD15B
:1016F000606270BD704770477047704770477047B1
:1017000070472DE9F0410446876D00F09FF90646C9
:1017100094F835000025022806D08020606584F802
:1017200034500120BDE8F0812068016821F01601E5
:1017300001602068416921F080014161206C08B995
:10174000A06C20B12068016821F0080101602068C8
:10175000016821F0010101600CE000F077F9801BC5
:10176000052807D920206065032084F8350084F817
:101770003450D7E720680068C007EED194F85C10B9
:101780003F208840B860012084F8350084F8345048
:101790000020C7E790F83510022903D08021416569
:1017A00001207047052180F835100068016821F09C
:1017B000010101600020704770B5044600F046F951
:1017C0000546601C02D004480078044400F03EF94D
:1017D000401BA042FAD370BD1400002070B502284F
:1017E00015D10B480078012811D10A4C2078002827
:1017F0000DD100F02BF9084D6968401AC82806D3AE
:1018000000F024F96860054901202070087070BD5F
:1018100027000020340000200C00002026000020BB
:10182000044910B50A68024202D00860FFF7D6FFEB
:1018300010BD0000143C01402DE9F84FDFF8BCA1B9
:101840000022012503264FF00F090AF1040BAAF12B
:10185000040E00BF0B6805FA02F42340A34270D1C6
:101860000F7907F00307012F01D0022F16D18768E7
:101870004FEA420806FA08FC27EA0C07D1F80CC028
:101880000CFA08FC4CEA070CC0F808C04768A743EC
:101890000C79C4F3001494403C4344600C79E44355
:1018A000A4070AD0C4684FEA420C06FA0CF7BC43FE
:1018B0008F6807FA0CF72743C7600C7904F003041C
:1018C000022C12D1D40800EB840CDCF8204057071E
:1018D000FF0E09FA07F824EA0804D1F8108008FA84
:1018E00007F848EA0408CCF8208004684FEA420C64
:1018F00006FA0CF7BC430F7907F0030707FA0CF759
:10190000274307604C6814F4403F70D03C4C276874
:1019100047F480472760246822F0030704F48044DA
:101920000094384C07EB040CDCF8084897074FEAA2
:10193000177809FA08F7BC43334FB84202D10027A1
:1019400024E054E0314FB84201D101271EE0304F6E
:10195000B84201D1022719E02E4FB84201D1032726
:1019600014E02D4FB84201D104270FE02B4FB842AD
:1019700001D105270AE02A4FB84201D1062705E028
:10198000284FB84201D1072700E0082707FA08F7D7
:101990002743CCF80878DAF800405746D1F804C05D
:1019A0009C435FEACC2C00D51C433C60DBF8004034
:1019B0005F46D1F804C09C435FEA8C2C00D51C43E1
:1019C0003C60DEF800407746D1F804C09C435FEAF3
:1019D0008C3C00D51C433C60084F083F3C68D1F864
:1019E00004C09C435FEACC3C00D51C433C60521CC5
:1019F000102AFFF42FAFBDE8F88F0000083C01402B
:101A0000443802400030014000000240000402401F
:101A100000080240000C0240001002400014024086
:101A200000180240001C02400069084000D001205C
:101A30007047426921EA02030A4043EA0241816198
:101A400070470AB1816170470904FBE7014880686B
:101A50007047000014000020024881680278114499
:101A600081607047140000200B4810B5016841F4F4
:101A700000710160016841F480610160016841F416
:101A800080710160032000F06FF80F2000F006F86D
:101A900000F024F8002010BD003C024070B50D4D50
:101AA00004464FF47A712878B1FBF0F00A490968CE
:101AB000B1FBF0F000F00AFB48B9102C07D200226D
:101AC0002146501E00F030F800206C6070BD0120EF
:101AD00070BD000014000020200000200A4808B556
:101AE000016841F480410160006800F4804000908A
:101AF0000548001F016841F080510160006800F056
:101B00008050009008BD000044380240002809DBE6
:101B100000F01F02012191404009800000F1E02007
:101B2000C0F8001170470000F0B40E4B1B680C4663
:101B3000C3F30223C3F10705042D00D90425191DA1
:101B4000072901D2002300E0DB1E012606FA05F179
:101B5000491E214099409E40761E16403143F0BCFC
:101B600002F011BB0CED00E0064900F00702086826
:101B70004FF6FF03184040EA0220034A1043086072
:101B8000704700000CED00E00000FA052DE9F04779
:101B90000E46050065D0DFF81481D8F80000F7B2D2
:101BA00000F00700B04207D288F80070D8F80000B3
:101BB00000F00700B04254D128683D4C810712D58F
:101BC000400703D5206840F4E050206028780007E3
:101BD00003D5206840F4604020602068A96820F0A8
:101BE000F000084320602878C0072DD0304968688D
:101BF0000839012812D0022813D0032811D009680F
:101C0000890700292DDA216821F0030101432160B1
:101C1000FFF71CFF814641F2883A0EE0096889030C
:101C2000EFE709688901ECE7FFF710FFA0EB090176
:101C3000514502D90320BDE8F0872068696800F0AB
:101C40000C00B0EB810FEFD1D8F80010404601F046
:101C50000701B14207D90770006800F00700B042E1
:101C600001D00120E7E72878400705D52068E9681A
:101C700020F4E050084320602878000706D520684B
:101C8000296920F4604040EAC100206000F038F883
:101C90002168084AC1F30311515CC8400649086035
:101CA00006480068FFF7FAFE0020C4E7003C024047
:101CB00008380240D8450008200000201800002005
:101CC0000448054900680968044AC1F38221515C4F
:101CD000C84070472000002008380240E84500084E
:101CE0000448054900680968044AC1F34231515C5F
:101CF000C84070472000002008380240E84500082E
:101D0000154810B5006810F00C02144813D04110AB
:101D1000042A0FD0082A0ED10F4C241F22682368F2
:101D200002F03F025B0207D52068C0F38810A0FBD9
:101D3000010106E0084610BD2168C1F38811A1FB2E
:101D400000010023FEF73CFA2168C1F30141491C60
:101D50004900B0FBF1F010BD083802400024F40047
:101D60002DE9F84F04006ED02078DFF84C93C007BF
:101D7000A9F104054AD009F104000168C1F3810109
:101D8000012908D00068C0F3810002280AD1D9F8DF
:101D90000000400206D52868800337D56068002817
:101DA000E1D033E06068B0F5803F10D0B0F5A02FEF
:101DB000286810D020F480302860286820F4802023
:101DC00028606068A8B1FFF741FE06460DE028686C
:101DD00040F48030F4E740F480202860F7E700BF4B
:101DE000FFF734FE801B642873D828688003F7D57A
:101DF0000CE0FFF72BFE064605E000BFFFF726FECE
:101E0000801B6428F0D828688003F7D42078DFF896
:101E1000AC8280074FF0000A3ED5A748001D01683C
:101E200011F00C0F08D00068C0F3810002280BD11C
:101E3000D9F80000400207D42868800716D5E0686A
:101E4000012800D112E033E1E068B8B10120C8F800
:101E50000000FFF7FBFD064605E000BFFFF7F6FDBB
:101E6000801B0228C0D828688007F7D52868216918
:101E700020F0F80040EAC10028600DE0C8F800A09A
:101E8000FFF7E4FD064604E0FFF7E0FD801B0228B3
:101E90001FD828688007F7D42078000722D5864FFE
:101EA00087486169703771B101210160FFF7CEFD8C
:101EB000064604E0FFF7CAFD801B022809D83868EF
:101EC0008007F7D50EE0C0F800A0FFF7BFFD06467B
:101ED00005E082E0FFF7BAFD801B02287DD8386854
:101EE0008007F7D42078400768D5DFF8CCB1002709
:101EF0000BF13C0BDBF80000C0000BD4DBF800104A
:101F000041F08051CBF80010DBF80000012700F011
:101F1000805000906B4E3068C00510D4306840F49B
:101F200080703060FFF792FD009005E0FFF78EFDB6
:101F30000099401A022850D83068C005F6D55E4E88
:101F4000A0686C3601280FD00528306810D020F02A
:101F500001003060306820F004003060A068B8B143
:101F6000FFF774FD00900FE0306840F00100F4E7E7
:101F700040F004003060F7E7FFF768FD0099411A70
:101F800041F28830814266D830688007F4D50EE08F
:101F9000FFF75CFD009007E0FFF758FD0099411A3C
:101FA00041F28830814256D830688007F4D42FB18E
:101FB000DBF8001021F08051CBF80010A069C8B305
:101FC0003D49091D0968C1F3810102294AD002284F
:101FD000504607D0C8F8600000E03CE0FFF736FD4F
:101FE00004463BE04746C8F86000FFF72FFD064671
:101FF00005E000BFFFF72AFD801B02282BD82868C8
:102000008001F7D4D4E907010843A16A2E4A4908A0
:1020100002EB0141626A41EA8211084394F82C10F4
:1020200040EA0161C9F8001001203866FFF70EFD93
:10203000044606E03EE000BFFFF708FD001B022853
:1020400009D828688001F7D534E000BFFFF7FEFC0F
:10205000001B022802D90320BDE8F88F2868800100
:10206000F4D427E00128F7D0D9F80000E26900F4A1
:10207000800191421CD1226A00F03F01914217D1A8
:1020800047F6C071626A0140B1EB821F10D1A26AAB
:102090004FF0FF3300F4403103EB5202B1EB024F3B
:1020A00006D194F82C1000F07060B0EB016F01D0F5
:1020B0000120D1E70020CFE704380240000047426A
:1020C000800E4742007000400000FFFF10B5401E28
:1020D000B0F1807F01D3012010BD4FF0E02460619A
:1020E0000F21601702F04FF80020A0610720206147
:1020F000002010BD7047704770B590F83C20012A51
:1021000032D0012480F83C40022280F83D20036850
:102110005A689D6822F070060A6832435A60134B71
:1021200002689A4214D0B2F1804F11D0104B9A42FB
:102130000ED0104B9A420BD00F4B9A4208D00F4B47
:102140009A4205D00E4B9A4202D00E4B9A4204D1CD
:10215000496825F080031943916080F83D400021D3
:1021600080F83C10084670BD022070BD00000140A0
:102170000004004000080040000C00400004014042
:10218000004001400018004010B5040003D094F84E
:102190003D0010B107E0012010BD002084F83C0094
:1021A000204600F01FF8022084F83D00211D206821
:1021B00001F0AEFD012084F8460084F83E0084F86A
:1021C0003F0084F8400084F8410084F8420084F81D
:1021D000430084F8440084F8450084F83D00002062
:1021E00010BD000008B501681D48B1F1804F11D045
:1021F0001C4A91421DD1016841F002010160006852
:10220000002200F00200009001211D20FFF78CFC4D
:102210001D201FE0016841F00101016000680022FB
:1022200000F00100009002211C20FFF77DFC1C2023
:1022300010E00D4A914211D1016841F01001016096
:102240000068002200F01000009001213620FFF706
:102250006BFC3620BDE80840FFF758BC08BD000005
:1022600040380240000400400010004090F83D104B
:10227000012901D001207047022180F83D1001683A
:10228000CA6842F00102CA6000681149884214D04D
:10229000B0F1804F11D00F4988420ED00E498842CC
:1022A0000BD00E49884208D00D49884205D00D490F
:1022B000884202D00C49884204D1816801F00701AC
:1022C000062903D0016841F0010101600020704738
:1022D000000001400004004000080040000C0040E5
:1022E00000040140004001400018004070B5044661
:1022F00090F83C000025012817D0012684F83C60A6
:10230000022084F83D002068826822F0770222F4DF
:102310007F4282600868502838D00DDC20284FD0DA
:1023200005DC90B3102811D14AE0022070BD30289E
:1023300046D040280AD13BE060282FD070280DD02D
:10234000B0F5805F03D0B0F5005F12D0012584F8AE
:102350003D60002084F83C00284670BDCB68D1E980
:102360000121206801F03CFD2068816841F077017F
:1023700009E0CB68D1E90121206801F031FD206836
:10238000816841F480418160E1E719E0CA684968E9
:10239000206801F037FD5021206806E0CA684968CE
:1023A000206801F040FD6021206801F023FDCEE7A8
:1023B000CA684968206801F025FD40212068F4E7DB
:1023C000226801461046F0E770472DE9F0410446C7
:1023D0000068C66805694FF00007A90713D5B10763
:1023E00011D5F91E016101202077206880698007DE
:1023F000204602D0FFF7E8FF04E000F07EF8204618
:1024000000F07CF82777680716D5700714D5216887
:102410006FF004000861022020772068806910F4C2
:10242000407F204602D0FFF7CFFF04E000F065F8C0
:10243000204600F063F82777280715D5300713D515
:1024400021686FF008000861042020772068C069C7
:102450008007204602D0FFF7B7FF04E000F04DF8F8
:10246000204600F04BF82777E80616D5F00614D57D
:1024700021686FF010000861082020772068C0698B
:1024800010F4407F204602D0FFF79EFF04E000F0EA
:1024900034F8204600F032F82777E80708D0F00734
:1024A00006D021686FF001000861204600F028F88E
:1024B000280608D5300606D521686FF0800008612F
:1024C0002046FFF717FE680608D5700606D5216876
:1024D0006FF040000861204600F02EF8A8060AD5EB
:1024E000B00608D521686FF0200008612046BDE8DD
:1024F000F041FFF700BEBDE8F08170477047000073
:102500000A4910B5884210D14021094802F00CF860
:1025100008490880010008D005484078072804D001
:10252000BDE81040024801F08FB810BD90000020B7
:10253000DC0400200C00002070477047704700004A
:10254000F8B5016804460868CA684B6910F00F0FB7
:102550004FF000055AD003F0010602F4907737439C
:1025600065D0C10705D0D10503D5616C41F00101EB
:102570006164410705D5D90703D0616C41F00201C0
:102580006164810705D5D90703D0616C41F004016E
:102590006164010707D502F02001314303D0616C6B
:1025A00041F008016164616C00293BD0800604D5CC
:1025B000900602D5204601F097FC20684069616CC6
:1025C000C0F3801001F00801014320462BD001F038
:1025D00064FC20684069400621D52068143050E82A
:1025E000001F21F0400140E80012002AF5D1E06B05
:1025F000A8B172490165E06BFFF7CCF8002811D053
:10260000E06B016D01B0BDE8F040084783060ED5D0
:1026100093060CD52046BDE8F84001F065BC204685
:10262000FFF78CFFF8BDFFF789FF6564F8BD266BE7
:102630002023012E7ED1C6067CD5D6067AD5086821
:102640004868009048694FF0020640064DD5E26B9D
:10265000106840684FF480770004000C3AD0A18DD8
:10266000814237D9E085D069B8422DD020680C303E
:1026700050E8001F21F4807140E80012002AF5D1D3
:102680002068143050E8001F21F0010140E80012DA
:10269000002AF5D12068143050E8001F21F04001D5
:1026A00040E80012002AF5D184F842302563206802
:1026B0000C3050E8001F21F0100140E80012002A01
:1026C000F5D1E06BFFF71DF86663A08DE18D401A30
:1026D00081B206E0A18D8142A8D1D069B842A5D1CE
:1026E00066632046FFF729FFF8BDA08DE18D401AF3
:1026F00081B2E08D0028F7D00029F5D020680C3099
:1027000050E8002F22F4907240E80027002FF5D106
:102710002068143050E8002F22F0010240E8002722
:10272000002FF5D184F84230256320680C3050E842
:10273000002F00E006E022F0100240E80023002B0A
:10274000F3D1CDE705062BD5150629D594F8410020
:102750002128C9D1A068B0F5805F01D12069B0B14E
:10276000206A411C2162216800784860E08C401E8C
:102770000004000CE084B7D12068C16821F080011A
:10278000C1602068C16841F04001C160F8BD206AA5
:102790000088C0F308004860206A801C2062E5E7DA
:1027A0004006F3D55006F1D5CA68204622F0400213
:1027B000CA6084F8413000F0D9F8F8BD8D3E0008B9
:1027C00070B5040004D094F84100002510B106E073
:1027D000012070BD84F84050204600F023F82420EA
:1027E00084F841002068C16821F40051C16020468E
:1027F00001F0DCFB2068016921F49041016120684F
:10280000416921F02A0141612068C16841F4005109
:10281000C1606564202084F8410084F8420065634B
:10282000002070BD10B586B0044614216846FDF73F
:10283000FFFC17492068884228D116480021026809
:1028400042F400320260006800F400300590114844
:102850001038026842F001020260006800F00100D6
:1028600005900C2000900220CDE901010320039087
:102870000720049069460848FEF7DEFF0022022187
:102880002620FFF751F92620FFF740F906B010BDCA
:1028900000440040403802400000024090F84230BE
:1028A000202B01D00220704721B11AB1002303630D
:1028B00001F002BC01207047402202490248FFF7A4
:1028C000EDBF0000DC040020680100202DE9F84382
:1028D000044690F84100984616460D46202802D03E
:1028E0000220BDE8F88385B17EB10020606421201C
:1028F00084F84100FFF7AAF8A6848146E684A06820
:102900002027B0F5805F02D003E00120E9E72069CD
:1029100010B12E4600250EE000260CE08021204656
:1029200001F0E5FBA8B9C6B116F8010B21684860B3
:10293000E08C401EE084E08C4B464FF00002CDF866
:1029400000800028EAD14FF04001204601F0CFFB83
:1029500040B184F841700320C3E735F8020BC0F39F
:102960000800E3E784F841700020BAE77047FEE70B
:1029700010B501210548FFF757F800284FF0010076
:1029800002D103490870002010BD00000000024081
:1029900028000020054B30B1012806D1002240213B
:1029A0001846FFF74EB80122F9E7704700080240C9
:1029B00010B5094C002280212046FFF742F8012281
:1029C00011022046FFF73DF820460122BDE81040E5
:1029D0005102FFF736B800000008024010B5094C5C
:1029E000012280212046FFF72CF801221102204607
:1029F000FFF727F8002261152046BDE81040FFF7D9
:102A000020B800000008024010B5094C01228021C6
:102A10002046FFF716F80022A1152046FFF711F80F
:102A200020460122BDE810405102FFF70AB800001D
:102A3000000802400F4810B50D49016005214160B2
:102A400000214FF480328160C0E90312120142611B
:102A50000176012242768276C17601774177FEF7D0
:102A60003CFD002803D0BDE81040FEF753B910BD6F
:102A700000640040680000202DE9F04F87B0142169
:102A80006846FDF7D5FB59480024016841F0040170
:102A90000160016801F004010591016841F08001C5
:102AA0000160016801F080010591016841F00101B8
:102AB0000160016801F001010591016841F0020126
:102AC0000160016801F002010591016841F008010F
:102AD00001600068DFF8188100F008004FF6CF753C
:102AE0000590012229464046FEF7ABFFDFF804912E
:102AF0004FF44077012239464846FEF7A2FFDFF83F
:102B0000F8A0012204215046FEF79BFFDFF8ECB04D
:102B1000012218215846FEF794FF00950125CDE9C2
:102B20000154694640460394FEF786FEF120CDE944
:102B30000004694648460294FEF77EFE02264FF4E2
:102B400004100096CDE9010469464846FEF774FE7C
:102B50003020CDE90004694640460294FEF76CFE41
:102B600047F60740CDE90004694658460294FEF74F
:102B700063FE0097CDE90154694648460394FEF789
:102B80005BFEF800CDE90006032702940A20CDE998
:102B9000037069464846FEF74FFE04200090CDE9D9
:102BA0000154694650460394FEF746FE18200090F3
:102BB000CDE90154694658460394FEF73DFEC02016
:102BC000CDE9000602940720CDE903706946584616
:102BD000FEF732FE002201210720FEF7A5FF0720A5
:102BE000FEF794FF07B0BDE8F08F000030380240D8
:102BF0000008024000000240000C024000040240B5
:102C000010B586B0002417480094019402940394F0
:102C100004944FF080410594016041F28731C0E98E
:102C2000011440F2E731C0E9031480218161FFF70C
:102C3000ABFA08B1FEF76EF84FF480500090694689
:102C40000848FFF753FB08B1FEF764F8049404A9A1
:102C500004480594FFF750FA002801D0FEF75AF80F
:102C600006B010BD9000002010B586B000241648B4
:102C70000094019402940394049412490594016011
:102C800041F28731C0E90114C0E903148461FFF700
:102C90007BFA08B1FEF73EF84FF480500090694689
:102CA0000948FFF723FB08B1FEF734F8049404A9A0
:102CB00005480594FFF720FA002801D0FEF72AF80E
:102CC00006B010BD00040040D80000201CB5002450
:102CD0000E4800940C490194016041F28731C0E92B
:102CE00001148461C160FFF74FFA08B1FEF712F8D2
:102CF0000094694605480194FFF7FEF9002801D0C9
:102D0000FEF708F81CBD0000001000402001002064
:102D10000C4810B50A4901604FF4E13141600021CF
:102D200081600C22C160C0E904128161C161FFF7BA
:102D300047FD002803D0BDE81040FDF7EBBF10BDF4
:102D40000044004068010020FEE700000020064A21
:102D50000346411C02F8101002EB40004370C8B259
:102D60000528F6D370470000B001002013460A463C
:102D70000146052001F0F2BA70B514460D4660B167
:102D8000012810D1084B01F0E9FA084B22462946E8
:102D9000BDE87040022001F0E1BA054B012001F0CE
:102DA000DDFA044BF2E770BD10AAFFFF80C1FFFF00
:102DB000F842FCFF086AFCFF2DE9F0410F461B4971
:102DC00016465B1E91F9001011FB03F18A035A218C
:102DD00092FBF1F5164A92F9002012FB03F29203DE
:102DE00092FBF1F490B101281DD105F28E333246E9
:102DF0003946032001F0B2FA05F2FA456B42324639
:102E00003946BDE8F041042001F0A8BA04F5A53325
:102E1000AB3332463946032001F0A0FA04F5A6345C
:102E200017346342EBE7BDE8F08100006400002046
:102E30006500002010B509210020FDF76DFF32204C
:102E4000FEF7BAFC0A210020FDF766FF3220FEF7EC
:102E5000B3FC0B210020FDF75FFF3220FEF7ACFC36
:102E60000C210020FDF758FF3220FEF7A5FC2021A1
:102E70000220FDF751FF3220FEF79EFC2321BDE822
:102E800010400220FDF748BF70B5054616460C46B7
:102E9000EE2000F00BFEB12000F008FE232000F031
:102EA00005FE280A00F002FEE8B200F0FFFD200A4D
:102EB00000F0FCFDE0B200F0F9FD304600F0F6FD58
:102EC000FF2000F0F3FDFC2000F0F0FDFF2000F0FB
:102ED000EDFDBDE87040FF2000F0E8BD2DE9F84FA2
:102EE000DFF8C4920025484699F805200069AF4CE8
:102EF000414288464FF47A7B40F25926012A0BD092
:102F000099F804204946012A22D0CA78012A3DD0E6
:102F10008879012872D0ADE00B46002796225946E9
:102F2000012001F01BFAFFF76FFD08E07F1CB7429C
:102F300002D9FFF753FD07E06420FEF73DFC6078FF
:102F40000028F3D0FFF734FD89F80550657091E053
:102F5000D9F80C0000274342C84696225946022061
:102F600001F0FCF9FFF750FD08E07F1CB74202D9E1
:102F7000FFF734FD07E06420FEF71EFCE078002830
:102F8000F3D0FFF715FD88F8045046E0A0F5AA40FD
:102F90000027F038FDF7A2FB9FED851B53EC112BAA
:102FA000FDF72DFBFDF7ABFB8246434696225946C3
:102FB000012001F0D3F9D9F80C009622434259467A
:102FC000022001F0CBF94FF00308002352461C21E8
:102FD0000220CDF8008000F0BEFD002352461821EB
:102FE0000220CDF8008000F0B6FDFFF70DFD09E0EE
:102FF0007F1CB74203D9FFF7F1FC0BE00FE0642020
:10300000FEF7DAFB60780028F2D0E0780028EFD0F5
:10301000FFF7CEFC89F803506570E5702AE00027C1
:10302000C846962259460320D9F8143001F096F983
:10303000D8F81400962200F5B67043425946042091
:1030400001F08CF9FFF7E0FC08E07F1CB74202D9E1
:10305000FFF7C4FC0AE06420FEF7AEFB60790028AD
:10306000F3D0E0790028F0D0FFF7A2FC88F80650F2
:103070006571E57199F8022048464F4F4FF00109FC
:10308000012A15D0032A13D08046022A3BD04FF4E0
:10309000FA71042A42D0052A3ED14FF00008824638
:1030A000434632224078FFF787FEFFF7ADFC67E02A
:1030B00080468068002681030A2091FBF0F264219B
:1030C0005846FFF753FEFFF79FFC40F2213A08E015
:1030D000761C564502D9FFF781FC07E06420FEF715
:1030E0006BFB607A0028F3D0FFF762FC03200090AE
:1030F0000123464616210220D8F8082000F02BFDB7
:103100006572B5702FE001F03FF988F8005088F83B
:10311000015088F802503D70BDE8F88F82464FF0AC
:10312000000832220078FFF727FEFFF76DFC09E068
:1031300008F10108B04502D9FFF750FC09E064200E
:10314000FEF73AFB607810B9E0780028F0D0FFF77E
:103150002FFC6570E5709AF80010491C01F0010120
:103160008AF800101CE087F80090D5E708F1010804
:10317000B04502D9FFF732FC09E06420FEF71CFBE2
:10318000607910B9E0790028F0D0FFF711FC657183
:10319000E5719AF80110491C01F001018AF801104B
:1031A0008AF80250DFE7000044000020B001002050
:1031B0005C8FC2F5A8CAA34000000020FEE7000013
:1031C0002DE9F05FDFF8F8B014460D465FEA00081D
:1031D0004FF000064FF001071FD1022D1DD1DFF87F
:1031E000E490DFF8E4A014B1012C05D015E089F8D3
:1031F00000708AF8006010E034488BF80060B0F985
:1032000000203348B0F900103248B0F9000000F057
:10321000FDF989F800608AF800709BF80000012829
:1032200027D1B8F1020F24D12B4A2C492C4B2D4821
:10323000022D11D0032D1ED0042D27D0052D34D002
:10324000062D16D1012C14D10178002911D1117845
:1032500001290ED1052126E0012C0AD10478002C89
:1032600007D11278012A04D10A681B681A440A603F
:103270000770BDE8F09F012CFBD10378002BF8D13B
:103280001278012AF5D10E6002210CE0012CF0D158
:103290000478002CEDD11278012AEAD10A681B6863
:1032A000D21A0A6003210170E3E7012CE1D1017811
:1032B0000029DED111780129DBD10421F3E70000D8
:1032C00040000020270000202500002032000020C0
:1032D000300000202E0000205C0000204C00002068
:1032E00060000020460000202DE9F0472DED088BFE
:1032F00082B013460C46074600266A46ABA1184624
:103300000096FCF7A1FF012547B3022F21D1112C14
:1033100070D09FEDA7AB9FEDA89BA94FA94EDFF8FA
:10332000A892DFF8A882AA48182C7DD09FEDA9BBEF
:103330009FEDAA8BDFF8ACA21C2C76D01E2C75D08A
:10334000192C74D0202C73D0232C02D1A6490098BC
:10335000087002B0BDEC088BBDE8F087A34FDFF822
:103360009092DFF89082DFF890A24FF44871092C18
:1033700020D00A2C43D00B2C60D00C2CE9D19AF928
:103380000020B9F90030B8F900005446921E12FB33
:1033900000338B4209DCC31700EB937C009B03EBEB
:1033A000AC0C12FB00C088426CDD012000F0B4FBC5
:1033B000257019E00098B9F90040B8F90020831E83
:1033C00003FB02448C420ADCD417B7F900C002EBBD
:1033D00094740CEBA40403FB02428A420BDD01202F
:1033E00000F09AFB8AF80050A9F800603E80A8F827
:1033F0000060AEE748E0401C8AF80000A9E79AF9AF
:103400000020B9F900300098921E02FB00335446A8
:103410008B42CADCC317B7F900C000EB93730CEB07
:10342000A30302FB003204E032E04FE06EE0A2E0D2
:10343000B8E08A42B9DCA8F800008AE79AF90020CF
:10344000B8F90000009B4446921E12FB003C8C45DC
:103450000BDC4FEAE07CB7F9008000EB9C7C08EBCA
:10346000AC0C12FB00C0884209DD012000F054FBC7
:103470008AF80050A9F800603E80268069E7A9F824
:10348000003066E73B8064E75C490098086060E7CD
:1034900031780029ADD199F800100029A9D1007820
:1034A0000028A6D198F800000028A2D10098FDF7C6
:1034B00015F953EC1A2BFDF730F853EC192BFCF7E8
:1034C00085FFFDF71CF93860357042E73178002937
:1034D0008FD199F8001000298BD10078002888D16D
:1034E00098F80000002884D10098FDF7F7F853EC15
:1034F0001B2BFDF712F853EC182BFCF767FFFDF7B9
:10350000FEF8CAF8000089F8005022E73178002957
:1035100093D199F8001000298FD1007800288CD120
:1035200098F80000002888D10098FDF7D7F80E46DB
:1035300046EC100B044653EC1A2B51EC100BFCF725
:10354000ECFF53EC192BFCF741FFFDF7D8F846ECE4
:10355000104B386053EC1B2B51EC100BFCF7DDFFCC
:1035600053EC182BFCF732FFFDF7C9F8CAF800003E
:1035700088F80050EDE63178002984D199F80010E0
:10358000002984D1017800299FD198F800100029E2
:103590009BD1009989035A2291FBF2F1184A1160DC
:1035A0000570D6E617490098D2E60000256C640045
:1035B000C3F5285C8F5BA34000000000007CD54071
:1035C000540000204900002048000020470000204F
:1035D0004A0000205C8FC2F5A802A3400000000052
:1035E0000040CF4050000020650000203000002047
:1035F0002E00002032000020240000206000002067
:103600005800002064000020704700002DE9F041C0
:103610000F4605464FF4C874164621460848FCF785
:1036200007FE21460748FCF703FE3146284600F016
:103630000DFC31463846BDE8F04100F0B5B9000058
:10364000BC0100204C03002030B4B0F803104478D3
:103650004BBAB0F80510C27949BAB12C0ED1102A74
:1036600007D0112A0AD100F1080230BC1846FFF732
:103670003BBE427A30BC1846FFF7A2BD30BC704753
:103680002DE9F05F0024824626464FF47A77DFF872
:103690000C93C34D3EE0DFF80CB3C84632214FF423
:1036A000FA70DBF80020FFF761FB0EE0641CBC42FF
:1036B00001D301261AE098F80310012909D098F8DF
:1036C000010030B13220FEF777F8687A0128EDD199
:1036D0000CE00021052000F009FF02E03220FEF797
:1036E0006BF8687A0028F9D0002068724446E078C8
:1036F000012803D0687A002438B10EE060780028F1
:103700006FD03220FEF758F8F1E7012EC6D100261F
:10371000FFF764F9687A0028BDD04FF0000B85F8F8
:1037200009B044E05346322239460020FFF744FBFB
:10373000A8460EE0641CBC4201D301261FE099F8A4
:10374000031001290ED099F8010058B13220FEF77C
:1037500033F898F805000128ECD198F80700012803
:10376000E8D10CE0032000F0D5FE3220FEF724F86B
:10377000042000F0CFFE4FF4E170FEF71DF84C4638
:10378000E078012807D098F80500002450B198F897
:10379000070038B111E060780028B1D03220FEF780
:1037A0000BF8EDE7012E02D10026FFF717F9687933
:1037B0000028B7D0E8790028B4D000206871E871FB
:1037C0003FE0DFF8E0B1C84632215BF82A204FF431
:1037D000FA70FFF7CBFA0FE0641CBC4202D301265B
:1037E0001BE0A3E098F80310012909D098F8010024
:1037F00030B13220FDF7E0FF687A0128ECD10CE00F
:103800000021052000F072FE02E03220FDF7D4FF17
:10381000687A0028F9D0002068724446E0780128D0
:1038200003D0687A002438B10EE0607800287DD09B
:103830003220FDF7C1FFF1E7012EC5D10026FFF7C9
:10384000CDF8687A0028BCD04FF0000B85F809B09D
:1038500042E0642239460120FFF78EFAA8460EE0C6
:10386000641CBC4201D301261FE099F80310012912
:103870000ED099F8010058B13220FDF79DFF98F85D
:1038800001000128ECD198F803000128E8D10CE0F0
:10389000012000F03FFE3220FDF78EFF022000F0F5
:1038A00039FE4FF4E170FDF787FF4C46E0780128C0
:1038B00007D098F80100002448B198F8030030B10F
:1038C00010E0607890B33220FDF776FFEEE7012E2E
:1038D00002D10026FFF782F868780028B9D0E8788E
:1038E0000028B6D085F801B085F803B049E053460A
:1038F000322239460120FFF75FFAA8460EE0641C29
:10390000BC4201D3012613E099F80310012911D01C
:1039100099F8010070B13220FDF74EFF98F80500CC
:103920000128ECD198F80700012800E021E0E6D159
:10393000002413E0032000F0EDFD3220FDF73CFFF2
:10394000042000F0E7FD4FF4E170FDF735FFEFE7ED
:1039500099F8010068B13220FDF72EFF99F80310A5
:103960000129F5D098F8050030B198F8070018B192
:103970000DE00120BDE8F09F012E02D10026FFF7E7
:103980002DF868790028B2D0E8790028AFD085F802
:1039900005B085F807B00020ECE700002400002007
:1039A000B00100204C03002082030A2070B5890377
:1039B000B2FBF0F4B1FBF0F10C480D4B90F9002094
:1039C000D0B208E0151A03EB800605FB0145401E46
:1039D00046F8045CC0B20128F4D8CA17586801EB55
:1039E000927100EBA100186070BD0000240000205F
:1039F0004C03002070B505462A4C04E0607828B1DD
:103A00003220FDF7D9FEE0780028F7D1A078012810
:103A100014D1607890B1FEF7F7FF2846FDF7A2F9C0
:103A2000C8BB0120FEF7B6FFFEF7C2FF0221A1705E
:103A300004E0607878B30A20FDF7BEFEFEF798FF39
:103A40000028F6D1FEF7A6FFFEF7DEFF04E060785F
:103A500008B33220FDF7B0FEE0780028F7D1114915
:103A6000091D087801280DD1A2782046022A09D123
:103A70004278A2B100220A700321A1704FF47A703B
:103A8000FDF79AFEA078032809D1607838B128465E
:103A9000FFF7F6FD08B1012070BD0120A0700020E5
:103AA00070BD0000240000207047000001B54FF0F9
:103AB000FF33012269460248FEF708FF08BD0000F7
:103AC0006801002070B5054616460C46EE20FFF74B
:103AD000EDFFB120FFF7EAFF1020FFF7E7FF280A0C
:103AE000FFF7E4FFE8B2FFF7E1FF200AFFF7DEFF90
:103AF000E0B2FFF7DBFF3046FFF7D8FFFF20FFF70C
:103B0000D5FFFC20FFF7D2FFFF20FFF7CFFFBDE876
:103B10007040FF20FFF7CABF10B50446EE20FFF744
:103B2000C5FFB120FFF7C2FF0020FFF7BFFF200A4B
:103B3000FFF7BCFFE0B2FFF7B9FFFF20FFF7B6FFCA
:103B4000FC20FFF7B3FFFF20FFF7B0FFBDE81040F8
:103B5000FF20FFF7ABBF2DE9F04106461F46144694
:103B60000D46EE20DDF81880FFF7A0FFB120FFF72B
:103B70009DFF0720FFF79AFF300AFFF797FFF0B28B
:103B8000FFF794FF280AFFF791FFE8B2FFF78EFFD7
:103B90000FB1012000E00020FFF788FF08F00F00C0
:103BA00040F08000FFF782FF200EFFF77FFFC4F395
:103BB0000740FFF77BFFC4F30720FFF777FFE0B272
:103BC000FFF774FFFF20FFF771FFFC20FFF76EFF88
:103BD000FF20FFF76BFFBDE8F041FF20FFF766BF56
:103BE000FDF73ABFF8B5164D04004FF0010624D09A
:103BF0000227687801281ED1009795F9000000235C
:103C0000021B17211846FFF7A6FFE0B2FFF7F2FEEE
:103C100088B100200B49034602464870C8704871BD
:103C2000C871487217210097FFF795FFFEF7C0FE95
:103C3000AE700120F8BD641EDBD1EE700020F8BD2F
:103C400024000020B001002030B593B03021684638
:103C5000FCF7EEFA14210CA8FCF7EAFA1D4800253F
:103C6000016841F080510160006800F080501190BF
:103C70001948016841F4804101600068022400F4A1
:103C80008040119001200090000401908001CDE956
:103C9000064008AA0420642182E813000B906846BD
:103CA000FEF75EF808B172B6FEE70CA90F2081E8B6
:103CB00031004FF4A0500F904FF48050109003212A
:103CC0000CA8FDF763FF002801D072B6FEE713B021
:103CD00030BD0000403802400070004002480168DA
:103CE00041F470010160704788ED00E00148FEF783
:103CF0006CBB0000900000200148FEF766BB00008E
:103D0000D80000200148FEF760BB00002001002021
:103D1000F0B50268274B284D284E294F294C4FF00B
:103D2000804C984209D0604507D0A84205D0B042E7
:103D300003D0B84201D0A04204D122F0700E4A68EC
:103D400042EA0E0298421BD0604519D0A84217D013
:103D5000B04215D0B84213D0A04211D01A4DA8429B
:103D60000ED01A4DA8420BD0194DA84208D0194DBB
:103D7000A84205D0184DA84202D0184DA84203D140
:103D800022F44075CA682A434D6922F080022A4312
:103D90008D68C5620D688562984201D0A04201D14C
:103DA00009690163016841F0040101600121416179
:103DB0000260F0BD00000140000400400008004027
:103DC000000C00400004014000400140004401405C
:103DD0000048014000180040001C00400020004046
:103DE00010B5846842EA032224F47F440A43224344
:103DF000826010BD826822F070020A4342F007011F
:103E00008160704710B5036A046A24F001040462FB
:103E1000846924F0F00444EA021423F00A020A43FD
:103E20008461026210BD10B5036A046A24F01004B4
:103E30000462846923F0A00324F4704444EA02324B
:103E400043EA01118261016210BD000082030A2071
:103E50008903B2FBF0F2B1FBF0F330B509480A492F
:103E6000007808E0841E01EB800504FB0324401E5B
:103E700045F8044CC0B20128F4D84FF4A0100860F3
:103E800030BD000024000020BC01002010B5806B74
:103E90000021C185FEF752FB10BD01680C3151E8CD
:103EA000002F22F4907241E80023002BF5D1016825
:103EB000143151E8002F22F0010241E80023002BC9
:103EC000F5D1016B012909D101680C3151E8002FAE
:103ED00022F0100241E80023002BF5D1202180F8C8
:103EE000421000210163704708B590F84210222962
:103EF00001D0022008BD82684FF480539A4201D15C
:103F0000016921B1816A9A421BD04AB10AE0026874
:103F1000816A5268C2F308020A80816A891C08E03B
:103F2000026972B10268526802F07F020A70816A07
:103F3000491C8162C18D491E0904090CC18503D049
:103F40001BE002685268F1E70168CA6822F02002AB
:103F5000CA600168CA6822F48072CA6001684A694E
:103F600022F001024A61202180F8421000214163C1
:103F7000026B012A03D0FEF79FFC002008BD0163FD
:103F800001680C3151E8002F22F0100241E80023B3
:103F9000002BF5D101680A68D20602D50A68496883
:103FA0000091818DFEF7C9FAE7E7000070B504467D
:103FB00000680169E26821F44051114301612169FF
:103FC000A068E26908436169114308432168CA682F
:103FD00049F20C639A430243CA6020684169A269AE
:103FE00021F440711143416131492068884202D077
:103FF0003049884202D1FDF773FE01E0FDF760FE13
:10400000E2690023192164253226B2F5004F626867
:1040100028D0A0FB0101930F9200FCF7D1F80146D4
:10402000B0FBF5F06FF01802504301EB800006EB97
:104030000010B0FBF5F000F0F002B1FBF5F002EB80
:104040000012B1FBF5F06FF01803584301EB80004C
:1040500006EB0010B0FBF5F000F00F0021681044F3
:10406000886070BDA0FB010192185B41FCF7A8F8C5
:104070000146B0FBF5F00201B1FBF5F06FF018035B
:10408000584301EB800006EBC000B0FBF5F000F0F8
:10409000F80002EB4002B1FBF5F0584301EB800061
:1040A00006EBC000B0FBF5F000F00700D6E700001B
:1040B000001001400014014081628285C285002108
:1040C0004164222180F84210016921B10168CA6867
:1040D00042F48072CA6001684A6942F001024A6192
:1040E0000068C16841F02001C160002070472DE9DF
:1040F000F843984617460D460446089E24E0701C77
:1041000022D0FDF7A3FCA0EB0800B0421AD8CEB134
:104110002068C168490717D5802D15D0402D13D0D0
:104120000168C94309070FD4016800254068009061
:104130002046FFF7B2FE0820606484F8405001205A
:10414000BDE8F8830320FBE72068006835EA00003B
:1041500004D00020B842D2D00020F1E70120F9E7D6
:10416000074810B500680168C943890603D4406850
:10417000C0B200F015FABDE810400148FEF7E0B902
:1041800068010020FEE70907090E002804DB00F1A2
:10419000E02080F80014704700F00F0000F1E020EC
:1041A00080F8141D704702E008C8121F08C1002AD9
:1041B000FAD170477047002001E001C1121F002AA8
:1041C000FBD1704730B50024234602E0C55C5B1C80
:1041D0002C448B42FAD3A018C0B230BD10B50021D8
:1041E0004B1C9A421AD102780E4B912A05D0F52A1F
:1041F00013D14278022A03D009E04278022A0CD176
:1042000003EB4104012262700278F52A05D140785F
:10421000002802D103EB4101487010BDD9B2052935
:10422000DED310BDB001002008B5FDF71DFC00F085
:10423000C7F9FFF709FDFEF71FFCFEF715FDFEF7B6
:1042400045FDFEF7F7FBFEF763FDFEF7D9FCFCF733
:104250000BFD402231493248FEF720FB3148FEF782
:1042600005F8FEF773FD002202211046FFF72AFC35
:10427000FEF7CAFB4FF47A70FDF79EFA6420FDF753
:104280009BFA00224FF400712748FDF7DAFB274F15
:104290000024274E274D0EE03878012802D100F087
:1042A00073F83C70FEF71AFE4FF400512248FDF7F8
:1042B000C0FB64202FE030780128EDD12C70FEF790
:1042C000B9FD4FF4FA70FDF777FA1C480078401EEC
:1042D000C0B2FFF787FC1A49087058B902200023C2
:1042E00000901A4617211846FFF735FC40F6C41017
:1042F000FDF762FA002202211046FFF7E3FB0022DD
:1043000004211046FEF7C0FD0E49012008703470EC
:10431000287040F2DC50FDF74FFACCE7DC040020B7
:1043200068010020900000200000024034000020BE
:10433000250000204000002000080240240000204A
:104340000000002027000020034A9121117002463E
:1043500002210148FCF7ACBC0100002030B4144637
:10436000084AF52515700D0A55709170D470190C16
:104370001171190A51719371024630BC082101482C
:10438000FCF796BC010000202DE9F843DFF84481DA
:104390000024264688F80040FEF736FB0120FFF790
:1043A000D3FF0220FFF7D0FF4B4D4FF4167705E007
:1043B0006420FDF701FA641CBC4206D2687800282C
:1043C000F6D0E8780028F3D003E0697821B1E878E6
:1043D00010B16E700024EE706420FDF7EDF94FF41B
:1043E0007A773E4B642239460120FFF7B7FF3C4BFA
:1043F000642239460220FFF7B1FF05E06420FDF793
:10440000DBF9641CC82C06D268780028F6D0E8785E
:104410000028F3D003E0697821B1E87810B16E701C
:104420000024EE706420FDF7C7F90320FFF78CFF2E
:104430000420FFF789FF4FF4C87905E06420FDF7F9
:10444000BBF9641C4C4506D268790028F6D0E8799F
:104450000028F3D003E0697921B1E87910B16E71D9
:104460000024EE716420FDF7A7F940F28E33642238
:1044700039460320FFF772FF1A4B642239460420A5
:10448000FFF76CFF05E06420FDF796F9641CC82C6B
:1044900006D268790028F6D0E8790028F3D003E046
:1044A000687918B1E87908B16E71EE716420FDF792
:1044B00083F9FEF77DFA01210B4888F800100522E8
:1044C000026003200B46009016210220FFF743FBF9
:1044D000BDE8F8835C000020B001002010AAFFFFB7
:1044E00080C1FFFF06FBFFFF4C00002030B4084BEB
:1044F000F52200241A705C709C70D9701C715C717C
:104500009C71024630BC08211846FCF7D1BB000064
:104510000100002008B5F7218DF8001002460221A5
:104520006846FCF7C5FB08BDF0B51C4D00273A46B0
:10453000194CB5F800C019E0664506D0174A121D9F
:10454000B25C761CC6F308036B8023880BB9EE2A95
:104550000CD18B4202D2C2545B1C2380636842EAB6
:10456000032303F540366360761C11D06E88ACEBF4
:10457000060303F500734FEAE37E03EBDE5E6FF3A1
:10458000080EA3EB0E031B041B0CD5D10020F0BDBD
:10459000208867602780F0BD380000201C050020BF
:1045A000064910B50B884C885A1CC2F30802944285
:1045B00002D00C1D18550A8010BD00001C050020FB
:1045C00003490020488008800249486008807047FD
:1045D0001C05002038000020000000000000000042
:1045E0000102030406070809000000000102030499
:1045F000DDDDDDDDDCBBBBDDDDDDDDDDDDDDDDDD30
:10460000988888888888888877777777778888886F
:104610008555555666666666666666666668888807
:104620008333333222222222222222222228888D00
:10463000504600080000002068000000A641000865
:10464000B846000868000020B80A0000B64100081B
:10465000000000000000000000000000000000005A
:104660000000000001000000100000000000000039
:104670000024F40001000001000000000000000020
:10468000000000000000000000000000000000002A
:104690000100000000000000000000000000000019
:1046A000000000000000000000000000000000000A
:0846B0000500000000000000FD
:040000050800018965
:00000001FF
