:020000040800F2
:10000000F00A0020ED01000851510008054C0008DD
:100010004D510008A10800085961000800000000C7
:100020000000000000000000000000002D55000846
:10003000E108000800000000555100083155000893
:10004000070200080702000807020008070200086C
:10005000070200080702000807020008070200085C
:10006000070200080702000807020008A5080008A8
:10007000B1080008BD080008C9080008D508000834
:1000800007020008000000009D06000807020008A3
:10009000070200080702000807020008070200081C
:1000A000070200080702000807020008070200080C
:1000B0000702000849550008070200080702000867
:1000C00007020008070200080702000807020008EC
:1000D000070200084D610008070200080702000837
:1000E00007020008070200080702000807020008CC
:1000F00007020008070200080702000800000000CD
:1001000000000000070200080000000007020008CD
:1001100007020008000000000702000807020008AC
:10012000070200080702000807020008070200088B
:10013000070200080000000000000000070200089D
:10014000070200080702000800000000000000008D
:10015000000000000000000000000000000000009F
:10016000000000000000000000000000070200087E
:10017000070200080000000000000000000000006E
:10018000000000000702000800000000000000005E
:10019000000000000000000000000000000000005F
:1001A000000000000000000007020008070200082D
:1001B000070200080702000807020008000000000C
:1001C000000000000702000800000000000000001E
:1001D0000702000807020008DFF80CD000F046FA1A
:1001E0000048004725690008F00A002006488047BB
:1001F00006480047FEE7FEE7FEE7FEE7FEE7FEE70C
:10020000FEE7FEE7FEE7FEE735550008D9010008E6
:100210002DE9F05F0546002092469B46884606463B
:10022000814640241BE0284641464746224600F0CE
:1002300079F953465A46C01A914110D311461846CF
:10024000224600F060F92D1A67EB01084F4622465E
:100250000120002100F057F917EB00094E41201E44
:10026000A4F10104DFDC484631462A464346BDE896
:10027000F09FD2B201E000F8012B491EFBD270477B
:100280000022F6E710B513460A4604461946FFF762
:10029000F0FF204610BD2DE9FE4F81EA030404F073
:1002A000004421F0004100944FF0000B23F0004384
:1002B00050EA01045ED052EA03045BD0C3F30A544F
:1002C000C1F30A552C44A4F2F3340194A0FB025468
:1002D000C1F3130141F48011C3F3130343F48013FA
:1002E00001FB024400FB034E840A970A44EA81544E
:1002F00047EA8357A4FB076802958D0A05FB07852B
:100300004FEA932C04FB0C542705029D4FEA065834
:1003100047EA1637B5EB08056EEB070C870E920E11
:1003200047EA811742EA8312A7FB0201B6EB0B01F1
:1003300064EB00042B0D43EA0C335E1844EB1C50B5
:10034000DA465146E7FB0201C5F313044FEA0B33CB
:1003500043EA14534FEA0432019C43EA0603A4F132
:100360000C040294009CCDE900B400F031F903B014
:10037000BDE8F08F00200146F9E72DE9F04D81EA54
:10038000030404F0004B21F0004514464FF0000A2E
:1003900023F0004150EA050220D054EA01021DD0AA
:1003A000C5F30A570246C5F31303C1F31300C1F3A3
:1003B0000A5640F4801543F48013A7EB0608101B7F
:1003C000D64608F2FD3873EB050002D308F10108A8
:1003D00001E092185B41B8F1000F03DA00200146FA
:1003E000BDE8F08D00204FF48011064684460EE0F3
:1003F000171B73EB050705D3121B63EB05030643BD
:100400004CEA010C49084FEA300092185B4150EA6F
:100410000107EDD152EA030012D082EA040083EA18
:100420000501084305D0101BAB4106D20122002371
:1004300006E000224FF0004302E06FF0010253108B
:100440001AEB06004CEB085110EB0A0041EB0B01D4
:10045000BDE8F04D00F0ADB830B5041E71F10004F8
:1004600004DB4FF00044404264EB0101141E73F1C1
:10047000000405DB1C464FF00043524263EB0403CB
:10048000101A8B4101D2012030BD002030BD0EB5C5
:1004900040F2334102910021CDE900110A460B469A
:1004A00000F096F803B000BD00F0004230F00040CC
:1004B0000AD0C10D01F56071C0F3160042EA015186
:1004C000C20840071143704700200146704701F001
:1004D000004330B421F0004150EA010206D00A0D79
:1004E000A2F56072C1F31301002A02DC30BC0020C7
:1004F0007047440F44EAC104C100E01830BC00EB6F
:10050000C25000F01FB8202A04DB203A00FA02F1A2
:10051000002070479140C2F1200320FA03F31943F1
:1005200090407047202A04DB203A21FA02F0002193
:10053000704721FA02F3D040C2F1200291400843F3
:10054000194670470029A8BF7047401C490008BFE2
:1005500020F00100704710B4B0FA80FC00FA0CF0F3
:1005600050EA010404BF10BC704749B1CCF120042B
:1005700021FA04F411FA0CF118BF012121430843B8
:10058000A3EB0C01CB1D4FEA00614FEA102042BFE4
:10059000002010BC704700EBC35010440029A4BFDA
:1005A00010BC7047401C490008BF20F0010010BC7F
:1005B000704710B5141E73F1000408DA401C41F1B5
:1005C000000192185B411A4301D120F0010010BDD7
:1005D0002DE9F04D92469B4611B1B1FA81F202E04D
:1005E000B0FA80F220329046FFF78DFF04460F46A6
:1005F00040EA0A0041EA0B0153465A46084313D029
:10060000114653EA010019D0C8F140025046FFF7E5
:1006100089FF05460E46504659464246FFF773FF8E
:10062000084305D0012004E020463946BDE8F08D9E
:100630000020054346EAE0762C4337430A986305D9
:10064000E40AA0EB08000022FD0A44EA47540A30FD
:1006500002D500200146E9E7010510196941DDE9ED
:10066000084500196941BDE8F04DA2E71CB50948ED
:100670000090094801900546009C06E0E06840F0C3
:10068000010394E8070098471034AC42F6D3FFF713
:10069000A7FD0000587500087875000840F2280092
:1006A000C2F2000000F0F4BF0146806AC36DC26D63
:1006B00013F0500F08D0D20648BF00F0E7BF406DDE
:1006C000426B0846104700BF42F40071C1650168E3
:1006D0000B68CA681B0703D4910707D500F0D2BF87
:1006E00012F4406FFAD1C9688904F7D4C16D21F4BE
:1006F0008071C165C16DC90448BF00F0C3BFC16D41
:1007000041F00101C16500F0BDBF0000806AC16D0C
:1007100041F04001C165016E41F00401016600F045
:10072000B5BF0000806A00F0AFBF0000B0B501683F
:1007300004468A688868C0074FF0000031D012F084
:10074000020218BFB0BD886800F00D0001281FD15B
:1007500088684FF6C072C7F6FF721040023088609A
:100760000320086001F0ACFD21688968C90704BF57
:100770000020B0BD054602E08068C00712D001F03D
:100780009FFD411B20680329F6D38168C907F3D078
:10079000E06D40F01000E065206E40F00100206642
:1007A0000120B0BD0020B0BD70B582B0044600206D
:1007B000019021688A68D20711D14FF6C076C7F63A
:1007C000FF76886806F17F0210420BD0E06D40F0A2
:1007D0001000E065206E40F001002066012002B0AC
:1007E00070BD00BF8868304040F00100886040F272
:1007F0000830C5F200000068000221D401F060FD5D
:1008000021680A68D20717D1054602E00868C007C8
:1008100012D18868C00704D18868304040F00100D8
:10082000886001F04DFD401B21680328EED3086865
:10083000C007EBD1CAE700BF002002B070BD00BF07
:1008400040F20800C2F20000006842F663518009DD
:10085000C0F23E51A0FB0101880900EB40000C21D1
:1008600001EB8000019001980028C7D00198013861
:10087000019001980028C1D0019801380190019899
:100880000028BBD001980138019001980028B5D00C
:1008900001980138019001980028E7D1AEE70000E7
:1008A000FEE7000040F24020C2F2000001F0BEBAB4
:1008B00040F2A020C2F2000001F0B8BA40F2A40059
:1008C000C2F2000001F0B2BA40F2E010C2F2000041
:1008D00001F0ACBA40F28010C2F2000001F0A6BAFA
:1008E00070470000EFF3108072B600BFFEE7000013
:1008F000B0B582B004460020019094F85800012859
:1009000002D1022002B0B0BD012084F85800204678
:100910000D46FFF70BFFE16D10B141F010014BE008
:1009200041F2021291430231E16521684FF6C07332
:10093000D1F808C0C3F6FF7303EA0C0305F0804545
:100940004DF601622B44C0F2040203F100438B60B8
:100950008B68B3F1FF3F2BDC019B01330193019BBB
:1009600093421DD88B68B3F1FF3F21DC019B01331B
:100970000193019B934213D88B68B3F1FF3F17DCBF
:10098000019B01330193019B934209D88B68B3F11A
:10099000FF3F0DDC019B01330193019B9342D7D9AB
:1009A000E06D40F0100020F00201012004E000BFE3
:1009B000E16D012262F30101E165002184F8581024
:1009C00002B0B0BD704700002DE9F04181B00022B7
:1009D000009290F85820012A06D14FF0020C604690
:1009E00001B0BDE8F08100BF4269012380F85830B2
:1009F00012B10B6A012B21D14A68092A1AD10A685F
:100A00008B6A4FF4785606EA524223B1CE6A03F05D
:100A10007C0333431A43D0F8008044F20005D8F831
:100A20004C60C0F210452E401643C8F84C60426638
:100A30002EE000BFD0F800802AE000BF846E1CB119
:100A4000456E00220AE000BF8D6A5A1E25B1CE6AAB
:100A500005F07C052E43324300251C46D1E90036C3
:100A6000D0F8008006F01F06C3F38463B3401A4336
:100A7000661E42EA0502C0E9192609D1D8F84C6081
:100A800044F20005C0F210452E403243C8F84C2015
:100A9000D8F80820120714D4D8F80C2091F8256053
:100AA00091F8265022F440124FEA455516B12A43D8
:100AB00005E000BF91F8246042EA06522A43C8F8D4
:100AC0000C20D8F80820D8F8086002F0040206F0DC
:100AD0000806921916D18A6AC2B1CA6AB2B191F8EF
:100AE0002520012A1CD1C26D4FF0010C42F02002DA
:100AF000C26591F83060D8F81020012E1ED022F087
:100B0000020223E04FF0000CE9E000BF91F82560FD
:100B1000D8F80C20012E05D142F0007204E000BF8D
:100B2000D8F80C2022F000724FF0000CC8F80C200E
:100B300091F83060D8F81020012EE0D1D1E90D6590
:100B400022F4FF7232432A4342F00202C8F8102016
:100B50000D68042608F1140206EAD55EC5F3406666
:100B60008C6852F82660C5F304550727AF40B4F1EE
:100B7000004F26EA070605D142F80E60126842F0DF
:100B8000004206E0AC40344342F80E40126822F0C6
:100B90000042C8F81420D1E90425D8F80C60042AD2
:100BA00070D1D8F86020D8F860200C68C2F3846651
:100BB00094FAA4F52246B5FA85F5C4F3846E6FF372
:100BC000DF422C46002A08BF7446A6424FF6FF7447
:100BD000C0F207040ED1D8F8602022F00042C8F815
:100BE00060200D6805EA0402C5F3846E95FAA5F548
:100BF000B5FA85F5D8F86460D8F86460002AC6F3C1
:100C000084662F4608BF7746BE420ED1D8F86420CE
:100C100022F00042C8F864200D6805EA0402C5F31A
:100C2000846E95FAA5F5B5FA85F5D8F86860D8F818
:100C30006860002AC6F384662F4608BF7746BE4226
:100C40000ED1D8F8682022F00042C8F868200D685C
:100C500005EA040295FAA5F4C5F3846EB4FA84F5A6
:100C6000D8F86C40D8F86C40002AC4F3846408BFFC
:100C70007546AC4233D1D8F86C2022F00042C8F857
:100C80006C202CE0062707EA960705FA07FE0E6897
:100C900008F1600555F822404FF20007C0F2FF3717
:100CA00006F0F8463C404EEA0607274347F0004767
:100CB00045F822700A698F6955F8226026F080761F
:100CC000374345F822700A690F7F55F82260012FDB
:100CD00026F0007608BF06F1007645F82260D8F8C5
:100CE00008200D68D2074ED1CF684FF6FF73D8F8B1
:100CF000B0602A4607F01804C0F207036FF3DF4222
:100D0000E34096432B4033430026C4F27F06B742AC
:100D1000C8F8B03037D18AB195FAA5F2B2FA82F2AA
:100D2000013202F01E03092B02F01F020FD801232B
:100D3000934002EB420243EA025214E0012202EB2A
:100D4000956202F01E030A2B02F01F02EFD301236B
:100D50000027934002EB4202CFF6206707EB0252D6
:100D60001A4342F00072C2F3406708EB87078B68B2
:100D70007E69C2F3045207259540AE4303FA02F29E
:100D800032437A610D680021C8F208010D4216D085
:100D900040F20831C5F200010C680022CCF2213289
:100DA000954204F0E07204D01023C9F2C0039D42C2
:100DB0000CD1B8F1A04F08BF14F4000316D00021E5
:100DC00080F85810604601B0BDE8F0810023CCF2F5
:100DD00052739D4242D10023B3EB126F3ED1A1F575
:100DE00002739845EBD04FF0807345E00B6823F019
:100DF000E0731A4342F400020A6040F20801C2F2B2
:100E00000001096842F663528909C0F23E52A1FB13
:100E10000212910901EB4101182202EB81010091BC
:100E200000990029CBD000BF0099013900910099A9
:100E30000029C4D000990139009100990029BED041
:100E400000990139009100990029B8D00099013921
:100E5000009100990029E7D1B1E700BFA1F5027325
:100E60009845ACD00023CCF684339D4208BF14F4DF
:100E70008003A4D14FF480030F6827F0E0773B4351
:100E80001A430A609BE700002DE9F04381B02DED85
:100E9000088B006840F20011C5F20001884240F062
:100EA0002F8140F21807C2F200077868B0F5806F12
:100EB00022DA013007F1100478602046092100F0A1
:100EC0006DF900EE100A97ED021AB8EE400A31EE05
:100ED000000A204640F20F1187ED020A00F05EF989
:100EE00000EE100A97ED031AB8EE400A31EE000A40
:100EF00087ED030A28E000BF26D1012097ED020A02
:100F00009FEDA11A97ED032A387040F201407860F6
:100F100040F2004020EE010A22EE011AC4F6000061
:100F20000121012287ED020A87ED031A01F0C2F9BF
:100F30004FF090400221012201F0BCF94FF09040A7
:100F40000421012201F0B6F93878012840F0D88058
:100F500007F110042046092100F020F9054620463B
:100F600040F20F1100F01AF900EE105A97ED021A34
:100F7000B8EE400A9FED858A30EE410A80EE080AFD
:100F8000064697ED039A10EE100AFFF78DFA9FEDD3
:100F9000780B54EC105B2A462346FFF77CF9FFF7E9
:100FA00096FA00EE106AB8EE400A30EE490A80EE7A
:100FB000080A064610EE100AFFF776FA2A4623467C
:100FC000FFF769F9FFF783FA80463046FFF76CFABE
:100FD0009FED690B55EC106B32462B46FFF7CDF9B0
:100FE0009FED670B57EC104B22463B46FFF7C5F9C8
:100FF000FFF76DFA40F2B449C2F20009C9F80000E7
:101000004046FFF751FA32462B46FFF7B6F9224623
:101010003B46FFF7B2F9FFF75AFA40F2B841C2F285
:101020000001086099ED009A91ED000A99ED001A0F
:101030009FED582A30EE010A9FED551A40F27C14BC
:1010400040F2E845C2F20004C2F2000520EE010AB7
:1010500029EE021A94ED002A95ED003A31EE00BA1D
:1010600032EE430AB1EE0CAA20EE0A0A05F0DEF8D1
:1010700094ED001A95ED002AB0EE408A31EE420A56
:1010800020EE0A0A05F06AF82BEE081A29EE002A6B
:1010900040F2AC4632EE011A29EE082AC2F20006EE
:1010A0009FED3D9A2BEE000AD6ED000A30EE428A03
:1010B000B0EE410AB0EE491A03F0A6FD86ED000A33
:1010C00040F2B046C2F20006D6ED000AB0EE480A81
:1010D000B0EE491A03F098FD40F2904086ED000A08
:1010E000C2F2000001780139032925D8DFE801F0B8
:1010F00002200E1690ED010A05F00AFA1CE000BF6E
:10110000BDEC088B01B0BDE8F08300BF90ED030A91
:10111000D0ED040A05F098FB0EE000BF90ED010A47
:10112000D0ED050A90ED061A05F052FA04E000BF72
:1011300090ED020A05F046FB206840F20C01C2F275
:101140000001086094ED000A95ED001A40F2FC30B1
:1011500030EE410A20EE0A0AC2F200000C2281EDB4
:10116000010ABDEC088B01B0BDE8F04303F0D2BC2E
:101170006666666666660A407B14AE47E17A743F2F
:1011800000000000000024400000803A00F07F458D
:101190003ACD93BF3ACD133FCDCCCC3D006840F261
:1011A0000F12914210D040F21B32914208D040F20F
:1011B0001522914214BF802188214058704700BFFA
:1011C0008C214058704700BF842140587047000070
:1011D0007047000070B540F20015C5F20005D5F863
:1011E000084201688A68120744BF022070BDCA68BD
:1011F000C96C11F4C07F07D1002A05D4C16D41F03C
:101200002001C165012070BD90F85810012904BF6C
:10121000022070BD012180F858100646FFF7C4FA7D
:1012200020B1002186F8581070BD00BFF16D304626
:10123000C90546BF016E21F0080100210166C16D9C
:1012400043F20102914301F58051C165016804F048
:101250001F0CA94202D1BCF1000F03D1C36D23F4CE
:101260008013C36560230B60002380F85830CB687F
:101270009B0203D54B6843F480634B6083694E68DF
:101280006FF04002082B08BF6FF0200202EA06024E
:101290004A604A684FF0200308BF40231A43A9421E
:1012A0004A600DD1BCF1000F0AD004F01E02062ADC
:1012B00006D0C16D41F48011C165002070BD00BF32
:1012C000C868800144BF002070BD88684FF6C072B6
:1012D000C7F6FF72104008308860002070BD000023
:1012E0007047000070470000F0B581B00022009206
:1012F00090F85820012A03D10221084601B0F0BD20
:101300000123076880F85830BB685B0734D4D1E903
:1013100000351F26C5F3012407EB8404226B05F07A
:101320001F05AE40C3F38463B243AB401A4322634C
:10133000BA68BB6802F0040203F00803D21840F058
:10134000BC800A6807F114030426C2F34064D1F894
:1013500008E006EAD25C53F82440C2F304550722A1
:10136000AA40BEF1004F24EA02040BD143F80C401E
:101370001A6842F000430DE0C16D41F02001C165E3
:10138000012178E10EFA05F2224343F80C201A6895
:1013900022F000437B61D1E90435FC68042B5FD166
:1013A0003A6E3A6E0B68C2F3846293FAA3F6C3F303
:1013B000846C6FF3DF43B6FA86F5002B2C464FF6AC
:1013C000FF7E08BF6446A242C0F2070E0CD13A6EFF
:1013D00022F000423A660A6802EA0E03C2F3846C05
:1013E00092FAA2F2B2FA82F57A6E7A6E002BC2F30A
:1013F00084622C4608BF6446A2420CD17A6E22F069
:1014000000427A660A6802EA0E03C2F3846C92FA1A
:10141000A2F2B2FA82F5BA6EBA6E002BC2F38462FF
:101420002C4608BF6446A2420CD1BA6E22F000429C
:10143000BA660A6802EA0E03C2F3846C92FAA2F258
:10144000B2FA82F5FA6EFA6E002BC2F3846208BF1C
:101450006546AA4231D1FA6E22F00042FA662CE0CB
:10146000062202EA940205FA02FC0E6807F1600502
:1014700055F823404FF20002C0F2FF3206F0F84662
:10148000224046EA0C06324342F0004245F823204F
:101490000A698B6955F8226026F08076334345F857
:1014A00022300A690B7F55F82260012B26F0007666
:1014B00008BF06F1007645F82260BA680D68D207C9
:1014C00050D1CA68D7F8B0602B466FF3DF4326EAE5
:1014D000030C4FF6FF7602F01804C0F20706E64050
:1014E00000242E40C4F27F0446EA0C06A242C7F84C
:1014F000B06037D193B195FAA5F2B2FA82F2013217
:1015000002F01E03092B02F01F0310D801229A409B
:1015100003EB430342EA035315E000BF012202EB51
:10152000956202F01E030A2B02F01F03EED3012284
:1015300000269A4003EB4303CFF6206606EB0353E5
:101540001A4342F00073C3F3406607EB86068A68CD
:101550007569C3F3045307249C40A5439A402A436A
:1015600072610D680021C8F208010D4200F082800E
:1015700040F2083CC5F2000CDCF800400021CCF23F
:1015800021318D4204F0E07E04D01021C9F2C00167
:101590008D4241D1B7F1A04F4FF0000108BF14F4C4
:1015A000000268D1DCF8001042F6635221F0E071CD
:1015B00041EA0E0141F40001CCF8001040F20801AC
:1015C000C2F200010968C0F23E528909A1FB021271
:1015D000910901EB41010C2202EB8101009100997C
:1015E000002947D00099013900910099002941D084
:1015F0000099013900910099E1B3009901390091F6
:101600000099B9B3009901390091009900294FF070
:101610000001E7D12FE000BF0021CCF252718D42D2
:1016200010D10021B1EB1E6F0CD1ACF502718F42CD
:1016300020D0DCF8001021F0E07141EA0E0141F009
:10164000807115E0ACF502718F424FF0000112D0AD
:101650000022CCF68432954208BF14F480020AD1ED
:10166000DCF8001021F0E07141EA0E0141F4800144
:10167000CCF800100021002280F85820084601B064
:10168000F0BD000070470000704700007047000088
:101690002DE9F047016840F20018C5F200080E6815
:1016A0004D68D8F808A20446B0070FD515F002001F
:1016B0000CD0E06DC00603D4E06D40F40060E0653E
:1016C0002046FFF77FF921680220086070070AF0C2
:1016D0001F0902D515F0040004D1300750D515F0CC
:1016E00008004DD0204650F85C2FD20603D4026883
:1016F00042F400720260CA6812F4406F3AD1A9F154
:101700000507B9FA89F3B7FA87F75B097F093B4305
:10171000A9F10907B7FA87F77F0941450A4643EA65
:10172000070308BF4FF0A042DB07134618BF0B4664
:101730008A4208BF1346DA6892041BD40A6812076B
:1017400018D58A6852070BD44A6822F00C024A6006
:10175000016821F4807101600168C90406D509E0BF
:10176000E06D40F01000E06504F16000016841F0B8
:10177000010101602046FFF785FF21680C20086009
:10178000B00602D515F0200004D170062AD515F058
:10179000400027D0204650F85C2FD20603D40268C0
:1017A00042F40052026041450B460AF01E02CF6C23
:1017B000D1F80CC008BF4FF0A043062A1A4608BF54
:1017C0000A46B9F1000F08BF0A468B4208BF1A4605
:1017D000D36817F4C07F6BD02046FFF755FB216814
:1017E0006020086030060CD515F0800009D0E06D4F
:1017F00040F48030E065204600F0A0F921688020A8
:101800000860F0050DD515F480700AD0E06D40F445
:101810000030E0652046FFF763FD21684FF48070DB
:101820000860B0050DD515F400700AD0E06D40F4E5
:101830008020E0652046FFF755FD21684FF40070D9
:101840000860F0061AD515F0100017D0E06B38B11B
:10185000B9F1000F4ED0D8F8080210F4604F0BD049
:10186000E06D40F48060E065206E40F0020020668C
:101870002046FFF70BFF216810200860700558BF55
:10188000BDE8F08715F4806010D0E06D4FF4806201
:1018900040F48040E065206E40F00800206620465D
:1018A0000A60BDE8F047FFF793BC00BFBDE8F087D2
:1018B0009A0106D50CF4406203F40057D2197FF464
:1018C0008BAF0A6852067FF587AF13F400127FF4DE
:1018D00083AF8A68120711D44A6822F060024A6016
:1018E000016821F4805101600168C9053FF574AFBA
:1018F0000AE000BFC868C007B2D1BDE7E06D40F0A4
:101900001000E06504F16000016841F00101016030
:1019100062E70000B0B582B000210028019155D0E7
:10192000C16D39B9044600F00BF92046002121664B
:1019300084F858100268916889004FF6C071C5F6A6
:10194000FF7102D593680B4093609368DB002ED43F
:10195000936801F18051194041F08051916040F24B
:101960000801C2F20001096842F663538909C0F216
:101970003E53A1FB03139909022303EB410101919B
:101980000199A1B1019901390191019979B10199A7
:1019900001390191019951B10199013901910199DF
:1019A00029B101990139019101990029EAD1916880
:1019B000C90011D4C16D4FF0010E41F01001C16595
:1019C000016E41F00101016608E000BF4FF0010E19
:1019D000704602B0B0BD00BF4FF0000E9368C46DFA
:1019E00003F0040304F010041B19C36D68D123F441
:1019F00081730233C3659368DB071AD140F2083C58
:101A00004FF600544FF60063C5F2000CCFF6FF749A
:101A1000CFF6FF735CF804405CF803302343DB0728
:101A200007D14368DCF8004024F47C142343CCF84D
:101A30000030437FC46BD0E902C144EA4333194309
:101A400090F8243041EA0C01012B41EA034306D10E
:101A5000816A0024CFF6FE7404EB41410B43C46A53
:101A600024B1016B04F4787421430B43D16844F230
:101A70000704CFF6F07421401943D1601169436B1C
:101A800021F04061194311619168090743D490F82E
:101A90003810037F490041EA8331D36844F20204DD
:101AA000A3431943D160036914698BB144F48031B5
:101AB0001161D2F8C01043F6FF74A1430B4310E04C
:101AC00043F010024FF0010EC265704602B0B0BD87
:101AD00024F480311161D2F8C01043F6FF7321EA7B
:101AE0000303C2F8C03090F84010136901290FD1E8
:101AF00040F2FD7123EA010CD0E91134D0E913154D
:101B000043EA0C0323431943294341F0010301E055
:101B100023F0010313614169136B012923F00F03C3
:101B200002D1016A01390B431363C26D012161F3D4
:101B30000102C265704602B0B0BD000070470000EF
:101B4000F0B597B0044600201690CDE91400CDE919
:101B5000120001A804304021FEF792FB206840F2F9
:101B60000011C5F20001884202D017B0F0BD00BFDD
:101B70004FF4004001904FF00050109001A800F089
:101B8000E5FC002818BFFEF7ADFE41F24C00C4F2A0
:101B90000200016812AD41F40051016001680327A1
:101BA00001F40051009100990168002641F0010103
:101BB0000160016801F0010100910099016841F0A4
:101BC000020101600068294600F0020000900098C0
:101BD000502012904FF090401397149600F090FA16
:101BE0000420CDE9120740F20040C4F60000294667
:101BF000149600F085FA40F280155820C2F20005D4
:101C0000C4F20200242180224FF480734FF48067D5
:101C100085E843002846C5E90362C5E90537C5E9FB
:101C2000076600F059F9002818BFFEF75BFE122086
:101C3000002100226565AC6200F0BAFB122000F0C2
:101C4000A5FB17B0F0BD00002DE9F04140F20016F1
:101C5000C5F20006D6F808320768BF687F0703D4CC
:101C600090F85870012F03D10220BDE8F08100BF29
:101C700003F01F070123092F80F8583058D8BB40C4
:101C800040F221252B4253D00D4690460446FEF7E4
:101C90008BFD28B1002084F858000120BDE8F081B8
:101CA0002168E06D40F601739843224600F580708C
:101CB000E0650FB1B14203D0D06D20F48010D06543
:101CC000D06D40F2A967C0044FF0000044BF106E11
:101CD00020F006001066506D40F22576C0F6000731
:101CE000C0F6000640F20D740023C0F60004C0E9FF
:101CF0000B761C2744630F6082F858304B681446FB
:101D000043F010034B60CB682A4643F00103CB60DD
:101D10004031434600F06CF921684FF6C0738A6881
:101D2000C7F6FF731A4004328A60BDE8F08100BF35
:101D3000002180F858100120BDE8F081014690F89C
:101D40002500022828D180B50868D1E910CE8A6C18
:101D5000036823F00E030360136823F48073136099
:101D6000026822F0010202600EF01F00012202FA56
:101D700000F0CCF80400D1E913205060486D30B178
:101D8000026822F480720260D1E9160242600020EB
:101D9000BDE8804003E000BF0420C86301200122A9
:101DA00081F82520002281F82420704790F8251022
:101DB000022931D180B50168D0E910CE826C0B6860
:101DC00023F00E030B600B6823F001030B60116816
:101DD00021F4807111600EF01F02012101FA02F25C
:101DE000CCF80420D0E913325A60426D32B1136846
:101DF00023F480731360D0E91623536080F8251014
:101E0000826B002180F824100AB190470021BDE8C0
:101E100080400846704700BF0421C16301210022B1
:101E200080F8251080F8242008467047B0B5D0E926
:101E300010C30268DCF8001003F01F030424D2F87A
:101E400000E09C400C4218BF1EF0040520D1022483
:101E50009C400C4218BF1EF0020529D1D940090749
:101E600014D51EF0080108BFB0BD116821F00E01A5
:101E70001160012101FA03F2CCF80420C16380F85B
:101E80002510416B002280F8242069B9B0BD00BF45
:101E90001168890603D4116821F004011160CCF89F
:101EA0000440016B0029F1D0BDE8B040084700BFF5
:101EB0001168890606D4116821F00A011160012118
:101EC00080F82510CCF80440C16A0022002980F86F
:101ED0002420E9D1DAE7000000284FF0010100F0EA
:101EE00085802DE9F04740F2000CC4F2020C036833
:101EF0004FF6F8320CF5816ECBF6FD72734538BFA4
:101F000002F580624CF6CD441A44CCF6CC44A2FBD8
:101F1000042903F0FC02A2F10802A2FB04280CF53C
:101F200080646FF00305D0E902A607693CBF002476
:101F3000C4F2020405EA9905C0E91045022480F8BC
:101F400025401C6847F6F07224EA020232434669D3
:101F50003A4387693243C6693A43076A32433A4390
:101F600042EA0A021A600CF50262734538BF0CF5AA
:101F70000062AB180CF50862C264C8F3041201FADF
:101F800002F540F68401BAF5804FC4F20201836481
:101F9000056505D1002242601A600D6018E000BF9F
:101FA0004268D4B2013A032A4FF000021C600D606F
:101FB0000ED8631E01EB830747F87C2F03F01F0246
:101FC00001239340C1F8C030BC313A4602E000BF63
:101FD00000210023C0E9152100210122C365C1634E
:101FE00080F8252080F82410BDE8F04708467047A7
:101FF00090F824C0BCF1010F47D04FF0010C80F8DD
:1020000024C090F825C0BCF1010F3BD12DE9F0416F
:102010004FF0020C80F825C04FF0000CC0F83CC017
:10202000D0F800C000F14C0E9EE83040DCF80060B3
:10203000BEF1000F26F00106CCF8006065601CBF01
:10204000D0E916456560D0E91056012706F01F0655
:10205000846807FA06F6D0F830806E60CCF8043059
:102060000B46102C04BF13460A46CCF80830CCF8B7
:102070000C20DCF80010B8F1000F09D041F00E017F
:102080000EE000BF002180F824100220704700BF3E
:1020900021F00401CCF80010DCF8001041F00A0136
:1020A000CCF80010806C0168C90303D5016841F4C5
:1020B00080710160BEF1000F05D0DEF8000040F431
:1020C0008070CEF80000DCF8000040F00100CCF891
:1020D00000000020BDE8F081B0B5044600F0F0F843
:1020E000054640F20000C2F200004068611C18BFC3
:1020F000044400BF00F0E4F8401BA042FAD3B0BD96
:102100002DE9F04F83B00E68002E00F0CF8000F173
:10211000200241F2004C009200F13847C4F6000C56
:1021200006224FEAB725604508BF0522052D38BFB6
:102130004FEAB722002500274FF0000801920AE07D
:102140000E6808F1010836FA08F207F1020705F1F6
:10215000040500F0AB80012202FA08FE16EA0E091F
:10216000EED0D1F804C003220CF0030BABF1010652
:1021700002FA07F4012E6FEA040A11D88468CE68C7
:1021800004EA0A04BE4034438460446824EA0E062C
:10219000CCF3001404FA08F42643466006E000BFBE
:1021A000BBF1030F02D14FF0030B21E0C6688C682E
:1021B00006EA0A06BC402643BBF1020FC66017D1EF
:1021C0006FF00302009B02EA580605F01C020F2480
:1021D00053F806C004FA02FE0C692CEA0E0C04FA4D
:1021E00002F242EA0C029A51D1F804C00CF0030B3F
:1021F00002680BFA07F302EA0A021A431CF4403F92
:1022000002609DD041F26003C4F202031A6840F2FA
:10221000004E42F001021A601A68C4F2010E02F088
:1022200001020292029A28F003024FF6084C72440F
:10223000CFF6FF7C52F80C3005F00C060F24B440AA
:10224000A343019C04FA06F6334342F80C30DEF84F
:1022500008204B6842EA090640F20C4CDC0258BFE9
:1022600022EA0906CEF80860C4F2010CDCF800206E
:102270009C0242EA090658BF22EA0906CCF800602F
:10228000DEF804209C0342EA090658BF22EA090648
:10229000CEF80460DEF80020DB0342EA090658BFEE
:1022A00022EA0906CEF800604AE700BF03B0BDE8A5
:1022B000F08F00001823002A08BF2823C150704760
:1022C00040F2EC40C2F200000068704740F20000AB
:1022D00040F2EC41C2F20000C2F2000140680A681C
:1022E000104408607047000080B5032000F08CF8AF
:1022F0000F2000F009F800281CBF012080BD00F06D
:102300002BF8002080BD0000B0B540F20005C2F2FD
:1023100000056968F1B1044640F20800C2F200000D
:102320004FF47A720068B2FBF1F1B0FBF1F001F00A
:10233000C1F801460F2C4FF001000AD8002918BF40
:10234000B0BD4FF0FF302146002200F031F80020F0
:102350002C60B0BD0120B0BD82B041F25800C4F283
:102360000200816841F001018160816801F0010192
:1023700001910199016841F080510160006800F00D
:1023800080500090009802B000F0D6B8002848BFF6
:10239000704700F01F01012202FA01F11C2202EA3B
:1023A000D0004EF20012CEF20002815070470000C1
:1023B00010B54EF60C5CCEF2000CDCF80030C3F326
:1023C000022E8EF00704042C28BF0424BEF1030360
:1023D0004FF0FF3E0EFA04F438BF0023A1439940AA
:1023E0000EFA03F39A43114300F00F0200F1604329
:1023F0000901043A03F564436244002848BF02F12E
:102400000C03197010BD00004EF60C51CEF2000105
:102410000A684FF6FF031A4060F30A2242F0806018
:1024200040F0FD700860704747F21401C4F20001EB
:1024300051F8142CB0F5007F3CD0002874D1C86E40
:1024400002F4C06220F48070B2F5806FC8662FD1AC
:1024500051F8140C012262F34A2041F8140C40F2A6
:102460000800C2F200000068322250434DF6836239
:10247000C4F21B32A0FB0202900C00BF0A68520596
:1024800011D5421C0FD00A6852050CD558B10A6804
:10249000520508D5012806D00A68520503D502283E
:1024A000A0F10400EAD10868400544BF032070474A
:1024B00000207047C86E02F4C06240F48070B2F52C
:1024C000806FC866F4D151F8140C012262F34A20DF
:1024D00041F8140C40F20800C2F2000000683222F9
:1024E00050434DF68362C4F21B32A0FB0202900CF3
:1024F0000A68520511D5421C0FD00A6852050CD546
:1025000058B10A68520508D5012806D00A68520554
:1025100003D50228A0F10400EAD10868400544BFB1
:1025200003207047C4E700BF022060F34A2241F84D
:10253000142C00207047000047F20800C4F200008D
:10254000016841F480410160704700002DE9F041CD
:1025500082B00446807841F288060007C4F2020681
:1025600002D400202FE000BF56F8300C5FEAC0080C
:102570000BD456F8300C40F0805046F8300C56F82A
:10258000300C00F080500190019847F20007C4F22F
:102590000007386840F480703860FFF791FE054608
:1025A0003868C00500F1D680FFF78AFE401B02287C
:1025B000F6D90320B8F1000F05D456F8301C21F0ED
:1025C000805146F8301C2168CA0713D18A0719D4F4
:1025D0004A071FD40A0725D48A062BD44A0631D4C9
:1025E0000A0637D4CA053DD48A0543D44A0549D4DE
:1025F00057E000BF3268636822F003021A4332607A
:102600008A07E5D53268A36822F00C021A433260CB
:102610004A07DFD53268E36822F030021A4332609D
:102620000A07D9D53268236922F0C0021A43326002
:102630008A06D3D53268636922F440621A43326055
:102640004A06CDD53268A36922F440521A4332605B
:102650000A06C7D53268E36922F440421A43326061
:10266000CA05C1D53268236A22F440321A43326067
:102670008A05BBD53268636A22F440221A4332606D
:102680004A050ED53268A36A22F440121A43B3F504
:10269000801F326005D156F87C2C42F4801246F837
:1026A0007C2C0A050ED53268E36A22F440021A43F4
:1026B000B3F5800F326005D156F87C2C42F48012BD
:1026C00046F87C2CCA040ED53268236B22F0407287
:1026D0001A43B3F1807F326005D156F87C2C42F466
:1026E000801246F87C2C8A040ED53268636B22F087
:1026F00040621A43B3F1006F326005D156F87C2C6A
:1027000042F4801246F87C2C4A040ED53268A36B42
:1027100022F040621A43B3F1006F326005D156F8DF
:102720007C2C42F4801246F87C2C09040ED53168CA
:10273000E26B21F040511143B2F1805F316005D16D
:1027400056F87C1C41F4803146F87C1C02B0BDE890
:10275000F08100BFB06810F4407010D0216C884246
:102760000BD0B068B16820F4407041F48031B160A2
:10277000B16821F48031B160B060C0070CD1B0689D
:10278000216C20F440700843B0600020B8F1000FC5
:102790003FF519AF11E700BFFFF792FD054641F283
:1027A000883700BFB0688007E9D4FFF789FD401B78
:1027B000B842F7D9FDE600002DE9F04700285BD0CC
:1027C00042F2000AC4F2020A0446DAF800000D469A
:1027D00000F00F0081420CD9DAF8000020F00F0061
:1027E0002843CAF80000DAF8000000F00F00A84201
:1027F00042D1216841F20808C807C4F2020803D197
:10280000880740F1C080A5E0606858F8082C0228CD
:1028100030D0032834D192012ED5D8F80420D8F82E
:10282000042042F20043C2F30312D8F804700132CC
:10283000C0F2F403B3FBF2F2C7F30623D8F8047036
:102840005A43C7F34163022707EB4303B2FBF3F29A
:102850004BF20043C0F2C4439A4251D9D8F8002049
:1028600012F0F00F41D089074AD5A168002947D15D
:102870003BE000BF910305D40120BDE8F08700BF15
:102880005105F9D5D8F8001001F00C01042937D012
:10289000D8F8001001F00C01082931D0D8F8001048
:1028A00001F00C010C292BD1D8F80410D8F8041031
:1028B00042F20042C1F30311D8F804300131C0F2F2
:1028C000F402B2FBF1F1C3F30622D8F8043051430D
:1028D000C3F34162022303EB4202B1FBF2F14BF27C
:1028E0000042C0F2C44291420AD9D8F8001008222E
:1028F00062F307114FF00109C8F8001002E000BFB1
:102900004FF00009D8F8001021F003010843C8F87F
:102910000000FFF7D5FC064641F28837D8F80000E2
:10292000616800F00C00B0EB810F07D0FFF7C8FC26
:10293000801BB842F2D90320BDE8F08721688807E0
:1029400008D4B9F1000F1ED0D8F8000020F0F00034
:1029500017E000BF480705D5D8F8000040F4E06054
:10296000C8F80000080706D5D8F80000072262F36F
:102970000D20C8F80000D8F80000A26820F0F00090
:102980001043C8F80000DAF8000000F00F0085429C
:102990001BD2DAF8000020F00F002843CAF800002C
:1029A000FFF78EFC064641F2883700BFDAF80000D8
:1029B00000F00F00A84207D0FFF782FC801BB8424E
:1029C000F4D90320BDE8F0872168480707D5D8F877
:1029D0000000E26820F4E0601043C8F80000080737
:1029E00008D5D8F80000216920F4605040EAC10001
:1029F000C8F80000D8F8000000F00C00042842F2EB
:102A00000040C0F2F40024D0D8F8001001F00C010E
:102A100008291ED0D8F8001001F00C010C2917D19C
:102A2000D8F80410D8F80410D8F80420C1F3031122
:102A30000131B0FBF1F0C2F30621D8F8042048437D
:102A4000C2F34161022202EB4101B0FBF1F000E070
:102A50000020D8F8001046F60452C1F30311C0F666
:102A60000002515C40F2080201F01F0120FA01F15E
:102A700040F20000C2F200000068C2F200021160E1
:102A8000BDE8F047FFF740BC40F2080041F2080102
:102A9000C2F20000C4F202010068096846F614524E
:102AA000C1F30221C0F60002515C01F01F01C840D1
:102AB0007047000040F2080041F20801C2F2000035
:102AC000C4F202010068096846F61452C1F3C2213B
:102AD000C0F60002515C01F01F01C84070470000C1
:102AE00041F20C01C4F2020151F8040C00F00C0098
:102AF000042842F20040C0F2F40008BF704751F8C9
:102B0000042C02F00C02082A1AD051F8042C02F00E
:102B10000C020C2A1CBF002070470A680A680B6868
:102B2000C2F303120132B0FBF2F00968C3F30622CC
:102B30005043C1F34161022202EB4101B0FBF1F0CD
:102B400070470000002804BF012070472DE9F041C4
:102B500082B00446007841F20006C007C4F20206C3
:102B60001ED1207880073DD42078000764D42078D7
:102B7000400700F187802078800600F1D980E56960
:102B8000002D00F04282B06800F00C000C2840F0EC
:102B90003181012D40F08E81012002B0BDE8F0812D
:102BA000B06800F00C01F068082961D0032281F0C0
:102BB0000C0122EA00000844B0FA80F0400957D125
:102BC00061683068B1F5803F07D0B1F5A02F40F0C3
:102BD000E38040F480203060306840F48030306022
:102BE000E4E000BFB068F16800F00C00042871D088
:102BF00001F0030180F00C0081F002010844B0FAFA
:102C000080F0400966D1E1683068002900F0E0807A
:102C100040F480703060FFF753FB05463068400594
:102C200000F10A81FFF74CFB401B0228F6D9032074
:102C300002B0BDE8F08100BF6169D6F894000029B8
:102C400000F0948040F00100C6F89400FFF738FBD4
:102C5000054600BFD6F8940080073FF588AFFFF720
:102C60002FFB401B0228F5D9032002B0BDE8F081FC
:102C7000306880037FF575AF606800287FF471AF1E
:102C80003EE000BFB06D5FEAC00808D4B06D40F010
:102C90008050B065B06D00F080500190019847F20F
:102CA0000007C4F200073868C0052DD4386840F426
:102CB00080703860FFF704FB054600BF3868C00528
:102CC00022D4FFF7FDFA401B0228F7D9032002B0F7
:102CD000BDE8F0813068400501D5E06880B17068DA
:102CE000216920F0FE4040EA0160706040F200007F
:102CF000C2F200000068FFF707FB00283FF434AF82
:102D0000012002B0BDE8F081A168D6F89000012949
:102D100008D0052940F0AE8040F00400C6F89000CD
:102D2000D6F8900040F00100C6F89000AEE000BF79
:102D3000A169D6F89800002900F0868040F00100D3
:102D4000C6F89800FFF7BCFA054600BFD6F8980011
:102D500080073FF514AFFFF7B3FA401B02284FF08E
:102D60000300F3D902B0BDE8F08100BF20F00100FC
:102D7000C6F89400FFF7A4FA054600BFD6F8940001
:102D800080077FF5F4AEFFF79BFA401B0228F5D9C8
:102D9000032002B0BDE8F08120F48030306030685C
:102DA000002920F48020306000F0BE80FFF788FA10
:102DB000054600BF306880033FF5D3AEFFF780FAC9
:102DC000401B6428F6D9032002B0BDE8F08100BFA3
:102DD00020F480703060FFF773FA054630684005D4
:102DE0007FF5C2AEFFF76CFA401B02284FF00300DC
:102DF000F4D9B7E7306820F080703060FFF760FAF0
:102E0000022D05460CD100BF3068800140F1B8802A
:102E1000FFF756FA401B02284FF00300F4D9A1E750
:102E20003068800140F1EA80FFF74AFA401B02282F
:102E30004FF00300F4D995E77068216920F0FE4057
:102E400040EA016070608FE620F00100C6F898004B
:102E5000FFF736FA054600BFD6F8980080077FF5E1
:102E60008EAEFFF72DFA401B02284FF00300F3D976
:102E700078E700BF20F00100C6F89000D6F8900077
:102E8000002920F00400C6F890005DD0FFF718FA82
:102E9000054641F2883700BFD6F89000800765D418
:102EA000FFF70EFA401BB842F6D9032002B0BDE886
:102EB000F08100BFF068216A00F003028A427FF4CB
:102EC0001FAF626A6FF00F0300F0F00103EB021214
:102ED00091427FF415AFA16A00F4FE42B2EB012FDC
:102EE0007FF40EAFE16A00F07842B2EBC16F7FF47D
:102EF00007AF226B0023CFF6E07303EA025200F41F
:102F0000C001A2F5001291427FF4FAAE616B4FF05E
:102F10007E4202EA016100F0C06001F17E41884218
:102F20007FF4EEAE71E000BFFFF7CAF9054600BFBF
:102F3000306880037FF515AEFFF7C2F9401B6428A7
:102F40004FF00300F4D90DE7FFF7BAF9054641F257
:102F5000883700BFD6F89000800707D5FFF7B0F993
:102F6000401BB8424FF00300F4D9FBE6B8F1000F64
:102F70003FF501AEB06D20F08050B065FBE500BFBD
:102F8000F06848F20C01C0F29F1104F1200700EA3A
:102F9000010C8ECF6FF00F00D4E90C5400EB02103F
:102FA0000022CFF6E07241EA0C0102EA0552084322
:102FB000A2F500124FF07E4540EA032005EA0465C1
:102FC000104305F17E4540EAC7602843F060306851
:102FD00040F080703060F06840F08070F060FFF783
:102FE0006FF90446306880010FD4FFF769F9001BC0
:102FF00002284FF00300F5D9B4E600BFF0684FF6A1
:10300000FC71CFF6EE610840F060002002B0BDE830
:10301000F081000070470000002804BF01207047C5
:10302000416A19B100210161142104E04168B1F540
:10303000827F02D01C2100224250B0B5002585625B
:1030400090F85D1029B980F85C50044600F056F8FD
:103050002046022180F85D100168D0F80CE00B6872
:10306000BEF5E06F23F040030B6098BF01254EF4DE
:103070000063B3F5706F4FEA053C1CBF0025856205
:10308000D0E90154D0E9043205F4827504F4044413
:103090002C4403F002032344846902F00102C56951
:1030A0001A4404F400731A4405F03803056A1A44FC
:1030B00005F08003856A1A4405F400531A430A6038
:1030C0000422436A0EF4706502EA1442446B45EA36
:1030D0000C0503F010032A4304F008041A432243AA
:1030E0004A60CA6922F40062CA61002101220166B5
:1030F00080F85D20BDE8B040084670472DE9F041FA
:1031000086B00446006843F20001C4F201010025C4
:103110008842CDE90455CDE90255019502D006B0AB
:10312000BDE8F08141F24C00C4F20200416940F276
:10313000300841F4805141614169C4F2020801F450
:10314000805100910099016841F00201016000681E
:1031500001A900F0020000900098382001900220A0
:10316000CDE902050520059040F20040C4F60000BC
:103170000495FEF7C5FF40F29406C2F20006304601
:1031800040F8108F0A218027C0E90115C0E90357D4
:10319000C0E90555C0E90755FEF79EFE002818BF97
:1031A000FDF7A0FB06F1100040F2E015A06508F164
:1031B0001400C2F200050B211022002385E88F00C5
:1031C0002846B463C5E90533C5E90733FEF784FE35
:1031D000002818BFFDF786FB6565AC6206B0BDE848
:1031E000F0810000704700007047000070B590F853
:1031F0005D50012D08D100294FF0010C18BF002AA5
:103200000ED1604670BD00BF4468B4F5827F0DD119
:10321000042D4FF0020CF4D18568002DEBD0F0E7BF
:10322000002BEED090F85C50012D01D1022070BD32
:10323000012580F85C5090F85D50042D1CBF0525D9
:1032400080F85D500025056681638387C38702642B
:10325000A0F84430A0F846300168C0E91355C468AE
:103260004D68B4F5E06F25F4C0454D604D6803D955
:1032700025F480534B6039E045F480554D60456D31
:10328000AD69B5F5806F11D14D68DB0706D125F426
:1032900080434B60C38F5B0807E000BF45F4804369
:1032A0004B60C38F012505EB5303C387836D9B6977
:1032B000B3F5806F1AD14B6823F480534B60B0F89C
:1032C00046504B68ED0707D123F400534B60B0F82C
:1032D00046305B0808E000BF43F400534B60B0F891
:1032E0004630012505EB5303A0F8463090F85D30D9
:1032F00045F2791545F28114C0F60005C0F60004C8
:10330000D0F858C0042B08BF2C4645F2891545F269
:103310005123C0F60005C0F6000308BF2B4645F256
:10332000591E00260CF12C05C0F6000E85E8184049
:10333000CCF83860B0F8463004460C316046FEF7F1
:1033400057FE38B1206E40F010002066012084F84E
:103350005C6070BD2568606D696805F10C0241F024
:1033600001016960C0E90B66C0E90D66A16BE38FDE
:10337000FEF73EFE40B1206E40F0100020660020B7
:1033800084F85C00012070BD20680168490603D400
:10339000016841F0400101604FF0000C84F85CC00E
:1033A000416841F020014160416841F00201416003
:1033B000604670BD00000000006843F20001C4F2E6
:1033C0000101884218BF7047F0B581B040F2940502
:1033D000C2F20005287840F200440121C4F600043E
:1033E00021EA0000287020464FF400710122FEF708
:1033F00061FF287800283DD1287AE97940002E79AC
:1034000040EA4120FDF743F89FED230B53EC102BCE
:10341000FCF741FF9FED220B53EC102BFCF73BFF19
:10342000FDF755F840F27C17C2F20007012E386014
:1034300002D195ED030A05E00120287197ED000AFD
:1034400085ED030A97ED001ADFED170A31EE400A09
:1034500002F034FF386840F2BC46E860C2F2000671
:1034600096ED001ADFED110A30EE010A02F026FF98
:1034700086ED000A20464FF400710022FEF71AFF85
:1034800040F20030691DEA1DC2F20000022301B0C3
:10349000BDE8F040FFF7AABE000000000000F03ECB
:1034A000112D4454FB210940DB0FC940E4CB964168
:1034B00070470000411E0020B0EB116F1CBF0120BF
:1034C00070474EF21002CEF2000251604EF62351C8
:1034D000CEF20001F0230B7007219060116070475D
:1034E00070470000704700007047000090F83C20D3
:1034F000012A04BF02207047B0B5D1E90232D1E9F8
:1035000000CE22F47C5223F4705343EA020448F2C2
:10351000FF73CEF6F0730EEA0302224303F5006454
:1035200004EA0C0442EA040C0C6903F5C052224080
:103530004C6942EA0C02224303F5605422400C6BB2
:1035400003F5F04323401A438B6940F2000CCC6929
:10355000CEF6FF7C0CEA034C1443026843F20043AE
:10356000C4F201039A4244EA0C0305D042F6004437
:10357000C4F20104A24217D14FF6FF74CDF60F44F6
:1035800003EA040ED1E9084CD1E90A310025CDF651
:10359000F04505EA035343EA0E0324F008552B4394
:1035A0002CF000552B430B430021536480F83C1052
:1035B0000020B0BD70470000704700007047000059
:1035C00090F83C20012A4FF002024AD070B580F8F2
:1035D0003D20026843F2004C54689368C4F2010C29
:1035E00042F6004E6245C4F2010E01D0724503D18D
:1035F0004D6824F470042C434FF68F75CFF6FF55B9
:103600000E682C4042F6FF35C4F201053443AA424D
:1036100054600FDCB2F1804F16D040F20046C4F285
:103620000006B24210D040F60006C4F20006B242D4
:103630000AD00EE0724507D044F20006C4F201063B
:10364000B24201D0624504D1896823F08003194356
:1036500091600121002280F83D1080F83C20BDE8F7
:10366000704010467047000070470000002804BFFB
:103670000120704710B5044690F83D0028B900209D
:1036800084F83C00204600F023F8022084F83D0036
:103690002068211D01F05EFF012084F8480084F8B5
:1036A0003E0084F83F0084F8400084F8410084F82C
:1036B000420084F8430084F8440084F8450084F80C
:1036C000460084F8470084F83D00002010BD00004B
:1036D00080B582B0006840F20041C4F20001884227
:1036E00014D042F60041C4F2010188420CD141F2EB
:1036F0005800C4F20200816841F400618160806872
:1037000000F400600190019802B080BD41F25800C1
:10371000C4F202000168002241F002010160006869
:10372000022100F00200009000981D20FEF740FEEC
:103730001D2002B0BDE88040FEF728BE90F83D1085
:1037400001291DD1022180F83D10016842F6FF32A7
:10375000C868C4F20102914240F00100C86011DC67
:10376000B1F1804F20D040F20040C4F2000081420D
:103770001AD040F60000C4F20000814214D020E0CC
:103780000120704742F60040C4F2010081420BD094
:1037900044F20000C4F20100814205D043F200402F
:1037A000C4F2010081420CD188680722C0F20102F4
:1037B0000240062A4FF00000E3D0B2F5803F08BF78
:1037C0007047086840F00100086000207047000062
:1037D00090F83C20012A4FF0020200F0AC8080B546
:1037E00080F83D20D0F800C08822DCF80830CFF601
:1037F000CE721A40CCF808200B686F2B10DD1F2208
:10380000C0F21002934237DCB3F5005F6EDA702B22
:1038100000F0B680B3F5805F00F08480D8E000BF90
:103820002F2B35DD4F2B39DC302B6FD0402B40F068
:10383000CF80D1F804E0C968DCF82030DCF8202023
:1038400022F00102CCF82020DCF8182022F0F0024F
:1038500042EA011123F00A0242EA0E02CCF81810E3
:10386000CCF82020DCF808104FF68872CFF6CF7223
:103870001140473154E000BF3F21C0F210018B429C
:103880003ADC2021C0F210018B423FD0302139E0D8
:10389000E3B3102B3AD0202B38D099E0502B4DD0E9
:1038A000602B40F09580D1F804E0C968DCF8203046
:1038B000DCF8202022F01002CCF82020DCF81820C0
:1038C00022F4704242EA013123F0A00242EA0E12D1
:1038D000CCF81810CCF82020DCF808104FF68872CD
:1038E000CFF6CF72114067311AE000BF5CD0B3F160
:1038F000101F0BD06CE000BF4021C0F210018B42C2
:1039000004D07021C0F210018B4261D1DCF80810A4
:103910004FF68872CFF6CF721140194341F007017C
:10392000CCF808100022012180F83D10002180F819
:103930003C10BDE880401046704700BFD1F804E05D
:10394000C968DCF82030DCF8202022F00102CCF835
:103950002020DCF8182022F0F00242EA011123F0C6
:103960000A0242EA0E02CCF81810CCF82020DCF84B
:1039700008104FF68872CFF6CF7211405731CFE75B
:10398000D1E901E3C968DCF8082043EA0E0322F418
:103990007F4243EA01211143CCF80810DCF80810FB
:1039A00041F07701BCE700BFD1E901E3C968DCF869
:1039B000082043EA0E0322F47F4243EA0121114327
:1039C000CCF80810DCF8081041F48041A8E700BFEB
:1039D0000122A8E770470000F0B581B004460068F6
:1039E000C5680669B10717D515F0020114D06FF04C
:1039F00002010161012121778069800704D02046FE
:103A0000FFF7E8FF06E000BF204600F0CBF82046B5
:103A100000F0E2FA00202077700719D515F00400B5
:103A200016D020686FF004010161022121778069BE
:103A300010F4407F04D02046FFF7CCFF06E000BF23
:103A4000204600F0AFF8204600F0C6FA00202077AC
:103A5000300717D515F0080014D020686FF0080162
:103A6000016104212177C069800703D02046FFF758
:103A7000B1FF05E0204600F095F8204600F0ACFAD2
:103A800000202077F00619D515F0100016D0206818
:103A90006FF01001016108212177C06910F4407FA7
:103AA00004D02046FFF796FF06E000BF204600F056
:103AB00079F8204600F090FA00202077F00718BF30
:103AC00015F0010006D020686FF001010161204669
:103AD00000F03AFB16F4025F05F0800718BF002FD4
:103AE00002D1F00509D410E020686FF402510161A1
:103AF0002046FFF7F7FCF00507D537B120686FF4D3
:103B0000807101612046FFF7EBFC700609D515F0C6
:103B1000400006D020686FF040010161204600F0AF
:103B20005FFBB00609D515F0200006D020686FF0C5
:103B3000200101612046FFF7D7FCF00209D515F4FA
:103B4000801006D020686FF4801101612046FFF7D5
:103B500033FDB00209D515F4001006D020686FF4CB
:103B6000001101612046FFF725FD700209D515F40B
:103B7000800006D020686FF4800101612046FFF7C5
:103B80001DFD30020CD515F4000009D021686FF43A
:103B9000000220460A6101B0BDE8F040FFF764BDB5
:103BA00001B0F0BD7047000090F83C30012B04BF1D
:103BB000022070474FEAB202052A00F2D3812DE9B4
:103BC000F041DFE812F0070035018D00E1005100FF
:103BD000870100BF03681D6A1A6AA3F1804622F0BC
:103BE00001021A621A465C6852F818CF8F68A6F56F
:103BF0009636D1F800E025F002054FEAB626072EEA
:103C000045EA07050AD80127B74017F0E50F1FBF9F
:103C1000CF6825F00C0527F004073D43072E0BD88D
:103C2000012707FA06F616F0E50F1FBFD1E9056771
:103C300024F4407434433C434FF68C76CFF6FE7642
:103C40000CEA060747EA0E075C609F614F68096946
:103C50005F631D629F6947F008079F619F6927F0B6
:103C600004079F6173E100BF0368D3F820C01A6A9C
:103C7000A3F1804722F480321A621A46A7F59637DC
:103C80005D6852F8508FD1F800E08E684FEAB72790
:103C9000072F09D80124BC4014F0E50F1EBF4C6962
:103CA00025F4803545EA04252CF4003747EA064719
:103CB0004FF68C76CFF6FE76033606EA080646EA1D
:103CC0000E065D601E654E6809699E641F621F6D69
:103CD00047F008071F651F6D27F004071F6536E1D1
:103CE000036843F200461D6A1A6AC4F2010622F410
:103CF00080721A621A46D3F804C052F81CEFB3421D
:103D00008E68D1F8008025F4007545EA062505D0B7
:103D100042F60046C4F20106B34207D1CE6840F233
:103D2000FF47360225F44065BE433543A3F1804684
:103D3000A6F596364FEAB626072E0CD8012707FAC5
:103D400006F616F0E50F1FBFD1E905672CF44054C5
:103D5000374344EA071C4FF68C74CFF6FE740EEA24
:103D6000040747EA0807C3F804C0DF614F68096920
:103D7000DF631D62DF6947F00807DF61DF6927F055
:103D80000407DF61E3E000BF036843F200461D6AF9
:103D90001A6AC4F2010622F480521A621A46D3F853
:103DA00004C052F81C8FB3428E68D1F800E025F4AD
:103DB000005545EA063505D042F60046C4F2010634
:103DC000B34207D1CE6844F6FF77360325F4404569
:103DD000BE433543A3F18046A6F596364FEAB62694
:103DE000072E0CD8012707FA06F616F0E50F1FBFBD
:103DF000D1E905672CF44044374344EA871C48F670
:103E0000FF44CFF6FF6404EA080444EA0E27C3F82F
:103E100004C0DF614F6809691F641D62DF6947F4F0
:103E20000067DF61DF6927F48067DF618EE000BF34
:103E3000036843F200461D6A1A6AC4F2010622F0C2
:103E400010021A621A465C6852F818CFB3428E68A4
:103E5000D1F800E025F0200545EA061505D042F628
:103E60000046C4F20106B34207D1CE686FF04007A6
:103E700025F0C00507EA06163543A3F18046A6F5EE
:103E800096364FEAB626072E0CD8012707FA06F613
:103E900016F0E50F1FBFD1E9056724F440643E43E7
:103EA00044EA860448F6FF46CFF6FF660CEA0607AA
:103EB00047EA0E275C609F614F6809699F631D6236
:103EC0009F6947F400679F619F6927F480679F613E
:103ED0003CE000BF0368D3F820C01A6AA3F1804712
:103EE00022F480121A621A46A7F596375D6852F8D6
:103EF000508FD1F800E08E684FEAB727072F09D816
:103F00000124BC4014F0E50F1EBF4C6925F4802548
:103F100045EA84252CF4001747EA065748F6FF4681
:103F2000CFF6FF6606F5407606EA080646EA0E2654
:103F30005D601E654E680969DE641F621F6D47F48F
:103F400000671F651F6D27F480671F6509021368EE
:103F5000194311600021BDE8F041002280F83C20A7
:103F6000084670470121002280F83C20084670472F
:103F7000002804BF0120704710B5044690F83D00AA
:103F800028B9002084F83C00204600F023F80220E5
:103F900084F83D002068211D01F0DCFA012084F83E
:103FA000480084F83E0084F83F0084F8400084F81C
:103FB000410084F8420084F8430084F8440084F807
:103FC000450084F8460084F8470084F83D0000204E
:103FD00010BD0000704700007047000080B5D9B1E7
:103FE0000B1F4FEAB30E43224FF03F0CBEF1040FFC
:103FF00038BF0CEBB302825C012A1CBF012080BDDC
:10400000BEF1030F1ED8DFE80EF00319111500BF33
:10401000022280F83F2018E090F83E20012A1CBFC1
:10402000012080BD022280F83E200EE0022280F8AE
:1040300041200AE0022280F8422006E0022280F8B5
:10404000402002E0022280F84320026801F01F01B4
:104050000120136A00FA01F18B431362136A0B43C8
:10406000A2F18041A1F596314FEAB12106291362F0
:1040700044D8884010F0650F40D0506C42F6FF31B4
:10408000C4F2010140F400408A42506410DCB2F1F5
:10409000804F1FD040F20040C4F20000824219D08D
:1040A00040F60000C4F20000824213D01FE000BFBF
:1040B00042F60040C4F2010082420BD044F20000FC
:1040C000C4F20100824205D043F20040C4F2010074
:1040D00082420CD190680721C0F2010101400629FB
:1040E0004FF0000008D0B1F5803F08BF80BD1068D8
:1040F00040F001001060002080BD00BF42F6FF309C
:10410000C4F201008242C2DD43F6FF70C4F2010036
:10411000824207DC42F60040C4F201008242D3D161
:10412000D8E700BF44F20000C4F201008242D1D0BF
:1041300044F60000C4F20100824202BF506C40F419
:1041400000405064D3E70000006840F20041C4F230
:104150000001884218BF7047B0B540F20414C2F2A3
:104160000004207840F27C150128C2F2000503D13A
:1041700094ED010A06E000BF0120207095ED000AD1
:1041800084ED010A95ED001ADFED120A31EE400AC6
:1041900002F094F828689FED101A606040F2C04465
:1041A000C2F20004D4ED000A20EE010A9FED0B1AC2
:1041B00000F02AFD40F2280040F27811C2F200001F
:1041C000C2F20001012284ED000ABDE8B040FDF713
:1041D0003BBD00BFDB0FC94000007A44CDCCCC3DD5
:1041E0007047000090F88410012904BF0220704736
:1041F0002421C0F8881001680A680B6822F0005278
:1042000023F001030B60002343660A602021C0F8FD
:10421000881080F88430002070470000704700004C
:104220007047000090F88420012A04BF02207047E4
:10423000B0B52422C0F888200268D0F864E0D2F833
:1042400000C01368BEF1000F23F0010313609368F0
:1042500023F0606341EA0301916019D0936891688B
:1042600046F6445E490FC0F6000E46F64C551EF861
:104270000140C0F60005695CC3F34263E400B4FB8F
:10428000F1F11EF80340EB5CE500B5FBF3F301E050
:1042900001210123A0F86A102021A0F86830C2F89B
:1042A00000C0C0F88810002180F884100020B0BD44
:1042B00090F88420012A04BF02207047B0B5242260
:1042C000C0F888200268D0F864E0D2F800C0136813
:1042D000BEF1000F23F001031360936823F06043E5
:1042E00041EA0301916019D09368916846F6445EF3
:1042F000490FC0F6000E46F64C551EF80140C0F6B8
:104300000005695CC3F34263E400B4FBF1F11EF8FD
:104310000340EB5CE500B5FBF3F301E00121012371
:10432000A0F86A102021A0F86830C2F800C0C0F8D8
:104330008810002180F884100020B0BD7047000074
:10434000704700007047000070B5026840F62F0407
:10435000D369116896681C40202C0BD101F0200411
:1043600006F080552D1916D0416F61B3BDE870403D
:10437000084700BF40F60F052B420CD00125C1F2C3
:10438000000506EA050C40F22015C0F200450D407C
:1043900015EB0C0524D1C46EDD0615D5012C13D107
:1043A00011F0100510D0102111629168490661D4F6
:1043B000B0F85C10B0F85E20B0F85E30002B18BF8B
:1043C000914240F0518270BDDD0215D516F4800592
:1043D00012D04FF480111162BDE87040FFF7B0BFFA
:1043E000DD0718BF11F4807540F020819D0706F0AD
:1043F000010E00F1278130E11A0606D501F0800296
:1044000006F40006921940F0AF825A0640F102818C
:1044100011F0400200F0FE80016851E8001F0268C0
:1044200021F0400142E80013DBB1016851E8001FB0
:10443000026821F0400142E8001393B1016851E89D
:10444000001F026821F0400142E800134BB10168EF
:1044500051E8001F026821F0400142E80013002BE0
:10446000DAD12021C0F8881000218167BDE87040B2
:1044700000F0C4BBD0F880100A685368B0F85C4004
:1044800099B2002900F0B880A14280F0B580A0F870
:104490005E301168890600F1A38000BF016851E811
:1044A000001F026821F4807142E80013E3B1016843
:1044B00051E8001F026821F4807142E800139BB1AB
:1044C000016851E8001F026821F4807142E800137E
:1044D00053B1016851E8001F026821F4807142E87D
:1044E0000013002BDAD100BF016851E8021F0268F7
:1044F00021F0010142E80213BBB3016851E8021F39
:10450000026821F0010142E8021373B3016851E827
:10451000021F026821F0010142E802132BB3016877
:1045200051E8021F026821F0010142E80213002B4A
:10453000DAD11AE0016851E8021F026821F0400157
:1045400042E80213DBB1016851E8021F026821F062
:10455000400142E8021393B1016851E8021F02686A
:1045600021F0400142E802134BB1016851E8021FFB
:10457000026821F0400142E80213002BDAD1202129
:10458000C0F88C100021C166016851E8001F026864
:1045900021F0100142E80013DBB1016851E8001F6F
:1045A000026821F0100142E8001393B1016851E85C
:1045B000001F026821F0100142E800134BB10168AE
:1045C00051E8001F026821F0100142E80013002B9F
:1045D000DAD1D0F8801004460846FDF7AFFB20463C
:1045E00002210167B0F85C10B0F85E20891A89B228
:1045F000BDE87040FFF712BE8C427FF4E4AE126853
:1046000092067FF5E0AE02220267BDE87040FFF738
:1046100005BE00BF1A0240F1B38111F0804200F0E4
:10462000AF81BDE87040FFF789BE00BF012515626C
:10463000D0F8905045F00105C0F890509D0706F065
:10464000010E0AD5BEF1000F07D002241462D0F883
:10465000904044F00404C0F890405C070AD5BEF1D5
:10466000000F07D004251562D0F8905045F00205E0
:10467000C0F890501D070CD501F0200555EA0C0537
:1046800007D008251562D0F8905045F00805C0F80D
:1046900090501D050BD511F0806508D04FF40065D2
:1046A0001562D0F8905045F02005C0F89050D0F831
:1046B0009050002D3FF487AE9B060BD501F02001F2
:1046C00006F08053C91805D0416F19B104468847D8
:1046D00022682046D0F89010926801F0280102F07C
:1046E0004002891806D10446FFF72CFE0020C4F8CA
:1046F000900070BD016851E8001F026821F49071BC
:1047000042E80013DBB1016851E8001F026821F4A0
:10471000907142E8001393B1016851E8001F0268EC
:1047200021F4907142E800134BB1016851E8001F79
:10473000026821F4907142E80013002BDAD14FF6A1
:10474000FE71CEF6FF7100BF026852E8022F0368C7
:104750000A4043E80226C6B1026852E8022F036805
:104760000A4043E8022686B1026852E8022F036835
:104770000A4043E8022646B1026852E8022F036865
:104780000A4043E80226002EDED1C16E012924D161
:10479000016851E8001F026821F0100142E800138F
:1047A000DBB1016851E8001F026821F0100142E806
:1047B000001393B1016851E8001F026821F0100155
:1047C00042E800134BB1016851E8001F026821F074
:1047D000100142E80013002BDAD12021C0F88C1020
:1047E0000021C166026841679168490640F1C480B2
:1047F000016851E8021F026821F0400142E80213FB
:10480000DBB1016851E8021F026821F0400142E873
:10481000021393B1016851E8021F026821F04001C0
:1048200042E802134BB1016851E8021F026821F00F
:10483000400142E80213002BDAD1D0F880100029A1
:1048400000F09A8045F6DD02C0F6000204460846F4
:104850008A63FDF7ABFA00283FF4B5ADD4F88000C9
:10486000816BBDE870400847891A00BF026852E8B2
:10487000002F036822F4907243E80026DEB102683C
:1048800052E8002F036822F4907243E8002696B1A4
:10489000026852E8002F036822F4907243E8002671
:1048A0004EB1026852E8002F036822F4907243E888
:1048B0000026002EDAD14FF6FE72CEF6FF7200BF50
:1048C000036853E8023F0668134046E80235C5B165
:1048D000036853E8023F0668134046E8023585B195
:1048E000036853E8023F0668134046E8023545B1C5
:1048F000036853E8023F0668134046E80235002D7E
:10490000DED12022C0F88C200022C266426700BFA0
:10491000026852E8002F036822F0100243E80026E4
:10492000DEB1026852E8002F036822F0100243E86B
:10493000002696B1026852E8002F036822F01002A8
:1049400043E800264EB1026852E8002F036822F0C7
:10495000100243E80026002EDAD1022289B2026753
:10496000BDE87040FFF75ABC816F00293FF42BADC2
:10497000BDE87040084700BFBDE87040FFF7E2BCEB
:10498000DA017FF520ADB1F1FF3FC8BF70BDBDE8D2
:104990007040FFF745BC000010B5D0B10446D0F818
:1049A000880028B9002084F88400204600F026F80A
:1049B0002420C4F888002068A16A026822F001025D
:1049C000026011B1204600F05FFE204601F0D6F8EB
:1049D00010B1012010BD00BF2168486820F490404C
:1049E0004860886820F02A008860086840F001026A
:1049F00020460A60BDE8104000F0BABE2DE9F04143
:104A000098B0044602A8002508303C211795CDE94E
:104A10001555CDE91355FBF733FC206843F600012B
:104A2000C4F20101884203D018B0BDE8F08100BF94
:104A30000120CDE9020502A8FDF788FD002818BF76
:104A4000FBF750FF41F24C00C4F20200416940F212
:104A5000080841F4804141614169002601F4804128
:104A6000019101990168C4F2020841F0020101605C
:104A7000006813A900F0020001900198C020139073
:104A8000022014900720179040F20040C4F6000066
:104A9000CDE91566FDF734FB40F24025C2F2000572
:104AA00018208027C5E900802846C5E90266C5E9C7
:104AB0000476C5E906662E62FDF70EFA002818BFD7
:104AC000FBF710FFC4F88050AC6240F2A02508F15B
:104AD0001400C2F200051921102285E8C7004FF426
:104AE000805028622846C5E90566EE61FDF7F4F9B5
:104AF000002818BFFBF7F6FE252002210022E567FB
:104B0000AC62FDF755FC2520FDF740FC18B0BDE870
:104B1000F0810000D0F88830202B09D1944600297C
:104B20004FF0010218BFBCF1000F05D110467047CD
:104B300002221046704700BFB0B500222123016554
:104B4000A0F854C0A0F856C0C0F89020C0F8883033
:104B5000C36F2BB345F6E905C0F6000545F6C5243D
:104B600045F6753E5D630568C0F60004C0F6000EAC
:104B7000C3E90B4E9A6305F12802044618466346C2
:104B8000FDF736FA0146204651B11021C0F89010C9
:104B90002021C0F888100122BDE8B04010467047BF
:104BA000016840220A6200BF016851E8021F0268E2
:104BB00041F0800142E80213DBB1016851E8021FB5
:104BC000026841F0800142E8021393B1016851E8A4
:104BD000021F026841F0800142E802134BB10168F4
:104BE00051E8021F026841F0800142E80213002BE5
:104BF000DAD10022BDE8B04010467047704700008F
:104C000070470000FEE70000B7EE002A32EE412AAE
:104C100020EE822A21EE000A30EE020A70470000E0
:104C200070B598B009A83C21FBF72AFB40F21805A3
:104C3000C2F2000540F20011C5F20001284600242E
:104C400040F8101F4FF4403101220426CDE90744FB
:104C5000CDE90544CDE90344CDE90144C0E901149F
:104C6000C0E90344C0E905268483026280F8244039
:104C7000C0E90B4480F83840C46380F84040FCF73A
:104C800049FE002818BFFBF72DFE0820C0F6904013
:104C9000099009200A9002200B907F210E94119018
:104CA000ADF848408DF84A4080208DF8544005F119
:104CB0001004CDE90C16CDE9130009A92046FBF735
:104CC00083FE002818BFFBF70DFE0020C4F25270CF
:104CD000099040F20F100A9009A92046FBF774FED4
:104CE000002818BFFBF7FEFD41F20000C3F2602070
:104CF00001900620029004207F210390CDE904104A
:104D00000020069001A92046FCF7EEFA002818BF03
:104D1000FBF7E8FD18B070BD80B582B041F24800E5
:104D2000C4F202000168002241F004010160016840
:104D300001F0040101910199016841F00101016054
:104D40000068002100F00100009000980B20FDF7A2
:104D50002FFB0B20FDF71AFB0C2000210022FDF792
:104D600027FB0C20FDF712FB0D2000210022FDF790
:104D70001FFB0D20FDF70AFB0E2000210022FDF78E
:104D800017FB0E20FDF702FB0F2000210022FDF78C
:104D90000FFB0F2002B0BDE88040FDF7F7BA00001E
:104DA0002DE9F04387B0002641F24C000696CDE98C
:104DB0000466CDE90266C4F202000168002241F0F7
:104DC000200101600168062501F02001019101998F
:104DD000016841F004010160016801F004010191E2
:104DE0000199016841F001010160016801F00101D0
:104DF00001910199016841F00201016000680621FA
:104E000000F00200019001984FF09040FDF752FA37
:104E100040F20049C4F6000948460121002201275A
:104E2000FDF748FA48464FF4007101224FF400782C
:104E3000FDF740FACDE9025702AD03244FF0904050
:104E4000294604960594FDF75BF948462946CDE9C5
:104E50000277CDE90464FDF753F948462946CDE9C8
:104E60000287CDE90466FDF74BF907B0BDE8F08392
:104E700070B540F2003043F20001C2F20000C4F20B
:104E800001014FF4827200234FF4E06C4FF0020EE8
:104E9000012480E80E5000F114014FF4007518262B
:104EA00070C10721C0E90833C0E90A31C0E90C33F9
:104EB000FEF7B2F8002808BF70BDBDE87040FBF7F0
:104EC00011BD00002DE9F041A2B001AC42F600484E
:104ED000002520463421C4F201081B95CDE919555F
:104EE000CDE91655CDE91455CDE91255CDE910554A
:104EF000CDE90E55FBF7C4F940F26430C2F2000070
:104F0000012160228026C0E9008100F1080141F200
:104F10009A030527ACC18661FEF7A8FB002818BFDD
:104F2000FBF7E0FC4FF48050189040F26430C2F27E
:104F3000000018A9FEF74CFC002818BFFBF7D2FCB4
:104F400040F26430C2F20000FFF712F8002818BFE8
:104F5000FBF7C8FC2020159040F264300025C2F217
:104F6000000015A9CDE91655FEF72AFB002818BF49
:104F7000FBF7B8FC7020CDE90E0540F26430C2F2B8
:104F800000000EA90022CDE91055CDE91255149567
:104F9000FEF70AFE002818BFFBF7A4FC40F26430BD
:104FA000C2F200000EA90422FEF7FEFD002818BF81
:104FB000FBF798FC40F26430C2F200000EA9082210
:104FC000FEF7F2FD002818BFFBF78CFC4FF4807051
:104FD0000027039004F10C002821CDE90177FBF7AD
:104FE0004FF940F26435C2F2000528462146FEF72B
:104FF0007DFA002818BFFBF775FC2868219740450B
:10500000CDE91F771E971D9702D022B0BDE8F08131
:1050100041F24C00C4F20200016841F00401016059
:105020000068002100F004001C901C9807201D90CF
:1050300002201E90219040F60000CDE91F11C4F619
:1050400000001DA9FDF75CF822B0BDE8F08100006A
:1050500080B588B040F2B03040F200420021C2F288
:105060000000C4F20002A9234FF47A7C0791CDE935
:1050700005110291C0E90023C0E9021C01618161B0
:10508000FEF7F4FA002818BFFBF72CFC4FF4805011
:10509000049040F2B030C2F2000004A9FEF798FB81
:1050A000002818BFFBF71EFC00200190039040F27F
:1050B000B030C2F2000001A9FEF782FA002818BF42
:1050C000FBF710FC08B080BD80B540F2FC3043F621
:1050D0000001C2F20000C4F2010100234FF00C0CE9
:1050E0004FF4612280E80E00C0E90333C0E905C334
:1050F000C0E90733C0E90933FFF74EFC002818BFA9
:10510000FBF7F0FB40F2FC30C2F200000021FFF799
:10511000CFF8002818BFFBF7E5FB40F2FC30C2F2E5
:1051200000000021FFF77EF8002818BFFBF7DAFB2C
:1051300040F2FC30C2F20000FFF754F8002808BF2C
:1051400080BDBDE88040FBF7CDBB0000FEE700005E
:10515000FEE7000070470000806A01684A6822F09C
:1051600003024A60016E41F010010166012180F8DE
:105170005D10FDF74FBF0000806AFEF735B80000F4
:10518000806AFEF795B90000B0B5846A0546FDF760
:1051900097F829680968890654D405462068A168EB
:1051A000034653F8042F22F020021A6041B96268C6
:1051B000B2F5827F04D16FF00302184610E000BF01
:1051C0001A6822F001021A606268B2F5827F0AD181
:1051D000B1F5004F6FF0400202D0B1F5806F02D1FF
:1051E000016811400160204664212A4600F036F92A
:1051F00030B1206E40F0200020662020206613E0B1
:105200006068B0F5827F0FD1A068B0F5004F02D082
:10521000B0F5806F08D120464FF4C06164222B4660
:1052200000F05CF80028E4D10020A4F8460001203A
:1052300084F85D00206E28B12046BDE8B040FDF73F
:10524000E9BE00BF2046BDE8B040FDF7CBBF00007F
:10525000B0B5846A0546FDF733F829680968890600
:1052600036D405462068642241682B4621F020018F
:10527000416020464FF4C05100F030F868B9204634
:1052800064212A4600F0EAF838B920464FF4C0619C
:1052900064222B4600F022F838B1206E40F0200046
:1052A0002066206E40F0200020662068416821F0D2
:1052B000030141600020E087A4F84600012084F843
:1052C0005D00206E20B12046BDE8B040FDF7A2BED3
:1052D0002046BDE8B040FEF76FB800002DE9F0476A
:1052E00082B000261F4690460D4681468DF8036029
:1052F000FCF7E6FF381A00EB0807FCF7E1FF40F285
:105300000801C2F20001096823225143090DD9F8AE
:10531000004079430191A168294235D0824618F1B5
:10532000010035D0B5F5C06F1AD100BF207B8DF8D4
:1053300003009DF80300FCF7C3FFA0EB0A00B8428E
:105340005ED2019801990028A1F101010191D9F8DB
:105350000010896808BF074611F4C06FE6D112E05B
:10536000FCF7AEFFA0EB0A00B84249D201980199C0
:105370000028A1F101010191D9F80010896808BF46
:1053800007462942ECD10026304602B0BDE8F0873E
:105390000026B5F5C06F25D1207B8DF803009DF860
:1053A0000300A06810F4C06FEDD0207B8DF80300DF
:1053B0009DF80300A06810F4C06FE4D0207B8DF846
:1053C00003009DF80300A06810F4C06FDBD0207BC1
:1053D0008DF803009DF80300A06810F4C06FDBD1C6
:1053E000D2E700BFA0682842CDD0A0682842CAD02A
:1053F000A0682842C7D0A0682842F3D1C4E700BF04
:10540000D9E900014268B1F5827F22F0E0024260F2
:105410000BD1D9F80810B1F5004F02D0B1F5806F6B
:1054200003D1016821F040010160D9F82810B1F5DD
:10543000005F07D1016821F400510160016841F467
:1054400000510160012089F85D00002089F85C00AE
:105450000326304602B0BDE8F0870000F0B581B009
:1054600015460E460446FCF72BFF281A8719FCF751
:1054700027FF40F20801C2F200010968C1F3CB31F5
:105480007943009121688A68120622D50546701C6E
:1054900015D000BFFCF714FF401BB8421CD2009887
:1054A00000990028A1F1010100912168896808BFD5
:1054B00007460806EED40CE08868000609D588681F
:1054C000000606D58868000644BF88685FEA006069
:1054D000F2D4002001B0F0BDD4E900014268B1F57A
:1054E000827F22F0E00242600AD1A168B1F5004F4C
:1054F00002D0B1F5806F03D1016821F04001016055
:10550000A16AB1F5005F07D1016821F40051016083
:10551000016841F400510160012084F85D00002021
:1055200084F85C00032001B0F0BD0000704700006B
:10553000FCF7CCBE4EF68850CEF20000016841F474
:10554000700101607047000040F2B030C2F200000C
:10555000FEF742BA40F2FF7C0268C4F2000C6045DC
:1055600024DD40F60003C4F20003984227D043F242
:105570000043C4F20103984221D042F60043C4F232
:10558000010398421BD043F2FF33C4F20103984257
:105590001FDC604530DCB0F1804F47D040F2004363
:1055A000C4F20003984241D044E000BFB0F1804F04
:1055B00005D040F20043C4F200039842E3D14B68A7
:1055C00022F070021A4343F2FF33C4F201039842FF
:1055D000DFDD44F2FF33C4F2010398421ADC43F2E8
:1055E0000043C4F20103984220D044F20003C4F205
:1055F000010398421AD01DE040F60003C4F20003F4
:10560000984213D042F60043C4F2010398420DD0F1
:1056100010E000BF44F60003C4F20103984205D035
:1056200044F20043C4F20103984203D1CB6822F450
:1056300040721A4380B54B6922F0800E8A6843EAB3
:105640000E03D1F800C00360C262A0F18042A2F54F
:1056500096324FEAB222072AC0F828C0BDE880403F
:1056600007D8012303FA02F212F0E50F1CBF096903
:105670000163012141610169C90708BF70470169E0
:1056800021F0010101617047816A0A070CD4CA0741
:1056900015D18A071ED44A0727D4CA0630D48A06F1
:1056A00039D44A0642D457E00268D0F838C053686B
:1056B00023F4004343EA0C035360CA07E9D00268AD
:1056C000D0F82CC0536823F4003343EA0C03536032
:1056D0008A07E0D50268D0F830C0536823F48033DD
:1056E00043EA0C0353604A07D7D50268D0F834C0A8
:1056F000536823F4802343EA0C035360CA06CED5D3
:105700000268D0F83CC0936823F4805343EA0C034A
:1057100093608A06C5D50268D0F840C0936823F428
:10572000005343EA0C0393604A0615D5D0F800C035
:10573000436CDCF80420B3F5801F22F4801242EAA7
:105740000302CCF8042007D1DCF80420836C22F497
:10575000C0021A43CCF80420090658BF70470168FC
:10576000C06C4A6822F40022104348607047000071
:10577000B0B582B004460020C4F89000FCF7A0FD4C
:10578000216805460A68120737D56FF07E4C20461F
:105790004FF4001100222B46CDF800C000F03AFB78
:1057A00050B300BF206850E8000F216820F080004F
:1057B00041E80002DAB1206850E8000F216820F0CB
:1057C000800041E8000292B1206850E8000F216893
:1057D00020F0800041E800024AB1206850E8000F44
:1057E000216820F0800041E80002002ADAD103207D
:1057F000202188226BE000BF2168086840075DD542
:105800006FF07E4C20464FF4800100222B46CDF8ED
:1058100000C000F0FFFA002850D000BF206850E818
:10582000000F216820F4907041E80002BAB32068AC
:1058300050E8000F216820F4907041E8000272B334
:10584000206850E8000F216820F4907041E80002C1
:105850002AB3206850E8000F216820F4907041E8D6
:105860000002002ADAD11AE0206850E8020F21680D
:1058700020F0010041E80202DAB1206850E8020F8E
:10588000216820F0010041E8020292B1206850E84E
:10589000020F216820F0010041E802024AB12068AD
:1058A00050E8020F216820F0010041E80202002ABE
:1058B000DAD1032020218C2209E000BF2020C4F887
:1058C0008800C4F88C00002170220020E166A150FD
:1058D000002184F8841002B0B0BD0000806A00216D
:1058E000A0F85E10FEF72EBD806A0268D0F88830FE
:1058F000D0F88CC09168090653D5212B51D10021D5
:10590000A0F85610016851E8001F026821F0C0019C
:1059100042E80013BBB3016851E8001F026821F0A0
:10592000C00142E8001373B3016851E8001F026828
:1059300021F0C00142E800132BB3016851E8001FB9
:10594000026821F0C00142E80013002BDAD11AE00E
:10595000016851E8021F026821F4000142E80213C5
:10596000DBB1016851E8021F026821F4000142E83E
:10597000021393B1016851E8021F026821F400018B
:1059800042E802134BB1016851E8021F026821F49A
:10599000000142E80213002BDAD12021C0F8881060
:1059A00002689168490640F18480BCF1220F40F002
:1059B00080800021A0F85E10016851E8001F026895
:1059C00021F4907142E80013DBB1016851E8001F37
:1059D000026821F4907142E8001393B1016851E824
:1059E000001F026821F4907142E800134BB1016876
:1059F00051E8001F026821F4907142E80013002B67
:105A0000DAD14FF6FE7CCEF6FF7C00BF026852E88A
:105A1000022F036802EA0C0243E80221D9B10168AF
:105A200051E8021F026801EA0C0142E8021393B137
:105A3000016851E8021F026801EA0C0142E8021302
:105A40004BB1016851E8021F026801EA0C0142E80B
:105A50000213002BDAD1C16E012924D1016851E86B
:105A6000001F026821F0100142E80013DBB1016859
:105A700051E8001F026821F0100142E8001393B1C1
:105A8000016851E8001F026821F0100142E800138C
:105A90004BB1016851E8001F026821F0100142E893
:105AA0000013002BDAD12021C0F88C100021C16630
:105AB0004167D0F8901041F01001C0F89010FEF747
:105AC00041BC00000168806A0968890648BFFFF789
:105AD00095B80021A0F85610016851E8021F02682D
